{
  "_format": "hh-sol-artifact-1",
  "contractName": "DeltaVerifier",
  "sourceName": "contracts/DeltaVerifier.sol",
  "abi": [
    {
      "inputs": [
        {
          "internalType": "address",
          "name": "_modelRegistry",
          "type": "address"
        },
        {
          "internalType": "address",
          "name": "_tokenManager",
          "type": "address"
        },
        {
          "internalType": "uint256",
          "name": "_baseRewardRate",
          "type": "uint256"
        },
        {
          "internalType": "uint256",
          "name": "_minImprovementBps",
          "type": "uint256"
        },
        {
          "internalType": "uint256",
          "name": "_maxReward",
          "type": "uint256"
        }
      ],
      "stateMutability": "nonpayable",
      "type": "constructor"
    },
    {
      "anonymous": false,
      "inputs": [
        {
          "indexed": true,
          "internalType": "uint256",
          "name": "modelId",
          "type": "uint256"
        },
        {
          "indexed": false,
          "internalType": "address[]",
          "name": "contributors",
          "type": "address[]"
        },
        {
          "indexed": false,
          "internalType": "uint256[]",
          "name": "amounts",
          "type": "uint256[]"
        },
        {
          "indexed": false,
          "internalType": "uint256",
          "name": "totalAmount",
          "type": "uint256"
        }
      ],
      "name": "BatchRewardsDistributed",
      "type": "event"
    },
    {
      "anonymous": false,
      "inputs": [
        {
          "indexed": true,
          "internalType": "string",
          "name": "pipelineRunId",
          "type": "string"
        },
        {
          "indexed": true,
          "internalType": "uint256",
          "name": "modelId",
          "type": "uint256"
        }
      ],
      "name": "EvaluationSubmitted",
      "type": "event"
    },
    {
      "anonymous": false,
      "inputs": [
        {
          "indexed": true,
          "internalType": "address",
          "name": "previousOwner",
          "type": "address"
        },
        {
          "indexed": true,
          "internalType": "address",
          "name": "newOwner",
          "type": "address"
        }
      ],
      "name": "OwnershipTransferred",
      "type": "event"
    },
    {
      "anonymous": false,
      "inputs": [
        {
          "indexed": false,
          "internalType": "address",
          "name": "account",
          "type": "address"
        }
      ],
      "name": "Paused",
      "type": "event"
    },
    {
      "anonymous": false,
      "inputs": [
        {
          "indexed": true,
          "internalType": "address",
          "name": "contributor",
          "type": "address"
        },
        {
          "indexed": false,
          "internalType": "uint256",
          "name": "deltaInBps",
          "type": "uint256"
        },
        {
          "indexed": false,
          "internalType": "uint256",
          "name": "rewardAmount",
          "type": "uint256"
        }
      ],
      "name": "RewardCalculated",
      "type": "event"
    },
    {
      "anonymous": false,
      "inputs": [
        {
          "indexed": false,
          "internalType": "uint256",
          "name": "baseRewardRate",
          "type": "uint256"
        },
        {
          "indexed": false,
          "internalType": "uint256",
          "name": "minImprovementBps",
          "type": "uint256"
        },
        {
          "indexed": false,
          "internalType": "uint256",
          "name": "maxReward",
          "type": "uint256"
        }
      ],
      "name": "RewardParametersUpdated",
      "type": "event"
    },
    {
      "anonymous": false,
      "inputs": [
        {
          "indexed": false,
          "internalType": "address",
          "name": "account",
          "type": "address"
        }
      ],
      "name": "Unpaused",
      "type": "event"
    },
    {
      "inputs": [],
      "name": "baseRewardRate",
      "outputs": [
        {
          "internalType": "uint256",
          "name": "",
          "type": "uint256"
        }
      ],
      "stateMutability": "view",
      "type": "function"
    },
    {
      "inputs": [
        {
          "components": [
            {
              "internalType": "uint256",
              "name": "accuracy",
              "type": "uint256"
            },
            {
              "internalType": "uint256",
              "name": "precision",
              "type": "uint256"
            },
            {
              "internalType": "uint256",
              "name": "recall",
              "type": "uint256"
            },
            {
              "internalType": "uint256",
              "name": "f1",
              "type": "uint256"
            },
            {
              "internalType": "uint256",
              "name": "auroc",
              "type": "uint256"
            }
          ],
          "internalType": "struct DeltaVerifier.Metrics",
          "name": "baseline",
          "type": "tuple"
        },
        {
          "components": [
            {
              "internalType": "uint256",
              "name": "accuracy",
              "type": "uint256"
            },
            {
              "internalType": "uint256",
              "name": "precision",
              "type": "uint256"
            },
            {
              "internalType": "uint256",
              "name": "recall",
              "type": "uint256"
            },
            {
              "internalType": "uint256",
              "name": "f1",
              "type": "uint256"
            },
            {
              "internalType": "uint256",
              "name": "auroc",
              "type": "uint256"
            }
          ],
          "internalType": "struct DeltaVerifier.Metrics",
          "name": "newMetrics",
          "type": "tuple"
        }
      ],
      "name": "calculateDeltaOne",
      "outputs": [
        {
          "internalType": "uint256",
          "name": "",
          "type": "uint256"
        }
      ],
      "stateMutability": "pure",
      "type": "function"
    },
    {
      "inputs": [
        {
          "internalType": "uint256",
          "name": "deltaInBps",
          "type": "uint256"
        },
        {
          "internalType": "uint256",
          "name": "contributorWeight",
          "type": "uint256"
        },
        {
          "internalType": "uint256",
          "name": "contributedSamples",
          "type": "uint256"
        }
      ],
      "name": "calculateReward",
      "outputs": [
        {
          "internalType": "uint256",
          "name": "",
          "type": "uint256"
        }
      ],
      "stateMutability": "view",
      "type": "function"
    },
    {
      "inputs": [
        {
          "internalType": "string",
          "name": "modelId",
          "type": "string"
        },
        {
          "internalType": "uint256",
          "name": "deltaInBps",
          "type": "uint256"
        },
        {
          "internalType": "uint256",
          "name": "contributorWeight",
          "type": "uint256"
        },
        {
          "internalType": "uint256",
          "name": "contributedSamples",
          "type": "uint256"
        }
      ],
      "name": "calculateRewardDynamic",
      "outputs": [
        {
          "internalType": "uint256",
          "name": "",
          "type": "uint256"
        }
      ],
      "stateMutability": "view",
      "type": "function"
    },
    {
      "inputs": [],
      "name": "maxReward",
      "outputs": [
        {
          "internalType": "uint256",
          "name": "",
          "type": "uint256"
        }
      ],
      "stateMutability": "view",
      "type": "function"
    },
    {
      "inputs": [],
      "name": "minImprovementBps",
      "outputs": [
        {
          "internalType": "uint256",
          "name": "",
          "type": "uint256"
        }
      ],
      "stateMutability": "view",
      "type": "function"
    },
    {
      "inputs": [],
      "name": "modelRegistry",
      "outputs": [
        {
          "internalType": "contract ModelRegistry",
          "name": "",
          "type": "address"
        }
      ],
      "stateMutability": "view",
      "type": "function"
    },
    {
      "inputs": [],
      "name": "owner",
      "outputs": [
        {
          "internalType": "address",
          "name": "",
          "type": "address"
        }
      ],
      "stateMutability": "view",
      "type": "function"
    },
    {
      "inputs": [],
      "name": "pause",
      "outputs": [],
      "stateMutability": "nonpayable",
      "type": "function"
    },
    {
      "inputs": [],
      "name": "paused",
      "outputs": [
        {
          "internalType": "bool",
          "name": "",
          "type": "bool"
        }
      ],
      "stateMutability": "view",
      "type": "function"
    },
    {
      "inputs": [],
      "name": "renounceOwnership",
      "outputs": [],
      "stateMutability": "nonpayable",
      "type": "function"
    },
    {
      "inputs": [
        {
          "internalType": "uint256",
          "name": "_baseRewardRate",
          "type": "uint256"
        }
      ],
      "name": "setBaseRewardRate",
      "outputs": [],
      "stateMutability": "nonpayable",
      "type": "function"
    },
    {
      "inputs": [
        {
          "internalType": "uint256",
          "name": "_maxReward",
          "type": "uint256"
        }
      ],
      "name": "setMaxReward",
      "outputs": [],
      "stateMutability": "nonpayable",
      "type": "function"
    },
    {
      "inputs": [
        {
          "internalType": "uint256",
          "name": "_minImprovementBps",
          "type": "uint256"
        }
      ],
      "name": "setMinImprovementBps",
      "outputs": [],
      "stateMutability": "nonpayable",
      "type": "function"
    },
    {
      "inputs": [
        {
          "internalType": "uint256",
          "name": "modelId",
          "type": "uint256"
        },
        {
          "components": [
            {
              "internalType": "string",
              "name": "pipelineRunId",
              "type": "string"
            },
            {
              "components": [
                {
                  "internalType": "uint256",
                  "name": "accuracy",
                  "type": "uint256"
                },
                {
                  "internalType": "uint256",
                  "name": "precision",
                  "type": "uint256"
                },
                {
                  "internalType": "uint256",
                  "name": "recall",
                  "type": "uint256"
                },
                {
                  "internalType": "uint256",
                  "name": "f1",
                  "type": "uint256"
                },
                {
                  "internalType": "uint256",
                  "name": "auroc",
                  "type": "uint256"
                }
              ],
              "internalType": "struct DeltaVerifier.Metrics",
              "name": "baselineMetrics",
              "type": "tuple"
            },
            {
              "components": [
                {
                  "internalType": "uint256",
                  "name": "accuracy",
                  "type": "uint256"
                },
                {
                  "internalType": "uint256",
                  "name": "precision",
                  "type": "uint256"
                },
                {
                  "internalType": "uint256",
                  "name": "recall",
                  "type": "uint256"
                },
                {
                  "internalType": "uint256",
                  "name": "f1",
                  "type": "uint256"
                },
                {
                  "internalType": "uint256",
                  "name": "auroc",
                  "type": "uint256"
                }
              ],
              "internalType": "struct DeltaVerifier.Metrics",
              "name": "newMetrics",
              "type": "tuple"
            },
            {
              "internalType": "address",
              "name": "contributor",
              "type": "address"
            },
            {
              "internalType": "uint256",
              "name": "contributorWeight",
              "type": "uint256"
            },
            {
              "internalType": "uint256",
              "name": "contributedSamples",
              "type": "uint256"
            },
            {
              "internalType": "uint256",
              "name": "totalSamples",
              "type": "uint256"
            }
          ],
          "internalType": "struct DeltaVerifier.EvaluationData",
          "name": "data",
          "type": "tuple"
        }
      ],
      "name": "submitEvaluation",
      "outputs": [
        {
          "internalType": "uint256",
          "name": "",
          "type": "uint256"
        }
      ],
      "stateMutability": "nonpayable",
      "type": "function"
    },
    {
      "inputs": [
        {
          "internalType": "uint256",
          "name": "modelId",
          "type": "uint256"
        },
        {
          "components": [
            {
              "internalType": "string",
              "name": "pipelineRunId",
              "type": "string"
            },
            {
              "components": [
                {
                  "internalType": "uint256",
                  "name": "accuracy",
                  "type": "uint256"
                },
                {
                  "internalType": "uint256",
                  "name": "precision",
                  "type": "uint256"
                },
                {
                  "internalType": "uint256",
                  "name": "recall",
                  "type": "uint256"
                },
                {
                  "internalType": "uint256",
                  "name": "f1",
                  "type": "uint256"
                },
                {
                  "internalType": "uint256",
                  "name": "auroc",
                  "type": "uint256"
                }
              ],
              "internalType": "struct DeltaVerifier.Metrics",
              "name": "baselineMetrics",
              "type": "tuple"
            },
            {
              "components": [
                {
                  "internalType": "uint256",
                  "name": "accuracy",
                  "type": "uint256"
                },
                {
                  "internalType": "uint256",
                  "name": "precision",
                  "type": "uint256"
                },
                {
                  "internalType": "uint256",
                  "name": "recall",
                  "type": "uint256"
                },
                {
                  "internalType": "uint256",
                  "name": "f1",
                  "type": "uint256"
                },
                {
                  "internalType": "uint256",
                  "name": "auroc",
                  "type": "uint256"
                }
              ],
              "internalType": "struct DeltaVerifier.Metrics",
              "name": "newMetrics",
              "type": "tuple"
            },
            {
              "components": [
                {
                  "internalType": "address",
                  "name": "walletAddress",
                  "type": "address"
                },
                {
                  "internalType": "uint256",
                  "name": "contributorWeight",
                  "type": "uint256"
                },
                {
                  "internalType": "uint256",
                  "name": "contributedSamples",
                  "type": "uint256"
                },
                {
                  "internalType": "uint256",
                  "name": "totalSamples",
                  "type": "uint256"
                }
              ],
              "internalType": "struct DeltaVerifier.ContributorInfo",
              "name": "contributorInfo",
              "type": "tuple"
            }
          ],
          "internalType": "struct DeltaVerifier.EvaluationDataWithInfo",
          "name": "data",
          "type": "tuple"
        }
      ],
      "name": "submitEvaluationWithContributorInfo",
      "outputs": [
        {
          "internalType": "uint256",
          "name": "",
          "type": "uint256"
        }
      ],
      "stateMutability": "nonpayable",
      "type": "function"
    },
    {
      "inputs": [
        {
          "internalType": "uint256",
          "name": "modelId",
          "type": "uint256"
        },
        {
          "components": [
            {
              "internalType": "string",
              "name": "pipelineRunId",
              "type": "string"
            },
            {
              "components": [
                {
                  "internalType": "uint256",
                  "name": "accuracy",
                  "type": "uint256"
                },
                {
                  "internalType": "uint256",
                  "name": "precision",
                  "type": "uint256"
                },
                {
                  "internalType": "uint256",
                  "name": "recall",
                  "type": "uint256"
                },
                {
                  "internalType": "uint256",
                  "name": "f1",
                  "type": "uint256"
                },
                {
                  "internalType": "uint256",
                  "name": "auroc",
                  "type": "uint256"
                }
              ],
              "internalType": "struct DeltaVerifier.Metrics",
              "name": "baselineMetrics",
              "type": "tuple"
            },
            {
              "components": [
                {
                  "internalType": "uint256",
                  "name": "accuracy",
                  "type": "uint256"
                },
                {
                  "internalType": "uint256",
                  "name": "precision",
                  "type": "uint256"
                },
                {
                  "internalType": "uint256",
                  "name": "recall",
                  "type": "uint256"
                },
                {
                  "internalType": "uint256",
                  "name": "f1",
                  "type": "uint256"
                },
                {
                  "internalType": "uint256",
                  "name": "auroc",
                  "type": "uint256"
                }
              ],
              "internalType": "struct DeltaVerifier.Metrics",
              "name": "newMetrics",
              "type": "tuple"
            }
          ],
          "internalType": "struct DeltaVerifier.EvaluationDataBase",
          "name": "data",
          "type": "tuple"
        },
        {
          "components": [
            {
              "internalType": "address",
              "name": "walletAddress",
              "type": "address"
            },
            {
              "internalType": "uint256",
              "name": "weight",
              "type": "uint256"
            }
          ],
          "internalType": "struct DeltaVerifier.Contributor[]",
          "name": "contributors",
          "type": "tuple[]"
        }
      ],
      "name": "submitEvaluationWithMultipleContributors",
      "outputs": [
        {
          "internalType": "uint256",
          "name": "",
          "type": "uint256"
        }
      ],
      "stateMutability": "nonpayable",
      "type": "function"
    },
    {
      "inputs": [],
      "name": "tokenManager",
      "outputs": [
        {
          "internalType": "contract TokenManager",
          "name": "",
          "type": "address"
        }
      ],
      "stateMutability": "view",
      "type": "function"
    },
    {
      "inputs": [
        {
          "internalType": "address",
          "name": "newOwner",
          "type": "address"
        }
      ],
      "name": "transferOwnership",
      "outputs": [],
      "stateMutability": "nonpayable",
      "type": "function"
    },
    {
      "inputs": [],
      "name": "unpause",
      "outputs": [],
      "stateMutability": "nonpayable",
      "type": "function"
    }
  ],
  "bytecode": "0x60c06040523480156200001157600080fd5b506040516200248638038062002486833981016040819052620000349162000239565b6200003f33620001cc565b600180556002805460ff191690556001600160a01b038516620000a95760405162461bcd60e51b815260206004820152601660248201527f496e76616c6964206d6f64656c2072656769737472790000000000000000000060448201526064015b60405180910390fd5b6001600160a01b038416620001015760405162461bcd60e51b815260206004820152601560248201527f496e76616c696420746f6b656e206d616e6167657200000000000000000000006044820152606401620000a0565b60008311620001535760405162461bcd60e51b815260206004820152601360248201527f496e76616c6964207265776172642072617465000000000000000000000000006044820152606401620000a0565b60008211620001a55760405162461bcd60e51b815260206004820152601760248201527f496e76616c6964206d696e20696d70726f76656d656e740000000000000000006044820152606401620000a0565b6001600160a01b039485166080529290931660a0526003556004919091556005556200028c565b600080546001600160a01b038381166001600160a01b0319831681178455604051919092169283917f8be0079c531659141344cd1fd0a4f28419497f9722a3daafe3b4186f6b6457e09190a35050565b80516001600160a01b03811681146200023457600080fd5b919050565b600080600080600060a086880312156200025257600080fd5b6200025d866200021c565b94506200026d602087016200021c565b6040870151606088015160809098015196999198509695945092505050565b60805160a0516121aa620002dc6000396000818161014b01528181610b5c01528181610c9a01526114ba01526000818161018f01528181610344015281816105b70152610ed001526121aa6000f3fe608060405234801561001057600080fd5b506004361061012c5760003560e01c8063715018a6116100ad578063a8e62b9711610071578063a8e62b9714610279578063afbf34401461028c578063f0a9abe714610295578063f2f667cb146102a8578063f2fde38b146102b157600080fd5b8063715018a614610232578063743d04fa1461023a5780638456cb591461024d5780638725ac51146102555780638da5cb5b1461026857600080fd5b80633f4ba83a116100f45780633f4ba83a146101e557806350857950146101ed57806350a5ae5e146102005780635c975abb1461021357806366a78e6c1461022957600080fd5b806325c33e13146101315780632a709b14146101465780632ba36f781461018a5780632da79639146101b15780633295eff0146101d2575b600080fd5b61014461013f3660046119fb565b6102c4565b005b61016d7f000000000000000000000000000000000000000000000000000000000000000081565b6040516001600160a01b0390911681526020015b60405180910390f35b61016d7f000000000000000000000000000000000000000000000000000000000000000081565b6101c46101bf366004611a2d565b61031c565b604051908152602001610181565b6101c46101e0366004611a74565b61058f565b610144610c83565b6101c46101fb366004611be7565b610c95565b6101c461020e366004611a2d565b610ea8565b60025460ff166040519015158152602001610181565b6101c460055481565b610144610f7c565b6101c4610248366004611cab565b610f8e565b61014461103d565b6101446102633660046119fb565b61104d565b6000546001600160a01b031661016d565b6101c4610287366004611ce1565b6110eb565b6101c460035481565b6101446102a33660046119fb565b611143565b6101c460045481565b6101446102bf366004611d32565b6111d8565b6102cc611251565b600581905560035460045460408051928352602083019190915281018290527f9ddb79ef2dfcf719d2378c10c25ab769e26c3a6874121d6d65aac014cdf365e9906060015b60405180910390a150565b60006103266112ab565b61032e611304565b604051630af34d3160e31b8152600481018490527f00000000000000000000000000000000000000000000000000000000000000006001600160a01b03169063579a698890602401602060405180830381865afa158015610393573d6000803e3d6000fd5b505050506040513d601f19601f820116820180604052508101906103b79190611d4f565b6103dc5760405162461bcd60e51b81526004016103d390611d71565b60405180910390fd5b60006103f061018084016101608501611d32565b6001600160a01b03160361043f5760405162461bcd60e51b8152602060048201526016602482015275496e76616c69642077616c6c6574206164647265737360501b60448201526064016103d3565b61046261045461018084016101608501611d32565b6001600160a01b0316151590565b6104ae5760405162461bcd60e51b815260206004820152601d60248201527f496e76616c69642077616c6c6574206164647265737320666f726d617400000060448201526064016103d3565b6040805160e08101909152600090806104c78580611d9f565b8080601f01602080910402602001604051908101604052809392919081815260200183838082843760009201919091525050509082525060209081019061051690368790038701908701611ded565b815260200161052d36869003860160c08701611ded565b815260200161054461018086016101608701611d32565b6001600160a01b0316815261018085013560208201526101a085013560408201526101c0850135606090910152905061057d848261134a565b91505061058960018055565b92915050565b60006105996112ab565b6105a1611304565b604051630af34d3160e31b8152600481018690527f00000000000000000000000000000000000000000000000000000000000000006001600160a01b03169063579a698890602401602060405180830381865afa158015610606573d6000803e3d6000fd5b505050506040513d601f19601f8201168201806040525081019061062a9190611d4f565b6106465760405162461bcd60e51b81526004016103d390611d71565b816106935760405162461bcd60e51b815260206004820152601860248201527f4e6f20636f6e7472696275746f72732070726f7669646564000000000000000060448201526064016103d3565b60648211156106e45760405162461bcd60e51b815260206004820152601860248201527f42617463682073697a652065786365656473206c696d6974000000000000000060448201526064016103d3565b6000808367ffffffffffffffff81111561070057610700611b1b565b604051908082528060200260200182016040528015610729578160200160208202803683370190505b50905060008467ffffffffffffffff81111561074757610747611b1b565b604051908082528060200260200182016040528015610770578160200160208202803683370190505b50905060005b858110156109c257600087878381811061079257610792611e09565b6107a89260206040909202019081019150611d32565b6001600160a01b0316036107f75760405162461bcd60e51b8152602060048201526016602482015275496e76616c69642077616c6c6574206164647265737360501b60448201526064016103d3565b61082287878381811061080c5761080c611e09565b6104549260206040909202019081019150611d32565b61086e5760405162461bcd60e51b815260206004820152601d60248201527f496e76616c69642077616c6c6574206164647265737320666f726d617400000060448201526064016103d3565b60005b8181101561092c5783818151811061088b5761088b611e09565b60200260200101516001600160a01b03168888848181106108ae576108ae611e09565b6108c49260206040909202019081019150611d32565b6001600160a01b03160361091a5760405162461bcd60e51b815260206004820152601d60248201527f4475706c696361746520636f6e7472696275746f72206164647265737300000060448201526064016103d3565b8061092481611e35565b915050610871565b5086868281811061093f5761093f611e09565b6109559260206040909202019081019150611d32565b83828151811061096757610967611e09565b60200260200101906001600160a01b031690816001600160a01b03168152505086868281811061099957610999611e09565b90506040020160200135846109ae9190611e4e565b9350806109ba81611e35565b915050610776565b508261271014610a145760405162461bcd60e51b815260206004820152601860248201527f57656967687473206d7573742073756d20746f2031303025000000000000000060448201526064016103d3565b6000610a3d610a2b368a90038a0160208b01611ded565b610248368b90038b0160c08c01611ded565b90506000610a4a8a61154f565b90506000610a5d82846127106000610c95565b90508015610c22576000805b89811015610b595760006127108c8c84818110610a8857610a88611e09565b9050604002016020013585610a9d9190611e61565b610aa79190611e8e565b905080878381518110610abc57610abc611e09565b6020908102919091010152610ad18184611e4e565b92508b8b83818110610ae557610ae5611e09565b610afb9260206040909202019081019150611d32565b6001600160a01b03167f23cb7dc0579e23905f2f88d85bd8fbee2e15f35d236f8b32a54a4ae6e82949738783604051610b3e929190918252602082015260400190565b60405180910390a25080610b5181611e35565b915050610a69565b507f00000000000000000000000000000000000000000000000000000000000000006001600160a01b031663d755b286610b928e61154f565b88886040518463ffffffff1660e01b8152600401610bb293929190611f66565b600060405180830381600087803b158015610bcc57600080fd5b505af1158015610be0573d6000803e3d6000fd5b505050508b7f379eb16b5a0469dd3188be06c54cea67019459aea34bb7222bac67a2ddf15e29878784604051610c1893929190611fa9565b60405180910390a2505b8a610c2d8b80611d9f565b604051610c3b929190611fdf565b604051908190038120907f0c40893bf3c4e890eb5c92353d4cea2a7f4e1e60667d2e04ce77813b07f64ee490600090a395505050505050610c7b60018055565b949350505050565b610c8b611251565b610c93611650565b565b6000807f00000000000000000000000000000000000000000000000000000000000000006001600160a01b031663c4091236876040518263ffffffff1660e01b8152600401610ce49190611fef565b602060405180830381865afa158015610d01573d6000803e3d6000fd5b505050506040513d601f19601f82011682018060405250810190610d259190612002565b90506001600160a01b038116610d7d5760405162461bcd60e51b815260206004820152601960248201527f546f6b656e206e6f7420666f756e6420666f72206d6f64656c0000000000000060448201526064016103d3565b60008190506000816001600160a01b031663cff0ab966040518163ffffffff1660e01b8152600401602060405180830381865afa158015610dc2573d6000803e3d6000fd5b505050506040513d601f19601f82011682018060405250810190610de69190612002565b90506000816001600160a01b0316634c8bc3e56040518163ffffffff1660e01b8152600401602060405180830381865afa158015610e28573d6000803e3d6000fd5b505050506040513d601f19601f82011682018060405250810190610e4c919061201f565b9050600454881015610e65576000945050505050610c7b565b6000620f424088610e76848c611e61565b610e809190611e61565b610e8a9190611e8e565b9050600554811115610e9b57506005545b9998505050505050505050565b6000610eb26112ab565b610eba611304565b604051630af34d3160e31b8152600481018490527f00000000000000000000000000000000000000000000000000000000000000006001600160a01b03169063579a698890602401602060405180830381865afa158015610f1f573d6000803e3d6000fd5b505050506040513d601f19601f82011682018060405250810190610f439190611d4f565b610f5f5760405162461bcd60e51b81526004016103d390611d71565b610f7183610f6c84612038565b61134a565b905061058960018055565b610f84611251565b610c9360006116a2565b8151815160009182918291610fa2916116f2565b610fac9083611e4e565b9150610fc0856020015185602001516116f2565b610fca9083611e4e565b9150610fde856040015185604001516116f2565b610fe89083611e4e565b9150610ffc856060015185606001516116f2565b6110069083611e4e565b915061101a856080015185608001516116f2565b6110249083611e4e565b9150600590506110348183611e8e565b95945050505050565b611045611251565b610c9361174c565b611055611251565b600081116110a55760405162461bcd60e51b815260206004820152601760248201527f496e76616c6964206d696e20696d70726f76656d656e7400000000000000000060448201526064016103d3565b600481905560035460055460408051928352602083018490528201527f9ddb79ef2dfcf719d2378c10c25ab769e26c3a6874121d6d65aac014cdf365e990606001610311565b60006004548410156110ff5750600061113c565b6000620f424084600354876111149190611e61565b61111e9190611e61565b6111289190611e8e565b905060055481111561113957506005545b90505b9392505050565b61114b611251565b600081116111915760405162461bcd60e51b8152602060048201526013602482015272496e76616c696420726577617264207261746560681b60448201526064016103d3565b60038190556004546005546040805184815260208101939093528201527f9ddb79ef2dfcf719d2378c10c25ab769e26c3a6874121d6d65aac014cdf365e990606001610311565b6111e0611251565b6001600160a01b0381166112455760405162461bcd60e51b815260206004820152602660248201527f4f776e61626c653a206e6577206f776e657220697320746865207a65726f206160448201526564647265737360d01b60648201526084016103d3565b61124e816116a2565b50565b6000546001600160a01b03163314610c935760405162461bcd60e51b815260206004820181905260248201527f4f776e61626c653a2063616c6c6572206973206e6f7420746865206f776e657260448201526064016103d3565b6002600154036112fd5760405162461bcd60e51b815260206004820152601f60248201527f5265656e7472616e637947756172643a207265656e7472616e742063616c6c0060448201526064016103d3565b6002600155565b60025460ff1615610c935760405162461bcd60e51b815260206004820152601060248201526f14185d5cd8589b194e881c185d5cd95960821b60448201526064016103d3565b600061135582611789565b60608201516001600160a01b031660009081526006602052604090205461137f90610e1090611e4e565b4210156113c45760405162461bcd60e51b815260206004820152601360248201527214985d19481b1a5b5a5d08195e18d959591959606a1b60448201526064016103d3565b60608201516001600160a01b0316600090815260066020908152604080832042905590840151908401516113f89190610f8e565b905060006114058561154f565b9050600061141d828487608001518860a00151610c95565b905085856000015160405161143291906120d5565b604051908190038120907f0c40893bf3c4e890eb5c92353d4cea2a7f4e1e60667d2e04ce77813b07f64ee490600090a384606001516001600160a01b03167f23cb7dc0579e23905f2f88d85bd8fbee2e15f35d236f8b32a54a4ae6e829497384836040516114aa929190918252602082015260400190565b60405180910390a28015611034577f00000000000000000000000000000000000000000000000000000000000000006001600160a01b031663643c1de66114f08861154f565b8760600151846040518463ffffffff1660e01b8152600401611514939291906120f1565b600060405180830381600087803b15801561152e57600080fd5b505af1158015611542573d6000803e3d6000fd5b5050505095945050505050565b6060816000036115765750506040805180820190915260018152600360fc1b602082015290565b8160005b81156115a0578061158a81611e35565b91506115999050600a83611e8e565b915061157a565b60008167ffffffffffffffff8111156115bb576115bb611b1b565b6040519080825280601f01601f1916602001820160405280156115e5576020820181803683370190505b5090505b8415610c7b576115fa60018361211f565b9150611607600a86612132565b611612906030611e4e565b60f81b81838151811061162757611627611e09565b60200101906001600160f81b031916908160001a905350611649600a86611e8e565b94506115e9565b6116586118f7565b6002805460ff191690557f5db9ee0a495bf2e6ff9c91a7834c1ba4fdd244a5e8aa4e537bd38aeae4b073aa335b6040516001600160a01b03909116815260200160405180910390a1565b600080546001600160a01b038381166001600160a01b0319831681178455604051919092169283917f8be0079c531659141344cd1fd0a4f28419497f9722a3daafe3b4186f6b6457e09190a35050565b60008260000361171a576000821161170b57600061170f565b6127105b61ffff169050610589565b82821161172957506000610589565b600083611736818561211f565b61174290612710611e61565b610c7b9190611e8e565b611754611304565b6002805460ff191660011790557f62e78cea01bee320cd4e420270b5ea74000d11b0c9f74754ebdbfc544b05a2586116853390565b60608101516001600160a01b03166117e35760405162461bcd60e51b815260206004820152601b60248201527f496e76616c696420636f6e7472696275746f722061646472657373000000000060448201526064016103d3565b612710816080015111156118395760405162461bcd60e51b815260206004820152601a60248201527f496e76616c696420636f6e7472696275746f722077656967687400000000000060448201526064016103d3565b6118468160200151611940565b6118538160400151611940565b60008160a00151116118a75760405162461bcd60e51b815260206004820152601b60248201527f496e76616c696420636f6e74726962757465642073616d706c6573000000000060448201526064016103d3565b8060a001518160c00151101561124e5760405162461bcd60e51b8152602060048201526015602482015274496e76616c696420746f74616c2073616d706c657360581b60448201526064016103d3565b60025460ff16610c935760405162461bcd60e51b815260206004820152601460248201527314185d5cd8589b194e881b9bdd081c185d5cd95960621b60448201526064016103d3565b805161271010156119635760405162461bcd60e51b81526004016103d390612146565b612710816020015111156119895760405162461bcd60e51b81526004016103d390612146565b612710816040015111156119af5760405162461bcd60e51b81526004016103d390612146565b612710816060015111156119d55760405162461bcd60e51b81526004016103d390612146565b6127108160800151111561124e5760405162461bcd60e51b81526004016103d390612146565b600060208284031215611a0d57600080fd5b5035919050565b60006101e08284031215611a2757600080fd5b50919050565b60008060408385031215611a4057600080fd5b82359150602083013567ffffffffffffffff811115611a5e57600080fd5b611a6a85828601611a14565b9150509250929050565b60008060008060608587031215611a8a57600080fd5b84359350602085013567ffffffffffffffff80821115611aa957600080fd5b908601906101608289031215611abe57600080fd5b90935060408601359080821115611ad457600080fd5b818701915087601f830112611ae857600080fd5b813581811115611af757600080fd5b8860208260061b8501011115611b0c57600080fd5b95989497505060200194505050565b634e487b7160e01b600052604160045260246000fd5b60405160e0810167ffffffffffffffff81118282101715611b5457611b54611b1b565b60405290565b600082601f830112611b6b57600080fd5b813567ffffffffffffffff80821115611b8657611b86611b1b565b604051601f8301601f19908116603f01168101908282118183101715611bae57611bae611b1b565b81604052838152866020858801011115611bc757600080fd5b836020870160208301376000602085830101528094505050505092915050565b60008060008060808587031215611bfd57600080fd5b843567ffffffffffffffff811115611c1457600080fd5b611c2087828801611b5a565b97602087013597506040870135966060013595509350505050565b600060a08284031215611c4d57600080fd5b60405160a0810181811067ffffffffffffffff82111715611c7057611c70611b1b565b806040525080915082358152602083013560208201526040830135604082015260608301356060820152608083013560808201525092915050565b6000806101408385031215611cbf57600080fd5b611cc98484611c3b565b9150611cd88460a08501611c3b565b90509250929050565b600080600060608486031215611cf657600080fd5b505081359360208301359350604090920135919050565b6001600160a01b038116811461124e57600080fd5b8035611d2d81611d0d565b919050565b600060208284031215611d4457600080fd5b813561113c81611d0d565b600060208284031215611d6157600080fd5b8151801515811461113c57600080fd5b602080825260149082015273135bd9195b081b9bdd081c9959da5cdd195c995960621b604082015260600190565b6000808335601e19843603018112611db657600080fd5b83018035915067ffffffffffffffff821115611dd157600080fd5b602001915036819003821315611de657600080fd5b9250929050565b600060a08284031215611dff57600080fd5b61113c8383611c3b565b634e487b7160e01b600052603260045260246000fd5b634e487b7160e01b600052601160045260246000fd5b600060018201611e4757611e47611e1f565b5060010190565b8082018082111561058957610589611e1f565b808202811582820484141761058957610589611e1f565b634e487b7160e01b600052601260045260246000fd5b600082611e9d57611e9d611e78565b500490565b60005b83811015611ebd578181015183820152602001611ea5565b50506000910152565b60008151808452611ede816020860160208601611ea2565b601f01601f19169290920160200192915050565b600081518084526020808501945080840160005b83811015611f2b5781516001600160a01b031687529582019590820190600101611f06565b509495945050505050565b600081518084526020808501945080840160005b83811015611f2b57815187529582019590820190600101611f4a565b606081526000611f796060830186611ec6565b8281036020840152611f8b8186611ef2565b90508281036040840152611f9f8185611f36565b9695505050505050565b606081526000611fbc6060830186611ef2565b8281036020840152611fce8186611f36565b915050826040830152949350505050565b8183823760009101908152919050565b60208152600061113c6020830184611ec6565b60006020828403121561201457600080fd5b815161113c81611d0d565b60006020828403121561203157600080fd5b5051919050565b60006101e0823603121561204b57600080fd5b612053611b31565b823567ffffffffffffffff81111561206a57600080fd5b61207636828601611b5a565b8252506120863660208501611c3b565b60208201526120983660c08501611c3b565b60408201526120aa6101608401611d22565b606082015261018083013560808201526101a083013560a08201526101c09092013560c08301525090565b600082516120e7818460208701611ea2565b9190910192915050565b6060815260006121046060830186611ec6565b6001600160a01b039490941660208301525060400152919050565b8181038181111561058957610589611e1f565b60008261214157612141611e78565b500690565b602080825260149082015273496e76616c6964206d65747269632076616c756560601b60408201526060019056fea2646970667358221220aa5423bef0629f2542b97d088c8ecfd1ed80bc638923a05cd405a48ae5c275cd64736f6c63430008140033",
  "linkReferences": {},
  "deployedLinkReferences": {}
}