{
  "_format": "hh-sol-artifact-1",
  "contractName": "DeltaVerifier",
  "sourceName": "contracts/DeltaVerifier.sol",
  "abi": [
    {
      "inputs": [
        {
          "internalType": "address",
          "name": "_modelRegistry",
          "type": "address"
        },
        {
          "internalType": "address",
          "name": "_tokenManager",
          "type": "address"
        },
        {
          "internalType": "address",
          "name": "_contributionRegistry",
          "type": "address"
        },
        {
          "internalType": "uint256",
          "name": "_baseRewardRate",
          "type": "uint256"
        },
        {
          "internalType": "uint256",
          "name": "_minImprovementBps",
          "type": "uint256"
        },
        {
          "internalType": "uint256",
          "name": "_maxReward",
          "type": "uint256"
        }
      ],
      "stateMutability": "nonpayable",
      "type": "constructor"
    },
    {
      "inputs": [],
      "name": "ArrayEmpty",
      "type": "error"
    },
    {
      "inputs": [
        {
          "internalType": "uint256",
          "name": "length",
          "type": "uint256"
        },
        {
          "internalType": "uint256",
          "name": "maxLength",
          "type": "uint256"
        }
      ],
      "name": "ArrayTooLarge",
      "type": "error"
    },
    {
      "inputs": [
        {
          "internalType": "string",
          "name": "context",
          "type": "string"
        }
      ],
      "name": "InvalidAmount",
      "type": "error"
    },
    {
      "inputs": [
        {
          "internalType": "string",
          "name": "context",
          "type": "string"
        }
      ],
      "name": "ZeroAddress",
      "type": "error"
    },
    {
      "anonymous": false,
      "inputs": [
        {
          "indexed": true,
          "internalType": "uint256",
          "name": "modelId",
          "type": "uint256"
        },
        {
          "indexed": false,
          "internalType": "address[]",
          "name": "contributors",
          "type": "address[]"
        },
        {
          "indexed": false,
          "internalType": "uint256[]",
          "name": "amounts",
          "type": "uint256[]"
        },
        {
          "indexed": false,
          "internalType": "uint256",
          "name": "totalAmount",
          "type": "uint256"
        }
      ],
      "name": "BatchRewardsDistributed",
      "type": "event"
    },
    {
      "anonymous": false,
      "inputs": [
        {
          "indexed": true,
          "internalType": "string",
          "name": "pipelineRunId",
          "type": "string"
        },
        {
          "indexed": true,
          "internalType": "uint256",
          "name": "modelId",
          "type": "uint256"
        },
        {
          "indexed": false,
          "internalType": "uint256",
          "name": "maxCostUsd",
          "type": "uint256"
        },
        {
          "indexed": false,
          "internalType": "uint256",
          "name": "actualCostUsd",
          "type": "uint256"
        }
      ],
      "name": "BudgetConstraintViolated",
      "type": "event"
    },
    {
      "anonymous": false,
      "inputs": [
        {
          "indexed": true,
          "internalType": "string",
          "name": "pipelineRunId",
          "type": "string"
        },
        {
          "indexed": true,
          "internalType": "uint256",
          "name": "modelId",
          "type": "uint256"
        }
      ],
      "name": "EvaluationSubmitted",
      "type": "event"
    },
    {
      "anonymous": false,
      "inputs": [
        {
          "indexed": false,
          "internalType": "address",
          "name": "account",
          "type": "address"
        }
      ],
      "name": "Paused",
      "type": "event"
    },
    {
      "anonymous": false,
      "inputs": [
        {
          "indexed": true,
          "internalType": "address",
          "name": "contributor",
          "type": "address"
        },
        {
          "indexed": false,
          "internalType": "uint256",
          "name": "deltaInBps",
          "type": "uint256"
        },
        {
          "indexed": false,
          "internalType": "uint256",
          "name": "rewardAmount",
          "type": "uint256"
        }
      ],
      "name": "RewardCalculated",
      "type": "event"
    },
    {
      "anonymous": false,
      "inputs": [
        {
          "indexed": false,
          "internalType": "uint256",
          "name": "baseRewardRate",
          "type": "uint256"
        },
        {
          "indexed": false,
          "internalType": "uint256",
          "name": "minImprovementBps",
          "type": "uint256"
        },
        {
          "indexed": false,
          "internalType": "uint256",
          "name": "maxReward",
          "type": "uint256"
        }
      ],
      "name": "RewardParametersUpdated",
      "type": "event"
    },
    {
      "anonymous": false,
      "inputs": [
        {
          "indexed": true,
          "internalType": "bytes32",
          "name": "role",
          "type": "bytes32"
        },
        {
          "indexed": true,
          "internalType": "bytes32",
          "name": "previousAdminRole",
          "type": "bytes32"
        },
        {
          "indexed": true,
          "internalType": "bytes32",
          "name": "newAdminRole",
          "type": "bytes32"
        }
      ],
      "name": "RoleAdminChanged",
      "type": "event"
    },
    {
      "anonymous": false,
      "inputs": [
        {
          "indexed": true,
          "internalType": "bytes32",
          "name": "role",
          "type": "bytes32"
        },
        {
          "indexed": true,
          "internalType": "address",
          "name": "account",
          "type": "address"
        },
        {
          "indexed": true,
          "internalType": "address",
          "name": "sender",
          "type": "address"
        }
      ],
      "name": "RoleGranted",
      "type": "event"
    },
    {
      "anonymous": false,
      "inputs": [
        {
          "indexed": true,
          "internalType": "bytes32",
          "name": "role",
          "type": "bytes32"
        },
        {
          "indexed": true,
          "internalType": "address",
          "name": "account",
          "type": "address"
        },
        {
          "indexed": true,
          "internalType": "address",
          "name": "sender",
          "type": "address"
        }
      ],
      "name": "RoleRevoked",
      "type": "event"
    },
    {
      "anonymous": false,
      "inputs": [
        {
          "indexed": false,
          "internalType": "address",
          "name": "account",
          "type": "address"
        }
      ],
      "name": "Unpaused",
      "type": "event"
    },
    {
      "inputs": [],
      "name": "DEFAULT_ADMIN_ROLE",
      "outputs": [
        {
          "internalType": "bytes32",
          "name": "",
          "type": "bytes32"
        }
      ],
      "stateMutability": "view",
      "type": "function"
    },
    {
      "inputs": [],
      "name": "SUBMITTER_ROLE",
      "outputs": [
        {
          "internalType": "bytes32",
          "name": "",
          "type": "bytes32"
        }
      ],
      "stateMutability": "view",
      "type": "function"
    },
    {
      "inputs": [],
      "name": "baseRewardRate",
      "outputs": [
        {
          "internalType": "uint256",
          "name": "",
          "type": "uint256"
        }
      ],
      "stateMutability": "view",
      "type": "function"
    },
    {
      "inputs": [
        {
          "internalType": "uint256",
          "name": "",
          "type": "uint256"
        },
        {
          "components": [
            {
              "internalType": "uint256",
              "name": "accuracy",
              "type": "uint256"
            },
            {
              "internalType": "uint256",
              "name": "precision",
              "type": "uint256"
            },
            {
              "internalType": "uint256",
              "name": "recall",
              "type": "uint256"
            },
            {
              "internalType": "uint256",
              "name": "f1",
              "type": "uint256"
            },
            {
              "internalType": "uint256",
              "name": "auroc",
              "type": "uint256"
            }
          ],
          "internalType": "struct DeltaVerifier.Metrics",
          "name": "baseline",
          "type": "tuple"
        },
        {
          "components": [
            {
              "internalType": "uint256",
              "name": "accuracy",
              "type": "uint256"
            },
            {
              "internalType": "uint256",
              "name": "precision",
              "type": "uint256"
            },
            {
              "internalType": "uint256",
              "name": "recall",
              "type": "uint256"
            },
            {
              "internalType": "uint256",
              "name": "f1",
              "type": "uint256"
            },
            {
              "internalType": "uint256",
              "name": "auroc",
              "type": "uint256"
            }
          ],
          "internalType": "struct DeltaVerifier.Metrics",
          "name": "newMetrics",
          "type": "tuple"
        }
      ],
      "name": "calculateDeltaOneForModel",
      "outputs": [
        {
          "internalType": "uint256",
          "name": "",
          "type": "uint256"
        }
      ],
      "stateMutability": "pure",
      "type": "function"
    },
    {
      "inputs": [
        {
          "internalType": "uint256",
          "name": "deltaInBps",
          "type": "uint256"
        },
        {
          "internalType": "uint256",
          "name": "contributorWeight",
          "type": "uint256"
        },
        {
          "internalType": "uint256",
          "name": "",
          "type": "uint256"
        }
      ],
      "name": "calculateReward",
      "outputs": [
        {
          "internalType": "uint256",
          "name": "",
          "type": "uint256"
        }
      ],
      "stateMutability": "view",
      "type": "function"
    },
    {
      "inputs": [
        {
          "internalType": "string",
          "name": "modelId",
          "type": "string"
        },
        {
          "internalType": "uint256",
          "name": "deltaInBps",
          "type": "uint256"
        },
        {
          "internalType": "uint256",
          "name": "contributorWeight",
          "type": "uint256"
        },
        {
          "internalType": "uint256",
          "name": "",
          "type": "uint256"
        }
      ],
      "name": "calculateRewardDynamic",
      "outputs": [
        {
          "internalType": "uint256",
          "name": "",
          "type": "uint256"
        }
      ],
      "stateMutability": "view",
      "type": "function"
    },
    {
      "inputs": [],
      "name": "contributionRegistry",
      "outputs": [
        {
          "internalType": "contract IDataContributionRegistry",
          "name": "",
          "type": "address"
        }
      ],
      "stateMutability": "view",
      "type": "function"
    },
    {
      "inputs": [
        {
          "internalType": "bytes32",
          "name": "role",
          "type": "bytes32"
        }
      ],
      "name": "getRoleAdmin",
      "outputs": [
        {
          "internalType": "bytes32",
          "name": "",
          "type": "bytes32"
        }
      ],
      "stateMutability": "view",
      "type": "function"
    },
    {
      "inputs": [
        {
          "internalType": "bytes32",
          "name": "role",
          "type": "bytes32"
        },
        {
          "internalType": "address",
          "name": "account",
          "type": "address"
        }
      ],
      "name": "grantRole",
      "outputs": [],
      "stateMutability": "nonpayable",
      "type": "function"
    },
    {
      "inputs": [
        {
          "internalType": "bytes32",
          "name": "role",
          "type": "bytes32"
        },
        {
          "internalType": "address",
          "name": "account",
          "type": "address"
        }
      ],
      "name": "hasRole",
      "outputs": [
        {
          "internalType": "bool",
          "name": "",
          "type": "bool"
        }
      ],
      "stateMutability": "view",
      "type": "function"
    },
    {
      "inputs": [],
      "name": "maxReward",
      "outputs": [
        {
          "internalType": "uint256",
          "name": "",
          "type": "uint256"
        }
      ],
      "stateMutability": "view",
      "type": "function"
    },
    {
      "inputs": [],
      "name": "minImprovementBps",
      "outputs": [
        {
          "internalType": "uint256",
          "name": "",
          "type": "uint256"
        }
      ],
      "stateMutability": "view",
      "type": "function"
    },
    {
      "inputs": [],
      "name": "modelRegistry",
      "outputs": [
        {
          "internalType": "contract ModelRegistry",
          "name": "",
          "type": "address"
        }
      ],
      "stateMutability": "view",
      "type": "function"
    },
    {
      "inputs": [],
      "name": "pause",
      "outputs": [],
      "stateMutability": "nonpayable",
      "type": "function"
    },
    {
      "inputs": [],
      "name": "paused",
      "outputs": [
        {
          "internalType": "bool",
          "name": "",
          "type": "bool"
        }
      ],
      "stateMutability": "view",
      "type": "function"
    },
    {
      "inputs": [
        {
          "internalType": "bytes32",
          "name": "role",
          "type": "bytes32"
        },
        {
          "internalType": "address",
          "name": "account",
          "type": "address"
        }
      ],
      "name": "renounceRole",
      "outputs": [],
      "stateMutability": "nonpayable",
      "type": "function"
    },
    {
      "inputs": [
        {
          "internalType": "bytes32",
          "name": "role",
          "type": "bytes32"
        },
        {
          "internalType": "address",
          "name": "account",
          "type": "address"
        }
      ],
      "name": "revokeRole",
      "outputs": [],
      "stateMutability": "nonpayable",
      "type": "function"
    },
    {
      "inputs": [
        {
          "internalType": "uint256",
          "name": "_baseRewardRate",
          "type": "uint256"
        }
      ],
      "name": "setBaseRewardRate",
      "outputs": [],
      "stateMutability": "nonpayable",
      "type": "function"
    },
    {
      "inputs": [
        {
          "internalType": "uint256",
          "name": "_maxReward",
          "type": "uint256"
        }
      ],
      "name": "setMaxReward",
      "outputs": [],
      "stateMutability": "nonpayable",
      "type": "function"
    },
    {
      "inputs": [
        {
          "internalType": "uint256",
          "name": "_minImprovementBps",
          "type": "uint256"
        }
      ],
      "name": "setMinImprovementBps",
      "outputs": [],
      "stateMutability": "nonpayable",
      "type": "function"
    },
    {
      "inputs": [
        {
          "internalType": "uint256",
          "name": "modelId",
          "type": "uint256"
        },
        {
          "components": [
            {
              "internalType": "string",
              "name": "pipelineRunId",
              "type": "string"
            },
            {
              "components": [
                {
                  "internalType": "uint256",
                  "name": "accuracy",
                  "type": "uint256"
                },
                {
                  "internalType": "uint256",
                  "name": "precision",
                  "type": "uint256"
                },
                {
                  "internalType": "uint256",
                  "name": "recall",
                  "type": "uint256"
                },
                {
                  "internalType": "uint256",
                  "name": "f1",
                  "type": "uint256"
                },
                {
                  "internalType": "uint256",
                  "name": "auroc",
                  "type": "uint256"
                }
              ],
              "internalType": "struct DeltaVerifier.Metrics",
              "name": "baselineMetrics",
              "type": "tuple"
            },
            {
              "components": [
                {
                  "internalType": "uint256",
                  "name": "accuracy",
                  "type": "uint256"
                },
                {
                  "internalType": "uint256",
                  "name": "precision",
                  "type": "uint256"
                },
                {
                  "internalType": "uint256",
                  "name": "recall",
                  "type": "uint256"
                },
                {
                  "internalType": "uint256",
                  "name": "f1",
                  "type": "uint256"
                },
                {
                  "internalType": "uint256",
                  "name": "auroc",
                  "type": "uint256"
                }
              ],
              "internalType": "struct DeltaVerifier.Metrics",
              "name": "newMetrics",
              "type": "tuple"
            },
            {
              "internalType": "address",
              "name": "contributor",
              "type": "address"
            },
            {
              "internalType": "uint256",
              "name": "contributorWeight",
              "type": "uint256"
            },
            {
              "internalType": "uint256",
              "name": "contributedSamples",
              "type": "uint256"
            },
            {
              "internalType": "uint256",
              "name": "totalSamples",
              "type": "uint256"
            },
            {
              "internalType": "uint256",
              "name": "maxCostUsd",
              "type": "uint256"
            },
            {
              "internalType": "uint256",
              "name": "actualCostUsd",
              "type": "uint256"
            }
          ],
          "internalType": "struct DeltaVerifier.EvaluationData",
          "name": "data",
          "type": "tuple"
        }
      ],
      "name": "submitEvaluation",
      "outputs": [
        {
          "internalType": "uint256",
          "name": "",
          "type": "uint256"
        }
      ],
      "stateMutability": "nonpayable",
      "type": "function"
    },
    {
      "inputs": [
        {
          "internalType": "uint256",
          "name": "modelId",
          "type": "uint256"
        },
        {
          "components": [
            {
              "internalType": "string",
              "name": "pipelineRunId",
              "type": "string"
            },
            {
              "components": [
                {
                  "internalType": "uint256",
                  "name": "accuracy",
                  "type": "uint256"
                },
                {
                  "internalType": "uint256",
                  "name": "precision",
                  "type": "uint256"
                },
                {
                  "internalType": "uint256",
                  "name": "recall",
                  "type": "uint256"
                },
                {
                  "internalType": "uint256",
                  "name": "f1",
                  "type": "uint256"
                },
                {
                  "internalType": "uint256",
                  "name": "auroc",
                  "type": "uint256"
                }
              ],
              "internalType": "struct DeltaVerifier.Metrics",
              "name": "baselineMetrics",
              "type": "tuple"
            },
            {
              "components": [
                {
                  "internalType": "uint256",
                  "name": "accuracy",
                  "type": "uint256"
                },
                {
                  "internalType": "uint256",
                  "name": "precision",
                  "type": "uint256"
                },
                {
                  "internalType": "uint256",
                  "name": "recall",
                  "type": "uint256"
                },
                {
                  "internalType": "uint256",
                  "name": "f1",
                  "type": "uint256"
                },
                {
                  "internalType": "uint256",
                  "name": "auroc",
                  "type": "uint256"
                }
              ],
              "internalType": "struct DeltaVerifier.Metrics",
              "name": "newMetrics",
              "type": "tuple"
            },
            {
              "components": [
                {
                  "internalType": "address",
                  "name": "walletAddress",
                  "type": "address"
                },
                {
                  "internalType": "uint256",
                  "name": "contributorWeight",
                  "type": "uint256"
                },
                {
                  "internalType": "uint256",
                  "name": "contributedSamples",
                  "type": "uint256"
                },
                {
                  "internalType": "uint256",
                  "name": "totalSamples",
                  "type": "uint256"
                }
              ],
              "internalType": "struct DeltaVerifier.ContributorInfo",
              "name": "contributorInfo",
              "type": "tuple"
            },
            {
              "internalType": "uint256",
              "name": "maxCostUsd",
              "type": "uint256"
            },
            {
              "internalType": "uint256",
              "name": "actualCostUsd",
              "type": "uint256"
            }
          ],
          "internalType": "struct DeltaVerifier.EvaluationDataWithInfo",
          "name": "data",
          "type": "tuple"
        }
      ],
      "name": "submitEvaluationWithContributorInfo",
      "outputs": [
        {
          "internalType": "uint256",
          "name": "",
          "type": "uint256"
        }
      ],
      "stateMutability": "nonpayable",
      "type": "function"
    },
    {
      "inputs": [
        {
          "internalType": "uint256",
          "name": "modelId",
          "type": "uint256"
        },
        {
          "components": [
            {
              "internalType": "string",
              "name": "pipelineRunId",
              "type": "string"
            },
            {
              "components": [
                {
                  "internalType": "uint256",
                  "name": "accuracy",
                  "type": "uint256"
                },
                {
                  "internalType": "uint256",
                  "name": "precision",
                  "type": "uint256"
                },
                {
                  "internalType": "uint256",
                  "name": "recall",
                  "type": "uint256"
                },
                {
                  "internalType": "uint256",
                  "name": "f1",
                  "type": "uint256"
                },
                {
                  "internalType": "uint256",
                  "name": "auroc",
                  "type": "uint256"
                }
              ],
              "internalType": "struct DeltaVerifier.Metrics",
              "name": "baselineMetrics",
              "type": "tuple"
            },
            {
              "components": [
                {
                  "internalType": "uint256",
                  "name": "accuracy",
                  "type": "uint256"
                },
                {
                  "internalType": "uint256",
                  "name": "precision",
                  "type": "uint256"
                },
                {
                  "internalType": "uint256",
                  "name": "recall",
                  "type": "uint256"
                },
                {
                  "internalType": "uint256",
                  "name": "f1",
                  "type": "uint256"
                },
                {
                  "internalType": "uint256",
                  "name": "auroc",
                  "type": "uint256"
                }
              ],
              "internalType": "struct DeltaVerifier.Metrics",
              "name": "newMetrics",
              "type": "tuple"
            },
            {
              "internalType": "uint256",
              "name": "maxCostUsd",
              "type": "uint256"
            },
            {
              "internalType": "uint256",
              "name": "actualCostUsd",
              "type": "uint256"
            }
          ],
          "internalType": "struct DeltaVerifier.EvaluationDataBase",
          "name": "data",
          "type": "tuple"
        },
        {
          "components": [
            {
              "internalType": "address",
              "name": "walletAddress",
              "type": "address"
            },
            {
              "internalType": "uint256",
              "name": "weight",
              "type": "uint256"
            }
          ],
          "internalType": "struct DeltaVerifier.Contributor[]",
          "name": "contributors",
          "type": "tuple[]"
        }
      ],
      "name": "submitEvaluationWithMultipleContributors",
      "outputs": [
        {
          "internalType": "uint256",
          "name": "",
          "type": "uint256"
        }
      ],
      "stateMutability": "nonpayable",
      "type": "function"
    },
    {
      "inputs": [
        {
          "internalType": "bytes4",
          "name": "interfaceId",
          "type": "bytes4"
        }
      ],
      "name": "supportsInterface",
      "outputs": [
        {
          "internalType": "bool",
          "name": "",
          "type": "bool"
        }
      ],
      "stateMutability": "view",
      "type": "function"
    },
    {
      "inputs": [],
      "name": "tokenManager",
      "outputs": [
        {
          "internalType": "contract TokenManager",
          "name": "",
          "type": "address"
        }
      ],
      "stateMutability": "view",
      "type": "function"
    },
    {
      "inputs": [],
      "name": "unpause",
      "outputs": [],
      "stateMutability": "nonpayable",
      "type": "function"
    }
  ],
  "bytecode": "0x60e034620002e157601f6200300238819003918201601f191683019291906001600160401b03841183851017620002e6578160c09284926040968752833981010312620002e15762000051816200031c565b602091620000618382016200031c565b906200006f8582016200031c565b9160608201519060a06080840151930151936001805560ff19958660025416600255620000c06200009f620002fc565b600e81526d6d6f64656c20726567697374727960901b8a820152826200037c565b620000ee620000ce620002fc565b600d81526c3a37b5b2b71036b0b730b3b2b960991b8a820152846200037c565b6200012c620000fc620002fc565b601581527f636f6e747269627574696f6e20726567697374727900000000000000000000008a820152836200037c565b620001586200013a620002fc565b600b81526a726577617264207261746560a81b8a82015285620003b1565b6200018862000166620002fc565b600f81526e1b5a5b881a5b5c1c9bdd995b595b9d608a1b8a82015286620003b1565b6001600160a01b0390811660805291821660a0521660c052600355600455600555600080805280835283812033825283528381205490919060ff1615620002ab575b7fe1a65d1a914580ff6931bc952f0fb26573e9282358a4458bceb9ccc6d923d04192838352828152848320338452815260ff85842054161562000271575b8451612c089081620003da823960805181818161018b0152818161093c01528181610a8801526117c3015260a0518181816109800152818161194001528181612136015281816124ac01526126c0015260c05181818161043601528181611bc401526122dc0152f35b8383528281528483209033845252600184832091825416179055339160008051602062002fe2833981519152339280a43880808062000208565b818052818352838220338352835283822060018282541617905533338360008051602062002fe28339815191528180a4620001ca565b600080fd5b634e487b7160e01b600052604160045260246000fd5b60408051919082016001600160401b03811183821017620002e657604052565b51906001600160a01b0382168203620002e157565b6020808252825181830181905290939260005b8281106200036757505060409293506000838284010152601f8019910116010190565b81810186015184820160400152850162000344565b6001600160a01b0316156200038e5750565b60405163eac0d38960e01b8152908190620003ad906004830162000331565b0390fd5b15620003ba5750565b60405163589956a560e11b8152908190620003ad90600483016200033156fe60e060408181526004918236101561001657600080fd5b600090813560e01c90816301e08bfe14610c305750806301ffc9a714610bda57806313e502d114610a41578063248a9ca314610a1757806325c33e13146109af5780632a709b141461096b5780632ba36f78146109275780632f2ff15d1461087e57806336568abe146107ed5780633f4ba83a1461075757806350857950146107145780635c975abb146106f057806366a78e6c146106d15780638456cb59146106765780638725ac51146105e257806391712a0b146105a757806391d14854146105615780639a0dc549146104cd578063a217fddf146104b2578063a8e62b9714610488578063afbf344014610469578063b7c3037614610421578063d547741f146103e3578063f0a9abe714610348578063f2f667cb146103265763f6c5506b1461014257600080fd5b346103235761015036610dcc565b909161015a6115da565b610162611596565b61016a610e88565b8351630af34d3160e31b81528581018490526020956001600160a01b0392917f0000000000000000000000000000000000000000000000000000000000000000841691908881602481865afa9081156103195789926101d4899360249388916102fc575b50611510565b895194859384926302855ced60e01b84528301525afa9182156102f1579261020f6102009361024396936102b99896916102c4575b50611553565b610160820161022e61022082611630565b610228611644565b90612b27565b61025761023b848061166e565b979092611630565b9189519761025089610cca565b3691610e33565b8652610265368a8501610d81565b898701526102763660c08501610d81565b8887015216606085015261018081013560808501526101a081013560a08501526101c081013560c08501526101e081013560e08501520135610100830152611f79565b906001805551908152f35b6102e491508a3d8c116102ea575b6102dc8183610d60565b8101906114f8565b38610209565b503d6102d2565b8651903d90823e3d90fd5b6103139150863d88116102ea576102dc8183610d60565b386101ce565b88513d86823e3d90fd5b80fd5b50913461034457826003193601126103445760209250549051908152f35b8280fd5b5091903461034457602036600319011261034457816103dd7f9ddb79ef2dfcf719d2378c10c25ab769e26c3a6874121d6d65aac014cdf365e993359161038c6110a3565b6103b8845161039a81610d2a565b600b81526a726577617264207261746560a81b602082015284612b5d565b8260035554926005549051938493846040919493926060820195825260208201520152565b0390a180f35b5091903461034457806003193601126103445761041e91356104196001610408610e02565b9383875286602052862001546111c7565b611319565b80f35b509034610465578160031936011261046557517f00000000000000000000000000000000000000000000000000000000000000006001600160a01b03168152602090f35b5080fd5b5090346104655781600319360112610465576020906003549051908152f35b503461032357606036600319011261032357506104ab6020926024359035612433565b9051908152f35b50903461046557816003193601126104655751908152602090f35b5034610323576003199260603685011261046557602435916001600160401b0394858411610465576101a0908436030112610323576044359085821161032357366023830112156103235781830135958611610323573660248760061b840101116103235750916020949160246102b9946105466115da565b61054e611596565b610556610e88565b0191810190356117a7565b5091346103445781600319360112610344578160209360ff92610582610e02565b903582528186528282206001600160a01b039091168252855220549151911615158152f35b509034610465578160031936011261046557602090517fe1a65d1a914580ff6931bc952f0fb26573e9282358a4458bceb9ccc6d923d0418152f35b509134610344576020366003190112610344577f9ddb79ef2dfcf719d2378c10c25ab769e26c3a6874121d6d65aac014cdf365e991813580926106236110a3565b610653835161063181610d2a565b600f81526e1b5a5b881a5b5c1c9bdd995b595b9d608a1b602082015283612b5d565b5560035460055491519081526020810192909252604082015280606081016103dd565b50903461046557816003193601126104655760207f62e78cea01bee320cd4e420270b5ea74000d11b0c9f74754ebdbfc544b05a258916106b46110a3565b6106bc611596565b600160ff19600254161760025551338152a180f35b5090346104655781600319360112610465576020906005549051908152f35b50903461046557816003193601126104655760209060ff6002541690519015158152f35b5034610323576080366003190112610323578235906001600160401b038211610323575061074a6020936104ab92369101610e6a565b6044359060243590612684565b5091346103445782600319360112610344576107716110a3565b6002549060ff8216156107b3575060ff1916600255513381527f5db9ee0a495bf2e6ff9c91a7834c1ba4fdd244a5e8aa4e537bd38aeae4b073aa90602090a180f35b606490602084519162461bcd60e51b8352820152601460248201527314185d5cd8589b194e881b9bdd081c185d5cd95960621b6044820152fd5b508234610465578260031936011261046557610807610e02565b90336001600160a01b03831603610823579061041e9135611319565b608490602085519162461bcd60e51b8352820152602f60248201527f416363657373436f6e74726f6c3a2063616e206f6e6c792072656e6f756e636560448201526e103937b632b9903337b91039b2b63360891b6064820152fd5b509134610344578160031936011261034457359061089a610e02565b90828452836020526108b1600182862001546111c7565b82845260208481528185206001600160a01b039093168086529290528084205460ff16156108dd578380f35b828452836020528084208285526020528320600160ff1982541617905533917f2f8788117e7eff1d82e926ec794901d17c78024a50270940304540a733656f0d8480a43880808380f35b509034610465578160031936011261046557517f00000000000000000000000000000000000000000000000000000000000000006001600160a01b03168152602090f35b509034610465578160031936011261046557517f00000000000000000000000000000000000000000000000000000000000000006001600160a01b03168152602090f35b5091903461034457602036600319011261034457816103dd7f9ddb79ef2dfcf719d2378c10c25ab769e26c3a6874121d6d65aac014cdf365e993356109f26110a3565b8060055560035492549351938493846040919493926060820195825260208201520152565b50913461034457602036600319011261034457816020936001923581528085522001549051908152f35b503461032357610a5036610dcc565b610a586115da565b610a60611596565b610a68610e88565b8351630af34d3160e31b81528581018390526020956001600160a01b03917f0000000000000000000000000000000000000000000000000000000000000000831691908881602481865afa908115610bd0578992610ad088936024938b916102fc5750611510565b895194859384926302855ced60e01b84528301525afa908115610bc65790610afe918691610baf5750611553565b61022082360312610bab57845193610b1585610cca565b82356001600160401b03811161046557610b329036908501610e6a565b8552610b4036888501610d81565b87860152610b513660c08501610d81565b8686015261016083013591821682036103235750606084015261018081013560808401526101a081013560a08401526101c081013560c08401526101e081013560e084015261020001356101008301526102b99190611f79565b8380fd5b6102e49150883d8a116102ea576102dc8183610d60565b86513d87823e3d90fd5b88513d89823e3d90fd5b50913461034457602036600319011261034457359063ffffffff60e01b82168092036103445760209250637965db0b60e01b8214918215610c1f575b50519015158152f35b6301ffc9a760e01b14915038610c16565b838334610323576101603660031901126103235760a036602319011261032357610c5983610cfc565b6024358352604435602084015260643582840152608435606084015260a435608084015260a03660c319011261032357506104ab602092825190610c9c82610cfc565b60c4359182815260e43586820152610104358582015261012435606082015260806101443591015251612857565b61012081019081106001600160401b03821117610ce657604052565b634e487b7160e01b600052604160045260246000fd5b60a081019081106001600160401b03821117610ce657604052565b6001600160401b038111610ce657604052565b604081019081106001600160401b03821117610ce657604052565b608081019081106001600160401b03821117610ce657604052565b90601f801991011681019081106001600160401b03821117610ce657604052565b91908260a0910312610dc757604051610d9981610cfc565b6080808294803584526020810135602085015260408101356040850152606081013560608501520135910152565b600080fd5b90600319604081840112610dc75760043592602435916001600160401b038311610dc7578261022092030112610dc75760040190565b602435906001600160a01b0382168203610dc757565b6001600160401b038111610ce657601f01601f191660200190565b929192610e3f82610e18565b91610e4d6040519384610d60565b829481845281830111610dc7578281602093846000960137010152565b9080601f83011215610dc757816020610e8593359101610e33565b90565b3360009081527f19c4d971a3d76901c4568731997aa60cfcecea3f445b26b7ae19155c24110b7e602090815260408083205490927fe1a65d1a914580ff6931bc952f0fb26573e9282358a4458bceb9ccc6d923d0419160ff1615610eec5750505050565b610ef5336113ea565b91845190610f0282610d45565b6042825284820192606036853782511561108f576030845382519060019182101561108f5790607860218501536041915b81831161102157505050610fdf576048610fdb938693610fbf93610fb0985198899376020b1b1b2b9b9a1b7b73a3937b61d1030b1b1b7bab73a1604d1b8a860152610f87815180928c6037890191016112d1565b8401917001034b99036b4b9b9b4b733903937b6329607d1b6037840152518093868401906112d1565b01036028810187520185610d60565b5192839262461bcd60e51b8452600484015260248301906112f4565b0390fd5b60648486519062461bcd60e51b825280600483015260248201527f537472696e67733a20686578206c656e67746820696e73756666696369656e746044820152fd5b909192600f8116601081101561107b576f181899199a1a9b1b9c1cb0b131b232b360811b901a61105185876113c3565b5360041c92801561106757600019019190610f33565b634e487b7160e01b82526011600452602482fd5b634e487b7160e01b83526032600452602483fd5b634e487b7160e01b81526032600452602490fd5b3360009081527fad3228b676f7d3cd4284a5443f17f1962b36e491b30a40b2405849e597ba5fb5602090815260408083205490929060ff16156110e557505050565b6110ee336113ea565b90808451906110fc82610d45565b6042825284820192606036853782511561108f576030845382519060019182101561108f5790607860218501536041915b81831161118157505050610fdf576048610fdb938693610fbf93610fb0985198899376020b1b1b2b9b9a1b7b73a3937b61d1030b1b1b7bab73a1604d1b8a860152610f87815180928c6037890191016112d1565b909192600f8116601081101561107b576f181899199a1a9b1b9c1cb0b131b232b360811b901a6111b185876113c3565b5360041c9280156110675760001901919061112d565b600090808252602090828252604092838120338252835260ff8482205416156111f05750505050565b6111f9336113ea565b9184519061120682610d45565b6042825284820192606036853782511561108f576030845382519060019182101561108f5790607860218501536041915b81831161128b57505050610fdf576048610fdb938693610fbf93610fb0985198899376020b1b1b2b9b9a1b7b73a3937b61d1030b1b1b7bab73a1604d1b8a860152610f87815180928c6037890191016112d1565b909192600f8116601081101561107b576f181899199a1a9b1b9c1cb0b131b232b360811b901a6112bb85876113c3565b5360041c92801561106757600019019190611237565b60005b8381106112e45750506000910152565b81810151838201526020016112d4565b9060209161130d815180928185528580860191016112d1565b601f01601f1916010190565b9060009180835282602052604083209160018060a01b03169182845260205260ff60408420541661134957505050565b80835282602052604083208284526020526040832060ff1981541690557ff6391f5c32d9c69d2a47ea670b442974b53935d1edc7fd64eb21e047a839171b339380a4565b818102929181159184041417156113a057565b634e487b7160e01b600052601160045260246000fd5b919082018092116113a057565b9081518110156113d4570160200190565b634e487b7160e01b600052603260045260246000fd5b60405190606082018281106001600160401b03821117610ce657604052602a82526020820160403682378251156113d4576030905381516001908110156113d457607860218401536029905b80821161148a5750506114465790565b606460405162461bcd60e51b815260206004820152602060248201527f537472696e67733a20686578206c656e67746820696e73756666696369656e746044820152fd5b9091600f811660108110156114e3576f181899199a1a9b1b9c1cb0b131b232b360811b901a6114b984866113c3565b5360041c9180156114ce576000190190611436565b60246000634e487b7160e01b81526011600452fd5b60246000634e487b7160e01b81526032600452fd5b90816020910312610dc757518015158103610dc75790565b1561151757565b60405162461bcd60e51b8152602060048201526014602482015273135bd9195b081b9bdd081c9959da5cdd195c995960621b6044820152606490fd5b1561155a57565b60405162461bcd60e51b8152602060048201526014602482015273135bd9195b081a5cc819195858dd1a5d985d195960621b6044820152606490fd5b60ff600254166115a257565b60405162461bcd60e51b815260206004820152601060248201526f14185d5cd8589b194e881c185d5cd95960821b6044820152606490fd5b6002600154146115eb576002600155565b60405162461bcd60e51b815260206004820152601f60248201527f5265656e7472616e637947756172643a207265656e7472616e742063616c6c006044820152606490fd5b356001600160a01b0381168103610dc75790565b6040519061165182610d2a565b600e82526d77616c6c6574206164647265737360901b6020830152565b903590601e1981360301821215610dc757018035906001600160401b038211610dc757602001918136038313610dc757565b6001600160401b038111610ce65760051b60200190565b906116c1826116a0565b6116ce6040519182610d60565b82815280926116df601f19916116a0565b0190602036910137565b60001981146113a05760010190565b91908110156113d45760061b0190565b8051156113d45760200190565b80518210156113d45760209160051b010190565b919082039182116113a057565b90815180825260208080930193019160005b828110611756575050505090565b83516001600160a01b031685529381019392810192600101611748565b90815180825260208080930193019160005b828110611793575050505090565b835185529381019392810192600101611785565b604051630af34d3160e31b8152600481018290529092600092917f00000000000000000000000000000000000000000000000000000000000000006001600160a01b031690602081602481855afa908115611f4e57916118126020926024948891611f375750611510565b604051928380926302855ced60e01b82528960048301525afa908115611f2c5790611843918591611f135750611553565b8415611f015760648511611ee157829461185c816116b7565b95611866826116b7565b60c05284905b828210611df357612710915003611dae576101808301356101608401356118938282612922565b611d5a5750506118ab60c08401356020850135612857565b956118b586612a67565b906118c08883612471565b9788611910575b50505050506118f7817f0c40893bf3c4e890eb5c92353d4cea2a7f4e1e60667d2e04ce77813b07f64ee49261166e565b908160405192839283378101600081520390209180a390565b83879a9598999692939497918b5b8a89848310611cc9579150506119379250839150611729565b80611c99575b507f00000000000000000000000000000000000000000000000000000000000000006001600160a01b0316803b15611c95578a6040518092636baad94360e11b8252606060048301528183816119c2611999606483018d6112f4565b6119b060031991828582030160248601528d611736565b9083820301604484015260c051611773565b03925af18015611c8a57611c55575b507f379eb16b5a0469dd3188be06c54cea67019459aea34bb7222bac67a2ddf15e298991604051809160608252611a1e611a0e6060840189611736565b838103602085015260c051611773565b9060408301520390a2611a34610250828061166e565b91611a3f81516116b7565b94611a4a82516116b7565b608052611a5782516116b7565b968b8c60a0525b835160a05190811015611b8857611a76889186611715565b51611add60548960405180946020611a9781840198898151938492016112d1565b8201906bffffffffffffffffffffffff199060601b166020820152825190611ac882603495602087850191016112d1565b0160a051838201520390810184520182610d60565b519020611aec60a0518a611715565b526020611afd8c8c60a051916116f8565b0135611b0b60a0518b611715565b526020611b1c8c8c60a051916116f8565b01356103e8908082810204821481151715611b7457611b5f92916064910204611b4960a051608051611715565b52611b5860a051608051611715565b51906113b6565b9a611b6b60a0516116e9565b60a0529a611a5e565b634e487b7160e01b8f52601160045260248ffd5b50611bbf93919b9a508c99509b9596939794919b60405197889687966329a0dd4960e01b885260c051946080519360048a016129b5565b0381837f00000000000000000000000000000000000000000000000000000000000000006001600160a01b03165af18015611c4a57916118f7917f0c40893bf3c4e890eb5c92353d4cea2a7f4e1e60667d2e04ce77813b07f64ee493611c28575b8193816118c7565b611c43903d8087833e611c3b8183610d60565b81019061293c565b5038611c20565b6040513d85823e3d90fd5b89919a611c827f379eb16b5a0469dd3188be06c54cea67019459aea34bb7222bac67a2ddf15e2992610d17565b9a91506119d1565b6040513d8d823e3d90fd5b8a80fd5b611cc391611cb282611cac60c051611708565b516113b6565b611cbd60c051611708565b526113b6565b3861193d565b604082611d3f611d3a86611d2b612710611d1b7f23cb7dc0579e23905f2f88d85bd8fbee2e15f35d236f8b32a54a4ae6e82949739860208e9f9b611d529e9f8790611d13926116f8565b01359061138d565b04809881611cbd8560c051611715565b9a6001600160a01b03946116f8565b611630565b16928151908782526020820152a26116e9565b90889161191e565b915093955060409150611d8e837f2ee10088f961cefc50ce125f535f54891ad9bafe2a77646d2d1e5f2057aeddef9461166e565b90818451928392833781018881520390209382519182526020820152a390565b60405162461bcd60e51b815260206004820152601860248201527f57656967687473206d7573742073756d20746f203130302500000000000000006044820152606490fd5b611e04610220611d3a8486886116f8565b855b828110611e5b5750611e4f611e5591611e23611d3a8587896116f8565b611e2d858c611715565b6001600160a01b0390911690526020611e478587896116f8565b0135906113b6565b916116e9565b9061186c565b611e69611d3a8486886116f8565b6001600160a01b03611e7b838c611715565b516001600160a01b03909216911614611e9c57611e97906116e9565b611e06565b60405162461bcd60e51b815260206004820152601d60248201527f4475706c696361746520636f6e7472696275746f7220616464726573730000006044820152606490fd5b6040516342b154e560e01b81526004810186905260646024820152604490fd5b604051633c4d929d60e21b8152600490fd5b6102e4915060203d6020116102ea576102dc8183610d60565b6040513d86823e3d90fd5b6103139150843d86116102ea576102dc8183610d60565b6040513d87823e3d90fd5b611f71906020604051928284809451938492016112d1565b810103902090565b9060608101805190600091604090815190611f9382610d2a565b60138252611fc760209272636f6e7472696275746f72206164647265737360681b8482015260018060a01b03809316612b27565b60808601611fd58151612b8a565b82870194611fe38651612868565b84880193611ff18551612868565b60a089019461202b865188519061200782610d2a565b6013825272636f6e74726962757465642073616d706c657360681b85830152612b5d565b60c08a019788518751116123f7578a60e0810161205161010082519301928351906128a8565b878651168c5260068552898c2054610e1081018091116123e35742106123a95751905161207e8183612922565b612363575050858451168a526006835242888b205551519051516120a191612857565b916120ab8b612a67565b9284516120b9908286612684565b9b8b516120c590611f59565b908951917f0c40893bf3c4e890eb5c92353d4cea2a7f4e1e60667d2e04ce77813b07f64ee48d80a386835116918152888d858301527f23cb7dc0579e23905f2f88d85bd8fbee2e15f35d236f8b32a54a4ae6e829497391a28a612130575b5050505050505050505090565b805185167f00000000000000000000000000000000000000000000000000000000000000008616803b15611c95578a9182918e8b5194858094819363321e0ef360e11b835260606004840152612189606484018d6112f4565b916024840152604483015203925af180156123595761233c575b50918899918997989993519451965199519251908951936121c385610d2a565b600185528136818701378787166121d986611708565b528a51966121e688610d2a565b600188528236818a01378b51855184820192829161220781868b8a016112d1565b8201906bffffffffffffffffffffffff199060601b16868201528651906034810182888a0191612236926112d1565b010360148101825260340161224b9082610d60565b51902061225788611708565b528a51986122648a610d2a565b60018a528236818c01376122778a611708565b528a519b6122848d610d2a565b60018d528236818f01376122978d611708565b528a51916122a483610d2a565b6001835236818401378d6122b783611708565b528a516329a0dd4960e01b81529b8c998a9889976122d89760048a016129b5565b03927f0000000000000000000000000000000000000000000000000000000000000000165af19081156123335750612318575b8080808080808080612123565b61232b913d8091833e611c3b8183610d60565b50388061230b565b513d84823e3d90fd5b61234d909a9297989991939a610d17565b979695909891386121a3565b88513d8c823e3d90fd5b96509650505096989790507f2ee10088f961cefc50ce125f535f54891ad9bafe2a77646d2d1e5f2057aeddef955061239c915051611f59565b948351928352820152a390565b895162461bcd60e51b815260048101869052601360248201527214985d19481b1a5b5a5d08195e18d959591959606a1b6044820152606490fd5b634e487b7160e01b8d52601160045260248dfd5b875162461bcd60e51b8152600481018490526015602482015274496e76616c696420746f74616c2073616d706c657360581b6044820152606490fd5b600454811061246a57620f424091612451612456926003549061138d565b61138d565b04600554808211612465575090565b905090565b5050600090565b906040805190636204891b60e11b8252602082612499600496838884015260248301906112f4565b6001600160a01b039491839183919003817f000000000000000000000000000000000000000000000000000000000000000088165afa9081156125ff57908491600091612649575b5016801561260a578186918451928380926367f855cb60e11b82525afa9081156125ff579082916000916125c6575b5086845180968193634c8bc3e560e01b8352165afa9182156125bc5750600091612590575b50905082548210612588576125499161138d565b90612710918281029281840414901517156125735750620f42409004600554808211612465575090565b601190634e487b7160e01b6000525260246000fd5b505050600090565b82813d83116125b5575b6125a48183610d60565b810103126103235750518038612535565b503d61259a565b513d6000823e3d90fd5b909181813d83116125f8575b6125dc8183610d60565b8101031261046557519084821682036103235750819038612510565b503d6125d2565b83513d6000823e3d90fd5b825162461bcd60e51b81528087018390526019602482015278151bdad95b881b9bdd08199bdd5b9908199bdc881b5bd9195b603a1b6044820152606490fd5b9091508281813d831161267d575b6126618183610d60565b81010312610465575190848216820361032357508390386124e1565b503d612657565b9091604091825190636204891b60e11b8252816126ad60209283600484015260248301906112f4565b6001600160a01b039391839183919003817f000000000000000000000000000000000000000000000000000000000000000087165afa9081156127d15790839160009161281c575b501680156127dc57816004918651928380926367f855cb60e11b82525afa9081156127d157908291600091612798575b506004865180958193634c8bc3e560e01b8352165afa9384156125bc5750600093612767575b505060045483106125885761245161245692620f42409461138d565b8181949293943d8311612791575b61277f8183610d60565b8101031261032357505190388061274b565b503d612775565b909181813d83116127ca575b6127ae8183610d60565b8101031261046557519083821682036103235750819038612725565b503d6127a4565b85513d6000823e3d90fd5b845162461bcd60e51b8152600481018390526019602482015278151bdad95b881b9bdd08199bdd5b9908199bdc881b5bd9195b603a1b6044820152606490fd5b9091508281813d8311612850575b6128348183610d60565b81010312610465575190838216820361032357508290386126f5565b503d61282a565b8082111561246a57610e8591611729565b60806128a6916128788151612b8a565b6128856020820151612b8a565b6128926040820151612b8a565b61289f6060820151612b8a565b0151612b8a565b565b908115801561291a575b612916576128e86128a692604051906128ca82610d2a565b600c82526b1b585e0818dbdcdd081d5cd960a21b6020830152612b5d565b604051906128f582610d2a565b600f82526e1858dd1d585b0818dbdcdd081d5cd9608a1b6020830152612b5d565b5050565b5080156128b2565b9081158015612934575b61246a571190565b50801561292c565b6020908181840312610dc7578051906001600160401b038211610dc757019180601f84011215610dc7578251612971816116a0565b9361297f6040519586610d60565b818552838086019260051b820101928311610dc7578301905b8282106129a6575050505090565b81518152908301908301612998565b969391906129d46129e3919a999796949a610100808b528a01906112f4565b602092898203848b0152611736565b878103604089015281808b5192838152019a019160005b828110612a535750505050612a45939291612a2489612a329389610e859b9c0360608b0152611773565b908782036080890152611773565b9160a086015284820360c0860152611773565b9160e08184039101526112f4565b83518c529a81019a928101926001016129fa565b8015612b095780816000925b612af35750612a8182610e18565b91612a8f6040519384610d60565b80835281601f19612a9f83610e18565b013660208601375b612ab057505090565b60001981019081116113a0578091600a91603083830681018091116113a05760f81b6001600160f81b03191660001a90612aea90866113c3565b53049081612aa7565b9091612b00600a916116e9565b92910480612a73565b50604051612b1681610d2a565b60018152600360fc1b602082015290565b6001600160a01b031615612b385750565b60405163eac0d38960e01b815260206004820152908190610fdb9060248301906112f4565b15612b655750565b60405163589956a560e11b815260206004820152908190610fdb9060248301906112f4565b61271010612b9457565b60405163589956a560e11b815260206004820152601560248201527476616c75652065786365656473206d6178696d756d60581b6044820152606490fdfea264697066735822122017436818ae6f8963055a0b30002fc853fec3f9d1f044d5438b6a36aa76830d7f64736f6c634300081400332f8788117e7eff1d82e926ec794901d17c78024a50270940304540a733656f0d",
  "linkReferences": {},
  "deployedLinkReferences": {}
}