{
  "_format": "hh-sol-artifact-1",
  "contractName": "DeltaVerifier",
  "sourceName": "contracts/DeltaVerifier.sol",
  "abi": [
    {
      "inputs": [
        {
          "internalType": "address",
          "name": "_modelRegistry",
          "type": "address"
        },
        {
          "internalType": "address",
          "name": "_tokenManager",
          "type": "address"
        },
        {
          "internalType": "address",
          "name": "_contributionRegistry",
          "type": "address"
        },
        {
          "internalType": "uint256",
          "name": "_baseRewardRate",
          "type": "uint256"
        },
        {
          "internalType": "uint256",
          "name": "_minImprovementBps",
          "type": "uint256"
        },
        {
          "internalType": "uint256",
          "name": "_maxReward",
          "type": "uint256"
        }
      ],
      "stateMutability": "nonpayable",
      "type": "constructor"
    },
    {
      "inputs": [],
      "name": "ArrayEmpty",
      "type": "error"
    },
    {
      "inputs": [
        {
          "internalType": "uint256",
          "name": "length",
          "type": "uint256"
        },
        {
          "internalType": "uint256",
          "name": "maxLength",
          "type": "uint256"
        }
      ],
      "name": "ArrayTooLarge",
      "type": "error"
    },
    {
      "inputs": [
        {
          "internalType": "string",
          "name": "context",
          "type": "string"
        }
      ],
      "name": "InvalidAmount",
      "type": "error"
    },
    {
      "inputs": [
        {
          "internalType": "string",
          "name": "context",
          "type": "string"
        }
      ],
      "name": "ZeroAddress",
      "type": "error"
    },
    {
      "anonymous": false,
      "inputs": [
        {
          "indexed": true,
          "internalType": "uint256",
          "name": "modelId",
          "type": "uint256"
        },
        {
          "indexed": false,
          "internalType": "address[]",
          "name": "contributors",
          "type": "address[]"
        },
        {
          "indexed": false,
          "internalType": "uint256[]",
          "name": "amounts",
          "type": "uint256[]"
        },
        {
          "indexed": false,
          "internalType": "uint256",
          "name": "totalAmount",
          "type": "uint256"
        }
      ],
      "name": "BatchRewardsDistributed",
      "type": "event"
    },
    {
      "anonymous": false,
      "inputs": [
        {
          "indexed": true,
          "internalType": "string",
          "name": "pipelineRunId",
          "type": "string"
        },
        {
          "indexed": true,
          "internalType": "uint256",
          "name": "modelId",
          "type": "uint256"
        },
        {
          "indexed": false,
          "internalType": "uint256",
          "name": "maxCostUsd",
          "type": "uint256"
        },
        {
          "indexed": false,
          "internalType": "uint256",
          "name": "actualCostUsd",
          "type": "uint256"
        }
      ],
      "name": "BudgetConstraintViolated",
      "type": "event"
    },
    {
      "anonymous": false,
      "inputs": [
        {
          "indexed": true,
          "internalType": "uint256",
          "name": "modelId",
          "type": "uint256"
        },
        {
          "indexed": true,
          "internalType": "bytes32",
          "name": "idempotencyKey",
          "type": "bytes32"
        },
        {
          "indexed": true,
          "internalType": "bytes32",
          "name": "benchmarkSpecHash",
          "type": "bytes32"
        },
        {
          "indexed": false,
          "internalType": "bytes32",
          "name": "attestationHash",
          "type": "bytes32"
        },
        {
          "indexed": false,
          "internalType": "bytes32",
          "name": "datasetHash",
          "type": "bytes32"
        },
        {
          "indexed": false,
          "internalType": "string",
          "name": "metricName",
          "type": "string"
        },
        {
          "indexed": false,
          "internalType": "string",
          "name": "metricFamily",
          "type": "string"
        },
        {
          "indexed": false,
          "internalType": "uint256",
          "name": "baselineScoreBps",
          "type": "uint256"
        },
        {
          "indexed": false,
          "internalType": "uint256",
          "name": "candidateScoreBps",
          "type": "uint256"
        },
        {
          "indexed": false,
          "internalType": "uint256",
          "name": "rewardAmount",
          "type": "uint256"
        },
        {
          "indexed": false,
          "internalType": "string",
          "name": "pipelineRunId",
          "type": "string"
        }
      ],
      "name": "DeltaOneAccepted",
      "type": "event"
    },
    {
      "anonymous": false,
      "inputs": [
        {
          "indexed": true,
          "internalType": "string",
          "name": "pipelineRunId",
          "type": "string"
        },
        {
          "indexed": true,
          "internalType": "uint256",
          "name": "modelId",
          "type": "uint256"
        }
      ],
      "name": "EvaluationSubmitted",
      "type": "event"
    },
    {
      "anonymous": false,
      "inputs": [
        {
          "indexed": false,
          "internalType": "address",
          "name": "account",
          "type": "address"
        }
      ],
      "name": "Paused",
      "type": "event"
    },
    {
      "anonymous": false,
      "inputs": [
        {
          "indexed": true,
          "internalType": "address",
          "name": "contributor",
          "type": "address"
        },
        {
          "indexed": false,
          "internalType": "uint256",
          "name": "deltaInBps",
          "type": "uint256"
        },
        {
          "indexed": false,
          "internalType": "uint256",
          "name": "rewardAmount",
          "type": "uint256"
        }
      ],
      "name": "RewardCalculated",
      "type": "event"
    },
    {
      "anonymous": false,
      "inputs": [
        {
          "indexed": false,
          "internalType": "uint256",
          "name": "baseRewardRate",
          "type": "uint256"
        },
        {
          "indexed": false,
          "internalType": "uint256",
          "name": "minImprovementBps",
          "type": "uint256"
        },
        {
          "indexed": false,
          "internalType": "uint256",
          "name": "maxReward",
          "type": "uint256"
        }
      ],
      "name": "RewardParametersUpdated",
      "type": "event"
    },
    {
      "anonymous": false,
      "inputs": [
        {
          "indexed": true,
          "internalType": "bytes32",
          "name": "role",
          "type": "bytes32"
        },
        {
          "indexed": true,
          "internalType": "bytes32",
          "name": "previousAdminRole",
          "type": "bytes32"
        },
        {
          "indexed": true,
          "internalType": "bytes32",
          "name": "newAdminRole",
          "type": "bytes32"
        }
      ],
      "name": "RoleAdminChanged",
      "type": "event"
    },
    {
      "anonymous": false,
      "inputs": [
        {
          "indexed": true,
          "internalType": "bytes32",
          "name": "role",
          "type": "bytes32"
        },
        {
          "indexed": true,
          "internalType": "address",
          "name": "account",
          "type": "address"
        },
        {
          "indexed": true,
          "internalType": "address",
          "name": "sender",
          "type": "address"
        }
      ],
      "name": "RoleGranted",
      "type": "event"
    },
    {
      "anonymous": false,
      "inputs": [
        {
          "indexed": true,
          "internalType": "bytes32",
          "name": "role",
          "type": "bytes32"
        },
        {
          "indexed": true,
          "internalType": "address",
          "name": "account",
          "type": "address"
        },
        {
          "indexed": true,
          "internalType": "address",
          "name": "sender",
          "type": "address"
        }
      ],
      "name": "RoleRevoked",
      "type": "event"
    },
    {
      "anonymous": false,
      "inputs": [
        {
          "indexed": false,
          "internalType": "address",
          "name": "account",
          "type": "address"
        }
      ],
      "name": "Unpaused",
      "type": "event"
    },
    {
      "inputs": [],
      "name": "DEFAULT_ADMIN_ROLE",
      "outputs": [
        {
          "internalType": "bytes32",
          "name": "",
          "type": "bytes32"
        }
      ],
      "stateMutability": "view",
      "type": "function"
    },
    {
      "inputs": [],
      "name": "SUBMITTER_ROLE",
      "outputs": [
        {
          "internalType": "bytes32",
          "name": "",
          "type": "bytes32"
        }
      ],
      "stateMutability": "view",
      "type": "function"
    },
    {
      "inputs": [],
      "name": "baseRewardRate",
      "outputs": [
        {
          "internalType": "uint256",
          "name": "",
          "type": "uint256"
        }
      ],
      "stateMutability": "view",
      "type": "function"
    },
    {
      "inputs": [
        {
          "internalType": "uint256",
          "name": "",
          "type": "uint256"
        },
        {
          "components": [
            {
              "internalType": "uint256",
              "name": "accuracy",
              "type": "uint256"
            },
            {
              "internalType": "uint256",
              "name": "precision",
              "type": "uint256"
            },
            {
              "internalType": "uint256",
              "name": "recall",
              "type": "uint256"
            },
            {
              "internalType": "uint256",
              "name": "f1",
              "type": "uint256"
            },
            {
              "internalType": "uint256",
              "name": "auroc",
              "type": "uint256"
            }
          ],
          "internalType": "struct DeltaVerifier.Metrics",
          "name": "baseline",
          "type": "tuple"
        },
        {
          "components": [
            {
              "internalType": "uint256",
              "name": "accuracy",
              "type": "uint256"
            },
            {
              "internalType": "uint256",
              "name": "precision",
              "type": "uint256"
            },
            {
              "internalType": "uint256",
              "name": "recall",
              "type": "uint256"
            },
            {
              "internalType": "uint256",
              "name": "f1",
              "type": "uint256"
            },
            {
              "internalType": "uint256",
              "name": "auroc",
              "type": "uint256"
            }
          ],
          "internalType": "struct DeltaVerifier.Metrics",
          "name": "newMetrics",
          "type": "tuple"
        }
      ],
      "name": "calculateDeltaOneForModel",
      "outputs": [
        {
          "internalType": "uint256",
          "name": "",
          "type": "uint256"
        }
      ],
      "stateMutability": "pure",
      "type": "function"
    },
    {
      "inputs": [
        {
          "internalType": "uint256",
          "name": "deltaInBps",
          "type": "uint256"
        },
        {
          "internalType": "uint256",
          "name": "contributorWeight",
          "type": "uint256"
        },
        {
          "internalType": "uint256",
          "name": "",
          "type": "uint256"
        }
      ],
      "name": "calculateReward",
      "outputs": [
        {
          "internalType": "uint256",
          "name": "",
          "type": "uint256"
        }
      ],
      "stateMutability": "view",
      "type": "function"
    },
    {
      "inputs": [
        {
          "internalType": "string",
          "name": "modelId",
          "type": "string"
        },
        {
          "internalType": "uint256",
          "name": "deltaInBps",
          "type": "uint256"
        },
        {
          "internalType": "uint256",
          "name": "contributorWeight",
          "type": "uint256"
        },
        {
          "internalType": "uint256",
          "name": "",
          "type": "uint256"
        }
      ],
      "name": "calculateRewardDynamic",
      "outputs": [
        {
          "internalType": "uint256",
          "name": "",
          "type": "uint256"
        }
      ],
      "stateMutability": "view",
      "type": "function"
    },
    {
      "inputs": [],
      "name": "contributionRegistry",
      "outputs": [
        {
          "internalType": "contract IDataContributionRegistry",
          "name": "",
          "type": "address"
        }
      ],
      "stateMutability": "view",
      "type": "function"
    },
    {
      "inputs": [
        {
          "internalType": "bytes32",
          "name": "role",
          "type": "bytes32"
        }
      ],
      "name": "getRoleAdmin",
      "outputs": [
        {
          "internalType": "bytes32",
          "name": "",
          "type": "bytes32"
        }
      ],
      "stateMutability": "view",
      "type": "function"
    },
    {
      "inputs": [
        {
          "internalType": "bytes32",
          "name": "role",
          "type": "bytes32"
        },
        {
          "internalType": "address",
          "name": "account",
          "type": "address"
        }
      ],
      "name": "grantRole",
      "outputs": [],
      "stateMutability": "nonpayable",
      "type": "function"
    },
    {
      "inputs": [
        {
          "internalType": "bytes32",
          "name": "role",
          "type": "bytes32"
        },
        {
          "internalType": "address",
          "name": "account",
          "type": "address"
        }
      ],
      "name": "hasRole",
      "outputs": [
        {
          "internalType": "bool",
          "name": "",
          "type": "bool"
        }
      ],
      "stateMutability": "view",
      "type": "function"
    },
    {
      "inputs": [],
      "name": "maxReward",
      "outputs": [
        {
          "internalType": "uint256",
          "name": "",
          "type": "uint256"
        }
      ],
      "stateMutability": "view",
      "type": "function"
    },
    {
      "inputs": [],
      "name": "minImprovementBps",
      "outputs": [
        {
          "internalType": "uint256",
          "name": "",
          "type": "uint256"
        }
      ],
      "stateMutability": "view",
      "type": "function"
    },
    {
      "inputs": [],
      "name": "modelRegistry",
      "outputs": [
        {
          "internalType": "contract ModelRegistry",
          "name": "",
          "type": "address"
        }
      ],
      "stateMutability": "view",
      "type": "function"
    },
    {
      "inputs": [],
      "name": "pause",
      "outputs": [],
      "stateMutability": "nonpayable",
      "type": "function"
    },
    {
      "inputs": [],
      "name": "paused",
      "outputs": [
        {
          "internalType": "bool",
          "name": "",
          "type": "bool"
        }
      ],
      "stateMutability": "view",
      "type": "function"
    },
    {
      "inputs": [
        {
          "internalType": "bytes32",
          "name": "",
          "type": "bytes32"
        }
      ],
      "name": "processedIdempotencyKeys",
      "outputs": [
        {
          "internalType": "bool",
          "name": "",
          "type": "bool"
        }
      ],
      "stateMutability": "view",
      "type": "function"
    },
    {
      "inputs": [
        {
          "internalType": "bytes32",
          "name": "role",
          "type": "bytes32"
        },
        {
          "internalType": "address",
          "name": "account",
          "type": "address"
        }
      ],
      "name": "renounceRole",
      "outputs": [],
      "stateMutability": "nonpayable",
      "type": "function"
    },
    {
      "inputs": [
        {
          "internalType": "bytes32",
          "name": "role",
          "type": "bytes32"
        },
        {
          "internalType": "address",
          "name": "account",
          "type": "address"
        }
      ],
      "name": "revokeRole",
      "outputs": [],
      "stateMutability": "nonpayable",
      "type": "function"
    },
    {
      "inputs": [
        {
          "internalType": "uint256",
          "name": "_baseRewardRate",
          "type": "uint256"
        }
      ],
      "name": "setBaseRewardRate",
      "outputs": [],
      "stateMutability": "nonpayable",
      "type": "function"
    },
    {
      "inputs": [
        {
          "internalType": "uint256",
          "name": "_maxReward",
          "type": "uint256"
        }
      ],
      "name": "setMaxReward",
      "outputs": [],
      "stateMutability": "nonpayable",
      "type": "function"
    },
    {
      "inputs": [
        {
          "internalType": "uint256",
          "name": "_minImprovementBps",
          "type": "uint256"
        }
      ],
      "name": "setMinImprovementBps",
      "outputs": [],
      "stateMutability": "nonpayable",
      "type": "function"
    },
    {
      "inputs": [
        {
          "internalType": "uint256",
          "name": "modelId",
          "type": "uint256"
        },
        {
          "components": [
            {
              "internalType": "string",
              "name": "pipelineRunId",
              "type": "string"
            },
            {
              "components": [
                {
                  "internalType": "uint256",
                  "name": "accuracy",
                  "type": "uint256"
                },
                {
                  "internalType": "uint256",
                  "name": "precision",
                  "type": "uint256"
                },
                {
                  "internalType": "uint256",
                  "name": "recall",
                  "type": "uint256"
                },
                {
                  "internalType": "uint256",
                  "name": "f1",
                  "type": "uint256"
                },
                {
                  "internalType": "uint256",
                  "name": "auroc",
                  "type": "uint256"
                }
              ],
              "internalType": "struct DeltaVerifier.Metrics",
              "name": "baselineMetrics",
              "type": "tuple"
            },
            {
              "components": [
                {
                  "internalType": "uint256",
                  "name": "accuracy",
                  "type": "uint256"
                },
                {
                  "internalType": "uint256",
                  "name": "precision",
                  "type": "uint256"
                },
                {
                  "internalType": "uint256",
                  "name": "recall",
                  "type": "uint256"
                },
                {
                  "internalType": "uint256",
                  "name": "f1",
                  "type": "uint256"
                },
                {
                  "internalType": "uint256",
                  "name": "auroc",
                  "type": "uint256"
                }
              ],
              "internalType": "struct DeltaVerifier.Metrics",
              "name": "newMetrics",
              "type": "tuple"
            },
            {
              "internalType": "address",
              "name": "contributor",
              "type": "address"
            },
            {
              "internalType": "uint256",
              "name": "contributorWeight",
              "type": "uint256"
            },
            {
              "internalType": "uint256",
              "name": "contributedSamples",
              "type": "uint256"
            },
            {
              "internalType": "uint256",
              "name": "totalSamples",
              "type": "uint256"
            },
            {
              "internalType": "uint256",
              "name": "maxCostUsd",
              "type": "uint256"
            },
            {
              "internalType": "uint256",
              "name": "actualCostUsd",
              "type": "uint256"
            }
          ],
          "internalType": "struct DeltaVerifier.EvaluationData",
          "name": "data",
          "type": "tuple"
        }
      ],
      "name": "submitEvaluation",
      "outputs": [
        {
          "internalType": "uint256",
          "name": "",
          "type": "uint256"
        }
      ],
      "stateMutability": "nonpayable",
      "type": "function"
    },
    {
      "inputs": [
        {
          "internalType": "uint256",
          "name": "modelId",
          "type": "uint256"
        },
        {
          "components": [
            {
              "internalType": "string",
              "name": "pipelineRunId",
              "type": "string"
            },
            {
              "components": [
                {
                  "internalType": "uint256",
                  "name": "accuracy",
                  "type": "uint256"
                },
                {
                  "internalType": "uint256",
                  "name": "precision",
                  "type": "uint256"
                },
                {
                  "internalType": "uint256",
                  "name": "recall",
                  "type": "uint256"
                },
                {
                  "internalType": "uint256",
                  "name": "f1",
                  "type": "uint256"
                },
                {
                  "internalType": "uint256",
                  "name": "auroc",
                  "type": "uint256"
                }
              ],
              "internalType": "struct DeltaVerifier.Metrics",
              "name": "baselineMetrics",
              "type": "tuple"
            },
            {
              "components": [
                {
                  "internalType": "uint256",
                  "name": "accuracy",
                  "type": "uint256"
                },
                {
                  "internalType": "uint256",
                  "name": "precision",
                  "type": "uint256"
                },
                {
                  "internalType": "uint256",
                  "name": "recall",
                  "type": "uint256"
                },
                {
                  "internalType": "uint256",
                  "name": "f1",
                  "type": "uint256"
                },
                {
                  "internalType": "uint256",
                  "name": "auroc",
                  "type": "uint256"
                }
              ],
              "internalType": "struct DeltaVerifier.Metrics",
              "name": "newMetrics",
              "type": "tuple"
            },
            {
              "components": [
                {
                  "internalType": "address",
                  "name": "walletAddress",
                  "type": "address"
                },
                {
                  "internalType": "uint256",
                  "name": "contributorWeight",
                  "type": "uint256"
                },
                {
                  "internalType": "uint256",
                  "name": "contributedSamples",
                  "type": "uint256"
                },
                {
                  "internalType": "uint256",
                  "name": "totalSamples",
                  "type": "uint256"
                }
              ],
              "internalType": "struct DeltaVerifier.ContributorInfo",
              "name": "contributorInfo",
              "type": "tuple"
            },
            {
              "internalType": "uint256",
              "name": "maxCostUsd",
              "type": "uint256"
            },
            {
              "internalType": "uint256",
              "name": "actualCostUsd",
              "type": "uint256"
            }
          ],
          "internalType": "struct DeltaVerifier.EvaluationDataWithInfo",
          "name": "data",
          "type": "tuple"
        }
      ],
      "name": "submitEvaluationWithContributorInfo",
      "outputs": [
        {
          "internalType": "uint256",
          "name": "",
          "type": "uint256"
        }
      ],
      "stateMutability": "nonpayable",
      "type": "function"
    },
    {
      "inputs": [
        {
          "internalType": "uint256",
          "name": "modelId",
          "type": "uint256"
        },
        {
          "components": [
            {
              "internalType": "string",
              "name": "pipelineRunId",
              "type": "string"
            },
            {
              "components": [
                {
                  "internalType": "uint256",
                  "name": "accuracy",
                  "type": "uint256"
                },
                {
                  "internalType": "uint256",
                  "name": "precision",
                  "type": "uint256"
                },
                {
                  "internalType": "uint256",
                  "name": "recall",
                  "type": "uint256"
                },
                {
                  "internalType": "uint256",
                  "name": "f1",
                  "type": "uint256"
                },
                {
                  "internalType": "uint256",
                  "name": "auroc",
                  "type": "uint256"
                }
              ],
              "internalType": "struct DeltaVerifier.Metrics",
              "name": "baselineMetrics",
              "type": "tuple"
            },
            {
              "components": [
                {
                  "internalType": "uint256",
                  "name": "accuracy",
                  "type": "uint256"
                },
                {
                  "internalType": "uint256",
                  "name": "precision",
                  "type": "uint256"
                },
                {
                  "internalType": "uint256",
                  "name": "recall",
                  "type": "uint256"
                },
                {
                  "internalType": "uint256",
                  "name": "f1",
                  "type": "uint256"
                },
                {
                  "internalType": "uint256",
                  "name": "auroc",
                  "type": "uint256"
                }
              ],
              "internalType": "struct DeltaVerifier.Metrics",
              "name": "newMetrics",
              "type": "tuple"
            },
            {
              "internalType": "uint256",
              "name": "maxCostUsd",
              "type": "uint256"
            },
            {
              "internalType": "uint256",
              "name": "actualCostUsd",
              "type": "uint256"
            },
            {
              "internalType": "uint256",
              "name": "totalSamples",
              "type": "uint256"
            }
          ],
          "internalType": "struct DeltaVerifier.EvaluationDataBase",
          "name": "data",
          "type": "tuple"
        },
        {
          "components": [
            {
              "internalType": "address",
              "name": "walletAddress",
              "type": "address"
            },
            {
              "internalType": "uint256",
              "name": "weight",
              "type": "uint256"
            }
          ],
          "internalType": "struct DeltaVerifier.Contributor[]",
          "name": "contributors",
          "type": "tuple[]"
        }
      ],
      "name": "submitEvaluationWithMultipleContributors",
      "outputs": [
        {
          "internalType": "uint256",
          "name": "",
          "type": "uint256"
        }
      ],
      "stateMutability": "nonpayable",
      "type": "function"
    },
    {
      "inputs": [
        {
          "internalType": "uint256",
          "name": "modelId",
          "type": "uint256"
        },
        {
          "components": [
            {
              "internalType": "string",
              "name": "pipelineRunId",
              "type": "string"
            },
            {
              "internalType": "uint256",
              "name": "baselineScoreBps",
              "type": "uint256"
            },
            {
              "internalType": "uint256",
              "name": "candidateScoreBps",
              "type": "uint256"
            },
            {
              "internalType": "uint256",
              "name": "maxCostUsdMicro",
              "type": "uint256"
            },
            {
              "internalType": "uint256",
              "name": "actualCostUsdMicro",
              "type": "uint256"
            },
            {
              "internalType": "uint256",
              "name": "totalSamples",
              "type": "uint256"
            },
            {
              "components": [
                {
                  "internalType": "bytes32",
                  "name": "benchmarkSpecHash",
                  "type": "bytes32"
                },
                {
                  "internalType": "bytes32",
                  "name": "datasetHash",
                  "type": "bytes32"
                },
                {
                  "internalType": "bytes32",
                  "name": "attestationHash",
                  "type": "bytes32"
                },
                {
                  "internalType": "bytes32",
                  "name": "idempotencyKey",
                  "type": "bytes32"
                },
                {
                  "internalType": "string",
                  "name": "metricName",
                  "type": "string"
                },
                {
                  "internalType": "string",
                  "name": "metricFamily",
                  "type": "string"
                }
              ],
              "internalType": "struct DeltaVerifier.BenchmarkAnchors",
              "name": "anchors",
              "type": "tuple"
            }
          ],
          "internalType": "struct DeltaVerifier.MintRequestPayload",
          "name": "payload",
          "type": "tuple"
        },
        {
          "components": [
            {
              "internalType": "address",
              "name": "walletAddress",
              "type": "address"
            },
            {
              "internalType": "uint256",
              "name": "weight",
              "type": "uint256"
            }
          ],
          "internalType": "struct DeltaVerifier.Contributor[]",
          "name": "contributors",
          "type": "tuple[]"
        }
      ],
      "name": "submitMintRequest",
      "outputs": [
        {
          "internalType": "uint256",
          "name": "",
          "type": "uint256"
        }
      ],
      "stateMutability": "nonpayable",
      "type": "function"
    },
    {
      "inputs": [
        {
          "internalType": "bytes4",
          "name": "interfaceId",
          "type": "bytes4"
        }
      ],
      "name": "supportsInterface",
      "outputs": [
        {
          "internalType": "bool",
          "name": "",
          "type": "bool"
        }
      ],
      "stateMutability": "view",
      "type": "function"
    },
    {
      "inputs": [],
      "name": "tokenManager",
      "outputs": [
        {
          "internalType": "contract TokenManager",
          "name": "",
          "type": "address"
        }
      ],
      "stateMutability": "view",
      "type": "function"
    },
    {
      "inputs": [],
      "name": "unpause",
      "outputs": [],
      "stateMutability": "nonpayable",
      "type": "function"
    }
  ],
  "bytecode": "0x60e034620002ef57601f6200381338819003918201601f191683019291906001600160401b03841183851017620002f4578160c09284926040968752833981010312620002ef5762000051816200032a565b602091620000618382016200032a565b906200006f8582016200032a565b9160608201519060a06080840151930151936001805560ff19958660025416600255620000c06200009f6200030a565b600e81526d6d6f64656c20726567697374727960901b8a820152826200038a565b620000ee620000ce6200030a565b600d81526c3a37b5b2b71036b0b730b3b2b960991b8a820152846200038a565b6200012c620000fc6200030a565b601581527f636f6e747269627574696f6e20726567697374727900000000000000000000008a820152836200038a565b620001586200013a6200030a565b600b81526a726577617264207261746560a81b8a82015285620003bf565b62000188620001666200030a565b600f81526e1b5a5b881a5b5c1c9bdd995b595b9d608a1b8a82015286620003bf565b6001600160a01b0390811660805291821660a0521660c052600355600455600555600080805280835283812033825283528381205490919060ff1615620002b9575b7fe1a65d1a914580ff6931bc952f0fb26573e9282358a4458bceb9ccc6d923d04192838352828152848320338452815260ff8584205416156200027f575b845161340b9081620003e882396080518181816101a1015281816109d801528181610b24015281816118b90152611cdf015260a051818181610a1c015281816119f101528181611fb80152818161257f015281816129010152612b15015260c05181818161044c0152818161272501526131d00152f35b83835282815284832090338452526001848320918254161790553391600080516020620037f3833981519152339280a43880808062000208565b8180528183528382203383528352838220600182825416179055333383600080516020620037f38339815191528180a4620001ca565b600080fd5b634e487b7160e01b600052604160045260246000fd5b60408051919082016001600160401b03811183821017620002f457604052565b51906001600160a01b0382168203620002ef57565b6020808252825181830181905290939260005b8281106200037557505060409293506000838284010152601f8019910116010190565b81810186015184820160400152850162000352565b6001600160a01b0316156200039c5750565b60405163eac0d38960e01b8152908190620003bb90600483016200033f565b0390fd5b15620003c85750565b60405163589956a560e11b8152908190620003bb90600483016200033f56fe608060408181526004918236101561001657600080fd5b600090813560e01c90816301e08bfe14610ccc5750806301ffc9a714610c7657806313e502d114610add578063248a9ca314610ab357806325c33e1314610a4b5780632a709b1414610a075780632ba36f78146109c35780632f2ff15d1461091a57806336568abe146108895780633f4ba83a146107f357806350857950146107b05780635547c73a146107835780635c975abb1461075f57806366a78e6c146107405780636d2140ad146106ca578063803b64f4146106535780638456cb59146105f85780638725ac511461056457806391712a0b1461052957806391d14854146104e3578063a217fddf146104c8578063a8e62b971461049e578063afbf34401461047f578063b7c3037614610437578063d547741f146103f9578063f0a9abe71461035e578063f2f667cb1461033c5763f6c5506b1461015857600080fd5b346103395761016636610e68565b90916101706116a6565b610178611662565b610180610f54565b8351630af34d3160e31b81528581018490526020956001600160a01b0392917f0000000000000000000000000000000000000000000000000000000000000000841691908881602481865afa90811561032f5789926101ea89936024938891610312575b506115dc565b895194859384926302855ced60e01b84528301525afa91821561030757926102256102009361025996936102cf9896916102da575b5061161f565b6101608201610244610236826116fc565b61023e611710565b906132ea565b61026d610251848061173a565b9790926116fc565b9189519761026689610d66565b3691610ecf565b865261027b368a8501610e1d565b8987015261028c3660c08501610e1d565b8887015216606085015261018081013560808501526101a081013560a08501526101c081013560c08501526101e081013560e085015201356101008301526123d4565b906001805551908152f35b6102fa91508a3d8c11610300575b6102f28183610dfc565b8101906115c4565b3861021f565b503d6102e8565b8651903d90823e3d90fd5b6103299150863d8811610300576102f28183610dfc565b386101e4565b88513d86823e3d90fd5b80fd5b50913461035a578260031936011261035a5760209250549051908152f35b8280fd5b5091903461035a57602036600319011261035a57816103f37f9ddb79ef2dfcf719d2378c10c25ab769e26c3a6874121d6d65aac014cdf365e99335916103a261116f565b6103ce84516103b081610dc6565b600b81526a726577617264207261746560a81b602082015284613320565b8260035554926005549051938493846040919493926060820195825260208201520152565b0390a180f35b5091903461035a578060031936011261035a57610434913561042f600161041e610e9e565b938387528660205286200154611293565b6113e5565b80f35b50903461047b578160031936011261047b57517f00000000000000000000000000000000000000000000000000000000000000006001600160a01b03168152602090f35b5080fd5b50903461047b578160031936011261047b576020906003549051908152f35b503461033957606036600319011261033957506104c16020926024359035612888565b9051908152f35b50903461047b578160031936011261047b5751908152602090f35b50913461035a578160031936011261035a578160209360ff92610504610e9e565b903582528186528282206001600160a01b039091168252855220549151911615158152f35b50903461047b578160031936011261047b57602090517fe1a65d1a914580ff6931bc952f0fb26573e9282358a4458bceb9ccc6d923d0418152f35b50913461035a57602036600319011261035a577f9ddb79ef2dfcf719d2378c10c25ab769e26c3a6874121d6d65aac014cdf365e991813580926105a561116f565b6105d583516105b381610dc6565b600f81526e1b5a5b881a5b5c1c9bdd995b595b9d608a1b602082015283613320565b5560035460055491519081526020810192909252604082015280606081016103f3565b50903461047b578160031936011261047b5760207f62e78cea01bee320cd4e420270b5ea74000d11b0c9f74754ebdbfc544b05a2589161063661116f565b61063e611662565b600160ff19600254161760025551338152a180f35b50346103395760031960603682011261047b57602435916001600160401b039182841161047b576101c0908436030112610339576044359182116103395750926102cf916106a660209536908401610f24565b9290916106b16116a6565b6106b9611662565b6106c1610f54565b8101903561188f565b50346103395760031960603682011261047b57602435916001600160401b039182841161047b5760e0908436030112610339576044359182116103395750926102cf9161071c60209536908401610f24565b9290916107276116a6565b61072f611662565b610737610f54565b81019035611cc0565b50903461047b578160031936011261047b576020906005549051908152f35b50903461047b578160031936011261047b5760209060ff6002541690519015158152f35b50913461035a57602036600319011261035a578160209360ff923581526007855220541690519015158152f35b5034610339576080366003190112610339578235906001600160401b03821161033957506107e66020936104c192369101610f06565b6044359060243590612ad9565b50913461035a578260031936011261035a5761080d61116f565b6002549060ff82161561084f575060ff1916600255513381527f5db9ee0a495bf2e6ff9c91a7834c1ba4fdd244a5e8aa4e537bd38aeae4b073aa90602090a180f35b606490602084519162461bcd60e51b8352820152601460248201527314185d5cd8589b194e881b9bdd081c185d5cd95960621b6044820152fd5b50823461047b578260031936011261047b576108a3610e9e565b90336001600160a01b038316036108bf579061043491356113e5565b608490602085519162461bcd60e51b8352820152602f60248201527f416363657373436f6e74726f6c3a2063616e206f6e6c792072656e6f756e636560448201526e103937b632b9903337b91039b2b63360891b6064820152fd5b50913461035a578160031936011261035a573590610936610e9e565b908284528360205261094d60018286200154611293565b82845260208481528185206001600160a01b039093168086529290528084205460ff1615610979578380f35b828452836020528084208285526020528320600160ff1982541617905533917f2f8788117e7eff1d82e926ec794901d17c78024a50270940304540a733656f0d8480a43880808380f35b50903461047b578160031936011261047b57517f00000000000000000000000000000000000000000000000000000000000000006001600160a01b03168152602090f35b50903461047b578160031936011261047b57517f00000000000000000000000000000000000000000000000000000000000000006001600160a01b03168152602090f35b5091903461035a57602036600319011261035a57816103f37f9ddb79ef2dfcf719d2378c10c25ab769e26c3a6874121d6d65aac014cdf365e99335610a8e61116f565b8060055560035492549351938493846040919493926060820195825260208201520152565b50913461035a57602036600319011261035a57816020936001923581528085522001549051908152f35b503461033957610aec36610e68565b610af46116a6565b610afc611662565b610b04610f54565b8351630af34d3160e31b81528581018390526020956001600160a01b03917f0000000000000000000000000000000000000000000000000000000000000000831691908881602481865afa908115610c6c578992610b6c88936024938b9161031257506115dc565b895194859384926302855ced60e01b84528301525afa908115610c625790610b9a918691610c4b575061161f565b61022082360312610c4757845193610bb185610d66565b82356001600160401b03811161047b57610bce9036908501610f06565b8552610bdc36888501610e1d565b87860152610bed3660c08501610e1d565b8686015261016083013591821682036103395750606084015261018081013560808401526101a081013560a08401526101c081013560c08401526101e081013560e084015261020001356101008301526102cf91906123d4565b8380fd5b6102fa9150883d8a11610300576102f28183610dfc565b86513d87823e3d90fd5b88513d89823e3d90fd5b50913461035a57602036600319011261035a57359063ffffffff60e01b821680920361035a5760209250637965db0b60e01b8214918215610cbb575b50519015158152f35b6301ffc9a760e01b14915038610cb2565b838334610339576101603660031901126103395760a036602319011261033957610cf583610d98565b6024358352604435602084015260643582840152608435606084015260a435608084015260a03660c319011261033957506104c1602092825190610d3882610d98565b60c4359182815260e43586820152610104358582015261012435606082015260806101443591015251612cac565b61012081019081106001600160401b03821117610d8257604052565b634e487b7160e01b600052604160045260246000fd5b60a081019081106001600160401b03821117610d8257604052565b6001600160401b038111610d8257604052565b604081019081106001600160401b03821117610d8257604052565b608081019081106001600160401b03821117610d8257604052565b90601f801991011681019081106001600160401b03821117610d8257604052565b91908260a0910312610e6357604051610e3581610d98565b6080808294803584526020810135602085015260408101356040850152606081013560608501520135910152565b600080fd5b90600319604081840112610e635760043592602435916001600160401b038311610e63578261022092030112610e635760040190565b602435906001600160a01b0382168203610e6357565b6001600160401b038111610d8257601f01601f191660200190565b929192610edb82610eb4565b91610ee96040519384610dfc565b829481845281830111610e63578281602093846000960137010152565b9080601f83011215610e6357816020610f2193359101610ecf565b90565b9181601f84011215610e63578235916001600160401b038311610e63576020808501948460061b010111610e6357565b3360009081527f19c4d971a3d76901c4568731997aa60cfcecea3f445b26b7ae19155c24110b7e602090815260408083205490927fe1a65d1a914580ff6931bc952f0fb26573e9282358a4458bceb9ccc6d923d0419160ff1615610fb85750505050565b610fc1336114b6565b91845190610fce82610de1565b6042825284820192606036853782511561115b576030845382519060019182101561115b5790607860218501536041915b8183116110ed575050506110ab5760486110a793869361108b9361107c985198899376020b1b1b2b9b9a1b7b73a3937b61d1030b1b1b7bab73a1604d1b8a860152611053815180928c60378901910161139d565b8401917001034b99036b4b9b9b4b733903937b6329607d1b60378401525180938684019061139d565b01036028810187520185610dfc565b5192839262461bcd60e51b8452600484015260248301906113c0565b0390fd5b60648486519062461bcd60e51b825280600483015260248201527f537472696e67733a20686578206c656e67746820696e73756666696369656e746044820152fd5b909192600f81166010811015611147576f181899199a1a9b1b9c1cb0b131b232b360811b901a61111d858761148f565b5360041c92801561113357600019019190610fff565b634e487b7160e01b82526011600452602482fd5b634e487b7160e01b83526032600452602483fd5b634e487b7160e01b81526032600452602490fd5b3360009081527fad3228b676f7d3cd4284a5443f17f1962b36e491b30a40b2405849e597ba5fb5602090815260408083205490929060ff16156111b157505050565b6111ba336114b6565b90808451906111c882610de1565b6042825284820192606036853782511561115b576030845382519060019182101561115b5790607860218501536041915b81831161124d575050506110ab5760486110a793869361108b9361107c985198899376020b1b1b2b9b9a1b7b73a3937b61d1030b1b1b7bab73a1604d1b8a860152611053815180928c60378901910161139d565b909192600f81166010811015611147576f181899199a1a9b1b9c1cb0b131b232b360811b901a61127d858761148f565b5360041c928015611133576000190191906111f9565b600090808252602090828252604092838120338252835260ff8482205416156112bc5750505050565b6112c5336114b6565b918451906112d282610de1565b6042825284820192606036853782511561115b576030845382519060019182101561115b5790607860218501536041915b818311611357575050506110ab5760486110a793869361108b9361107c985198899376020b1b1b2b9b9a1b7b73a3937b61d1030b1b1b7bab73a1604d1b8a860152611053815180928c60378901910161139d565b909192600f81166010811015611147576f181899199a1a9b1b9c1cb0b131b232b360811b901a611387858761148f565b5360041c92801561113357600019019190611303565b60005b8381106113b05750506000910152565b81810151838201526020016113a0565b906020916113d98151809281855285808601910161139d565b601f01601f1916010190565b9060009180835282602052604083209160018060a01b03169182845260205260ff60408420541661141557505050565b80835282602052604083208284526020526040832060ff1981541690557ff6391f5c32d9c69d2a47ea670b442974b53935d1edc7fd64eb21e047a839171b339380a4565b8181029291811591840414171561146c57565b634e487b7160e01b600052601160045260246000fd5b9190820180921161146c57565b9081518110156114a0570160200190565b634e487b7160e01b600052603260045260246000fd5b60405190606082018281106001600160401b03821117610d8257604052602a82526020820160403682378251156114a0576030905381516001908110156114a057607860218401536029905b8082116115565750506115125790565b606460405162461bcd60e51b815260206004820152602060248201527f537472696e67733a20686578206c656e67746820696e73756666696369656e746044820152fd5b9091600f811660108110156115af576f181899199a1a9b1b9c1cb0b131b232b360811b901a611585848661148f565b5360041c91801561159a576000190190611502565b60246000634e487b7160e01b81526011600452fd5b60246000634e487b7160e01b81526032600452fd5b90816020910312610e6357518015158103610e635790565b156115e357565b60405162461bcd60e51b8152602060048201526014602482015273135bd9195b081b9bdd081c9959da5cdd195c995960621b6044820152606490fd5b1561162657565b60405162461bcd60e51b8152602060048201526014602482015273135bd9195b081a5cc819195858dd1a5d985d195960621b6044820152606490fd5b60ff6002541661166e57565b60405162461bcd60e51b815260206004820152601060248201526f14185d5cd8589b194e881c185d5cd95960821b6044820152606490fd5b6002600154146116b7576002600155565b60405162461bcd60e51b815260206004820152601f60248201527f5265656e7472616e637947756172643a207265656e7472616e742063616c6c006044820152606490fd5b356001600160a01b0381168103610e635790565b6040519061171d82610dc6565b600e82526d77616c6c6574206164647265737360901b6020830152565b903590601e1981360301821215610e6357018035906001600160401b038211610e6357602001918136038313610e6357565b600019811461146c5760010190565b91908110156114a05760061b0190565b8051156114a05760200190565b80518210156114a05760209160051b010190565b9190820391821161146c57565b90815180825260208080930193019160005b8281106117d9575050505090565b83516001600160a01b0316855293810193928101926001016117cb565b90815180825260208080930193019160005b828110611816575050505090565b835185529381019392810192600101611808565b9161185390611845610f2195936060865260608601906113c0565b9084820360208601526117b9565b9160408184039101526117f6565b93929161188a9061187c6040936060885260608801906117b9565b9086820360208801526117f6565b930152565b60408051630af34d3160e31b815260048101839052919360209360009390916001600160a01b03917f00000000000000000000000000000000000000000000000000000000000000008316908781602481855afa908115611c8057916118ff89926024948a91611c6957506115dc565b8651928380926302855ced60e01b82528c60048301525afa908115611c5f579061192f918791610c4b575061161f565b6119398882612dda565b9190986101a0850135918215611c1b5761016086013561018087013561195f8183612d77565b611bc757505061197660c08701358a880135612cac565b9a6119808b61322a565b9561198b8d886128c6565b9c8d6119cd575b5050505050505050600080516020613396833981519152929350806119b69161173a565b80925192839283378101600081520390209180a390565b8d9b8b9c8d918d5b888110611b375750506119e892506117ac565b80611b09575b507f000000000000000000000000000000000000000000000000000000000000000016803b15611b05578851631e3b78fb60e31b8152908a908290818381611a3b8c898f6004850161182a565b03925af18015611afb57908c91611ab0575b5091611aa29593916119b6989795936000805160206133b6833981519152611a8c6000805160206133968339815191529d9e8d519182918a8784611861565b0390a2611a9c610266898061173a565b956130a1565b908493388080808080611992565b916119b698979593916000805160206133b6833981519152611a8c6000805160206133968339815191529d611ae9611aa29b9997610db3565b9d505050919395979850919395611a4d565b89513d8c823e3d90fd5b8980fd5b611b30919b611b2182611b1b8a61178b565b51611482565b611b2a8961178b565b52611482565b99386119ee565b9190809350611b47838a8a61177b565b0135611b5291611459565b61271090049d8e80611b64848d611798565b52611b6e91611482565b9d84611b7b838a8a61177b565b611b84906116fc565b16908d805191868352858301527f23cb7dc0579e23905f2f88d85bd8fbee2e15f35d236f8b32a54a4ae6e829497391a2611bbd9061176c565b8f90918e926119d5565b955095925050507f2ee10088f961cefc50ce125f535f54891ad9bafe2a77646d2d1e5f2057aeddef959850611bfd91508061173a565b9081855192839283378101898152039020948351928352820152a390565b865162461bcd60e51b8152600481018a9052601e60248201527f546f74616c2073616d706c6573206d75737420626520706f73697469766500006044820152606490fd5b85513d88823e3d90fd5b6103299150843d8611610300576102f28183610dfc565b86513d89823e3d90fd5b90359060be1981360301821215610e63570190565b908060209392818452848401376000828201840152601f01601f1916010190565b604051630af34d3160e31b8152600481018290529092600092916024907f00000000000000000000000000000000000000000000000000000000000000006001600160a01b0316906020818481855afa9081156123a95791611d2c60209285948991611c6957506115dc565b604051928380926302855ced60e01b82528a60048301525afa90811561239e5790611d5d918691612385575061161f565b6060611d6c60c0850185611c8a565b013515612341576060611d8260c0850185611c8a565b01358452600760205260ff6040852054166122f357611da1838061173a565b9050156122af57611dc2611db860c0850185611c8a565b608081019061173a565b90501561226b57612710602084013511612228576127106040840135116121da5750611dee8582612dda565b90916060611dff60c0860186611c8a565b01358552600760205260408520805460ff1916600117905560808401356060850135611e2b8282612d77565b612185575050611e4360408501356020860135612cac565b96611e4d8761322a565b91611e5889846128c6565b9889611f96575b505050505050611f7d816060611e8760c0600080516020613396833981519152950183611c8a565b0135611e9660c0830183611c8a565b3590867f302937cfcf4b3e834bb9d5ebae7f74a8640d4e0c646f62af65aaf0ac9136b3246040611ec960c0870187611c8a565b01356020611eda60c0880188611c8a565b013590611f748c611ef1611db860c08b018b611c8a565b611f4d8b611f1e611f3f611f15611f0b60c0850185611c8a565b60a081019061173a565b9290938061173a565b9690956040519b8c9b8c5260208c01526101008060408d01528b0191611c9f565b9188830360608a0152611c9f565b9260208c0135608087015260408c013560a087015260c086015284830360e0860152611c9f565b0390a48061173a565b908160405192839283378101600081520390209180a390565b87908a895b8581106120fc5750611faf915082906117ac565b806120dc575b507f00000000000000000000000000000000000000000000000000000000000000006001600160a01b0316803b156120d857604051631e3b78fb60e31b8152908990829081838161200b8c8e8d6004850161182a565b03925af180156120cd57908a9291612082575b509260008051602061339683398151915297959261207895926000805160206133b683398151915261205c611f7d9a97604051918291898b84611861565b0390a261206c610266888061173a565b9460a0880135936130a1565b9138808080611e5f565b9261207895926000805160206133b683398151915261205c611f7d9a97949c6120bb6000805160206133968339815191529d9b98610db3565b9c94979a50505092955092959761201e565b6040513d8b823e3d90fd5b8880fd5b6120f6916120ed82611b1b8961178b565b611b2a8861178b565b38611fb5565b61212c61271061211e61217e946020612116868c8c61177b565b013590611459565b04809581611b2a858d611798565b937f23cb7dc0579e23905f2f88d85bd8fbee2e15f35d236f8b32a54a4ae6e829497360406001600160a01b0361216b612166868c8c61177b565b6116fc565b16928151908782526020820152a261176c565b8b90611f9b565b925094965050604091506121ba837f2ee10088f961cefc50ce125f535f54891ad9bafe2a77646d2d1e5f2057aeddef9461173a565b90818451928392833781018881520390209382519182526020820152a390565b60849060216040519162461bcd60e51b8352602060048401528201527f43616e6469646174652073636f726520657863656564732031303030302062706044820152607360f81b6064820152fd5b60649060206040519162461bcd60e51b83528160048401528201527f426173656c696e652073636f72652065786365656473203130303030206270736044820152fd5b606490601b6040519162461bcd60e51b8352602060048401528201527f4d6574726963206e616d652063616e6e6f7420626520656d70747900000000006044820152fd5b606490601f6040519162461bcd60e51b8352602060048401528201527f506970656c696e652072756e2049442063616e6e6f7420626520656d707479006044820152fd5b60849060216040519162461bcd60e51b8352602060048401528201527f4964656d706f74656e6379206b657920616c72656164792070726f63657373656044820152601960fa1b6064820152fd5b606490601f6040519162461bcd60e51b8352602060048401528201527f4964656d706f74656e6379206b65792063616e6e6f7420626520656d707479006044820152fd5b6102fa915060203d602011610300576102f28183610dfc565b6040513d87823e3d90fd5b6040513d88823e3d90fd5b6123cc9060206040519282848094519384920161139d565b810103902090565b90606081018051906000916040908151906123ee82610dc6565b6013825261242260209272636f6e7472696275746f72206164647265737360681b8482015260018060a01b038093166132ea565b60808601612430815161334d565b8287019461243e8651612cbd565b8488019361244c8551612cbd565b60a0890194612486865188519061246282610dc6565b6013825272636f6e74726962757465642073616d706c657360681b85830152613320565b60c08a0197885187511161284c578a60e081016124ac6101008251930192835190612cfd565b878651168c5260068552898c2054610e1081018091116128385742106127fe575190516124d98183612d77565b6127b8575050858451168a526006835242888b205551519051516124fc91612cac565b916125068b61322a565b928451612514908286612ad9565b9b8b51612520906123b4565b908951916000805160206133968339815191528d80a386835116918152888d858301527f23cb7dc0579e23905f2f88d85bd8fbee2e15f35d236f8b32a54a4ae6e829497391a28a612579575b5050505050505050505090565b805185167f00000000000000000000000000000000000000000000000000000000000000008616803b156127b4578a9182918e8b519485809481936311d68e9f60e11b8352606060048401526125d2606484018d6113c0565b916024840152604483015203925af180156127aa5761278d575b509188999189979899935194519651995192519089519361260c85610dc6565b600185528136818701378787166126228661178b565b528a519661262f88610dc6565b600188528236818a01378b51855184820192829161265081868b8a0161139d565b8201906bffffffffffffffffffffffff199060601b16868201528651906034810182888a019161267f9261139d565b01036014810182526034016126949082610dfc565b5190206126a08861178b565b528a51986126ad8a610dc6565b60018a528236818c01376126c08a61178b565b528a519b6126cd8d610dc6565b60018d528236818f01376126e08d61178b565b528a51916126ed83610dc6565b6001835236818401378d6127008361178b565b528a516329a0dd4960e01b81529b8c998a9889976127219760048a01612fef565b03927f0000000000000000000000000000000000000000000000000000000000000000165af19081156127845750612761575b808080808080808061256c565b61277c913d8091833e6127748183610dfc565b810190612f76565b503880612754565b513d84823e3d90fd5b61279e909a9297989991939a610db3565b979695909891386125ec565b88513d8c823e3d90fd5b8a80fd5b96509650505096989790507f2ee10088f961cefc50ce125f535f54891ad9bafe2a77646d2d1e5f2057aeddef95506127f19150516123b4565b948351928352820152a390565b895162461bcd60e51b815260048101869052601360248201527214985d19481b1a5b5a5d08195e18d959591959606a1b6044820152606490fd5b634e487b7160e01b8d52601160045260248dfd5b875162461bcd60e51b8152600481018490526015602482015274496e76616c696420746f74616c2073616d706c657360581b6044820152606490fd5b60045481106128bf57620f4240916128a66128ab9260035490611459565b611459565b046005548082116128ba575090565b905090565b5050600090565b906040805190636204891b60e11b82526020826128ee600496838884015260248301906113c0565b6001600160a01b039491839183919003817f000000000000000000000000000000000000000000000000000000000000000088165afa908115612a5457908491600091612a9e575b50168015612a5f578186918451928380926367f855cb60e11b82525afa908115612a5457908291600091612a1b575b5086845180968193634c8bc3e560e01b8352165afa918215612a1157506000916129e5575b509050825482106129dd5761299e91611459565b90612710918281029281840414901517156129c85750620f424090046005548082116128ba575090565b601190634e487b7160e01b6000525260246000fd5b505050600090565b82813d8311612a0a575b6129f98183610dfc565b81010312610339575051803861298a565b503d6129ef565b513d6000823e3d90fd5b909181813d8311612a4d575b612a318183610dfc565b8101031261047b57519084821682036103395750819038612965565b503d612a27565b83513d6000823e3d90fd5b825162461bcd60e51b81528087018390526019602482015278151bdad95b881b9bdd08199bdd5b9908199bdc881b5bd9195b603a1b6044820152606490fd5b9091508281813d8311612ad2575b612ab68183610dfc565b8101031261047b57519084821682036103395750839038612936565b503d612aac565b9091604091825190636204891b60e11b825281612b0260209283600484015260248301906113c0565b6001600160a01b039391839183919003817f000000000000000000000000000000000000000000000000000000000000000087165afa908115612c2657908391600091612c71575b50168015612c3157816004918651928380926367f855cb60e11b82525afa908115612c2657908291600091612bed575b506004865180958193634c8bc3e560e01b8352165afa938415612a115750600093612bbc575b505060045483106129dd576128a66128ab92620f424094611459565b8181949293943d8311612be6575b612bd48183610dfc565b81010312610339575051903880612ba0565b503d612bca565b909181813d8311612c1f575b612c038183610dfc565b8101031261047b57519083821682036103395750819038612b7a565b503d612bf9565b85513d6000823e3d90fd5b845162461bcd60e51b8152600481018390526019602482015278151bdad95b881b9bdd08199bdd5b9908199bdc881b5bd9195b603a1b6044820152606490fd5b9091508281813d8311612ca5575b612c898183610dfc565b8101031261047b57519083821682036103395750829038612b4a565b503d612c7f565b808211156128bf57610f21916117ac565b6080612cfb91612ccd815161334d565b612cda602082015161334d565b612ce7604082015161334d565b612cf4606082015161334d565b015161334d565b565b9081158015612d6f575b612d6b57612d3d612cfb9260405190612d1f82610dc6565b600c82526b1b585e0818dbdcdd081d5cd960a21b6020830152613320565b60405190612d4a82610dc6565b600f82526e1858dd1d585b0818dbdcdd081d5cd9608a1b6020830152613320565b5050565b508015612d07565b9081158015612d89575b6128bf571190565b508015612d81565b6001600160401b038111610d825760051b60200190565b90612db282612d91565b612dbf6040519182610dfc565b8281528092612dd0601f1991612d91565b0190602036910137565b918115612f64576064808311612f465760009392612df781612da8565b94612e0182612da8565b9481925b808410612e5d575050612710915003612e1b5750565b60405162461bcd60e51b815260206004820152601860248201527f57656967687473206d7573742073756d20746f203130302500000000000000006044820152fd5b9091612e7061023661216686858761177b565b60005b848110612eca5750612ebc612ec291612e9061216687868861177b565b612e9a878c611798565b6001600160a01b0390911690526020612eb487868861177b565b013590611482565b9361176c565b929190612e05565b612ed861216686858761177b565b6001600160a01b0380612eeb848d611798565b5116911614612f0257612efd9061176c565b612e73565b60405162461bcd60e51b815260206004820152601d60248201527f4475706c696361746520636f6e7472696275746f72206164647265737300000060448201528690fd5b82604491604051916342b154e560e01b835260048301526024820152fd5b604051633c4d929d60e21b8152600490fd5b6020908181840312610e63578051906001600160401b038211610e6357019180601f84011215610e63578251612fab81612d91565b93612fb96040519586610dfc565b818552838086019260051b820101928311610e63578301905b828210612fe0575050505090565b81518152908301908301612fd2565b9693919061300e61301d919a999796949a610100808b528a01906113c0565b602092898203848b01526117b9565b878103604089015281808b5192838152019a019160005b82811061308d575050505061307f93929161305e8961306c9389610f219b9c0360608b01526117f6565b9087820360808901526117f6565b9160a086015284820360c08601526117f6565b9160e08184039101526113c0565b83518c529a81019a92810192600101613034565b9690949593966130b18651612da8565b906130bc8751612da8565b966130c78151612da8565b9360005b825181101561319d57806127106131878e8c612116858e8e8e8e6131688f9c8f9d6130fa6131989f8390611798565b5161315f6054604051928360209e8f928361311e818501998a81519384920161139d565b8301906bffffffffffffffffffffffff199060601b168482015261314c82518093603496878501910161139d565b0187838201520390810184520182610dfc565b51902092611798565b52613181848761317982878761177b565b013592611798565b5261177b565b04613192828d611798565b5261176c565b6130cb565b509991955095926131cb945096600097989298604051998a9889986329a0dd4960e01b8a5260048a01612fef565b0381837f00000000000000000000000000000000000000000000000000000000000000006001600160a01b03165af1801561321e576132075750565b61321b903d806000833e6127748183610dfc565b50565b6040513d6000823e3d90fd5b80156132cc5780816000925b6132b6575061324482610eb4565b916132526040519384610dfc565b80835281601f1961326283610eb4565b013660208601375b61327357505090565b600019810190811161146c578091600a916030838306810180911161146c5760f81b6001600160f81b03191660001a906132ad908661148f565b5304908161326a565b90916132c3600a9161176c565b92910480613236565b506040516132d981610dc6565b60018152600360fc1b602082015290565b6001600160a01b0316156132fb5750565b60405163eac0d38960e01b8152602060048201529081906110a79060248301906113c0565b156133285750565b60405163589956a560e11b8152602060048201529081906110a79060248301906113c0565b6127101061335757565b60405163589956a560e11b815260206004820152601560248201527476616c75652065786365656473206d6178696d756d60581b6044820152606490fdfe0c40893bf3c4e890eb5c92353d4cea2a7f4e1e60667d2e04ce77813b07f64ee4379eb16b5a0469dd3188be06c54cea67019459aea34bb7222bac67a2ddf15e29a264697066735822122042aa6f0e53c32b911b09de4c8a2f225e990b4d725ff96a6d4781b5cc6eb987d964736f6c634300081400332f8788117e7eff1d82e926ec794901d17c78024a50270940304540a733656f0d",
  "linkReferences": {},
  "deployedLinkReferences": {}
}