{
  "_format": "hh-sol-artifact-1",
  "contractName": "DeltaVerifier",
  "sourceName": "contracts/DeltaVerifier.sol",
  "abi": [
    {
      "inputs": [
        {
          "internalType": "address",
          "name": "_modelRegistry",
          "type": "address"
        },
        {
          "internalType": "address payable",
          "name": "_tokenManager",
          "type": "address"
        },
        {
          "internalType": "address",
          "name": "_contributionRegistry",
          "type": "address"
        },
        {
          "internalType": "uint256",
          "name": "_baseRewardRate",
          "type": "uint256"
        },
        {
          "internalType": "uint256",
          "name": "_minImprovementBps",
          "type": "uint256"
        },
        {
          "internalType": "uint256",
          "name": "_maxReward",
          "type": "uint256"
        }
      ],
      "stateMutability": "nonpayable",
      "type": "constructor"
    },
    {
      "inputs": [],
      "name": "ArrayEmpty",
      "type": "error"
    },
    {
      "inputs": [
        {
          "internalType": "uint256",
          "name": "length",
          "type": "uint256"
        },
        {
          "internalType": "uint256",
          "name": "maxLength",
          "type": "uint256"
        }
      ],
      "name": "ArrayTooLarge",
      "type": "error"
    },
    {
      "inputs": [],
      "name": "AttestationThresholdNotConfigured",
      "type": "error"
    },
    {
      "inputs": [
        {
          "internalType": "address",
          "name": "attester",
          "type": "address"
        }
      ],
      "name": "AttesterAlreadyRegistered",
      "type": "error"
    },
    {
      "inputs": [
        {
          "internalType": "address",
          "name": "attester",
          "type": "address"
        }
      ],
      "name": "AttesterNotRegistered",
      "type": "error"
    },
    {
      "inputs": [
        {
          "internalType": "uint256",
          "name": "newAttesterCount",
          "type": "uint256"
        },
        {
          "internalType": "uint256",
          "name": "threshold",
          "type": "uint256"
        }
      ],
      "name": "AttesterThresholdWouldBeUnmet",
      "type": "error"
    },
    {
      "inputs": [
        {
          "internalType": "uint256",
          "name": "provided",
          "type": "uint256"
        },
        {
          "internalType": "uint256",
          "name": "required",
          "type": "uint256"
        }
      ],
      "name": "InsufficientAttesterSignatures",
      "type": "error"
    },
    {
      "inputs": [
        {
          "internalType": "string",
          "name": "context",
          "type": "string"
        }
      ],
      "name": "InvalidAmount",
      "type": "error"
    },
    {
      "inputs": [
        {
          "internalType": "uint256",
          "name": "threshold",
          "type": "uint256"
        },
        {
          "internalType": "uint256",
          "name": "attesterCount",
          "type": "uint256"
        }
      ],
      "name": "InvalidAttesterThreshold",
      "type": "error"
    },
    {
      "inputs": [],
      "name": "InvalidShortString",
      "type": "error"
    },
    {
      "inputs": [],
      "name": "LegacyMintEntrypointDisabled",
      "type": "error"
    },
    {
      "inputs": [
        {
          "internalType": "uint256",
          "name": "modelId",
          "type": "uint256"
        },
        {
          "internalType": "address",
          "name": "registryToken",
          "type": "address"
        },
        {
          "internalType": "address",
          "name": "tokenManagerToken",
          "type": "address"
        }
      ],
      "name": "ModelTokenMismatch",
      "type": "error"
    },
    {
      "inputs": [
        {
          "internalType": "address",
          "name": "signer",
          "type": "address"
        }
      ],
      "name": "SignerNotAttester",
      "type": "error"
    },
    {
      "inputs": [
        {
          "internalType": "string",
          "name": "str",
          "type": "string"
        }
      ],
      "name": "StringTooLong",
      "type": "error"
    },
    {
      "inputs": [
        {
          "internalType": "address",
          "name": "signer",
          "type": "address"
        }
      ],
      "name": "UnorderedOrDuplicateAttesters",
      "type": "error"
    },
    {
      "inputs": [
        {
          "internalType": "string",
          "name": "context",
          "type": "string"
        }
      ],
      "name": "ZeroAddress",
      "type": "error"
    },
    {
      "inputs": [],
      "name": "ZeroAttester",
      "type": "error"
    },
    {
      "anonymous": false,
      "inputs": [
        {
          "indexed": true,
          "internalType": "address",
          "name": "attester",
          "type": "address"
        },
        {
          "indexed": false,
          "internalType": "uint256",
          "name": "attesterCount",
          "type": "uint256"
        }
      ],
      "name": "AttesterAdded",
      "type": "event"
    },
    {
      "anonymous": false,
      "inputs": [
        {
          "indexed": true,
          "internalType": "address",
          "name": "attester",
          "type": "address"
        },
        {
          "indexed": false,
          "internalType": "uint256",
          "name": "attesterCount",
          "type": "uint256"
        }
      ],
      "name": "AttesterRemoved",
      "type": "event"
    },
    {
      "anonymous": false,
      "inputs": [
        {
          "indexed": false,
          "internalType": "uint256",
          "name": "threshold",
          "type": "uint256"
        }
      ],
      "name": "AttesterThresholdUpdated",
      "type": "event"
    },
    {
      "anonymous": false,
      "inputs": [
        {
          "indexed": true,
          "internalType": "uint256",
          "name": "modelId",
          "type": "uint256"
        },
        {
          "indexed": false,
          "internalType": "address[]",
          "name": "contributors",
          "type": "address[]"
        },
        {
          "indexed": false,
          "internalType": "uint256[]",
          "name": "amounts",
          "type": "uint256[]"
        },
        {
          "indexed": false,
          "internalType": "uint256",
          "name": "totalAmount",
          "type": "uint256"
        }
      ],
      "name": "BatchRewardsDistributed",
      "type": "event"
    },
    {
      "anonymous": false,
      "inputs": [
        {
          "indexed": true,
          "internalType": "string",
          "name": "pipelineRunId",
          "type": "string"
        },
        {
          "indexed": true,
          "internalType": "uint256",
          "name": "modelId",
          "type": "uint256"
        },
        {
          "indexed": false,
          "internalType": "uint256",
          "name": "maxCostUsd",
          "type": "uint256"
        },
        {
          "indexed": false,
          "internalType": "uint256",
          "name": "actualCostUsd",
          "type": "uint256"
        }
      ],
      "name": "BudgetConstraintViolated",
      "type": "event"
    },
    {
      "anonymous": false,
      "inputs": [
        {
          "indexed": true,
          "internalType": "uint256",
          "name": "modelId",
          "type": "uint256"
        },
        {
          "indexed": true,
          "internalType": "bytes32",
          "name": "idempotencyKey",
          "type": "bytes32"
        },
        {
          "indexed": true,
          "internalType": "bytes32",
          "name": "benchmarkSpecHash",
          "type": "bytes32"
        },
        {
          "indexed": false,
          "internalType": "bytes32",
          "name": "attestationHash",
          "type": "bytes32"
        },
        {
          "indexed": false,
          "internalType": "bytes32",
          "name": "datasetHash",
          "type": "bytes32"
        },
        {
          "indexed": false,
          "internalType": "string",
          "name": "metricName",
          "type": "string"
        },
        {
          "indexed": false,
          "internalType": "string",
          "name": "metricFamily",
          "type": "string"
        },
        {
          "indexed": false,
          "internalType": "uint256",
          "name": "baselineScoreBps",
          "type": "uint256"
        },
        {
          "indexed": false,
          "internalType": "uint256",
          "name": "candidateScoreBps",
          "type": "uint256"
        },
        {
          "indexed": false,
          "internalType": "uint256",
          "name": "rewardAmount",
          "type": "uint256"
        },
        {
          "indexed": false,
          "internalType": "string",
          "name": "pipelineRunId",
          "type": "string"
        }
      ],
      "name": "DeltaOneAccepted",
      "type": "event"
    },
    {
      "anonymous": false,
      "inputs": [],
      "name": "EIP712DomainChanged",
      "type": "event"
    },
    {
      "anonymous": false,
      "inputs": [
        {
          "indexed": true,
          "internalType": "string",
          "name": "pipelineRunId",
          "type": "string"
        },
        {
          "indexed": true,
          "internalType": "uint256",
          "name": "modelId",
          "type": "uint256"
        }
      ],
      "name": "EvaluationSubmitted",
      "type": "event"
    },
    {
      "anonymous": false,
      "inputs": [
        {
          "indexed": true,
          "internalType": "address",
          "name": "by",
          "type": "address"
        }
      ],
      "name": "LegacyMintsDisabled",
      "type": "event"
    },
    {
      "anonymous": false,
      "inputs": [
        {
          "indexed": false,
          "internalType": "address",
          "name": "account",
          "type": "address"
        }
      ],
      "name": "Paused",
      "type": "event"
    },
    {
      "anonymous": false,
      "inputs": [
        {
          "indexed": true,
          "internalType": "address",
          "name": "contributor",
          "type": "address"
        },
        {
          "indexed": false,
          "internalType": "uint256",
          "name": "deltaInBps",
          "type": "uint256"
        },
        {
          "indexed": false,
          "internalType": "uint256",
          "name": "rewardAmount",
          "type": "uint256"
        }
      ],
      "name": "RewardCalculated",
      "type": "event"
    },
    {
      "anonymous": false,
      "inputs": [
        {
          "indexed": false,
          "internalType": "uint256",
          "name": "baseRewardRate",
          "type": "uint256"
        },
        {
          "indexed": false,
          "internalType": "uint256",
          "name": "minImprovementBps",
          "type": "uint256"
        },
        {
          "indexed": false,
          "internalType": "uint256",
          "name": "maxReward",
          "type": "uint256"
        }
      ],
      "name": "RewardParametersUpdated",
      "type": "event"
    },
    {
      "anonymous": false,
      "inputs": [
        {
          "indexed": true,
          "internalType": "bytes32",
          "name": "role",
          "type": "bytes32"
        },
        {
          "indexed": true,
          "internalType": "bytes32",
          "name": "previousAdminRole",
          "type": "bytes32"
        },
        {
          "indexed": true,
          "internalType": "bytes32",
          "name": "newAdminRole",
          "type": "bytes32"
        }
      ],
      "name": "RoleAdminChanged",
      "type": "event"
    },
    {
      "anonymous": false,
      "inputs": [
        {
          "indexed": true,
          "internalType": "bytes32",
          "name": "role",
          "type": "bytes32"
        },
        {
          "indexed": true,
          "internalType": "address",
          "name": "account",
          "type": "address"
        },
        {
          "indexed": true,
          "internalType": "address",
          "name": "sender",
          "type": "address"
        }
      ],
      "name": "RoleGranted",
      "type": "event"
    },
    {
      "anonymous": false,
      "inputs": [
        {
          "indexed": true,
          "internalType": "bytes32",
          "name": "role",
          "type": "bytes32"
        },
        {
          "indexed": true,
          "internalType": "address",
          "name": "account",
          "type": "address"
        },
        {
          "indexed": true,
          "internalType": "address",
          "name": "sender",
          "type": "address"
        }
      ],
      "name": "RoleRevoked",
      "type": "event"
    },
    {
      "anonymous": false,
      "inputs": [
        {
          "indexed": false,
          "internalType": "address",
          "name": "account",
          "type": "address"
        }
      ],
      "name": "Unpaused",
      "type": "event"
    },
    {
      "inputs": [],
      "name": "DEFAULT_ADMIN_ROLE",
      "outputs": [
        {
          "internalType": "bytes32",
          "name": "",
          "type": "bytes32"
        }
      ],
      "stateMutability": "view",
      "type": "function"
    },
    {
      "inputs": [],
      "name": "PAUSER_ROLE",
      "outputs": [
        {
          "internalType": "bytes32",
          "name": "",
          "type": "bytes32"
        }
      ],
      "stateMutability": "view",
      "type": "function"
    },
    {
      "inputs": [],
      "name": "SUBMITTER_ROLE",
      "outputs": [
        {
          "internalType": "bytes32",
          "name": "",
          "type": "bytes32"
        }
      ],
      "stateMutability": "view",
      "type": "function"
    },
    {
      "inputs": [
        {
          "internalType": "address",
          "name": "attester",
          "type": "address"
        }
      ],
      "name": "addAttester",
      "outputs": [],
      "stateMutability": "nonpayable",
      "type": "function"
    },
    {
      "inputs": [],
      "name": "attesterCount",
      "outputs": [
        {
          "internalType": "uint256",
          "name": "",
          "type": "uint256"
        }
      ],
      "stateMutability": "view",
      "type": "function"
    },
    {
      "inputs": [],
      "name": "attesterThreshold",
      "outputs": [
        {
          "internalType": "uint256",
          "name": "",
          "type": "uint256"
        }
      ],
      "stateMutability": "view",
      "type": "function"
    },
    {
      "inputs": [],
      "name": "baseRewardRate",
      "outputs": [
        {
          "internalType": "uint256",
          "name": "",
          "type": "uint256"
        }
      ],
      "stateMutability": "view",
      "type": "function"
    },
    {
      "inputs": [
        {
          "internalType": "uint256",
          "name": "",
          "type": "uint256"
        },
        {
          "components": [
            {
              "internalType": "uint256",
              "name": "accuracy",
              "type": "uint256"
            },
            {
              "internalType": "uint256",
              "name": "precision",
              "type": "uint256"
            },
            {
              "internalType": "uint256",
              "name": "recall",
              "type": "uint256"
            },
            {
              "internalType": "uint256",
              "name": "f1",
              "type": "uint256"
            },
            {
              "internalType": "uint256",
              "name": "auroc",
              "type": "uint256"
            }
          ],
          "internalType": "struct DeltaVerifier.Metrics",
          "name": "baseline",
          "type": "tuple"
        },
        {
          "components": [
            {
              "internalType": "uint256",
              "name": "accuracy",
              "type": "uint256"
            },
            {
              "internalType": "uint256",
              "name": "precision",
              "type": "uint256"
            },
            {
              "internalType": "uint256",
              "name": "recall",
              "type": "uint256"
            },
            {
              "internalType": "uint256",
              "name": "f1",
              "type": "uint256"
            },
            {
              "internalType": "uint256",
              "name": "auroc",
              "type": "uint256"
            }
          ],
          "internalType": "struct DeltaVerifier.Metrics",
          "name": "newMetrics",
          "type": "tuple"
        }
      ],
      "name": "calculateDeltaOneForModel",
      "outputs": [
        {
          "internalType": "uint256",
          "name": "",
          "type": "uint256"
        }
      ],
      "stateMutability": "pure",
      "type": "function"
    },
    {
      "inputs": [
        {
          "internalType": "uint256",
          "name": "deltaInBps",
          "type": "uint256"
        },
        {
          "internalType": "uint256",
          "name": "contributorWeight",
          "type": "uint256"
        },
        {
          "internalType": "uint256",
          "name": "",
          "type": "uint256"
        }
      ],
      "name": "calculateReward",
      "outputs": [
        {
          "internalType": "uint256",
          "name": "",
          "type": "uint256"
        }
      ],
      "stateMutability": "view",
      "type": "function"
    },
    {
      "inputs": [
        {
          "internalType": "string",
          "name": "modelId",
          "type": "string"
        },
        {
          "internalType": "uint256",
          "name": "deltaInBps",
          "type": "uint256"
        },
        {
          "internalType": "uint256",
          "name": "contributorWeight",
          "type": "uint256"
        },
        {
          "internalType": "uint256",
          "name": "",
          "type": "uint256"
        }
      ],
      "name": "calculateRewardDynamic",
      "outputs": [
        {
          "internalType": "uint256",
          "name": "",
          "type": "uint256"
        }
      ],
      "stateMutability": "view",
      "type": "function"
    },
    {
      "inputs": [],
      "name": "contributionRegistry",
      "outputs": [
        {
          "internalType": "contract IDataContributionRegistry",
          "name": "",
          "type": "address"
        }
      ],
      "stateMutability": "view",
      "type": "function"
    },
    {
      "inputs": [],
      "name": "disableLegacyMints",
      "outputs": [],
      "stateMutability": "nonpayable",
      "type": "function"
    },
    {
      "inputs": [],
      "name": "eip712Domain",
      "outputs": [
        {
          "internalType": "bytes1",
          "name": "fields",
          "type": "bytes1"
        },
        {
          "internalType": "string",
          "name": "name",
          "type": "string"
        },
        {
          "internalType": "string",
          "name": "version",
          "type": "string"
        },
        {
          "internalType": "uint256",
          "name": "chainId",
          "type": "uint256"
        },
        {
          "internalType": "address",
          "name": "verifyingContract",
          "type": "address"
        },
        {
          "internalType": "bytes32",
          "name": "salt",
          "type": "bytes32"
        },
        {
          "internalType": "uint256[]",
          "name": "extensions",
          "type": "uint256[]"
        }
      ],
      "stateMutability": "view",
      "type": "function"
    },
    {
      "inputs": [
        {
          "internalType": "bytes32",
          "name": "role",
          "type": "bytes32"
        }
      ],
      "name": "getRoleAdmin",
      "outputs": [
        {
          "internalType": "bytes32",
          "name": "",
          "type": "bytes32"
        }
      ],
      "stateMutability": "view",
      "type": "function"
    },
    {
      "inputs": [
        {
          "internalType": "bytes32",
          "name": "role",
          "type": "bytes32"
        },
        {
          "internalType": "address",
          "name": "account",
          "type": "address"
        }
      ],
      "name": "grantRole",
      "outputs": [],
      "stateMutability": "nonpayable",
      "type": "function"
    },
    {
      "inputs": [
        {
          "internalType": "bytes32",
          "name": "role",
          "type": "bytes32"
        },
        {
          "internalType": "address",
          "name": "account",
          "type": "address"
        }
      ],
      "name": "hasRole",
      "outputs": [
        {
          "internalType": "bool",
          "name": "",
          "type": "bool"
        }
      ],
      "stateMutability": "view",
      "type": "function"
    },
    {
      "inputs": [
        {
          "internalType": "uint256",
          "name": "modelId",
          "type": "uint256"
        },
        {
          "components": [
            {
              "internalType": "string",
              "name": "pipelineRunId",
              "type": "string"
            },
            {
              "internalType": "uint256",
              "name": "baselineScoreBps",
              "type": "uint256"
            },
            {
              "internalType": "uint256",
              "name": "candidateScoreBps",
              "type": "uint256"
            },
            {
              "internalType": "uint256",
              "name": "maxCostUsdMicro",
              "type": "uint256"
            },
            {
              "internalType": "uint256",
              "name": "actualCostUsdMicro",
              "type": "uint256"
            },
            {
              "internalType": "uint256",
              "name": "totalSamples",
              "type": "uint256"
            },
            {
              "components": [
                {
                  "internalType": "bytes32",
                  "name": "benchmarkSpecHash",
                  "type": "bytes32"
                },
                {
                  "internalType": "bytes32",
                  "name": "datasetHash",
                  "type": "bytes32"
                },
                {
                  "internalType": "bytes32",
                  "name": "attestationHash",
                  "type": "bytes32"
                },
                {
                  "internalType": "bytes32",
                  "name": "idempotencyKey",
                  "type": "bytes32"
                },
                {
                  "internalType": "string",
                  "name": "metricName",
                  "type": "string"
                },
                {
                  "internalType": "string",
                  "name": "metricFamily",
                  "type": "string"
                }
              ],
              "internalType": "struct DeltaVerifier.BenchmarkAnchors",
              "name": "anchors",
              "type": "tuple"
            }
          ],
          "internalType": "struct DeltaVerifier.MintRequestPayload",
          "name": "payload",
          "type": "tuple"
        },
        {
          "components": [
            {
              "internalType": "address",
              "name": "walletAddress",
              "type": "address"
            },
            {
              "internalType": "uint256",
              "name": "weight",
              "type": "uint256"
            }
          ],
          "internalType": "struct DeltaVerifier.Contributor[]",
          "name": "contributors",
          "type": "tuple[]"
        }
      ],
      "name": "hashMintRequest",
      "outputs": [
        {
          "internalType": "bytes32",
          "name": "",
          "type": "bytes32"
        }
      ],
      "stateMutability": "view",
      "type": "function"
    },
    {
      "inputs": [
        {
          "internalType": "address",
          "name": "",
          "type": "address"
        }
      ],
      "name": "isAttester",
      "outputs": [
        {
          "internalType": "bool",
          "name": "",
          "type": "bool"
        }
      ],
      "stateMutability": "view",
      "type": "function"
    },
    {
      "inputs": [],
      "name": "legacyMintsDisabled",
      "outputs": [
        {
          "internalType": "bool",
          "name": "",
          "type": "bool"
        }
      ],
      "stateMutability": "view",
      "type": "function"
    },
    {
      "inputs": [],
      "name": "maxReward",
      "outputs": [
        {
          "internalType": "uint256",
          "name": "",
          "type": "uint256"
        }
      ],
      "stateMutability": "view",
      "type": "function"
    },
    {
      "inputs": [],
      "name": "minImprovementBps",
      "outputs": [
        {
          "internalType": "uint256",
          "name": "",
          "type": "uint256"
        }
      ],
      "stateMutability": "view",
      "type": "function"
    },
    {
      "inputs": [],
      "name": "modelRegistry",
      "outputs": [
        {
          "internalType": "contract ModelRegistry",
          "name": "",
          "type": "address"
        }
      ],
      "stateMutability": "view",
      "type": "function"
    },
    {
      "inputs": [],
      "name": "pause",
      "outputs": [],
      "stateMutability": "nonpayable",
      "type": "function"
    },
    {
      "inputs": [],
      "name": "paused",
      "outputs": [
        {
          "internalType": "bool",
          "name": "",
          "type": "bool"
        }
      ],
      "stateMutability": "view",
      "type": "function"
    },
    {
      "inputs": [
        {
          "internalType": "bytes32",
          "name": "",
          "type": "bytes32"
        }
      ],
      "name": "processedIdempotencyKeys",
      "outputs": [
        {
          "internalType": "bool",
          "name": "",
          "type": "bool"
        }
      ],
      "stateMutability": "view",
      "type": "function"
    },
    {
      "inputs": [
        {
          "internalType": "address",
          "name": "attester",
          "type": "address"
        }
      ],
      "name": "removeAttester",
      "outputs": [],
      "stateMutability": "nonpayable",
      "type": "function"
    },
    {
      "inputs": [
        {
          "internalType": "bytes32",
          "name": "role",
          "type": "bytes32"
        },
        {
          "internalType": "address",
          "name": "account",
          "type": "address"
        }
      ],
      "name": "renounceRole",
      "outputs": [],
      "stateMutability": "nonpayable",
      "type": "function"
    },
    {
      "inputs": [
        {
          "internalType": "bytes32",
          "name": "role",
          "type": "bytes32"
        },
        {
          "internalType": "address",
          "name": "account",
          "type": "address"
        }
      ],
      "name": "revokeRole",
      "outputs": [],
      "stateMutability": "nonpayable",
      "type": "function"
    },
    {
      "inputs": [
        {
          "internalType": "uint256",
          "name": "threshold",
          "type": "uint256"
        }
      ],
      "name": "setAttesterThreshold",
      "outputs": [],
      "stateMutability": "nonpayable",
      "type": "function"
    },
    {
      "inputs": [
        {
          "internalType": "uint256",
          "name": "_baseRewardRate",
          "type": "uint256"
        }
      ],
      "name": "setBaseRewardRate",
      "outputs": [],
      "stateMutability": "nonpayable",
      "type": "function"
    },
    {
      "inputs": [
        {
          "internalType": "uint256",
          "name": "_maxReward",
          "type": "uint256"
        }
      ],
      "name": "setMaxReward",
      "outputs": [],
      "stateMutability": "nonpayable",
      "type": "function"
    },
    {
      "inputs": [
        {
          "internalType": "uint256",
          "name": "_minImprovementBps",
          "type": "uint256"
        }
      ],
      "name": "setMinImprovementBps",
      "outputs": [],
      "stateMutability": "nonpayable",
      "type": "function"
    },
    {
      "inputs": [
        {
          "internalType": "uint256",
          "name": "modelId",
          "type": "uint256"
        },
        {
          "components": [
            {
              "internalType": "string",
              "name": "pipelineRunId",
              "type": "string"
            },
            {
              "components": [
                {
                  "internalType": "uint256",
                  "name": "accuracy",
                  "type": "uint256"
                },
                {
                  "internalType": "uint256",
                  "name": "precision",
                  "type": "uint256"
                },
                {
                  "internalType": "uint256",
                  "name": "recall",
                  "type": "uint256"
                },
                {
                  "internalType": "uint256",
                  "name": "f1",
                  "type": "uint256"
                },
                {
                  "internalType": "uint256",
                  "name": "auroc",
                  "type": "uint256"
                }
              ],
              "internalType": "struct DeltaVerifier.Metrics",
              "name": "baselineMetrics",
              "type": "tuple"
            },
            {
              "components": [
                {
                  "internalType": "uint256",
                  "name": "accuracy",
                  "type": "uint256"
                },
                {
                  "internalType": "uint256",
                  "name": "precision",
                  "type": "uint256"
                },
                {
                  "internalType": "uint256",
                  "name": "recall",
                  "type": "uint256"
                },
                {
                  "internalType": "uint256",
                  "name": "f1",
                  "type": "uint256"
                },
                {
                  "internalType": "uint256",
                  "name": "auroc",
                  "type": "uint256"
                }
              ],
              "internalType": "struct DeltaVerifier.Metrics",
              "name": "newMetrics",
              "type": "tuple"
            },
            {
              "internalType": "address",
              "name": "contributor",
              "type": "address"
            },
            {
              "internalType": "uint256",
              "name": "contributorWeight",
              "type": "uint256"
            },
            {
              "internalType": "uint256",
              "name": "contributedSamples",
              "type": "uint256"
            },
            {
              "internalType": "uint256",
              "name": "totalSamples",
              "type": "uint256"
            },
            {
              "internalType": "uint256",
              "name": "maxCostUsd",
              "type": "uint256"
            },
            {
              "internalType": "uint256",
              "name": "actualCostUsd",
              "type": "uint256"
            }
          ],
          "internalType": "struct DeltaVerifier.EvaluationData",
          "name": "data",
          "type": "tuple"
        }
      ],
      "name": "submitEvaluation",
      "outputs": [
        {
          "internalType": "uint256",
          "name": "",
          "type": "uint256"
        }
      ],
      "stateMutability": "nonpayable",
      "type": "function"
    },
    {
      "inputs": [
        {
          "internalType": "uint256",
          "name": "modelId",
          "type": "uint256"
        },
        {
          "components": [
            {
              "internalType": "string",
              "name": "pipelineRunId",
              "type": "string"
            },
            {
              "components": [
                {
                  "internalType": "uint256",
                  "name": "accuracy",
                  "type": "uint256"
                },
                {
                  "internalType": "uint256",
                  "name": "precision",
                  "type": "uint256"
                },
                {
                  "internalType": "uint256",
                  "name": "recall",
                  "type": "uint256"
                },
                {
                  "internalType": "uint256",
                  "name": "f1",
                  "type": "uint256"
                },
                {
                  "internalType": "uint256",
                  "name": "auroc",
                  "type": "uint256"
                }
              ],
              "internalType": "struct DeltaVerifier.Metrics",
              "name": "baselineMetrics",
              "type": "tuple"
            },
            {
              "components": [
                {
                  "internalType": "uint256",
                  "name": "accuracy",
                  "type": "uint256"
                },
                {
                  "internalType": "uint256",
                  "name": "precision",
                  "type": "uint256"
                },
                {
                  "internalType": "uint256",
                  "name": "recall",
                  "type": "uint256"
                },
                {
                  "internalType": "uint256",
                  "name": "f1",
                  "type": "uint256"
                },
                {
                  "internalType": "uint256",
                  "name": "auroc",
                  "type": "uint256"
                }
              ],
              "internalType": "struct DeltaVerifier.Metrics",
              "name": "newMetrics",
              "type": "tuple"
            },
            {
              "components": [
                {
                  "internalType": "address",
                  "name": "walletAddress",
                  "type": "address"
                },
                {
                  "internalType": "uint256",
                  "name": "contributorWeight",
                  "type": "uint256"
                },
                {
                  "internalType": "uint256",
                  "name": "contributedSamples",
                  "type": "uint256"
                },
                {
                  "internalType": "uint256",
                  "name": "totalSamples",
                  "type": "uint256"
                }
              ],
              "internalType": "struct DeltaVerifier.ContributorInfo",
              "name": "contributorInfo",
              "type": "tuple"
            },
            {
              "internalType": "uint256",
              "name": "maxCostUsd",
              "type": "uint256"
            },
            {
              "internalType": "uint256",
              "name": "actualCostUsd",
              "type": "uint256"
            }
          ],
          "internalType": "struct DeltaVerifier.EvaluationDataWithInfo",
          "name": "data",
          "type": "tuple"
        }
      ],
      "name": "submitEvaluationWithContributorInfo",
      "outputs": [
        {
          "internalType": "uint256",
          "name": "",
          "type": "uint256"
        }
      ],
      "stateMutability": "nonpayable",
      "type": "function"
    },
    {
      "inputs": [
        {
          "internalType": "uint256",
          "name": "modelId",
          "type": "uint256"
        },
        {
          "components": [
            {
              "internalType": "string",
              "name": "pipelineRunId",
              "type": "string"
            },
            {
              "components": [
                {
                  "internalType": "uint256",
                  "name": "accuracy",
                  "type": "uint256"
                },
                {
                  "internalType": "uint256",
                  "name": "precision",
                  "type": "uint256"
                },
                {
                  "internalType": "uint256",
                  "name": "recall",
                  "type": "uint256"
                },
                {
                  "internalType": "uint256",
                  "name": "f1",
                  "type": "uint256"
                },
                {
                  "internalType": "uint256",
                  "name": "auroc",
                  "type": "uint256"
                }
              ],
              "internalType": "struct DeltaVerifier.Metrics",
              "name": "baselineMetrics",
              "type": "tuple"
            },
            {
              "components": [
                {
                  "internalType": "uint256",
                  "name": "accuracy",
                  "type": "uint256"
                },
                {
                  "internalType": "uint256",
                  "name": "precision",
                  "type": "uint256"
                },
                {
                  "internalType": "uint256",
                  "name": "recall",
                  "type": "uint256"
                },
                {
                  "internalType": "uint256",
                  "name": "f1",
                  "type": "uint256"
                },
                {
                  "internalType": "uint256",
                  "name": "auroc",
                  "type": "uint256"
                }
              ],
              "internalType": "struct DeltaVerifier.Metrics",
              "name": "newMetrics",
              "type": "tuple"
            },
            {
              "internalType": "uint256",
              "name": "maxCostUsd",
              "type": "uint256"
            },
            {
              "internalType": "uint256",
              "name": "actualCostUsd",
              "type": "uint256"
            },
            {
              "internalType": "uint256",
              "name": "totalSamples",
              "type": "uint256"
            }
          ],
          "internalType": "struct DeltaVerifier.EvaluationDataBase",
          "name": "data",
          "type": "tuple"
        },
        {
          "components": [
            {
              "internalType": "address",
              "name": "walletAddress",
              "type": "address"
            },
            {
              "internalType": "uint256",
              "name": "weight",
              "type": "uint256"
            }
          ],
          "internalType": "struct DeltaVerifier.Contributor[]",
          "name": "contributors",
          "type": "tuple[]"
        }
      ],
      "name": "submitEvaluationWithMultipleContributors",
      "outputs": [
        {
          "internalType": "uint256",
          "name": "",
          "type": "uint256"
        }
      ],
      "stateMutability": "nonpayable",
      "type": "function"
    },
    {
      "inputs": [
        {
          "internalType": "uint256",
          "name": "modelId",
          "type": "uint256"
        },
        {
          "components": [
            {
              "internalType": "string",
              "name": "pipelineRunId",
              "type": "string"
            },
            {
              "internalType": "uint256",
              "name": "baselineScoreBps",
              "type": "uint256"
            },
            {
              "internalType": "uint256",
              "name": "candidateScoreBps",
              "type": "uint256"
            },
            {
              "internalType": "uint256",
              "name": "maxCostUsdMicro",
              "type": "uint256"
            },
            {
              "internalType": "uint256",
              "name": "actualCostUsdMicro",
              "type": "uint256"
            },
            {
              "internalType": "uint256",
              "name": "totalSamples",
              "type": "uint256"
            },
            {
              "components": [
                {
                  "internalType": "bytes32",
                  "name": "benchmarkSpecHash",
                  "type": "bytes32"
                },
                {
                  "internalType": "bytes32",
                  "name": "datasetHash",
                  "type": "bytes32"
                },
                {
                  "internalType": "bytes32",
                  "name": "attestationHash",
                  "type": "bytes32"
                },
                {
                  "internalType": "bytes32",
                  "name": "idempotencyKey",
                  "type": "bytes32"
                },
                {
                  "internalType": "string",
                  "name": "metricName",
                  "type": "string"
                },
                {
                  "internalType": "string",
                  "name": "metricFamily",
                  "type": "string"
                }
              ],
              "internalType": "struct DeltaVerifier.BenchmarkAnchors",
              "name": "anchors",
              "type": "tuple"
            }
          ],
          "internalType": "struct DeltaVerifier.MintRequestPayload",
          "name": "payload",
          "type": "tuple"
        },
        {
          "components": [
            {
              "internalType": "address",
              "name": "walletAddress",
              "type": "address"
            },
            {
              "internalType": "uint256",
              "name": "weight",
              "type": "uint256"
            }
          ],
          "internalType": "struct DeltaVerifier.Contributor[]",
          "name": "contributors",
          "type": "tuple[]"
        },
        {
          "internalType": "bytes[]",
          "name": "attesterSignatures",
          "type": "bytes[]"
        }
      ],
      "name": "submitMintRequest",
      "outputs": [
        {
          "internalType": "uint256",
          "name": "",
          "type": "uint256"
        }
      ],
      "stateMutability": "nonpayable",
      "type": "function"
    },
    {
      "inputs": [
        {
          "internalType": "bytes4",
          "name": "interfaceId",
          "type": "bytes4"
        }
      ],
      "name": "supportsInterface",
      "outputs": [
        {
          "internalType": "bool",
          "name": "",
          "type": "bool"
        }
      ],
      "stateMutability": "view",
      "type": "function"
    },
    {
      "inputs": [],
      "name": "tokenManager",
      "outputs": [
        {
          "internalType": "contract TokenManager",
          "name": "",
          "type": "address"
        }
      ],
      "stateMutability": "view",
      "type": "function"
    },
    {
      "inputs": [],
      "name": "unpause",
      "outputs": [],
      "stateMutability": "nonpayable",
      "type": "function"
    }
  ],
  "bytecode": "0x6101c0346200053457601f6200515138819003918201601f19168301916001600160401b038311848410176200051e5780849260c09460405283398101031262000534576200004e8162000555565b602082015190916001600160a01b03821682036200053457620000746040820162000555565b9060608101519060a0608082015191015191604051620000948162000539565b6014815260208101907f486f6b7573616944656c74615665726966696572000000000000000000000000825260405191620000cf8362000539565b600183526020830191603160f81b83526001805560ff1960025416600255620000f8816200056a565b61012052620001078462000704565b61014052519020918260e05251902080610100524660a0526040519060208201927f8b73c3c69bb8fe3d512ecc4cf759cc79239f7b179b0ffacaa9a75d522b39400f8452604083015260608201524660808201523060a082015260a0815260c081019080821060018060401b038311176200051e5760e06d6d6f64656c20726567697374727960901b91620001bd9484604052815190206080523060c052620001b08462000539565b600e8452015287620008b9565b620001f9604051620001cf8162000539565b600d81526c3a37b5b2b71036b0b730b3b2b960991b60208201526001600160a01b038716620008b9565b6200023c6040516200020b8162000539565b601581527f636f6e747269627574696f6e2072656769737472790000000000000000000000602082015285620008b9565b6200026d6040516200024e8162000539565b600b81526a726577617264207261746560a81b602082015282620008ea565b620002a26040516200027f8162000539565b600f81526e1b5a5b881a5b5c1c9bdd995b595b9d608a1b602082015283620008ea565b6001600160a01b03958616610160908152948616610180908152939095166101a09081526006959095556007556008553360009081527fad3228b676f7d3cd4284a5443f17f1962b36e491b30a40b2405849e597ba5fb560205260408120549293919260ff1615620004e2575b7f65d7a28e3265b37a6474929f336521b332c1681b933f6cb9f3376673440d862a808252816020526040822033835260205260ff60408320541615620004a4575b507fe1a65d1a914580ff6931bc952f0fb26573e9282358a4458bceb9ccc6d923d04190818152806020526040812033825260205260ff6040822054161562000466575b50506040519161481e938462000913853960805184612f38015260a05184613003015260c05184612f02015260e05184612f8701526101005184612fad015261012051846109150152610140518461093f01525183818161029901528181611081015281816111f80152818161228e015281816126e701528181613598015281816138ec01526140b20152518281816110c5015281816123cf015281816129fa015281816131f4015281816135f10152818161394501526141180152518181816106740152818161339a01526140320152f35b818152806020526040812033825260205260408120600160ff19825416179055339160008051602062005131833981519152339280a4388062000393565b808252816020526040822033835260205260408220600160ff1982541617905533903390600080516020620051318339815191528480a43862000350565b808052806020526040812033825260205260408120600160ff19825416179055333382600080516020620051318339815191528180a46200030f565b634e487b7160e01b600052604160045260246000fd5b600080fd5b604081019081106001600160401b038211176200051e57604052565b51906001600160a01b03821682036200053457565b80516020919082811015620005c9575090601f825111620005a857808251920151908083106200059957501790565b82600019910360031b1b161790565b60405163305a27a960e01b815280620005c584600483016200086e565b0390fd5b6001600160401b0381116200051e576003928354926001938481811c91168015620006f9575b83821014620006e357601f8111620006aa575b5081601f841160011462000641575092829391839260009462000635575b50501b9160001990841b1c191617905560ff90565b01519250388062000620565b919083601f1981168760005284600020946000905b888383106200068f575050501062000676575b505050811b01905560ff90565b015160001983861b60f8161c1916905538808062000669565b85870151885590960195948501948793509081019062000656565b8560005284601f84600020920160051c820191601f860160051c015b828110620006d657505062000602565b60008155018590620006c6565b634e487b7160e01b600052602260045260246000fd5b90607f1690620005ef565b8051602091908281101562000733575090601f825111620005a857808251920151908083106200059957501790565b6001600160401b0381116200051e576004928354926001938481811c9116801562000863575b838210146200084e57601f811162000815575b5081601f8411600114620007ac5750928293918392600094620007a0575b50501b916000199060031b1c191617905560ff90565b0151925038806200078a565b919083601f1981168760005284600020946000905b88838310620007fa5750505010620007e057505050811b01905560ff90565b015160001960f88460031b161c1916905538808062000669565b858701518855909601959485019487935090810190620007c1565b8560005284601f84600020920160051c820191601f860160051c015b828110620008415750506200076c565b6000815501859062000831565b602286634e487b7160e01b6000525260246000fd5b90607f169062000759565b6020808252825181830181905290939260005b828110620008a457505060409293506000838284010152601f8019910116010190565b81810186015184820160400152850162000881565b6001600160a01b031615620008cb5750565b60405163eac0d38960e01b8152908190620005c590600483016200086e565b15620008f35750565b60405163589956a560e11b8152908190620005c590600483016200086e56fe608060408181526004918236101561001657600080fd5b600060e0918135831c90816301e08bfe146114695750806301ffc9a71461141257806302bef8471461135257806313e502d1146111a45780631481103f14611185578063248a9ca31461115a57806325c33e13146110f45780632a709b14146110b05780632ba36f781461106c5780632f2ff15d14610fc257806336568abe14610f305780633f4ba83a14610e995780635085795014610e545780635547c73a14610e2657806358da0d0914610e025780635c975abb14610dde5780635d3e811b14610d2d57806365defa0f14610cdf57806366a78e6c14610cc0578063803b64f414610c475780638456cb59146109ed57806384b0196e146108ff5780638725ac511461086857806391712a0b1461082d57806391d14854146107e65780639cb20b73146107c7578063a217fddf146107ac578063a8e62b9714610787578063ae18ba2f14610700578063afbf3440146106e1578063b6ebe539146106a3578063b7c303761461065f578063cc78fef11461057a578063d547741f1461053c578063e63ab1e914610501578063f0a9abe71461046d578063f2f667cb1461044e578063f6c5506b146102435763fa07b323146101d257600080fd5b3461023c576003199060603683011261023c57602435926001600160401b039283851161023f57843603011261023c5760443591821161023c57506020936102359261022461023093369084016116d7565b929091810190356143c1565b612ed9565b9051908152f35b80fd5b8280fd5b50903461044a5761025336611631565b91909261025e6120a6565b610266612062565b61026e611950565b60ff6005541661043a578451630af34d3160e31b81528681018590526020966001600160a01b0392917f0000000000000000000000000000000000000000000000000000000000000000841691908981602481865afa908115610430578a926102e28a936024938891610413575b50611fdc565b8a5194859384926302855ced60e01b84528301525afa918215610408579261031e61035b96936103d098969361020096916103db575b5061201f565b6103278561408c565b6101608301610346610338826120fc565b610340612110565b906146fd565b61036f610353858061213a565b9890926120fc565b918a51986103688a611503565b3691611682565b875261037d368b86016115ba565b8a88015261038e3660c086016115ba565b8988015216606086015261018082013560808601526101a082013560a08601526101c082013560c08601526101e0820135908501520135610100830152613049565b906001805551908152f35b6103fb91508b3d8d11610401575b6103f38183611599565b810190611fc4565b38610318565b503d6103e9565b8751903d90823e3d90fd5b61042a9150863d8811610401576103f38183611599565b386102dc565b89513d86823e3d90fd5b845163dc6c57a360e01b81528690fd5b5080fd5b50823461044a578160031936011261044a576020906007549051908152f35b5083833461023f57602036600319011261023f577f9ddb79ef2dfcf719d2378c10c25ab769e26c3a6874121d6d65aac014cdf365e991356104ac611783565b6104d882516104ba81611563565b600b81526a726577617264207261746560a81b602082015282614733565b600681905560075460085492519182526020820152604081019190915280606081015b0390a180f35b50823461044a578160031936011261044a57602090517f65d7a28e3265b37a6474929f336521b332c1681b933f6cb9f3376673440d862a8152f35b5083833461023f578060031936011261023f576105779135610572600161056161161b565b938387528660205286200154611a95565b611b9f565b80f35b5082843461023f57602036600319011261023f57610596611605565b61059e611783565b6001600160a01b0316808452600b6020528284205490929060ff161561064a57600c5460001981019290831161063757600d5480841061061d5750507f861c92b0d2314ad8be38c33e03205af164d31657e73664b30b77d1913145585191602091848652600b835280862060ff19815416905581600c5551908152a280f35b836044935192637107399b60e01b84528301526024820152fd5b634e487b7160e01b855260119052602484fd5b91602492519163e5e305fd60e01b8352820152fd5b50823461044a578160031936011261044a57517f00000000000000000000000000000000000000000000000000000000000000006001600160a01b03168152602090f35b50823461044a57602036600319011261044a5760209160ff9082906001600160a01b036106ce611605565b168152600b855220541690519015158152f35b50823461044a578160031936011261044a576020906006549051908152f35b5083833461023f57602036600319011261023f5781359161071f611783565b8215801561077c575b61075e5750816020917f190a4e27d9700d777e8a34d3884f8c72449f2c3e7c5cb7590b854acec294cf0193600d5551908152a180f35b90604492600c54915192634bdf3e8d60e01b84528301526024820152fd5b50600c548311610728565b5090503461023c57606036600319011261023c575061023560209260243590356134fd565b50823461044a578160031936011261044a5751908152602090f35b50823461044a578160031936011261044a57602090600d549051908152f35b5082843461023f578160031936011261023f578160209360ff9261080861161b565b903582528186528282206001600160a01b039091168252855220549151911615158152f35b50823461044a578160031936011261044a57602090517fe1a65d1a914580ff6931bc952f0fb26573e9282358a4458bceb9ccc6d923d0418152f35b5083833461023f57602036600319011261023f577f9ddb79ef2dfcf719d2378c10c25ab769e26c3a6874121d6d65aac014cdf365e99135906108a8611783565b6108d881516108b681611563565b600f81526e1b5a5b881a5b5c1c9bdd995b595b9d608a1b602082015283614733565b600782905560065460085491519081526020810192909252604082015280606081016104fb565b503461023c578060031936011261023c576109397f0000000000000000000000000000000000000000000000000000000000000000611dc7565b926109637f0000000000000000000000000000000000000000000000000000000000000000611eee565b90805191602083018381106001600160401b038211176109da57916109b7916109d695949382528484526109aa8251988998600f60f81b8a528060208b015289019061172a565b918783039088015261172a565b9146606086015230608086015260a085015283820360c085015261174f565b0390f35b634e487b7160e01b855260418852602485fd5b5083833461023f578260031936011261023f577f65d7a28e3265b37a6474929f336521b332c1681b933f6cb9f3376673440d862a91828452602092848452828520338652845260ff838620541615610a8057847f62e78cea01bee320cd4e420270b5ea74000d11b0c9f74754ebdbfc544b05a2588585610a6b612062565b600160ff19600254161760025551338152a180f35b909293610a8c33611c70565b91835190610a998261157e565b60428252868201926060368537825115610c345760308453825190600191821015610c215790607860218501536041915b818311610bb657505050610b75576048610b48938593610b5793610b71975196879376020b1b1b2b9b9a1b7b73a3937b61d1030b1b1b7bab73a1604d1b8c860152610b1f8c8251928391603789019101611707565b8401917001034b99036b4b9b9b4b733903937b6329607d1b603784015251809386840190611707565b01036028810185520183611599565b5193849362461bcd60e51b8552840152602483019061172a565b0390fd5b606485878087519262461bcd60e51b845283015260248201527f537472696e67733a20686578206c656e67746820696e73756666696369656e746044820152fd5b909192600f81166010811015610c0e576f181899199a1a9b1b9c1cb0b131b232b360811b901a610be68587611c49565b53881c928015610bfb57600019019190610aca565b634e487b7160e01b825260118952602482fd5b634e487b7160e01b835260328a52602483fd5b634e487b7160e01b815260328852602490fd5b634e487b7160e01b815260328752602490fd5b5090503461023c5760031960603682011261044a57602435916001600160401b039182841161044a576101c090843603011261023c5760443591821161023c5750926103d091610c9c602095369084016116d7565b929091610ca76120a6565b610caf612062565b610cb7611950565b8101903561225b565b50823461044a578160031936011261044a576020906008549051908152f35b503461023c578060031936011261023c57610cf8611783565b600160ff196005541617600555337f8888a19634b1c56339214cfebfcd22878844ac6b1df0c9c57df0493545afcbdd8280a280f35b509234610dda576003199360803686011261023c57602435926001600160401b039586851161023f57843603011261023c5760443585811161044a57610d7690369084016116d7565b9290916064359087821161023c573660238301121561023c578183013597881161023c573660248960051b8401011161023c575091602096939160246103d09694610dbf6120a6565b610dc7612062565b610dcf611950565b0193810190356126c7565b8380fd5b50823461044a578160031936011261044a5760209060ff6002541690519015158152f35b50823461044a578160031936011261044a5760209060ff6005541690519015158152f35b5082843461023f57602036600319011261023f578160209360ff92358152600a855220541690519015158152f35b5090503461023c57608036600319011261023c578235906001600160401b03821161023c5750610e8c602093610235923691016116b9565b60443590602435906138ae565b5082843461023f578260031936011261023f57610eb4611783565b6002549060ff821615610ef6575060ff1916600255513381527f5db9ee0a495bf2e6ff9c91a7834c1ba4fdd244a5e8aa4e537bd38aeae4b073aa90602090a180f35b606490602084519162461bcd60e51b8352820152601460248201527314185d5cd8589b194e881b9bdd081c185d5cd95960621b6044820152fd5b8382863461044a578260031936011261044a57610f4b61161b565b90336001600160a01b03831603610f6757906105779135611b9f565b608490602085519162461bcd60e51b8352820152602f60248201527f416363657373436f6e74726f6c3a2063616e206f6e6c792072656e6f756e636560448201526e103937b632b9903337b91039b2b63360891b6064820152fd5b5082843461023f578160031936011261023f573590610fdf61161b565b9082845283602052610ff660018286200154611a95565b82845260208481528185206001600160a01b039093168086529290528084205460ff1615611022578380f35b828452836020528084208285526020528320600160ff1982541617905533917f2f8788117e7eff1d82e926ec794901d17c78024a50270940304540a733656f0d8480a48180808380f35b50823461044a578160031936011261044a57517f00000000000000000000000000000000000000000000000000000000000000006001600160a01b03168152602090f35b50823461044a578160031936011261044a57517f00000000000000000000000000000000000000000000000000000000000000006001600160a01b03168152602090f35b5083833461023f57602036600319011261023f577f9ddb79ef2dfcf719d2378c10c25ab769e26c3a6874121d6d65aac014cdf365e99135611133611783565b600881905560065460075492519081526020810192909252604082015280606081016104fb565b5082843461023f57602036600319011261023f57816020936001923581528085522001549051908152f35b50823461044a578160031936011261044a57602090600c549051908152f35b50903461044a576111b436611631565b90916111be6120a6565b6111c6612062565b6111ce611950565b60ff6005541661043a578451630af34d3160e31b81528681018490526020966001600160a01b03917f0000000000000000000000000000000000000000000000000000000000000000831691908981602481865afa908115611348578a9261124089936024938c916104135750611fdc565b8a5194859384926302855ced60e01b84528301525afa90811561133e579061126e918791611327575061201f565b6112778461408c565b610220833603126113235785519461128e86611503565b83356001600160401b03811161044a576112ab90369086016116b9565b86526112b9368986016115ba565b888701526112ca3660c086016115ba565b87870152610160840135918216820361023c5750606085015261018082013560808501526101a082013560a08501526101c082013560c08501526101e08201359084015261020001356101008301526103d09190613049565b8480fd5b6103fb9150893d8b11610401576103f38183611599565b87513d88823e3d90fd5b89513d8a823e3d90fd5b5082843461023f57602036600319011261023f5761136e611605565b611376611783565b6001600160a01b031691821561140557828452600b60205260ff81852054166113f057828452600b602052808420600160ff19825416179055600c5491600183018093116106375750816020917f1a5deac0287808691c5f3245f6a3bf0d11038f0abb7315d8926fcf0a7965a0ee93600c5551908152a280f35b9160249251916362b406ff60e01b8352820152fd5b51631e59c78160e01b8152fd5b5082843461023f57602036600319011261023f57359063ffffffff60e01b821680920361023f5760209250637965db0b60e01b8214918215611458575b50519015158152f35b6301ffc9a760e01b1491508361144f565b84833461023c5761016036600319011261023c5760a036602319011261023c5761149283611535565b6024358352604435602084015260643582840152608435606084015260a435608084015260a03660c319011261023c57506102356020928251906114d582611535565b60c4359182815260e43586820152610104358582015261012435606082015260806101443591015251613b57565b61012081019081106001600160401b0382111761151f57604052565b634e487b7160e01b600052604160045260246000fd5b60a081019081106001600160401b0382111761151f57604052565b6001600160401b03811161151f57604052565b604081019081106001600160401b0382111761151f57604052565b608081019081106001600160401b0382111761151f57604052565b90601f801991011681019081106001600160401b0382111761151f57604052565b91908260a0910312611600576040516115d281611535565b6080808294803584526020810135602085015260408101356040850152606081013560608501520135910152565b600080fd5b600435906001600160a01b038216820361160057565b602435906001600160a01b038216820361160057565b906003196040818401126116005760043592602435916001600160401b0383116116005782610220920301126116005760040190565b6001600160401b03811161151f57601f01601f191660200190565b92919261168e82611667565b9161169c6040519384611599565b829481845281830111611600578281602093846000960137010152565b9080601f83011215611600578160206116d493359101611682565b90565b9181601f84011215611600578235916001600160401b038311611600576020808501948460061b01011161160057565b60005b83811061171a5750506000910152565b818101518382015260200161170a565b9060209161174381518092818552858086019101611707565b601f01601f1916010190565b90815180825260208080930193019160005b82811061176f575050505090565b835185529381019392810192600101611761565b3360009081527fad3228b676f7d3cd4284a5443f17f1962b36e491b30a40b2405849e597ba5fb5602090815260408083205490929060ff16156117c557505050565b6117ce33611c70565b90808451906117dc8261157e565b6042825284820192606036853782511561193c576030845382519060019182101561193c5790607860218501536041915b8183116118ce5750505061188c576048610b7193869361187093611861985198899376020b1b1b2b9b9a1b7b73a3937b61d1030b1b1b7bab73a1604d1b8a860152610b1f815180928c603789019101611707565b01036028810187520185611599565b5192839262461bcd60e51b84526004840152602483019061172a565b60648486519062461bcd60e51b825280600483015260248201527f537472696e67733a20686578206c656e67746820696e73756666696369656e746044820152fd5b909192600f81166010811015611928576f181899199a1a9b1b9c1cb0b131b232b360811b901a6118fe8587611c49565b5360041c9280156119145760001901919061180d565b634e487b7160e01b82526011600452602482fd5b634e487b7160e01b83526032600452602483fd5b634e487b7160e01b81526032600452602490fd5b3360009081527f19c4d971a3d76901c4568731997aa60cfcecea3f445b26b7ae19155c24110b7e602090815260408083205490927fe1a65d1a914580ff6931bc952f0fb26573e9282358a4458bceb9ccc6d923d0419160ff16156119b45750505050565b6119bd33611c70565b918451906119ca8261157e565b6042825284820192606036853782511561193c576030845382519060019182101561193c5790607860218501536041915b818311611a4f5750505061188c576048610b7193869361187093611861985198899376020b1b1b2b9b9a1b7b73a3937b61d1030b1b1b7bab73a1604d1b8a860152610b1f815180928c603789019101611707565b909192600f81166010811015611928576f181899199a1a9b1b9c1cb0b131b232b360811b901a611a7f8587611c49565b5360041c928015611914576000190191906119fb565b600090808252602090828252604092838120338252835260ff848220541615611abe5750505050565b611ac733611c70565b91845190611ad48261157e565b6042825284820192606036853782511561193c576030845382519060019182101561193c5790607860218501536041915b818311611b595750505061188c576048610b7193869361187093611861985198899376020b1b1b2b9b9a1b7b73a3937b61d1030b1b1b7bab73a1604d1b8a860152610b1f815180928c603789019101611707565b909192600f81166010811015611928576f181899199a1a9b1b9c1cb0b131b232b360811b901a611b898587611c49565b5360041c92801561191457600019019190611b05565b9060009180835282602052604083209160018060a01b03169182845260205260ff604084205416611bcf57505050565b80835282602052604083208284526020526040832060ff1981541690557ff6391f5c32d9c69d2a47ea670b442974b53935d1edc7fd64eb21e047a839171b339380a4565b81810292918115918404141715611c2657565b634e487b7160e01b600052601160045260246000fd5b91908201809211611c2657565b908151811015611c5a570160200190565b634e487b7160e01b600052603260045260246000fd5b60405190606082018281106001600160401b0382111761151f57604052602a8252602082016040368237825115611c5a57603090538151600190811015611c5a57607860218401536029905b808211611d10575050611ccc5790565b606460405162461bcd60e51b815260206004820152602060248201527f537472696e67733a20686578206c656e67746820696e73756666696369656e746044820152fd5b9091600f81166010811015611d69576f181899199a1a9b1b9c1cb0b131b232b360811b901a611d3f8486611c49565b5360041c918015611d54576000190190611cbc565b60246000634e487b7160e01b81526011600452fd5b60246000634e487b7160e01b81526032600452fd5b6001600160401b03811161151f5760051b60200190565b90611d9f82611d7e565b611dac6040519182611599565b8281528092611dbd601f1991611d7e565b0190602036910137565b60ff8114611e055760ff811690601f8211611df35760405191611de983611563565b8252602082015290565b604051632cd44ac360e21b8152600490fd5b50604051600060035490600182811c90808416938415611ee4575b6020948584108114611ed05783875286949392918115611eb05750600114611e51575b50506116d492500382611599565b9093915060036000527fc2575a0e9e593c00f959f8c92f12db2869c3395a3b0502d05e2516446f71f85b936000915b818310611e985750506116d493508201013880611e43565b85548784018501529485019486945091830191611e80565b9150506116d494925060ff191682840152151560051b8201013880611e43565b634e487b7160e01b85526022600452602485fd5b91607f1691611e20565b60ff8114611f105760ff811690601f8211611df35760405191611de983611563565b50604051600060045490600182811c90808416938415611fba575b6020948584108114611ed05783875286949392918115611eb05750600114611f5b5750506116d492500382611599565b9093915060046000527f8a35acfbc15ff81a39ae7d344fd709f28e8600b4aa8c65c6b64bfe7fe36bd19b936000915b818310611fa25750506116d493508201013880611e43565b85548784018501529485019486945091830191611f8a565b91607f1691611f2b565b90816020910312611600575180151581036116005790565b15611fe357565b60405162461bcd60e51b8152602060048201526014602482015273135bd9195b081b9bdd081c9959da5cdd195c995960621b6044820152606490fd5b1561202657565b60405162461bcd60e51b8152602060048201526014602482015273135bd9195b081a5cc819195858dd1a5d985d195960621b6044820152606490fd5b60ff6002541661206e57565b60405162461bcd60e51b815260206004820152601060248201526f14185d5cd8589b194e881c185d5cd95960821b6044820152606490fd5b6002600154146120b7576002600155565b60405162461bcd60e51b815260206004820152601f60248201527f5265656e7472616e637947756172643a207265656e7472616e742063616c6c006044820152606490fd5b356001600160a01b03811681036116005790565b6040519061211d82611563565b600e82526d77616c6c6574206164647265737360901b6020830152565b903590601e198136030182121561160057018035906001600160401b0382116116005760200191813603831361160057565b6000198114611c265760010190565b9190811015611c5a5760061b0190565b805115611c5a5760200190565b8051821015611c5a5760209160051b010190565b91908203918211611c2657565b90815180825260208080930193019160005b8281106121d9575050505090565b83516001600160a01b0316855293810193928101926001016121cb565b9161221f906122116116d4959360608652606086019061172a565b9084820360208601526121b9565b91604081840391015261174f565b939291612256906122486040936060885260608801906121b9565b90868203602088015261174f565b930152565b9160009060ff6005541661267f5760408051630af34d3160e31b81526004810186905260209491926001600160a01b03917f00000000000000000000000000000000000000000000000000000000000000008316908781602481855afa90811561267557916122d489926024948a9161265e5750611fdc565b8651928380926302855ced60e01b82528c60048301525afa908115612654579061230491879161263d575061201f565b61230d8761408c565b6123178882613c3c565b9190986101a08501359182156125f95761016086013561018087013561233d8183613c22565b6125a557505061235460c08701358a880135613b57565b9a61235e8b61463d565b956123698d8861355a565b9c8d6123ab575b50505050505050506000805160206147a9833981519152929350806123949161213a565b80925192839283378101600081520390209180a390565b8d9b8b9c8d918d5b8881106125155750506123c692506121ac565b806124e7575b507f000000000000000000000000000000000000000000000000000000000000000016803b156124e3578851631e3b78fb60e31b8152908a9082908183816124198c898f600485016121f6565b03925af180156124d957908c9161248e575b5091612480959391612394989795936000805160206147c983398151915261246a6000805160206147a98339815191529d9e8d519182918a878461222d565b0390a261247a610368898061213a565b95613f03565b908493388080808080612370565b9161239498979593916000805160206147c983398151915261246a6000805160206147a98339815191529d6124c76124809b9997611550565b9d50505091939597985091939561242b565b89513d8c823e3d90fd5b8980fd5b61250e919b6124ff826124f98a61218b565b51611c3c565b6125088961218b565b52611c3c565b99386123cc565b9190809350612525838a8a61217b565b013561253091611c13565b61271090049d8e80612542848d612198565b5261254c91611c3c565b9d84612559838a8a61217b565b612562906120fc565b16908d805191868352858301527f23cb7dc0579e23905f2f88d85bd8fbee2e15f35d236f8b32a54a4ae6e829497391a261259b9061216c565b8f90918e926123b3565b955095925050507f2ee10088f961cefc50ce125f535f54891ad9bafe2a77646d2d1e5f2057aeddef9598506125db91508061213a565b9081855192839283378101898152039020948351928352820152a390565b865162461bcd60e51b8152600481018a9052601e60248201527f546f74616c2073616d706c6573206d75737420626520706f73697469766500006044820152606490fd5b6103fb9150883d8a11610401576103f38183611599565b85513d88823e3d90fd5b61042a9150843d8611610401576103f38183611599565b86513d89823e3d90fd5b60405163dc6c57a360e01b8152600490fd5b90359060be1981360301821215611600570190565b908060209392818452848401376000828201840152601f01601f1916010190565b604051630af34d3160e31b815260048101829052939590946000949293927f00000000000000000000000000000000000000000000000000000000000000006001600160a01b031690602081602481855afa908115612ece57916127366020926024948a9161265e5750611fdc565b604051928380926302855ced60e01b82528b60048301525afa908115612ec35790612767918791612eaa575061201f565b6127708661408c565b606061277f60c0860186612691565b013515612e6557606061279560c0860186612691565b01358552600a60205260ff604086205416612e16576127b4848061213a565b905015612dd1576127d56127cb60c0860186612691565b608081019061213a565b905015612d8c57612710602085013511612d4857612710604085013511612cf957600d548015612ce757808310612cc957506128166102308885878a6143c1565b8591825b848410612c1c5750505050506128308582613c3c565b9091606061284160c0860186612691565b01358552600a60205260408520805460ff191660011790556080840135606085013561286d8282613c22565b612bc757505061288560408501356020860135613b57565b9661288f8761463d565b9161289a898461355a565b98896129d8575b5050505050506129bf8160606128c960c06000805160206147a9833981519152950183612691565b01356128d860c0830183612691565b3590867f302937cfcf4b3e834bb9d5ebae7f74a8640d4e0c646f62af65aaf0ac9136b324604061290b60c0870187612691565b0135602061291c60c0880188612691565b0135906129b68c6129336127cb60c08b018b612691565b61298f8b61296061298161295761294d60c0850185612691565b60a081019061213a565b9290938061213a565b9690956040519b8c9b8c5260208c01526101008060408d01528b01916126a6565b9188830360608a01526126a6565b9260208c0135608087015260408c013560a087015260c086015284830360e08601526126a6565b0390a48061213a565b908160405192839283378101600081520390209180a390565b87908a895b858110612b3e57506129f1915082906121ac565b80612b1e575b507f00000000000000000000000000000000000000000000000000000000000000006001600160a01b0316803b15612b1a57604051631e3b78fb60e31b81529089908290818381612a4d8c8e8d600485016121f6565b03925af18015612b0f57908a9291612ac4575b50926000805160206147a9833981519152979592612aba95926000805160206147c9833981519152612a9e6129bf9a97604051918291898b8461222d565b0390a2612aae610368888061213a565b9460a088013593613f03565b91388080806128a1565b92612aba95926000805160206147c9833981519152612a9e6129bf9a97949c612afd6000805160206147a98339815191529d9b98611550565b9c94979a505050929550929597612a60565b6040513d8b823e3d90fd5b8880fd5b612b3891612b2f826124f98961218b565b6125088861218b565b386129f7565b612b6e612710612b60612bc0946020612b58868c8c61217b565b013590611c13565b04809581612508858d612198565b937f23cb7dc0579e23905f2f88d85bd8fbee2e15f35d236f8b32a54a4ae6e829497360406001600160a01b03612bad612ba8868c8c61217b565b6120fc565b16928151908782526020820152a261216c565b8b906129dd565b92509496505060409150612bfc837f2ee10088f961cefc50ce125f535f54891ad9bafe2a77646d2d1e5f2057aeddef9461213a565b90818451928392833781018881520390209382519182526020820152a390565b612c4390612c3b612c356103688760051b86018661213a565b856142fa565b9290926141e0565b6001600160a01b039081169082161115612ca7576001600160a01b0381168852600b602052604088205460ff1615612c8557612c7f909361216c565b9261281a565b604051637adcfd2960e01b81526001600160a01b039091166004820152602490fd5b60405163af5c5c7960e01b81526001600160a01b039091166004820152602490fd5b826044916040519163245dfda360e11b835260048301526024820152fd5b604051633fca299160e01b8152600490fd5b60405162461bcd60e51b815260206004820152602160248201527f43616e6469646174652073636f726520657863656564732031303030302062706044820152607360f81b6064820152608490fd5b606460405162461bcd60e51b815260206004820152602060248201527f426173656c696e652073636f72652065786365656473203130303030206270736044820152fd5b60405162461bcd60e51b815260206004820152601b60248201527f4d6574726963206e616d652063616e6e6f7420626520656d70747900000000006044820152606490fd5b60405162461bcd60e51b815260206004820152601f60248201527f506970656c696e652072756e2049442063616e6e6f7420626520656d707479006044820152606490fd5b60405162461bcd60e51b815260206004820152602160248201527f4964656d706f74656e6379206b657920616c72656164792070726f63657373656044820152601960fa1b6064820152608490fd5b60405162461bcd60e51b815260206004820152601f60248201527f4964656d706f74656e6379206b65792063616e6e6f7420626520656d707479006044820152606490fd5b6103fb915060203d602011610401576103f38183611599565b6040513d88823e3d90fd5b6040513d89823e3d90fd5b604290612ee4612eff565b906040519161190160f01b8352600283015260228201522090565b307f00000000000000000000000000000000000000000000000000000000000000006001600160a01b03161480613000575b15612f5a577f000000000000000000000000000000000000000000000000000000000000000090565b60405160208101907f8b73c3c69bb8fe3d512ecc4cf759cc79239f7b179b0ffacaa9a75d522b39400f82527f000000000000000000000000000000000000000000000000000000000000000060408201527f000000000000000000000000000000000000000000000000000000000000000060608201524660808201523060a082015260a0815260c081018181106001600160401b0382111761151f5760405251902090565b507f00000000000000000000000000000000000000000000000000000000000000004614612f31565b61304190602060405192828480945193849201611707565b810103902090565b906060810180519060009160409081519061306382611563565b6013825261309760209272636f6e7472696275746f72206164647265737360681b8482015260018060a01b038093166146fd565b608086016130a58151614760565b828701946130b38651613b68565b848801936130c18551613b68565b60a08901946130fb86518851906130d782611563565b6013825272636f6e74726962757465642073616d706c657360681b85830152614733565b60c08a019788518751116134c1578a60e081016131216101008251930192835190613ba8565b878651168c5260098552898c2054610e1081018091116134ad5742106134735751905161314e8183613c22565b61342d575050858451168a526009835242888b2055515190515161317191613b57565b9161317b8b61463d565b9284516131899082866138ae565b9b8b5161319590613029565b908951916000805160206147a98339815191528d80a386835116918152888d858301527f23cb7dc0579e23905f2f88d85bd8fbee2e15f35d236f8b32a54a4ae6e829497391a28a6131ee575b5050505050505050505090565b805185167f00000000000000000000000000000000000000000000000000000000000000008616803b15613429578a9182918e8b519485809481936311d68e9f60e11b835260606004840152613247606484018d61172a565b916024840152604483015203925af1801561341f57613402575b509188999189979899935194519651995192519089519361328185611563565b600185528136818701378787166132978661218b565b528a51966132a488611563565b600188528236818a01378b5185518482019282916132c581868b8a01611707565b8201906bffffffffffffffffffffffff199060601b16868201528651906034810182888a01916132f492611707565b01036014810182526034016133099082611599565b5190206133158861218b565b528a51986133228a611563565b60018a528236818c01376133358a61218b565b528a519b6133428d611563565b60018d528236818f01376133558d61218b565b528a519161336283611563565b6001835236818401378d6133758361218b565b528a516329a0dd4960e01b81529b8c998a9889976133969760048a01613e51565b03927f0000000000000000000000000000000000000000000000000000000000000000165af19081156133f957506133d6575b80808080808080806131e1565b6133f1913d8091833e6133e98183611599565b810190613dd8565b5038806133c9565b513d84823e3d90fd5b613413909a9297989991939a611550565b97969590989138613261565b88513d8c823e3d90fd5b8a80fd5b96509650505096989790507f2ee10088f961cefc50ce125f535f54891ad9bafe2a77646d2d1e5f2057aeddef9550613466915051613029565b948351928352820152a390565b895162461bcd60e51b815260048101869052601360248201527214985d19481b1a5b5a5d08195e18d959591959606a1b6044820152606490fd5b634e487b7160e01b8d52601160045260248dfd5b875162461bcd60e51b8152600481018490526015602482015274496e76616c696420746f74616c2073616d706c657360581b6044820152606490fd5b600754811061353457620f42409161351b6135209260065490611c13565b611c13565b0460085480821161352f575090565b905090565b5050600090565b9081602091031261160057516001600160a01b03811681036116005790565b604091825191636617003b60e11b83526020936004948086860152602494806135858782018661172a565b6001600160a01b039591849184919003817f000000000000000000000000000000000000000000000000000000000000000089165afa9182156138a357600092613884575b508351636204891b60e11b81528881018490528381806135ec8b82018661172a565b0381897f0000000000000000000000000000000000000000000000000000000000000000165afa9081156138795760009161384c575b50858116801515908161383f575b5061375b575050818491888551809481936367f855cb60e11b8352165afa90811561375057908291600091613717575b5087845180968193634c8bc3e560e01b8352165afa91821561370d57506000916136e1575b50905060075482106136d85761369a91611c13565b91612710928381029381850414901517156136c5575050620f4240900460085480821161352f575090565b601190634e487b7160e01b600052526000fd5b50505050600090565b82813d8311613706575b6136f58183611599565b8101031261023c5750518038613685565b503d6136eb565b513d6000823e3d90fd5b909181813d8311613749575b61372d8183611599565b8101031261044a575190848216820361023c5750819038613660565b503d613723565b83513d6000823e3d90fd5b8785928a9260009561376f83511515611fdc565b865b835188101561380c576137848885611c49565b5160f81c603081101580613801575b61379c90611fdc565b600a918281029281840414901517156137ed5760ff90602f19018181116137d957916137cd916137d3931690611c3c565b9761216c565b96613771565b86601189634e487b7160e01b600052526000fd5b85601188634e487b7160e01b600052526000fd5b506039811115613793565b86516305f70aad60e21b81528087019182526001600160a01b038084166020840152841660408301529081906060010390fd5b9050868416141538613630565b61386c9150843d8611613872575b6138648183611599565b81019061353b565b38613622565b503d61385a565b85513d6000823e3d90fd5b61389c919250833d8511613872576138648183611599565b90386135ca565b84513d6000823e3d90fd5b90916040918251636617003b60e11b815260209060049082828201526024816138d98282018761172a565b6001600160a01b039691869185919003817f00000000000000000000000000000000000000000000000000000000000000008a165afa928315613b4c57600093613b2d575b508751636204891b60e11b81528481018690528581806139408682018661172a565b03818a7f0000000000000000000000000000000000000000000000000000000000000000165afa908115613b2257600091613b05575b508681168015159081613af8575b50613a755750505090828492828851809581936367f855cb60e11b8352165afa918215613a6a5790839291600092613a31575b508651634c8bc3e560e01b81529485928391165afa93841561370d5750600093613a00575b505060075483106139f85761351b61352092620f424094611c13565b505050600090565b8181949293943d8311613a2a575b613a188183611599565b8101031261023c5750519038806139dc565b503d613a0e565b909281813d8311613a63575b613a478183611599565b8101031261044a575190848216820361023c57508291386139b7565b503d613a3d565b86513d6000823e3d90fd5b8894939550600095613a8983511515611fdc565b865b835188101561380c57613a9e8885611c49565b5160f81c603081101580613aed575b613ab690611fdc565b600a918281029281840414901517156137ed5760ff90602f19018181116137d957916137cd91613ae7931690611c3c565b96613a8b565b506039811115613aad565b9050878516141538613984565b613b1c9150863d8811613872576138648183611599565b38613976565b89513d6000823e3d90fd5b613b45919350853d8711613872576138648183611599565b913861391e565b88513d6000823e3d90fd5b80821115613534576116d4916121ac565b6080613ba691613b788151614760565b613b856020820151614760565b613b926040820151614760565b613b9f6060820151614760565b0151614760565b565b9081158015613c1a575b613c1657613be8613ba69260405190613bca82611563565b600c82526b1b585e0818dbdcdd081d5cd960a21b6020830152614733565b60405190613bf582611563565b600f82526e1858dd1d585b0818dbdcdd081d5cd9608a1b6020830152614733565b5050565b508015613bb2565b9081158015613c34575b613534571190565b508015613c2c565b918115613dc6576064808311613da85760009392613c5981611d95565b94613c6382611d95565b9481925b808410613cbf575050612710915003613c7d5750565b60405162461bcd60e51b815260206004820152601860248201527f57656967687473206d7573742073756d20746f203130302500000000000000006044820152fd5b9091613cd2610338612ba886858761217b565b60005b848110613d2c5750613d1e613d2491613cf2612ba887868861217b565b613cfc878c612198565b6001600160a01b0390911690526020613d1687868861217b565b013590611c3c565b9361216c565b929190613c67565b613d3a612ba886858761217b565b6001600160a01b0380613d4d848d612198565b5116911614613d6457613d5f9061216c565b613cd5565b60405162461bcd60e51b815260206004820152601d60248201527f4475706c696361746520636f6e7472696275746f72206164647265737300000060448201528690fd5b82604491604051916342b154e560e01b835260048301526024820152fd5b604051633c4d929d60e21b8152600490fd5b6020908181840312611600578051906001600160401b03821161160057019180601f84011215611600578251613e0d81611d7e565b93613e1b6040519586611599565b818552838086019260051b820101928311611600578301905b828210613e42575050505090565b81518152908301908301613e34565b96939190613e70613e7f919a999796949a610100808b528a019061172a565b602092898203848b01526121b9565b878103604089015281808b5192838152019a019160005b828110613eef5750505050613ee1939291613ec089613ece93896116d49b9c0360608b015261174f565b90878203608089015261174f565b9160a086015284820360c086015261174f565b9160e081840391015261172a565b83518c529a81019a92810192600101613e96565b969094959396613f138651611d95565b90613f1e8751611d95565b96613f298151611d95565b9360005b8251811015613fff5780612710613fe98e8c612b58858e8e8e8e613fca8f9c8f9d613f5c613ffa9f8390612198565b51613fc16054604051928360209e8f9283613f80818501998a815193849201611707565b8301906bffffffffffffffffffffffff199060601b1684820152613fae825180936034968785019101611707565b0187838201520390810184520182611599565b51902092612198565b52613fe38487613fdb82878761217b565b013592612198565b5261217b565b04613ff4828d612198565b5261216c565b613f2d565b5099919550959261402d945096600097989298604051998a9889986329a0dd4960e01b8a5260048a01613e51565b0381837f00000000000000000000000000000000000000000000000000000000000000006001600160a01b03165af18015614080576140695750565b61407d903d806000833e6133e98183611599565b50565b6040513d6000823e3d90fd5b604051630cf99be760e31b8152600481018290529060206001600160a01b0381846024817f000000000000000000000000000000000000000000000000000000000000000085165afa938415614080576000946141c1575b50614113826140f28561463d565b60405180938192636204891b60e11b8352846004840152602483019061172a565b0381857f0000000000000000000000000000000000000000000000000000000000000000165afa928315614080576000936141a2575b50508082168015159182614195575b505061416357505050565b6040516305f70aad60e21b815260048101929092526001600160a01b0392831660248301529091166044820152606490fd5b8516141590503880614158565b6141b9929350803d10613872576138648183611599565b903880614149565b6141d9919450823d8411613872576138648183611599565b92386140e4565b60058110156142e457806141f15750565b6001810361423e5760405162461bcd60e51b815260206004820152601860248201527f45434453413a20696e76616c6964207369676e617475726500000000000000006044820152606490fd5b6002810361428b5760405162461bcd60e51b815260206004820152601f60248201527f45434453413a20696e76616c6964207369676e6174757265206c656e677468006044820152606490fd5b60031461429457565b60405162461bcd60e51b815260206004820152602260248201527f45434453413a20696e76616c6964207369676e6174757265202773272076616c604482015261756560f01b6064820152608490fd5b634e487b7160e01b600052602160045260246000fd5b90604181511460001461432857614324916020820151906060604084015193015160001a90614332565b9091565b5050600090600290565b9291907f7fffffffffffffffffffffffffffffff5d576e7357a4501ddfe92f46681b20a083116143b55791608094939160ff602094604051948552168484015260408301526060820152600093849182805260015afa156143a85781516001600160a01b038116156143a2579190565b50600190565b50604051903d90823e3d90fd5b50505050600090600390565b929091926143d2610368848061213a565b928351602080950120906143e960c0820182612691565b956080946143fc610368878a018a61213a565b8781519101209361441361036860a08b018b61213a565b888151910120936040998a958651978b808a01937fa818ce6f329a6af9beb66ef1c364c448339fc3a19db33e1b65bedceba7338b54855280358a8c01526060998a92820135838d01528101358d8c0152013560a08a015260c089015260e088015260e0875261010090818801926001600160401b03988085108a86111761151f5760a0610200928f8f9588825284519020956101208501997f75237e1c58e5f0c6e32401e4a925a38ee808e0837174cf180c9f7fd5a05c17938b526101408601528201356101608501528101356101808401528a8101356101a08401528d8101356101c084015201356101e08201520152815261450f81611503565b5190209361451c82611d95565b9260005b8381106145ba575050505086518681018181938981519391019260005b8b8282106145a35750505061455b925003601f198101835282611599565b519020928651958601967ff8e4a942deecaf16155dc43b1819edc43fd01c20d5649b3ac480fcd9562e9d1c885286015284015281830152815261459d81611535565b51902090565b85518452948501948694509092019160010161453d565b6145c8612ba882868561217b565b908a6145d582878661217b565b0135918c51928d8d8501927fe0247088fc96442dd11534497ef414a2cf540444b61acf7195ac994bacab0f6d845260018060a01b031690850152888401528783528a8301928084108685111761151f57614638938e52519020613ff48288612198565b614520565b80156146df5780816000925b6146c9575061465782611667565b916146656040519384611599565b80835281601f1961467583611667565b013660208601375b61468657505090565b6000198101908111611c26578091600a9160308383068101809111611c265760f81b6001600160f81b03191660001a906146c09086611c49565b5304908161467d565b90916146d6600a9161216c565b92910480614649565b506040516146ec81611563565b60018152600360fc1b602082015290565b6001600160a01b03161561470e5750565b60405163eac0d38960e01b815260206004820152908190610b7190602483019061172a565b1561473b5750565b60405163589956a560e11b815260206004820152908190610b7190602483019061172a565b6127101061476a57565b60405163589956a560e11b815260206004820152601560248201527476616c75652065786365656473206d6178696d756d60581b6044820152606490fdfe0c40893bf3c4e890eb5c92353d4cea2a7f4e1e60667d2e04ce77813b07f64ee4379eb16b5a0469dd3188be06c54cea67019459aea34bb7222bac67a2ddf15e29a26469706673582212209b3377564c2a27741f27a8a3274e7f7428579f7bcad76eabd24ae6e13840f6bc64736f6c634300081400332f8788117e7eff1d82e926ec794901d17c78024a50270940304540a733656f0d",
  "linkReferences": {},
  "deployedLinkReferences": {}
}