{
  "_format": "hh-sol-artifact-1",
  "contractName": "TokenManager",
  "sourceName": "contracts/TokenManager.sol",
  "abi": [
    {
      "inputs": [
        {
          "internalType": "address",
          "name": "registryAddress",
          "type": "address"
        }
      ],
      "stateMutability": "nonpayable",
      "type": "constructor"
    },
    {
      "anonymous": false,
      "inputs": [
        {
          "indexed": true,
          "internalType": "string",
          "name": "modelId",
          "type": "string"
        },
        {
          "indexed": false,
          "internalType": "address[]",
          "name": "recipients",
          "type": "address[]"
        },
        {
          "indexed": false,
          "internalType": "uint256[]",
          "name": "amounts",
          "type": "uint256[]"
        },
        {
          "indexed": false,
          "internalType": "uint256",
          "name": "totalAmount",
          "type": "uint256"
        }
      ],
      "name": "BatchMinted",
      "type": "event"
    },
    {
      "anonymous": false,
      "inputs": [
        {
          "indexed": true,
          "internalType": "address",
          "name": "newDeltaVerifier",
          "type": "address"
        }
      ],
      "name": "DeltaVerifierUpdated",
      "type": "event"
    },
    {
      "anonymous": false,
      "inputs": [
        {
          "indexed": false,
          "internalType": "uint256",
          "name": "newFee",
          "type": "uint256"
        }
      ],
      "name": "DeploymentFeeUpdated",
      "type": "event"
    },
    {
      "anonymous": false,
      "inputs": [
        {
          "indexed": true,
          "internalType": "address",
          "name": "previousOwner",
          "type": "address"
        },
        {
          "indexed": true,
          "internalType": "address",
          "name": "newOwner",
          "type": "address"
        }
      ],
      "name": "OwnershipTransferred",
      "type": "event"
    },
    {
      "anonymous": false,
      "inputs": [
        {
          "indexed": true,
          "internalType": "string",
          "name": "modelId",
          "type": "string"
        },
        {
          "indexed": true,
          "internalType": "address",
          "name": "paramsAddress",
          "type": "address"
        },
        {
          "indexed": true,
          "internalType": "address",
          "name": "deployer",
          "type": "address"
        },
        {
          "indexed": false,
          "internalType": "uint256",
          "name": "tokensPerDeltaOne",
          "type": "uint256"
        },
        {
          "indexed": false,
          "internalType": "uint16",
          "name": "infraMarkupBps",
          "type": "uint16"
        }
      ],
      "name": "ParamsDeployed",
      "type": "event"
    },
    {
      "anonymous": false,
      "inputs": [
        {
          "indexed": true,
          "internalType": "bytes32",
          "name": "role",
          "type": "bytes32"
        },
        {
          "indexed": true,
          "internalType": "bytes32",
          "name": "previousAdminRole",
          "type": "bytes32"
        },
        {
          "indexed": true,
          "internalType": "bytes32",
          "name": "newAdminRole",
          "type": "bytes32"
        }
      ],
      "name": "RoleAdminChanged",
      "type": "event"
    },
    {
      "anonymous": false,
      "inputs": [
        {
          "indexed": true,
          "internalType": "bytes32",
          "name": "role",
          "type": "bytes32"
        },
        {
          "indexed": true,
          "internalType": "address",
          "name": "account",
          "type": "address"
        },
        {
          "indexed": true,
          "internalType": "address",
          "name": "sender",
          "type": "address"
        }
      ],
      "name": "RoleGranted",
      "type": "event"
    },
    {
      "anonymous": false,
      "inputs": [
        {
          "indexed": true,
          "internalType": "bytes32",
          "name": "role",
          "type": "bytes32"
        },
        {
          "indexed": true,
          "internalType": "address",
          "name": "account",
          "type": "address"
        },
        {
          "indexed": true,
          "internalType": "address",
          "name": "sender",
          "type": "address"
        }
      ],
      "name": "RoleRevoked",
      "type": "event"
    },
    {
      "anonymous": false,
      "inputs": [
        {
          "indexed": true,
          "internalType": "string",
          "name": "modelId",
          "type": "string"
        },
        {
          "indexed": true,
          "internalType": "address",
          "name": "tokenAddress",
          "type": "address"
        },
        {
          "indexed": true,
          "internalType": "address",
          "name": "deployer",
          "type": "address"
        },
        {
          "indexed": false,
          "internalType": "string",
          "name": "name",
          "type": "string"
        },
        {
          "indexed": false,
          "internalType": "string",
          "name": "symbol",
          "type": "string"
        },
        {
          "indexed": false,
          "internalType": "uint256",
          "name": "totalSupply",
          "type": "uint256"
        }
      ],
      "name": "TokenDeployed",
      "type": "event"
    },
    {
      "anonymous": false,
      "inputs": [
        {
          "indexed": true,
          "internalType": "string",
          "name": "modelId",
          "type": "string"
        },
        {
          "indexed": true,
          "internalType": "address",
          "name": "account",
          "type": "address"
        },
        {
          "indexed": false,
          "internalType": "uint256",
          "name": "amount",
          "type": "uint256"
        }
      ],
      "name": "TokensBurned",
      "type": "event"
    },
    {
      "anonymous": false,
      "inputs": [
        {
          "indexed": true,
          "internalType": "string",
          "name": "modelId",
          "type": "string"
        },
        {
          "indexed": true,
          "internalType": "address",
          "name": "recipient",
          "type": "address"
        },
        {
          "indexed": false,
          "internalType": "uint256",
          "name": "amount",
          "type": "uint256"
        }
      ],
      "name": "TokensMinted",
      "type": "event"
    },
    {
      "inputs": [],
      "name": "DEFAULT_ADMIN_ROLE",
      "outputs": [
        {
          "internalType": "bytes32",
          "name": "",
          "type": "bytes32"
        }
      ],
      "stateMutability": "view",
      "type": "function"
    },
    {
      "inputs": [],
      "name": "DEPLOYER_ROLE",
      "outputs": [
        {
          "internalType": "bytes32",
          "name": "",
          "type": "bytes32"
        }
      ],
      "stateMutability": "view",
      "type": "function"
    },
    {
      "inputs": [],
      "name": "MINTER_ROLE",
      "outputs": [
        {
          "internalType": "bytes32",
          "name": "",
          "type": "bytes32"
        }
      ],
      "stateMutability": "view",
      "type": "function"
    },
    {
      "inputs": [
        {
          "internalType": "string",
          "name": "modelId",
          "type": "string"
        },
        {
          "internalType": "address[]",
          "name": "recipients",
          "type": "address[]"
        },
        {
          "internalType": "uint256[]",
          "name": "amounts",
          "type": "uint256[]"
        }
      ],
      "name": "batchMintTokens",
      "outputs": [],
      "stateMutability": "nonpayable",
      "type": "function"
    },
    {
      "inputs": [
        {
          "internalType": "string",
          "name": "modelId",
          "type": "string"
        },
        {
          "internalType": "address",
          "name": "account",
          "type": "address"
        },
        {
          "internalType": "uint256",
          "name": "amount",
          "type": "uint256"
        }
      ],
      "name": "burnTokens",
      "outputs": [],
      "stateMutability": "nonpayable",
      "type": "function"
    },
    {
      "inputs": [],
      "name": "deltaVerifier",
      "outputs": [
        {
          "internalType": "address",
          "name": "",
          "type": "address"
        }
      ],
      "stateMutability": "view",
      "type": "function"
    },
    {
      "inputs": [
        {
          "internalType": "string",
          "name": "modelId",
          "type": "string"
        },
        {
          "internalType": "string",
          "name": "name",
          "type": "string"
        },
        {
          "internalType": "string",
          "name": "symbol",
          "type": "string"
        },
        {
          "internalType": "uint256",
          "name": "totalSupply",
          "type": "uint256"
        }
      ],
      "name": "deployToken",
      "outputs": [
        {
          "internalType": "address",
          "name": "tokenAddress",
          "type": "address"
        }
      ],
      "stateMutability": "payable",
      "type": "function"
    },
    {
      "inputs": [
        {
          "internalType": "string",
          "name": "modelId",
          "type": "string"
        },
        {
          "internalType": "string",
          "name": "name",
          "type": "string"
        },
        {
          "internalType": "string",
          "name": "symbol",
          "type": "string"
        },
        {
          "internalType": "uint256",
          "name": "totalSupply",
          "type": "uint256"
        },
        {
          "components": [
            {
              "internalType": "uint256",
              "name": "tokensPerDeltaOne",
              "type": "uint256"
            },
            {
              "internalType": "uint16",
              "name": "infraMarkupBps",
              "type": "uint16"
            },
            {
              "internalType": "bytes32",
              "name": "licenseHash",
              "type": "bytes32"
            },
            {
              "internalType": "string",
              "name": "licenseURI",
              "type": "string"
            },
            {
              "internalType": "address",
              "name": "governor",
              "type": "address"
            }
          ],
          "internalType": "struct TokenManager.InitialParams",
          "name": "initialParams",
          "type": "tuple"
        }
      ],
      "name": "deployTokenWithParams",
      "outputs": [
        {
          "internalType": "address",
          "name": "tokenAddress",
          "type": "address"
        }
      ],
      "stateMutability": "payable",
      "type": "function"
    },
    {
      "inputs": [],
      "name": "deploymentFee",
      "outputs": [
        {
          "internalType": "uint256",
          "name": "",
          "type": "uint256"
        }
      ],
      "stateMutability": "view",
      "type": "function"
    },
    {
      "inputs": [],
      "name": "feeRecipient",
      "outputs": [
        {
          "internalType": "address",
          "name": "",
          "type": "address"
        }
      ],
      "stateMutability": "view",
      "type": "function"
    },
    {
      "inputs": [
        {
          "internalType": "address",
          "name": "tokenAddress",
          "type": "address"
        }
      ],
      "name": "getModelId",
      "outputs": [
        {
          "internalType": "string",
          "name": "",
          "type": "string"
        }
      ],
      "stateMutability": "view",
      "type": "function"
    },
    {
      "inputs": [
        {
          "internalType": "string",
          "name": "modelId",
          "type": "string"
        }
      ],
      "name": "getParamsAddress",
      "outputs": [
        {
          "internalType": "address",
          "name": "",
          "type": "address"
        }
      ],
      "stateMutability": "view",
      "type": "function"
    },
    {
      "inputs": [
        {
          "internalType": "bytes32",
          "name": "role",
          "type": "bytes32"
        }
      ],
      "name": "getRoleAdmin",
      "outputs": [
        {
          "internalType": "bytes32",
          "name": "",
          "type": "bytes32"
        }
      ],
      "stateMutability": "view",
      "type": "function"
    },
    {
      "inputs": [
        {
          "internalType": "string",
          "name": "modelId",
          "type": "string"
        }
      ],
      "name": "getTokenAddress",
      "outputs": [
        {
          "internalType": "address",
          "name": "",
          "type": "address"
        }
      ],
      "stateMutability": "view",
      "type": "function"
    },
    {
      "inputs": [
        {
          "internalType": "bytes32",
          "name": "role",
          "type": "bytes32"
        },
        {
          "internalType": "address",
          "name": "account",
          "type": "address"
        }
      ],
      "name": "grantRole",
      "outputs": [],
      "stateMutability": "nonpayable",
      "type": "function"
    },
    {
      "inputs": [
        {
          "internalType": "string",
          "name": "modelId",
          "type": "string"
        }
      ],
      "name": "hasParams",
      "outputs": [
        {
          "internalType": "bool",
          "name": "",
          "type": "bool"
        }
      ],
      "stateMutability": "view",
      "type": "function"
    },
    {
      "inputs": [
        {
          "internalType": "bytes32",
          "name": "role",
          "type": "bytes32"
        },
        {
          "internalType": "address",
          "name": "account",
          "type": "address"
        }
      ],
      "name": "hasRole",
      "outputs": [
        {
          "internalType": "bool",
          "name": "",
          "type": "bool"
        }
      ],
      "stateMutability": "view",
      "type": "function"
    },
    {
      "inputs": [
        {
          "internalType": "string",
          "name": "modelId",
          "type": "string"
        }
      ],
      "name": "hasToken",
      "outputs": [
        {
          "internalType": "bool",
          "name": "",
          "type": "bool"
        }
      ],
      "stateMutability": "view",
      "type": "function"
    },
    {
      "inputs": [
        {
          "internalType": "string",
          "name": "modelId",
          "type": "string"
        },
        {
          "internalType": "address",
          "name": "recipient",
          "type": "address"
        },
        {
          "internalType": "uint256",
          "name": "amount",
          "type": "uint256"
        }
      ],
      "name": "mintTokens",
      "outputs": [],
      "stateMutability": "nonpayable",
      "type": "function"
    },
    {
      "inputs": [
        {
          "internalType": "string",
          "name": "",
          "type": "string"
        }
      ],
      "name": "modelParams",
      "outputs": [
        {
          "internalType": "address",
          "name": "",
          "type": "address"
        }
      ],
      "stateMutability": "view",
      "type": "function"
    },
    {
      "inputs": [
        {
          "internalType": "string",
          "name": "",
          "type": "string"
        }
      ],
      "name": "modelTokens",
      "outputs": [
        {
          "internalType": "address",
          "name": "",
          "type": "address"
        }
      ],
      "stateMutability": "view",
      "type": "function"
    },
    {
      "inputs": [],
      "name": "owner",
      "outputs": [
        {
          "internalType": "address",
          "name": "",
          "type": "address"
        }
      ],
      "stateMutability": "view",
      "type": "function"
    },
    {
      "inputs": [],
      "name": "registry",
      "outputs": [
        {
          "internalType": "contract ModelRegistry",
          "name": "",
          "type": "address"
        }
      ],
      "stateMutability": "view",
      "type": "function"
    },
    {
      "inputs": [],
      "name": "renounceOwnership",
      "outputs": [],
      "stateMutability": "nonpayable",
      "type": "function"
    },
    {
      "inputs": [
        {
          "internalType": "bytes32",
          "name": "role",
          "type": "bytes32"
        },
        {
          "internalType": "address",
          "name": "account",
          "type": "address"
        }
      ],
      "name": "renounceRole",
      "outputs": [],
      "stateMutability": "nonpayable",
      "type": "function"
    },
    {
      "inputs": [
        {
          "internalType": "bytes32",
          "name": "role",
          "type": "bytes32"
        },
        {
          "internalType": "address",
          "name": "account",
          "type": "address"
        }
      ],
      "name": "revokeRole",
      "outputs": [],
      "stateMutability": "nonpayable",
      "type": "function"
    },
    {
      "inputs": [
        {
          "internalType": "address",
          "name": "_deltaVerifier",
          "type": "address"
        }
      ],
      "name": "setDeltaVerifier",
      "outputs": [],
      "stateMutability": "nonpayable",
      "type": "function"
    },
    {
      "inputs": [
        {
          "internalType": "uint256",
          "name": "_fee",
          "type": "uint256"
        }
      ],
      "name": "setDeploymentFee",
      "outputs": [],
      "stateMutability": "nonpayable",
      "type": "function"
    },
    {
      "inputs": [
        {
          "internalType": "address",
          "name": "_recipient",
          "type": "address"
        }
      ],
      "name": "setFeeRecipient",
      "outputs": [],
      "stateMutability": "nonpayable",
      "type": "function"
    },
    {
      "inputs": [
        {
          "internalType": "bytes4",
          "name": "interfaceId",
          "type": "bytes4"
        }
      ],
      "name": "supportsInterface",
      "outputs": [
        {
          "internalType": "bool",
          "name": "",
          "type": "bool"
        }
      ],
      "stateMutability": "view",
      "type": "function"
    },
    {
      "inputs": [
        {
          "internalType": "address",
          "name": "",
          "type": "address"
        }
      ],
      "name": "tokenToModel",
      "outputs": [
        {
          "internalType": "string",
          "name": "",
          "type": "string"
        }
      ],
      "stateMutability": "view",
      "type": "function"
    },
    {
      "inputs": [
        {
          "internalType": "address",
          "name": "newOwner",
          "type": "address"
        }
      ],
      "name": "transferOwnership",
      "outputs": [],
      "stateMutability": "nonpayable",
      "type": "function"
    }
  ],
  "bytecode": "0x608060405260006007553480156200001657600080fd5b506040516200563f3803806200563f83398101604081905262000039916200021d565b620000443362000135565b6001600160a01b0381166200009f5760405162461bcd60e51b815260206004820152601f60248201527f526567697374727920616464726573732063616e6e6f74206265207a65726f00604482015260640160405180910390fd5b600280546001600160a01b03199081166001600160a01b038416179091556008805433921682179055620000d69060009062000185565b620001027f9f2df0fed2c77648de5860a4cc508cd0818c85b8b8a1ab4ceeef8d981c8956a63362000185565b6200012e7ffc425f2263d0df187444b70e47283d622c70181c5baebb1306a01edba1ce184c3362000185565b506200024f565b600080546001600160a01b038381166001600160a01b0319831681178455604051919092169283917f8be0079c531659141344cd1fd0a4f28419497f9722a3daafe3b4186f6b6457e09190a35050565b62000191828262000195565b5050565b60008281526001602090815260408083206001600160a01b038516845290915290205460ff16620001915760008281526001602081815260408084206001600160a01b0386168086529252808420805460ff19169093179092559051339285917f2f8788117e7eff1d82e926ec794901d17c78024a50270940304540a733656f0d9190a45050565b6000602082840312156200023057600080fd5b81516001600160a01b03811681146200024857600080fd5b9392505050565b6153e0806200025f6000396000f3fe6080604052600436106200020b5760003560e01c806395fb1c451162000117578063d539139311620000a1578063e74b981b116200006c578063e74b981b1462000686578063ecd0026114620006ab578063f2cff57f14620006e1578063f2fde38b14620006f957600080fd5b8063d539139314620005ef578063d547741f1462000625578063d755b286146200064a578063e14dfd01146200066f57600080fd5b8063b6a63bb011620000e2578063b6a63bb0146200053b578063c40912361462000560578063ca0301e11462000585578063d002462b14620005ca57600080fd5b806395fb1c4514620004c3578063a0a6df0314620004e8578063a1c9973a146200050d578063a217fddf146200052457600080fd5b806370944646116200019957806389a2e605116200016457806389a2e60514620004145780638da5cb5b14620004595780638ea00818146200047957806391d14854146200049e57600080fd5b8063709446461462000390578063715018a614620003b55780637b10399914620003cd5780638097587114620003ef57600080fd5b806336568abe11620001da57806336568abe14620002f05780634690484014620003155780634bd34efc1462000337578063643c1de6146200036b57600080fd5b806301ffc9a714620002105780631e461485146200024a578063248a9ca314620002855780632f2ff15d14620002c9575b600080fd5b3480156200021d57600080fd5b50620002356200022f36600462001fc3565b6200071e565b60405190151581526020015b60405180910390f35b3480156200025757600080fd5b506003546200026c906001600160a01b031681565b6040516001600160a01b03909116815260200162000241565b3480156200029257600080fd5b50620002ba620002a436600462001fef565b6000908152600160208190526040909120015490565b60405190815260200162000241565b348015620002d657600080fd5b50620002ee620002e836600462002026565b62000756565b005b348015620002fd57600080fd5b50620002ee6200030f36600462002026565b62000785565b3480156200032257600080fd5b506008546200026c906001600160a01b031681565b3480156200034457600080fd5b506200035c6200035636600462002055565b6200080b565b604051620002419190620020c7565b3480156200037857600080fd5b50620002ee6200038a366004620021b3565b620008ad565b3480156200039d57600080fd5b50620002ee620003af366004620021b3565b62000b00565b348015620003c257600080fd5b50620002ee62000cae565b348015620003da57600080fd5b506002546200026c906001600160a01b031681565b348015620003fc57600080fd5b506200026c6200040e36600462002210565b62000cc6565b3480156200042157600080fd5b506200026c6200043336600462002210565b80516020818301810180516004825292820191909301209152546001600160a01b031681565b3480156200046657600080fd5b506000546001600160a01b03166200026c565b3480156200048657600080fd5b50620002356200049836600462002210565b62000cf9565b348015620004ab57600080fd5b5062000235620004bd36600462002026565b62000d38565b348015620004d057600080fd5b5062000235620004e236600462002210565b62000d63565b348015620004f557600080fd5b506200035c6200050736600462002055565b62000d81565b6200026c6200051e36600462002251565b62000ef3565b3480156200053157600080fd5b50620002ba600081565b3480156200054857600080fd5b50620002ee6200055a36600462002055565b62000fae565b3480156200056d57600080fd5b506200026c6200057f36600462002210565b6200105a565b3480156200059257600080fd5b506200026c620005a436600462002210565b80516020818301810180516006825292820191909301209152546001600160a01b031681565b348015620005d757600080fd5b50620002ee620005e936600462001fef565b6200106e565b348015620005fc57600080fd5b50620002ba7f9f2df0fed2c77648de5860a4cc508cd0818c85b8b8a1ab4ceeef8d981c8956a681565b3480156200063257600080fd5b50620002ee6200064436600462002026565b620010b3565b3480156200065757600080fd5b50620002ee620006693660046200233a565b620010dd565b6200026c62000680366004620023d9565b620014f8565b3480156200069357600080fd5b50620002ee620006a536600462002055565b62001ae8565b348015620006b857600080fd5b50620002ba7ffc425f2263d0df187444b70e47283d622c70181c5baebb1306a01edba1ce184c81565b348015620006ee57600080fd5b50620002ba60075481565b3480156200070657600080fd5b50620002ee6200071836600462002055565b62001b60565b60006001600160e01b03198216637965db0b60e01b14806200075057506301ffc9a760e01b6001600160e01b03198316145b92915050565b60008281526001602081905260409091200154620007748162001bdf565b62000780838362001beb565b505050565b6001600160a01b0381163314620007fb5760405162461bcd60e51b815260206004820152602f60248201527f416363657373436f6e74726f6c3a2063616e206f6e6c792072656e6f756e636560448201526e103937b632b9903337b91039b2b63360891b60648201526084015b60405180910390fd5b62000807828262001c59565b5050565b60056020526000908152604090208054620008269062002513565b80601f0160208091040260200160405190810160405280929190818152602001828054620008549062002513565b8015620008a55780601f106200087957610100808354040283529160200191620008a5565b820191906000526020600020905b8154815290600101906020018083116200088757829003601f168201915b505050505081565b620008d97f9f2df0fed2c77648de5860a4cc508cd0818c85b8b8a1ab4ceeef8d981c8956a63362000d38565b80620008ef57506000546001600160a01b031633145b806200090557506003546001600160a01b031633145b620009535760405162461bcd60e51b815260206004820181905260248201527f43616c6c6572206973206e6f7420617574686f72697a656420746f206d696e746044820152606401620007f2565b6000835111620009775760405162461bcd60e51b8152600401620007f2906200254f565b6001600160a01b038216620009cf5760405162461bcd60e51b815260206004820181905260248201527f526563697069656e742063616e6e6f74206265207a65726f20616464726573736044820152606401620007f2565b60008111620009f25760405162461bcd60e51b8152600401620007f29062002586565b600060048460405162000a069190620025bb565b908152604051908190036020019020546001600160a01b031690508062000a415760405162461bcd60e51b8152600401620007f290620025d9565b6040516340c10f1960e01b81526001600160a01b038481166004830152602482018490528216906340c10f1990604401600060405180830381600087803b15801562000a8c57600080fd5b505af115801562000aa1573d6000803e3d6000fd5b50505050826001600160a01b03168460405162000abf9190620025bb565b604051908190038120848252907f4506728dbc4ce36dc8444a8417251cc076c49a64b563cfb19aa2d01831e95c96906020015b60405180910390a350505050565b62000b0a62001cc3565b600083511162000b2e5760405162461bcd60e51b8152600401620007f2906200254f565b6001600160a01b03821662000b865760405162461bcd60e51b815260206004820152601e60248201527f4163636f756e742063616e6e6f74206265207a65726f206164647265737300006044820152606401620007f2565b6000811162000ba95760405162461bcd60e51b8152600401620007f29062002586565b600060048460405162000bbd9190620025bb565b908152604051908190036020019020546001600160a01b031690508062000bf85760405162461bcd60e51b8152600401620007f290620025d9565b60405163079cc67960e41b81526001600160a01b038481166004830152602482018490528216906379cc679090604401600060405180830381600087803b15801562000c4357600080fd5b505af115801562000c58573d6000803e3d6000fd5b50505050826001600160a01b03168460405162000c769190620025bb565b604051908190038120848252907fb4ed7d22338308478e19143a97829ebd4d2121943ec22fe5bc9142d3fe3811f89060200162000af2565b62000cb862001cc3565b62000cc4600062001d1f565b565b600060068260405162000cda9190620025bb565b908152604051908190036020019020546001600160a01b031692915050565b6000806001600160a01b031660048360405162000d179190620025bb565b908152604051908190036020019020546001600160a01b0316141592915050565b60009182526001602090815260408084206001600160a01b0393909316845291905290205460ff1690565b6000806001600160a01b031660068360405162000d179190620025bb565b60606001600160a01b03821662000ddb5760405162461bcd60e51b815260206004820152601c60248201527f546f6b656e20616464726573732063616e6e6f74206265207a65726f000000006044820152606401620007f2565b6001600160a01b0382166000908152600560205260408120805462000e009062002513565b90501162000e435760405162461bcd60e51b815260206004820152600f60248201526e151bdad95b881b9bdd08199bdd5b99608a1b6044820152606401620007f2565b6001600160a01b0382166000908152600560205260409020805462000e689062002513565b80601f016020809104026020016040519081016040528092919081815260200182805462000e969062002513565b801562000ee75780601f1062000ebb5761010080835404028352916020019162000ee7565b820191906000526020600020905b81548152906001019060200180831162000ec957829003601f168201915b50505050509050919050565b6000806040518060a001604052806103e881526020016101f461ffff16815260200160405160200162000f3b906e64656661756c742d6c6963656e736560881b8152600f0190565b6040516020818303038152906040528051906020012081526020016040518060600160405280602381526020016200538860239139815260200162000f886000546001600160a01b031690565b6001600160a01b03169052905062000fa48686868685620014f8565b9695505050505050565b62000fb862001cc3565b6001600160a01b038116620010105760405162461bcd60e51b815260206004820152601e60248201527f496e76616c69642064656c7461207665726966696572206164647265737300006044820152606401620007f2565b600380546001600160a01b0319166001600160a01b0383169081179091556040517fc16b33cf025afe079b971721d4d1bf2602b7fa7724cbb84cb6736bee8414f55190600090a250565b600060048260405162000cda9190620025bb565b6200107862001cc3565b60078190556040518181527f40bd824d588484917db8fa4fc894c1e0feae5a75885290ba7b97521cebf82a809060200160405180910390a150565b60008281526001602081905260409091200154620010d18162001bdf565b62000780838362001c59565b620011097f9f2df0fed2c77648de5860a4cc508cd0818c85b8b8a1ab4ceeef8d981c8956a63362000d38565b806200111f57506000546001600160a01b031633145b806200113557506003546001600160a01b031633145b620011725760405162461bcd60e51b815260206004820152600c60248201526b155b985d5d1a1bdc9a5e995960a21b6044820152606401620007f2565b6000855111620011965760405162461bcd60e51b8152600401620007f2906200254f565b82620011de5760405162461bcd60e51b8152602060048201526016602482015275456d70747920726563697069656e747320617272617960501b6044820152606401620007f2565b828114620012275760405162461bcd60e51b8152602060048201526015602482015274082e4e4c2f240d8cadccee8d040dad2e6dac2e8c6d605b1b6044820152606401620007f2565b60648311156200127a5760405162461bcd60e51b815260206004820152601860248201527f42617463682073697a652065786365656473206c696d697400000000000000006044820152606401620007f2565b60006004866040516200128e9190620025bb565b908152604051908190036020019020546001600160a01b0316905080620012c95760405162461bcd60e51b8152600401620007f290620025d9565b806000805b8681101562001494576000888883818110620012ee57620012ee6200261a565b905060200201602081019062001305919062002055565b6001600160a01b0316036200135d5760405162461bcd60e51b815260206004820152601960248201527f496e76616c696420726563697069656e742061646472657373000000000000006044820152606401620007f2565b60008686838181106200137457620013746200261a565b90506020020135116200139b5760405162461bcd60e51b8152600401620007f29062002586565b826001600160a01b03166340c10f19898984818110620013bf57620013bf6200261a565b9050602002016020810190620013d6919062002055565b888885818110620013eb57620013eb6200261a565b6040516001600160e01b031960e087901b1681526001600160a01b0390941660048501526020029190910135602483015250604401600060405180830381600087803b1580156200143b57600080fd5b505af115801562001450573d6000803e3d6000fd5b505050508585828181106200146957620014696200261a565b90506020020135826200147d919062002646565b9150806200148b816200265c565b915050620012ce565b5087604051620014a59190620025bb565b60405180910390207f8b6c345a54939d0bce4651434d9538c4f41e467b4ce46130f5cbfb6986fdf4ea8888888886604051620014e695949392919062002678565b60405180910390a25050505050505050565b6000808651116200151d5760405162461bcd60e51b8152600401620007f2906200254f565b6000855111620015705760405162461bcd60e51b815260206004820152601a60248201527f546f6b656e206e616d652063616e6e6f7420626520656d7074790000000000006044820152606401620007f2565b6000845111620015c35760405162461bcd60e51b815260206004820152601c60248201527f546f6b656e2073796d626f6c2063616e6e6f7420626520656d707479000000006044820152606401620007f2565b60008311620016245760405162461bcd60e51b815260206004820152602660248201527f546f74616c20737570706c79206d7573742062652067726561746572207468616044820152656e207a65726f60d01b6064820152608401620007f2565b60808201516001600160a01b0316620016805760405162461bcd60e51b815260206004820152601f60248201527f476f7665726e6f722063616e6e6f74206265207a65726f2061646472657373006044820152606401620007f2565b60006001600160a01b03166004876040516200169d9190620025bb565b908152604051908190036020019020546001600160a01b031614620017135760405162461bcd60e51b815260206004820152602560248201527f546f6b656e20616c7265616479206465706c6f79656420666f722074686973206044820152641b5bd9195b60da1b6064820152608401620007f2565b60075415620018d257600754341015620017705760405162461bcd60e51b815260206004820152601b60248201527f496e73756666696369656e74206465706c6f796d656e742066656500000000006044820152606401620007f2565b6008546007546040516000926001600160a01b031691908381818185875af1925050503d8060008114620017c1576040519150601f19603f3d011682016040523d82523d6000602084013e620017c6565b606091505b5050905080620018195760405162461bcd60e51b815260206004820152601d60248201527f4661696c656420746f2073656e64206465706c6f796d656e74206665650000006044820152606401620007f2565b600754341115620018d057600754600090339062001838903462002702565b604051600081818185875af1925050503d806000811462001876576040519150601f19603f3d011682016040523d82523d6000602084013e6200187b565b606091505b5050905080620018ce5760405162461bcd60e51b815260206004820152601f60248201527f4661696c656420746f20726566756e6420657863657373207061796d656e74006044820152606401620007f2565b505b505b600082600001518360200151846040015185606001518660800151604051620018fb9062001fa7565b6200190b95949392919062002718565b604051809103906000f08015801562001928573d6000803e3d6000fd5b509050600081905060008787308489604051620019459062001fb5565b620019559594939291906200275d565b604051809103906000f08015801562001972573d6000803e3d6000fd5b5090508093508360048a6040516200198b9190620025bb565b908152604080516020928190038301902080546001600160a01b0319166001600160a01b039485161790559186166000908152600590915220620019d08a82620027fd565b508160068a604051620019e49190620025bb565b90815260405190819003602001812080546001600160a01b039384166001600160a01b0319909116179055339184169062001a21908c90620025bb565b604051908190038120885160208a015191927ff9b47292b5ee5d89d2329ee042b9d65ca0a364334d32bffd772ffaf21e34bbdc9262001a6b92825261ffff16602082015260400190565b60405180910390a4336001600160a01b0316846001600160a01b03168a60405162001a979190620025bb565b60405180910390207f8bc86e2085f2cb40fd388378b4717f9fe8a5ad8d2b05643adeda5662f1eb59a38b8b8b60405162001ad493929190620028ca565b60405180910390a450505095945050505050565b62001af262001cc3565b6001600160a01b03811662001b3e5760405162461bcd60e51b8152602060048201526011602482015270125b9d985b1a59081c9958da5c1a595b9d607a1b6044820152606401620007f2565b600880546001600160a01b0319166001600160a01b0392909216919091179055565b62001b6a62001cc3565b6001600160a01b03811662001bd15760405162461bcd60e51b815260206004820152602660248201527f4f776e61626c653a206e6577206f776e657220697320746865207a65726f206160448201526564647265737360d01b6064820152608401620007f2565b62001bdc8162001d1f565b50565b62001bdc813362001d6f565b62001bf7828262000d38565b620008075760008281526001602081815260408084206001600160a01b0386168086529252808420805460ff19169093179092559051339285917f2f8788117e7eff1d82e926ec794901d17c78024a50270940304540a733656f0d9190a45050565b62001c65828262000d38565b15620008075760008281526001602090815260408083206001600160a01b0385168085529252808320805460ff1916905551339285917ff6391f5c32d9c69d2a47ea670b442974b53935d1edc7fd64eb21e047a839171b9190a45050565b6000546001600160a01b0316331462000cc45760405162461bcd60e51b815260206004820181905260248201527f4f776e61626c653a2063616c6c6572206973206e6f7420746865206f776e65726044820152606401620007f2565b600080546001600160a01b038381166001600160a01b0319831681178455604051919092169283917f8be0079c531659141344cd1fd0a4f28419497f9722a3daafe3b4186f6b6457e09190a35050565b62001d7b828262000d38565b620008075762001d8b8162001dd3565b62001d9883602062001de6565b60405160200162001dab92919062002904565b60408051601f198184030181529082905262461bcd60e51b8252620007f291600401620020c7565b6060620007506001600160a01b03831660145b6060600062001df78360026200297d565b62001e0490600262002646565b67ffffffffffffffff81111562001e1f5762001e1f620020dc565b6040519080825280601f01601f19166020018201604052801562001e4a576020820181803683370190505b509050600360fc1b8160008151811062001e685762001e686200261a565b60200101906001600160f81b031916908160001a905350600f60fb1b8160018151811062001e9a5762001e9a6200261a565b60200101906001600160f81b031916908160001a905350600062001ec08460026200297d565b62001ecd90600162002646565b90505b600181111562001f4f576f181899199a1a9b1b9c1cb0b131b232b360811b85600f166010811062001f055762001f056200261a565b1a60f81b82828151811062001f1e5762001f1e6200261a565b60200101906001600160f81b031916908160001a90535060049490941c9362001f478162002997565b905062001ed0565b50831562001fa05760405162461bcd60e51b815260206004820181905260248201527f537472696e67733a20686578206c656e67746820696e73756666696369656e746044820152606401620007f2565b9392505050565b6113b380620029b283390190565b6116238062003d6583390190565b60006020828403121562001fd657600080fd5b81356001600160e01b03198116811462001fa057600080fd5b6000602082840312156200200257600080fd5b5035919050565b80356001600160a01b03811681146200202157600080fd5b919050565b600080604083850312156200203a57600080fd5b823591506200204c6020840162002009565b90509250929050565b6000602082840312156200206857600080fd5b62001fa08262002009565b60005b838110156200209057818101518382015260200162002076565b50506000910152565b60008151808452620020b381602086016020860162002073565b601f01601f19169290920160200192915050565b60208152600062001fa0602083018462002099565b634e487b7160e01b600052604160045260246000fd5b60405160a0810167ffffffffffffffff81118282101715620021185762002118620020dc565b60405290565b600082601f8301126200213057600080fd5b813567ffffffffffffffff808211156200214e576200214e620020dc565b604051601f8301601f19908116603f01168101908282118183101715620021795762002179620020dc565b816040528381528660208588010111156200219357600080fd5b836020870160208301376000602085830101528094505050505092915050565b600080600060608486031215620021c957600080fd5b833567ffffffffffffffff811115620021e157600080fd5b620021ef868287016200211e565b935050620022006020850162002009565b9150604084013590509250925092565b6000602082840312156200222357600080fd5b813567ffffffffffffffff8111156200223b57600080fd5b62002249848285016200211e565b949350505050565b600080600080608085870312156200226857600080fd5b843567ffffffffffffffff808211156200228157600080fd5b6200228f888389016200211e565b95506020870135915080821115620022a657600080fd5b620022b4888389016200211e565b94506040870135915080821115620022cb57600080fd5b50620022da878288016200211e565b949793965093946060013593505050565b60008083601f840112620022fe57600080fd5b50813567ffffffffffffffff8111156200231757600080fd5b6020830191508360208260051b85010111156200233357600080fd5b9250929050565b6000806000806000606086880312156200235357600080fd5b853567ffffffffffffffff808211156200236c57600080fd5b6200237a89838a016200211e565b965060208801359150808211156200239157600080fd5b6200239f89838a01620022eb565b90965094506040880135915080821115620023b957600080fd5b50620023c888828901620022eb565b969995985093965092949392505050565b600080600080600060a08688031215620023f257600080fd5b853567ffffffffffffffff808211156200240b57600080fd5b6200241989838a016200211e565b965060208801359150808211156200243057600080fd5b6200243e89838a016200211e565b955060408801359150808211156200245557600080fd5b6200246389838a016200211e565b94506060880135935060808801359150808211156200248157600080fd5b9087019060a0828a0312156200249657600080fd5b620024a0620020f2565b82358152602083013561ffff81168114620024ba57600080fd5b602082015260408381013590820152606083013582811115620024dc57600080fd5b620024ea8b8286016200211e565b606083015250620024fe6080840162002009565b60808201528093505050509295509295909350565b600181811c908216806200252857607f821691505b6020821081036200254957634e487b7160e01b600052602260045260246000fd5b50919050565b60208082526018908201527f4d6f64656c2049442063616e6e6f7420626520656d7074790000000000000000604082015260600190565b6020808252818101527f416d6f756e74206d7573742062652067726561746572207468616e207a65726f604082015260600190565b60008251620025cf81846020870162002073565b9190910192915050565b60208082526021908201527f546f6b656e206e6f74206465706c6f79656420666f722074686973206d6f64656040820152601b60fa1b606082015260800190565b634e487b7160e01b600052603260045260246000fd5b634e487b7160e01b600052601160045260246000fd5b8082018082111562000750576200075062002630565b60006001820162002671576200267162002630565b5060010190565b6060808252810185905260008660808301825b88811015620026bd576001600160a01b03620026a78462002009565b168252602092830192909101906001016200268b565b5083810360208501528581526001600160fb1b03861115620026de57600080fd5b8560051b915081876020830137604093909301939093525001602001949350505050565b8181038181111562000750576200075062002630565b85815261ffff8516602082015283604082015260a0606082015260006200274360a083018562002099565b905060018060a01b03831660808301529695505050505050565b60a0815260006200277260a083018862002099565b828103602084015262002786818862002099565b6001600160a01b03968716604085015294909516606083015250608001529392505050565b601f8211156200078057600081815260208120601f850160051c81016020861015620027d45750805b601f850160051c820191505b81811015620027f557828155600101620027e0565b505050505050565b815167ffffffffffffffff8111156200281a576200281a620020dc565b62002832816200282b845462002513565b84620027ab565b602080601f8311600181146200286a5760008415620028515750858301515b600019600386901b1c1916600185901b178555620027f5565b600085815260208120601f198616915b828110156200289b578886015182559484019460019091019084016200287a565b5085821015620028ba5787850151600019600388901b60f8161c191681555b5050505050600190811b01905550565b606081526000620028df606083018662002099565b8281036020840152620028f3818662002099565b915050826040830152949350505050565b7f416363657373436f6e74726f6c3a206163636f756e74200000000000000000008152600083516200293e81601785016020880162002073565b7001034b99036b4b9b9b4b733903937b6329607d1b60179184019182015283516200297181602884016020880162002073565b01602801949350505050565b808202811582820484141762000750576200075062002630565b600081620029a957620029a962002630565b50600019019056fe60806040523480156200001157600080fd5b50604051620013b3380380620013b38339810160408190526200003491620002b6565b6001600160a01b038116620000905760405162461bcd60e51b815260206004820152601f60248201527f476f7665726e6f722063616e6e6f74206265207a65726f20616464726573730060448201526064015b60405180910390fd5b60648510158015620000a55750620186a08511155b6200010c5760405162461bcd60e51b815260206004820152603060248201527f746f6b656e7350657244656c74614f6e65206d7573742062652062657477656560448201526f06e2031303020616e64203130303030360841b606482015260840162000087565b6103e861ffff85161115620001745760405162461bcd60e51b815260206004820152602760248201527f696e6672614d61726b75704270732063616e6e6f7420657863656564203130306044820152663020283130252960c81b606482015260840162000087565b60018590556002805461ffff191661ffff8616179055600383905560046200019d83826200045b565b50620001ab600033620001e2565b620001d77f0603f2636f0ca34ae3ea5a23bb826e2bd2ffd59fb1c01edc1ba10fba2899d1ba82620001e2565b505050505062000527565b6000828152602081815260408083206001600160a01b038516845290915290205460ff166200027f576000828152602081815260408083206001600160a01b03851684529091529020805460ff191660011790556200023e3390565b6001600160a01b0316816001600160a01b0316837f2f8788117e7eff1d82e926ec794901d17c78024a50270940304540a733656f0d60405160405180910390a45b5050565b634e487b7160e01b600052604160045260246000fd5b80516001600160a01b0381168114620002b157600080fd5b919050565b600080600080600060a08688031215620002cf57600080fd5b8551945060208087015161ffff81168114620002ea57600080fd5b6040880151606089015191965094506001600160401b03808211156200030f57600080fd5b818901915089601f8301126200032457600080fd5b81518181111562000339576200033962000283565b604051601f8201601f19908116603f0116810190838211818310171562000364576200036462000283565b816040528281528c868487010111156200037d57600080fd5b600093505b82841015620003a1578484018601518185018701529285019262000382565b6000868483010152809750505050505050620003c06080870162000299565b90509295509295909350565b600181811c90821680620003e157607f821691505b6020821081036200040257634e487b7160e01b600052602260045260246000fd5b50919050565b601f8211156200045657600081815260208120601f850160051c81016020861015620004315750805b601f850160051c820191505b8181101562000452578281556001016200043d565b5050505b505050565b81516001600160401b0381111562000477576200047762000283565b6200048f81620004888454620003cc565b8462000408565b602080601f831160018114620004c75760008415620004ae5750858301515b600019600386901b1c1916600185901b17855562000452565b600085815260208120601f198616915b82811015620004f857888601518255948401946001909101908401620004d7565b5085821015620005175787850151600019600388901b60f8161c191681555b5050505050600190811b01905550565b610e7c80620005376000396000f3fe608060405234801561001057600080fd5b50600436106101215760003560e01c80639b013c46116100ad578063d20a6f3d11610071578063d20a6f3d14610246578063d547741f1461025b578063dae24cea1461026e578063e92de18414610276578063f824c5bf1461028c57600080fd5b80639b013c46146101f9578063a217fddf14610203578063b18187d51461020b578063b536818a1461021e578063c29e00291461023357600080fd5b806348dce4f7116100f457806348dce4f7146101a75780634c8bc3e5146101ba578063542fe503146101c257806391d14854146101dd5780639ac26ec0146101f057600080fd5b806301ffc9a714610126578063248a9ca31461014e5780632f2ff15d1461017f57806336568abe14610194575b600080fd5b610139610134366004610a04565b610294565b60405190151581526020015b60405180910390f35b61017161015c366004610a2e565b60009081526020819052604090206001015490565b604051908152602001610145565b61019261018d366004610a47565b6102cb565b005b6101926101a2366004610a47565b6102f5565b6101926101b5366004610a2e565b610378565b600154610171565b60025461ffff165b60405161ffff9091168152602001610145565b6101396101eb366004610a47565b610445565b6101ca6103e881565b610171620186a081565b610171600081565b610192610219366004610a83565b61046e565b610171600080516020610e2783398151915281565b610192610241366004610abd565b610536565b61024e6105ac565b6040516101459190610bc8565b610192610269366004610a47565b61063e565b610171606481565b61027e610663565b604051610145929190610bdb565b600354610171565b60006001600160e01b03198216637965db0b60e01b14806102c557506301ffc9a760e01b6001600160e01b03198316145b92915050565b6000828152602081905260409020600101546102e681610700565b6102f0838361070d565b505050565b6001600160a01b038116331461036a5760405162461bcd60e51b815260206004820152602f60248201527f416363657373436f6e74726f6c3a2063616e206f6e6c792072656e6f756e636560448201526e103937b632b9903337b91039b2b63360891b60648201526084015b60405180910390fd5b6103748282610791565b5050565b600080516020610e2783398151915261039081610700565b606482101580156103a45750620186a08211155b6104095760405162461bcd60e51b815260206004820152603060248201527f746f6b656e7350657244656c74614f6e65206d7573742062652062657477656560448201526f06e2031303020616e64203130303030360841b6064820152608401610361565b60018054908390556040513390849083907f2d62ce5bafdae7958f478e258e6d1075ae2ede22e2fd709fef2d02a733cf352e90600090a4505050565b6000918252602082815260408084206001600160a01b0393909316845291905290205460ff1690565b600080516020610e2783398151915261048681610700565b6103e861ffff831611156104ec5760405162461bcd60e51b815260206004820152602760248201527f696e6672614d61726b75704270732063616e6e6f7420657863656564203130306044820152663020283130252960c81b6064820152608401610361565b6002805461ffff84811661ffff1983168117909355604051911691339183907fee616bd10103596d68394fd9ad1195b6ee150f0176463374c8027e7770b3c68f90600090a4505050565b600080516020610e2783398151915261054e81610700565b600380549084905560046105628482610c84565b50336001600160a01b031684827f4965129a3a1d0003e426ba8f1520a242ee83438f4d9556b5641c7848cfff690e8660405161059e9190610bc8565b60405180910390a450505050565b6060600480546105bb90610bfc565b80601f01602080910402602001604051908101604052809291908181526020018280546105e790610bfc565b80156106345780601f1061060957610100808354040283529160200191610634565b820191906000526020600020905b81548152906001019060200180831161061757829003601f168201915b5050505050905090565b60008281526020819052604090206001015461065981610700565b6102f08383610791565b60006060600354600480805461067890610bfc565b80601f01602080910402602001604051908101604052809291908181526020018280546106a490610bfc565b80156106f15780601f106106c6576101008083540402835291602001916106f1565b820191906000526020600020905b8154815290600101906020018083116106d457829003601f168201915b50505050509050915091509091565b61070a81336107f6565b50565b6107178282610445565b610374576000828152602081815260408083206001600160a01b03851684529091529020805460ff1916600117905561074d3390565b6001600160a01b0316816001600160a01b0316837f2f8788117e7eff1d82e926ec794901d17c78024a50270940304540a733656f0d60405160405180910390a45050565b61079b8282610445565b15610374576000828152602081815260408083206001600160a01b0385168085529252808320805460ff1916905551339285917ff6391f5c32d9c69d2a47ea670b442974b53935d1edc7fd64eb21e047a839171b9190a45050565b6108008282610445565b6103745761080d8161084f565b610818836020610861565b604051602001610829929190610d44565b60408051601f198184030181529082905262461bcd60e51b825261036191600401610bc8565b60606102c56001600160a01b03831660145b60606000610870836002610dcf565b61087b906002610de6565b67ffffffffffffffff81111561089357610893610aa7565b6040519080825280601f01601f1916602001820160405280156108bd576020820181803683370190505b509050600360fc1b816000815181106108d8576108d8610df9565b60200101906001600160f81b031916908160001a905350600f60fb1b8160018151811061090757610907610df9565b60200101906001600160f81b031916908160001a905350600061092b846002610dcf565b610936906001610de6565b90505b60018111156109ae576f181899199a1a9b1b9c1cb0b131b232b360811b85600f166010811061096a5761096a610df9565b1a60f81b82828151811061098057610980610df9565b60200101906001600160f81b031916908160001a90535060049490941c936109a781610e0f565b9050610939565b5083156109fd5760405162461bcd60e51b815260206004820181905260248201527f537472696e67733a20686578206c656e67746820696e73756666696369656e746044820152606401610361565b9392505050565b600060208284031215610a1657600080fd5b81356001600160e01b0319811681146109fd57600080fd5b600060208284031215610a4057600080fd5b5035919050565b60008060408385031215610a5a57600080fd5b8235915060208301356001600160a01b0381168114610a7857600080fd5b809150509250929050565b600060208284031215610a9557600080fd5b813561ffff811681146109fd57600080fd5b634e487b7160e01b600052604160045260246000fd5b60008060408385031215610ad057600080fd5b82359150602083013567ffffffffffffffff80821115610aef57600080fd5b818501915085601f830112610b0357600080fd5b813581811115610b1557610b15610aa7565b604051601f8201601f19908116603f01168101908382118183101715610b3d57610b3d610aa7565b81604052828152886020848701011115610b5657600080fd5b8260208601602083013760006020848301015280955050505050509250929050565b60005b83811015610b93578181015183820152602001610b7b565b50506000910152565b60008151808452610bb4816020860160208601610b78565b601f01601f19169290920160200192915050565b6020815260006109fd6020830184610b9c565b828152604060208201526000610bf46040830184610b9c565b949350505050565b600181811c90821680610c1057607f821691505b602082108103610c3057634e487b7160e01b600052602260045260246000fd5b50919050565b601f8211156102f057600081815260208120601f850160051c81016020861015610c5d5750805b601f850160051c820191505b81811015610c7c57828155600101610c69565b505050505050565b815167ffffffffffffffff811115610c9e57610c9e610aa7565b610cb281610cac8454610bfc565b84610c36565b602080601f831160018114610ce75760008415610ccf5750858301515b600019600386901b1c1916600185901b178555610c7c565b600085815260208120601f198616915b82811015610d1657888601518255948401946001909101908401610cf7565b5085821015610d345787850151600019600388901b60f8161c191681555b5050505050600190811b01905550565b7f416363657373436f6e74726f6c3a206163636f756e7420000000000000000000815260008351610d7c816017850160208801610b78565b7001034b99036b4b9b9b4b733903937b6329607d1b6017918401918201528351610dad816028840160208801610b78565b01602801949350505050565b634e487b7160e01b600052601160045260246000fd5b80820281158282048414176102c5576102c5610db9565b808201808211156102c5576102c5610db9565b634e487b7160e01b600052603260045260246000fd5b600081610e1e57610e1e610db9565b50600019019056fe0603f2636f0ca34ae3ea5a23bb826e2bd2ffd59fb1c01edc1ba10fba2899d1baa264697066735822122073b03f5cbd5df17ccf2aa03857742f0d75868ebfcc38db919f976dbc920de63d64736f6c6343000814003360a06040523480156200001157600080fd5b5060405162001623380380620016238339810160408190526200003491620004eb565b8484600362000044838262000612565b50600462000053828262000612565b505050620000706200006a620002eb60201b60201c565b620002ef565b6000855111620000c75760405162461bcd60e51b815260206004820152601a60248201527f546f6b656e206e616d652063616e6e6f7420626520656d70747900000000000060448201526064015b60405180910390fd5b60008451116200011a5760405162461bcd60e51b815260206004820152601c60248201527f546f6b656e2073796d626f6c2063616e6e6f7420626520656d707479000000006044820152606401620000be565b6001600160a01b0383166200017c5760405162461bcd60e51b815260206004820152602160248201527f436f6e74726f6c6c65722063616e6e6f74206265207a65726f206164647265736044820152607360f81b6064820152608401620000be565b6001600160a01b038216620001d45760405162461bcd60e51b815260206004820152601d60248201527f506172616d732063616e6e6f74206265207a65726f20616464726573730000006044820152606401620000be565b60008111620002375760405162461bcd60e51b815260206004820152602860248201527f496e697469616c20737570706c79206d7573742062652067726561746572207460448201526768616e207a65726f60c01b6064820152608401620000be565b600680546001600160a01b0319166001600160a01b0385811691909117909155821660805262000268838262000341565b6040516001600160a01b038416907f1304018cfe79741dcf02ba6b61d39cc4757d59395d03224d9925c7aa8300214690600090a2826001600160a01b03167f30385c845b448a36257a6a1716e6ad2e1bc2cbe333cde1e69fe849ad6511adfe82604051620002d891815260200190565b60405180910390a2505050505062000706565b3390565b600580546001600160a01b038381166001600160a01b0319831681179093556040519116919082907f8be0079c531659141344cd1fd0a4f28419497f9722a3daafe3b4186f6b6457e090600090a35050565b6001600160a01b038216620003995760405162461bcd60e51b815260206004820152601f60248201527f45524332303a206d696e7420746f20746865207a65726f2061646472657373006044820152606401620000be565b8060026000828254620003ad9190620006de565b90915550506001600160a01b038216600081815260208181526040808320805486019055518481527fddf252ad1be2c89b69c2b068fc378daa952ba7f163c4a11628f55a4df523b3ef910160405180910390a35050565b505050565b634e487b7160e01b600052604160045260246000fd5b600082601f8301126200043157600080fd5b81516001600160401b03808211156200044e576200044e62000409565b604051601f8301601f19908116603f0116810190828211818310171562000479576200047962000409565b816040528381526020925086838588010111156200049657600080fd5b600091505b83821015620004ba57858201830151818301840152908201906200049b565b600093810190920192909252949350505050565b80516001600160a01b0381168114620004e657600080fd5b919050565b600080600080600060a086880312156200050457600080fd5b85516001600160401b03808211156200051c57600080fd5b6200052a89838a016200041f565b965060208801519150808211156200054157600080fd5b5062000550888289016200041f565b9450506200056160408701620004ce565b92506200057160608701620004ce565b9150608086015190509295509295909350565b600181811c908216806200059957607f821691505b602082108103620005ba57634e487b7160e01b600052602260045260246000fd5b50919050565b601f8211156200040457600081815260208120601f850160051c81016020861015620005e95750805b601f850160051c820191505b818110156200060a57828155600101620005f5565b505050505050565b81516001600160401b038111156200062e576200062e62000409565b62000646816200063f845462000584565b84620005c0565b602080601f8311600181146200067e5760008415620006655750858301515b600019600386901b1c1916600185901b1785556200060a565b600085815260208120601f198616915b82811015620006af578886015182559484019460019091019084016200068e565b5085821015620006ce5787850151600019600388901b60f8161c191681555b5050505050600190811b01905550565b808201808211156200070057634e487b7160e01b600052601160045260246000fd5b92915050565b608051610f016200072260003960006102900152610f016000f3fe608060405234801561001057600080fd5b506004361061012c5760003560e01c806379cc6790116100ad578063a9059cbb11610071578063a9059cbb14610278578063cff0ab961461028b578063dd62ed3e146102b2578063f2fde38b146102c5578063f77c4791146102d857600080fd5b806379cc6790146102125780638da5cb5b1461022557806392eefe9b1461024a57806395d89b411461025d578063a457c2d71461026557600080fd5b806339509351116100f457806339509351146101a657806340c10f19146101b957806342966c68146101ce57806370a08231146101e1578063715018a61461020a57600080fd5b806306fdde0314610131578063095ea7b31461014f57806318160ddd1461017257806323b872dd14610184578063313ce56714610197575b600080fd5b6101396102eb565b6040516101469190610cec565b60405180910390f35b61016261015d366004610d56565b61037d565b6040519015158152602001610146565b6002545b604051908152602001610146565b610162610192366004610d80565b610397565b60405160128152602001610146565b6101626101b4366004610d56565b6103bb565b6101cc6101c7366004610d56565b6103dd565b005b6101cc6101dc366004610dbc565b610461565b6101766101ef366004610dd5565b6001600160a01b031660009081526020819052604090205490565b6101cc6104a3565b6101cc610220366004610d56565b6104b7565b6005546001600160a01b03165b6040516001600160a01b039091168152602001610146565b6101cc610258366004610dd5565b610526565b6101396105d8565b610162610273366004610d56565b6105e7565b610162610286366004610d56565b610662565b6102327f000000000000000000000000000000000000000000000000000000000000000081565b6101766102c0366004610df7565b610670565b6101cc6102d3366004610dd5565b61069b565b600654610232906001600160a01b031681565b6060600380546102fa90610e2a565b80601f016020809104026020016040519081016040528092919081815260200182805461032690610e2a565b80156103735780601f1061034857610100808354040283529160200191610373565b820191906000526020600020905b81548152906001019060200180831161035657829003601f168201915b5050505050905090565b60003361038b818585610714565b60019150505b92915050565b6000336103a5858285610839565b6103b08585856108b3565b506001949350505050565b60003361038b8185856103ce8383610670565b6103d89190610e64565b610714565b6006546001600160a01b031633146104105760405162461bcd60e51b815260040161040790610e85565b60405180910390fd5b61041a8282610a57565b816001600160a01b03167f30385c845b448a36257a6a1716e6ad2e1bc2cbe333cde1e69fe849ad6511adfe8260405161045591815260200190565b60405180910390a25050565b61046b3382610b16565b60405181815233907f696de425f79f4a40bc6d2122ca50507f0efbeabbff86a84871b7196ab8ea8df79060200160405180910390a250565b6104ab610c40565b6104b56000610c9a565b565b6006546001600160a01b031633146104e15760405162461bcd60e51b815260040161040790610e85565b6104eb8282610b16565b816001600160a01b03167f696de425f79f4a40bc6d2122ca50507f0efbeabbff86a84871b7196ab8ea8df78260405161045591815260200190565b61052e610c40565b6001600160a01b03811661058e5760405162461bcd60e51b815260206004820152602160248201527f436f6e74726f6c6c65722063616e6e6f74206265207a65726f206164647265736044820152607360f81b6064820152608401610407565b600680546001600160a01b0319166001600160a01b0383169081179091556040517f1304018cfe79741dcf02ba6b61d39cc4757d59395d03224d9925c7aa8300214690600090a250565b6060600480546102fa90610e2a565b600033816105f58286610670565b9050838110156106555760405162461bcd60e51b815260206004820152602560248201527f45524332303a2064656372656173656420616c6c6f77616e63652062656c6f77604482015264207a65726f60d81b6064820152608401610407565b6103b08286868403610714565b60003361038b8185856108b3565b6001600160a01b03918216600090815260016020908152604080832093909416825291909152205490565b6106a3610c40565b6001600160a01b0381166107085760405162461bcd60e51b815260206004820152602660248201527f4f776e61626c653a206e6577206f776e657220697320746865207a65726f206160448201526564647265737360d01b6064820152608401610407565b61071181610c9a565b50565b6001600160a01b0383166107765760405162461bcd60e51b8152602060048201526024808201527f45524332303a20617070726f76652066726f6d20746865207a65726f206164646044820152637265737360e01b6064820152608401610407565b6001600160a01b0382166107d75760405162461bcd60e51b815260206004820152602260248201527f45524332303a20617070726f766520746f20746865207a65726f206164647265604482015261737360f01b6064820152608401610407565b6001600160a01b0383811660008181526001602090815260408083209487168084529482529182902085905590518481527f8c5be1e5ebec7d5bd14f71427d1e84f3dd0314c0f7b2291e5b200ac8c7c3b92591015b60405180910390a3505050565b60006108458484610670565b905060001981146108ad57818110156108a05760405162461bcd60e51b815260206004820152601d60248201527f45524332303a20696e73756666696369656e7420616c6c6f77616e63650000006044820152606401610407565b6108ad8484848403610714565b50505050565b6001600160a01b0383166109175760405162461bcd60e51b815260206004820152602560248201527f45524332303a207472616e736665722066726f6d20746865207a65726f206164604482015264647265737360d81b6064820152608401610407565b6001600160a01b0382166109795760405162461bcd60e51b815260206004820152602360248201527f45524332303a207472616e7366657220746f20746865207a65726f206164647260448201526265737360e81b6064820152608401610407565b6001600160a01b038316600090815260208190526040902054818110156109f15760405162461bcd60e51b815260206004820152602660248201527f45524332303a207472616e7366657220616d6f756e7420657863656564732062604482015265616c616e636560d01b6064820152608401610407565b6001600160a01b03848116600081815260208181526040808320878703905593871680835291849020805487019055925185815290927fddf252ad1be2c89b69c2b068fc378daa952ba7f163c4a11628f55a4df523b3ef910160405180910390a36108ad565b6001600160a01b038216610aad5760405162461bcd60e51b815260206004820152601f60248201527f45524332303a206d696e7420746f20746865207a65726f2061646472657373006044820152606401610407565b8060026000828254610abf9190610e64565b90915550506001600160a01b038216600081815260208181526040808320805486019055518481527fddf252ad1be2c89b69c2b068fc378daa952ba7f163c4a11628f55a4df523b3ef910160405180910390a35050565b6001600160a01b038216610b765760405162461bcd60e51b815260206004820152602160248201527f45524332303a206275726e2066726f6d20746865207a65726f206164647265736044820152607360f81b6064820152608401610407565b6001600160a01b03821660009081526020819052604090205481811015610bea5760405162461bcd60e51b815260206004820152602260248201527f45524332303a206275726e20616d6f756e7420657863656564732062616c616e604482015261636560f01b6064820152608401610407565b6001600160a01b0383166000818152602081815260408083208686039055600280548790039055518581529192917fddf252ad1be2c89b69c2b068fc378daa952ba7f163c4a11628f55a4df523b3ef910161082c565b6005546001600160a01b031633146104b55760405162461bcd60e51b815260206004820181905260248201527f4f776e61626c653a2063616c6c6572206973206e6f7420746865206f776e65726044820152606401610407565b600580546001600160a01b038381166001600160a01b0319831681179093556040519116919082907f8be0079c531659141344cd1fd0a4f28419497f9722a3daafe3b4186f6b6457e090600090a35050565b600060208083528351808285015260005b81811015610d1957858101830151858201604001528201610cfd565b506000604082860101526040601f19601f8301168501019250505092915050565b80356001600160a01b0381168114610d5157600080fd5b919050565b60008060408385031215610d6957600080fd5b610d7283610d3a565b946020939093013593505050565b600080600060608486031215610d9557600080fd5b610d9e84610d3a565b9250610dac60208501610d3a565b9150604084013590509250925092565b600060208284031215610dce57600080fd5b5035919050565b600060208284031215610de757600080fd5b610df082610d3a565b9392505050565b60008060408385031215610e0a57600080fd5b610e1383610d3a565b9150610e2160208401610d3a565b90509250929050565b600181811c90821680610e3e57607f821691505b602082108103610e5e57634e487b7160e01b600052602260045260246000fd5b50919050565b8082018082111561039157634e487b7160e01b600052601160045260246000fd5b60208082526026908201527f4f6e6c7920636f6e74726f6c6c65722063616e2063616c6c20746869732066756040820152653731ba34b7b760d11b60608201526080019056fea2646970667358221220249a1b986d1c1a194ae959807d7a27a49ce39c901757f7c4f96be89034c2b17764736f6c6343000814003368747470733a2f2f686f6b757361692e61692f6c6963656e7365732f64656661756c74a2646970667358221220d01c9898b31675d19ac5afb0af566cb566ea2a62499dae974ee72e85eb6db0dd64736f6c63430008140033",
  "linkReferences": {},
  "deployedLinkReferences": {}
}