{
  "_format": "hh-sol-artifact-1",
  "contractName": "TokenManager",
  "sourceName": "contracts/TokenManager.sol",
  "abi": [
    {
      "inputs": [
        {
          "internalType": "address",
          "name": "registryAddress",
          "type": "address"
        }
      ],
      "stateMutability": "nonpayable",
      "type": "constructor"
    },
    {
      "inputs": [],
      "name": "ArrayEmpty",
      "type": "error"
    },
    {
      "inputs": [
        {
          "internalType": "uint256",
          "name": "expected",
          "type": "uint256"
        },
        {
          "internalType": "uint256",
          "name": "actual",
          "type": "uint256"
        }
      ],
      "name": "ArrayLengthMismatch",
      "type": "error"
    },
    {
      "inputs": [
        {
          "internalType": "uint256",
          "name": "length",
          "type": "uint256"
        },
        {
          "internalType": "uint256",
          "name": "maxLength",
          "type": "uint256"
        }
      ],
      "name": "ArrayTooLarge",
      "type": "error"
    },
    {
      "inputs": [
        {
          "internalType": "string",
          "name": "context",
          "type": "string"
        }
      ],
      "name": "EmptyString",
      "type": "error"
    },
    {
      "inputs": [
        {
          "internalType": "string",
          "name": "context",
          "type": "string"
        }
      ],
      "name": "InvalidAmount",
      "type": "error"
    },
    {
      "inputs": [
        {
          "internalType": "string",
          "name": "context",
          "type": "string"
        }
      ],
      "name": "ZeroAddress",
      "type": "error"
    },
    {
      "anonymous": false,
      "inputs": [
        {
          "indexed": true,
          "internalType": "string",
          "name": "modelId",
          "type": "string"
        },
        {
          "indexed": true,
          "internalType": "address",
          "name": "modelSupplierRecipient",
          "type": "address"
        },
        {
          "indexed": false,
          "internalType": "uint256",
          "name": "modelSupplierAllocation",
          "type": "uint256"
        },
        {
          "indexed": true,
          "internalType": "address",
          "name": "investorRecipient",
          "type": "address"
        },
        {
          "indexed": false,
          "internalType": "uint256",
          "name": "investorAllocation",
          "type": "uint256"
        }
      ],
      "name": "AllocationDistributed",
      "type": "event"
    },
    {
      "anonymous": false,
      "inputs": [
        {
          "indexed": true,
          "internalType": "string",
          "name": "modelId",
          "type": "string"
        },
        {
          "indexed": false,
          "internalType": "address[]",
          "name": "recipients",
          "type": "address[]"
        },
        {
          "indexed": false,
          "internalType": "uint256[]",
          "name": "amounts",
          "type": "uint256[]"
        },
        {
          "indexed": false,
          "internalType": "uint256",
          "name": "totalAmount",
          "type": "uint256"
        }
      ],
      "name": "BatchMinted",
      "type": "event"
    },
    {
      "anonymous": false,
      "inputs": [
        {
          "indexed": true,
          "internalType": "address",
          "name": "contributor",
          "type": "address"
        },
        {
          "indexed": false,
          "internalType": "uint256",
          "name": "index",
          "type": "uint256"
        }
      ],
      "name": "ContributorSkipped",
      "type": "event"
    },
    {
      "anonymous": false,
      "inputs": [
        {
          "indexed": true,
          "internalType": "address",
          "name": "newDeltaVerifier",
          "type": "address"
        }
      ],
      "name": "DeltaVerifierUpdated",
      "type": "event"
    },
    {
      "anonymous": false,
      "inputs": [
        {
          "indexed": false,
          "internalType": "uint256",
          "name": "newFee",
          "type": "uint256"
        }
      ],
      "name": "DeploymentFeeUpdated",
      "type": "event"
    },
    {
      "anonymous": false,
      "inputs": [
        {
          "indexed": true,
          "internalType": "string",
          "name": "modelId",
          "type": "string"
        },
        {
          "indexed": true,
          "internalType": "address",
          "name": "recipient",
          "type": "address"
        },
        {
          "indexed": false,
          "internalType": "uint256",
          "name": "amount",
          "type": "uint256"
        }
      ],
      "name": "ModelSupplierAllocationDistributed",
      "type": "event"
    },
    {
      "anonymous": false,
      "inputs": [
        {
          "indexed": true,
          "internalType": "address",
          "name": "previousOwner",
          "type": "address"
        },
        {
          "indexed": true,
          "internalType": "address",
          "name": "newOwner",
          "type": "address"
        }
      ],
      "name": "OwnershipTransferred",
      "type": "event"
    },
    {
      "anonymous": false,
      "inputs": [
        {
          "indexed": true,
          "internalType": "string",
          "name": "modelId",
          "type": "string"
        },
        {
          "indexed": true,
          "internalType": "address",
          "name": "paramsAddress",
          "type": "address"
        },
        {
          "indexed": true,
          "internalType": "address",
          "name": "deployer",
          "type": "address"
        },
        {
          "indexed": false,
          "internalType": "uint256",
          "name": "tokensPerDeltaOne",
          "type": "uint256"
        },
        {
          "indexed": false,
          "internalType": "uint16",
          "name": "infrastructureAccrualBps",
          "type": "uint16"
        },
        {
          "indexed": false,
          "internalType": "uint256",
          "name": "initialOraclePricePerThousandUsd",
          "type": "uint256"
        }
      ],
      "name": "ParamsDeployed",
      "type": "event"
    },
    {
      "anonymous": false,
      "inputs": [
        {
          "indexed": true,
          "internalType": "bytes32",
          "name": "role",
          "type": "bytes32"
        },
        {
          "indexed": true,
          "internalType": "bytes32",
          "name": "previousAdminRole",
          "type": "bytes32"
        },
        {
          "indexed": true,
          "internalType": "bytes32",
          "name": "newAdminRole",
          "type": "bytes32"
        }
      ],
      "name": "RoleAdminChanged",
      "type": "event"
    },
    {
      "anonymous": false,
      "inputs": [
        {
          "indexed": true,
          "internalType": "bytes32",
          "name": "role",
          "type": "bytes32"
        },
        {
          "indexed": true,
          "internalType": "address",
          "name": "account",
          "type": "address"
        },
        {
          "indexed": true,
          "internalType": "address",
          "name": "sender",
          "type": "address"
        }
      ],
      "name": "RoleGranted",
      "type": "event"
    },
    {
      "anonymous": false,
      "inputs": [
        {
          "indexed": true,
          "internalType": "bytes32",
          "name": "role",
          "type": "bytes32"
        },
        {
          "indexed": true,
          "internalType": "address",
          "name": "account",
          "type": "address"
        },
        {
          "indexed": true,
          "internalType": "address",
          "name": "sender",
          "type": "address"
        }
      ],
      "name": "RoleRevoked",
      "type": "event"
    },
    {
      "anonymous": false,
      "inputs": [
        {
          "indexed": true,
          "internalType": "string",
          "name": "modelId",
          "type": "string"
        },
        {
          "indexed": true,
          "internalType": "address",
          "name": "tokenAddress",
          "type": "address"
        },
        {
          "indexed": true,
          "internalType": "address",
          "name": "deployer",
          "type": "address"
        },
        {
          "indexed": false,
          "internalType": "string",
          "name": "name",
          "type": "string"
        },
        {
          "indexed": false,
          "internalType": "string",
          "name": "symbol",
          "type": "string"
        },
        {
          "indexed": false,
          "internalType": "uint256",
          "name": "totalSupply",
          "type": "uint256"
        }
      ],
      "name": "TokenDeployed",
      "type": "event"
    },
    {
      "anonymous": false,
      "inputs": [
        {
          "indexed": true,
          "internalType": "string",
          "name": "modelId",
          "type": "string"
        },
        {
          "indexed": true,
          "internalType": "address",
          "name": "account",
          "type": "address"
        },
        {
          "indexed": false,
          "internalType": "uint256",
          "name": "amount",
          "type": "uint256"
        }
      ],
      "name": "TokensBurned",
      "type": "event"
    },
    {
      "anonymous": false,
      "inputs": [
        {
          "indexed": true,
          "internalType": "string",
          "name": "modelId",
          "type": "string"
        },
        {
          "indexed": true,
          "internalType": "address",
          "name": "recipient",
          "type": "address"
        },
        {
          "indexed": false,
          "internalType": "uint256",
          "name": "amount",
          "type": "uint256"
        }
      ],
      "name": "TokensMinted",
      "type": "event"
    },
    {
      "inputs": [],
      "name": "DEFAULT_ADMIN_ROLE",
      "outputs": [
        {
          "internalType": "bytes32",
          "name": "",
          "type": "bytes32"
        }
      ],
      "stateMutability": "view",
      "type": "function"
    },
    {
      "inputs": [],
      "name": "DEPLOYER_ROLE",
      "outputs": [
        {
          "internalType": "bytes32",
          "name": "",
          "type": "bytes32"
        }
      ],
      "stateMutability": "view",
      "type": "function"
    },
    {
      "inputs": [],
      "name": "MINTER_ROLE",
      "outputs": [
        {
          "internalType": "bytes32",
          "name": "",
          "type": "bytes32"
        }
      ],
      "stateMutability": "view",
      "type": "function"
    },
    {
      "inputs": [
        {
          "internalType": "address",
          "name": "amm",
          "type": "address"
        }
      ],
      "name": "authorizeAMM",
      "outputs": [],
      "stateMutability": "nonpayable",
      "type": "function"
    },
    {
      "inputs": [
        {
          "internalType": "string",
          "name": "modelId",
          "type": "string"
        },
        {
          "internalType": "address[]",
          "name": "recipients",
          "type": "address[]"
        },
        {
          "internalType": "uint256[]",
          "name": "amounts",
          "type": "uint256[]"
        }
      ],
      "name": "batchMintTokens",
      "outputs": [],
      "stateMutability": "nonpayable",
      "type": "function"
    },
    {
      "inputs": [
        {
          "internalType": "string",
          "name": "modelId",
          "type": "string"
        },
        {
          "internalType": "address",
          "name": "account",
          "type": "address"
        },
        {
          "internalType": "uint256",
          "name": "amount",
          "type": "uint256"
        }
      ],
      "name": "burnTokens",
      "outputs": [],
      "stateMutability": "nonpayable",
      "type": "function"
    },
    {
      "inputs": [],
      "name": "deltaVerifier",
      "outputs": [
        {
          "internalType": "address",
          "name": "",
          "type": "address"
        }
      ],
      "stateMutability": "view",
      "type": "function"
    },
    {
      "inputs": [
        {
          "internalType": "string",
          "name": "modelId",
          "type": "string"
        },
        {
          "internalType": "string",
          "name": "name",
          "type": "string"
        },
        {
          "internalType": "string",
          "name": "symbol",
          "type": "string"
        },
        {
          "internalType": "uint256",
          "name": "modelSupplierAllocation",
          "type": "uint256"
        },
        {
          "internalType": "address",
          "name": "modelSupplierRecipient",
          "type": "address"
        },
        {
          "internalType": "uint256",
          "name": "investorAllocation",
          "type": "uint256"
        },
        {
          "components": [
            {
              "internalType": "uint256",
              "name": "tokensPerDeltaOne",
              "type": "uint256"
            },
            {
              "internalType": "uint16",
              "name": "infrastructureAccrualBps",
              "type": "uint16"
            },
            {
              "internalType": "uint256",
              "name": "initialOraclePricePerThousandUsd",
              "type": "uint256"
            },
            {
              "internalType": "bytes32",
              "name": "licenseHash",
              "type": "bytes32"
            },
            {
              "internalType": "string",
              "name": "licenseURI",
              "type": "string"
            },
            {
              "internalType": "address",
              "name": "governor",
              "type": "address"
            }
          ],
          "internalType": "struct TokenManager.InitialParams",
          "name": "initialParams",
          "type": "tuple"
        }
      ],
      "name": "deployTokenWithAllocations",
      "outputs": [
        {
          "internalType": "address",
          "name": "tokenAddress",
          "type": "address"
        }
      ],
      "stateMutability": "payable",
      "type": "function"
    },
    {
      "inputs": [
        {
          "internalType": "string",
          "name": "modelId",
          "type": "string"
        },
        {
          "internalType": "string",
          "name": "name",
          "type": "string"
        },
        {
          "internalType": "string",
          "name": "symbol",
          "type": "string"
        },
        {
          "internalType": "uint256",
          "name": "totalSupply",
          "type": "uint256"
        },
        {
          "components": [
            {
              "internalType": "uint256",
              "name": "tokensPerDeltaOne",
              "type": "uint256"
            },
            {
              "internalType": "uint16",
              "name": "infrastructureAccrualBps",
              "type": "uint16"
            },
            {
              "internalType": "uint256",
              "name": "initialOraclePricePerThousandUsd",
              "type": "uint256"
            },
            {
              "internalType": "bytes32",
              "name": "licenseHash",
              "type": "bytes32"
            },
            {
              "internalType": "string",
              "name": "licenseURI",
              "type": "string"
            },
            {
              "internalType": "address",
              "name": "governor",
              "type": "address"
            }
          ],
          "internalType": "struct TokenManager.InitialParams",
          "name": "initialParams",
          "type": "tuple"
        }
      ],
      "name": "deployTokenWithParams",
      "outputs": [
        {
          "internalType": "address",
          "name": "tokenAddress",
          "type": "address"
        }
      ],
      "stateMutability": "payable",
      "type": "function"
    },
    {
      "inputs": [],
      "name": "deploymentFee",
      "outputs": [
        {
          "internalType": "uint256",
          "name": "",
          "type": "uint256"
        }
      ],
      "stateMutability": "view",
      "type": "function"
    },
    {
      "inputs": [
        {
          "internalType": "string",
          "name": "modelId",
          "type": "string"
        }
      ],
      "name": "distributeModelSupplierAllocation",
      "outputs": [],
      "stateMutability": "nonpayable",
      "type": "function"
    },
    {
      "inputs": [],
      "name": "feeRecipient",
      "outputs": [
        {
          "internalType": "address",
          "name": "",
          "type": "address"
        }
      ],
      "stateMutability": "view",
      "type": "function"
    },
    {
      "inputs": [
        {
          "internalType": "address",
          "name": "tokenAddress",
          "type": "address"
        }
      ],
      "name": "getModelId",
      "outputs": [
        {
          "internalType": "string",
          "name": "",
          "type": "string"
        }
      ],
      "stateMutability": "view",
      "type": "function"
    },
    {
      "inputs": [
        {
          "internalType": "string",
          "name": "modelId",
          "type": "string"
        }
      ],
      "name": "getParamsAddress",
      "outputs": [
        {
          "internalType": "address",
          "name": "",
          "type": "address"
        }
      ],
      "stateMutability": "view",
      "type": "function"
    },
    {
      "inputs": [
        {
          "internalType": "bytes32",
          "name": "role",
          "type": "bytes32"
        }
      ],
      "name": "getRoleAdmin",
      "outputs": [
        {
          "internalType": "bytes32",
          "name": "",
          "type": "bytes32"
        }
      ],
      "stateMutability": "view",
      "type": "function"
    },
    {
      "inputs": [
        {
          "internalType": "string",
          "name": "modelId",
          "type": "string"
        }
      ],
      "name": "getTokenAddress",
      "outputs": [
        {
          "internalType": "address",
          "name": "",
          "type": "address"
        }
      ],
      "stateMutability": "view",
      "type": "function"
    },
    {
      "inputs": [
        {
          "internalType": "bytes32",
          "name": "role",
          "type": "bytes32"
        },
        {
          "internalType": "address",
          "name": "account",
          "type": "address"
        }
      ],
      "name": "grantRole",
      "outputs": [],
      "stateMutability": "nonpayable",
      "type": "function"
    },
    {
      "inputs": [
        {
          "internalType": "string",
          "name": "modelId",
          "type": "string"
        }
      ],
      "name": "hasParams",
      "outputs": [
        {
          "internalType": "bool",
          "name": "",
          "type": "bool"
        }
      ],
      "stateMutability": "view",
      "type": "function"
    },
    {
      "inputs": [
        {
          "internalType": "bytes32",
          "name": "role",
          "type": "bytes32"
        },
        {
          "internalType": "address",
          "name": "account",
          "type": "address"
        }
      ],
      "name": "hasRole",
      "outputs": [
        {
          "internalType": "bool",
          "name": "",
          "type": "bool"
        }
      ],
      "stateMutability": "view",
      "type": "function"
    },
    {
      "inputs": [
        {
          "internalType": "string",
          "name": "modelId",
          "type": "string"
        }
      ],
      "name": "hasToken",
      "outputs": [
        {
          "internalType": "bool",
          "name": "",
          "type": "bool"
        }
      ],
      "stateMutability": "view",
      "type": "function"
    },
    {
      "inputs": [
        {
          "internalType": "string",
          "name": "modelId",
          "type": "string"
        },
        {
          "internalType": "address",
          "name": "recipient",
          "type": "address"
        },
        {
          "internalType": "uint256",
          "name": "amount",
          "type": "uint256"
        }
      ],
      "name": "mintTokens",
      "outputs": [],
      "stateMutability": "nonpayable",
      "type": "function"
    },
    {
      "inputs": [
        {
          "internalType": "string",
          "name": "",
          "type": "string"
        }
      ],
      "name": "modelParams",
      "outputs": [
        {
          "internalType": "address",
          "name": "",
          "type": "address"
        }
      ],
      "stateMutability": "view",
      "type": "function"
    },
    {
      "inputs": [
        {
          "internalType": "string",
          "name": "",
          "type": "string"
        }
      ],
      "name": "modelTokens",
      "outputs": [
        {
          "internalType": "address",
          "name": "",
          "type": "address"
        }
      ],
      "stateMutability": "view",
      "type": "function"
    },
    {
      "inputs": [],
      "name": "owner",
      "outputs": [
        {
          "internalType": "address",
          "name": "",
          "type": "address"
        }
      ],
      "stateMutability": "view",
      "type": "function"
    },
    {
      "inputs": [],
      "name": "registry",
      "outputs": [
        {
          "internalType": "contract ModelRegistry",
          "name": "",
          "type": "address"
        }
      ],
      "stateMutability": "view",
      "type": "function"
    },
    {
      "inputs": [],
      "name": "renounceOwnership",
      "outputs": [],
      "stateMutability": "nonpayable",
      "type": "function"
    },
    {
      "inputs": [
        {
          "internalType": "bytes32",
          "name": "role",
          "type": "bytes32"
        },
        {
          "internalType": "address",
          "name": "account",
          "type": "address"
        }
      ],
      "name": "renounceRole",
      "outputs": [],
      "stateMutability": "nonpayable",
      "type": "function"
    },
    {
      "inputs": [
        {
          "internalType": "address",
          "name": "amm",
          "type": "address"
        }
      ],
      "name": "revokeAMM",
      "outputs": [],
      "stateMutability": "nonpayable",
      "type": "function"
    },
    {
      "inputs": [
        {
          "internalType": "bytes32",
          "name": "role",
          "type": "bytes32"
        },
        {
          "internalType": "address",
          "name": "account",
          "type": "address"
        }
      ],
      "name": "revokeRole",
      "outputs": [],
      "stateMutability": "nonpayable",
      "type": "function"
    },
    {
      "inputs": [
        {
          "internalType": "address",
          "name": "_deltaVerifier",
          "type": "address"
        }
      ],
      "name": "setDeltaVerifier",
      "outputs": [],
      "stateMutability": "nonpayable",
      "type": "function"
    },
    {
      "inputs": [
        {
          "internalType": "uint256",
          "name": "_fee",
          "type": "uint256"
        }
      ],
      "name": "setDeploymentFee",
      "outputs": [],
      "stateMutability": "nonpayable",
      "type": "function"
    },
    {
      "inputs": [
        {
          "internalType": "address",
          "name": "_recipient",
          "type": "address"
        }
      ],
      "name": "setFeeRecipient",
      "outputs": [],
      "stateMutability": "nonpayable",
      "type": "function"
    },
    {
      "inputs": [
        {
          "internalType": "bytes4",
          "name": "interfaceId",
          "type": "bytes4"
        }
      ],
      "name": "supportsInterface",
      "outputs": [
        {
          "internalType": "bool",
          "name": "",
          "type": "bool"
        }
      ],
      "stateMutability": "view",
      "type": "function"
    },
    {
      "inputs": [
        {
          "internalType": "address",
          "name": "",
          "type": "address"
        }
      ],
      "name": "tokenToModel",
      "outputs": [
        {
          "internalType": "string",
          "name": "",
          "type": "string"
        }
      ],
      "stateMutability": "view",
      "type": "function"
    },
    {
      "inputs": [
        {
          "internalType": "address",
          "name": "newOwner",
          "type": "address"
        }
      ],
      "name": "transferOwnership",
      "outputs": [],
      "stateMutability": "nonpayable",
      "type": "function"
    }
  ],
  "bytecode": "0x6080346200037e57620078ef80380391601f199081601f85011681019260018060401b0394828510868611176200038357808392604096875283396020928391810103126200037e57516001600160a01b0380821693909290918490036200037e5760008054336001600160a01b03198083168217845588519396909392167f8be0079c531659141344cd1fd0a4f28419497f9722a3daafe3b4186f6b6457e08780a333156200032c5750838052600194858352868520338652835260ff9384888720541615620002f5575b8560075587518881018181108b821117620002e1578952601081526f7265676973747279206164647265737360801b85820152821562000282575050816002541617600255339060085416176008558451956060870190878210908211176200026e57855260028652808601853682378651156200025a577f9f2df0fed2c77648de5860a4cc508cd0818c85b8b8a1ab4ceeef8d981c8956a6905285518410156200024657857ffc425f2263d0df187444b70e47283d622c70181c5baebb1306a01edba1ce184c868698015283965b620001af575b855161753590816200039a8239f35b80518710156200024057818760051b8201015180855285835286852033865283528387862054161562000207575b506000198714620001f35795840195846200019a565b634e487b7160e01b84526011600452602484fd5b80855285835286852033865283528685208660ff1982541617905533903390600080516020620078cf8339815191528780a438620001dd565b620001a0565b634e487b7160e01b83526032600452602483fd5b634e487b7160e01b84526032600452602484fd5b634e487b7160e01b84526041600452602484fd5b8685928a5193849263eac0d38960e01b845281600485015284519182602486015281955b838710620002c75750506044945090601f9185828601015201168101030190fd5b8681018201518888016044015295810195879550620002a6565b634e487b7160e01b88526041600452602488fd5b85805286845287862033875284528786208760ff19825416179055333387600080516020620078cf8339815191528180a4620000cb565b62461bcd60e51b815260048101839052602760248201527f416363657373436f6e74726f6c426173653a2061646d696e2063616e6e6f74206044820152666265207a65726f60c81b6064820152608490fd5b600080fd5b634e487b7160e01b600052604160045260246000fdfe608060405260043610156200001357600080fd5b6000803560e01c806301d1ed731462001f3157806301ffc9a71462001ed55780631e4614851462001eaa578063248a9ca31462001e7c5780632f2ff15d1462001dc657806336568abe1462001d2c578063469048401462001d015780634bd34efc1462001caa578063643c1de614620019c75780636f876a6e14620018f8578063709446461462001723578063715018a614620016c55780637b103999146200169a5780637fa82de4146200159a578063809758711462000feb5780638856c8ae14620013b057806389a2e605146200105b5780638da5cb5b14620013875780638ea00818146200131557806391d1485414620012c557806395fb1c451462001253578063a0a6df03146200118b578063a217fddf146200116d578063b6a63bb014620010cb578063c4091236146200105b578063ca0301e11462000feb578063d002462b1462000f99578063d53913931462000f6d578063d547741f1462000f24578063d755b2861462000a26578063e74b981b14620009ad578063ecd002611462000970578063f2cff57f1462000950578063f2fde38b14620008835763fb7b642814620001c257600080fd5b60e036600319011262000880576004356001600160401b0381116200087c57620001f1903690600401620024e2565b6024356001600160401b0381116200086f5762000213903690600401620024e2565b6044356001600160401b038111620008785762000235903690600401620024e2565b926084356001600160a01b0381168103620008735760c4356001600160401b0381116200086f576200026c90369060040162002572565b93620002826200027b62002bec565b8262003035565b620002976200029062002c12565b8562003035565b620002ac620002a562002c3a565b8762003035565b620002f1604051620002be8162002488565b601981527f6d6f64656c20737570706c69657220616c6c6f636174696f6e00000000000000602082015260643562003005565b62000334604051620003038162002488565b601881527f6d6f64656c20737570706c69657220726563697069656e74000000000000000060208201528362002fcc565b6200036f604051620003468162002488565b601381527234b73b32b9ba37b91030b63637b1b0ba34b7b760691b602082015260a43562003005565b60a08501805162000394906001600160a01b03166200038d62002c64565b9062002fcc565b620003ce6040518351620003ad818360208801620026f3565b60049082019081528190036020019020546001600160a01b03161562002c8a565b6007548481620007fe575b505085519061ffff60208801511690604088015160608901519060808a01519260018060a01b03905116936040519561292a87018781106001600160401b03821117620007ea57916200043b9593918897959361292a620030678a3962002e0f565b039084f0958615620007df576200045760a43560643562002ba0565b9460405180611b4f8101106001600160401b03611b4f83011117620007cb57611b4f62005991823980620004b66200049f61010080611b4f850152611b4f8401018562002718565b611b4f830181036020611b4f850101528562002718565b30611b4f830160408101919091526001600160a01b038c81166060830152608082018a905260a082018b905260643560c0830152881660e090910152039086f0958615620007c0576040516020818651620005158183858b01620026f3565b60049082019081520301902080546001600160a01b0319166001600160a01b03891690811790915586526005602052604086208451909990986001600160401b038a11620007ac57620005698b5462002604565b601f811162000766575b5060209a8b601f8c11600114620006f8579a808a9b9c6200069a9a9b91620006ec575b508160011b916000199060031b1c19161790555b6040518b818851620005c08183858d01620026f3565b8101600681520301902060018060a01b0383166001600160601b0360a01b8254161790558051907f0150fcc2158075ef739792ce765733bb2ca58b484a5d92b287fb911c6fe0fb18604061ffff8e84015116920151620006208962002e52565b6040805195865261ffff9490941660208601529284015233936001600160a01b031692606090a47f8bc86e2085f2cb40fd388378b4717f9fe8a5ad8d2b05643adeda5662f1eb59a362000691620006778662002e52565b9260405191829133978d60018060a01b0316978462002e74565b0390a462002e52565b60408051606435815260a435878201526001600160a01b03909316927f647400fb28707f14aa427977c7e32b89a463c9eac2dbc9e8e63e0bdf53fdceb69190a46040516001600160a01b039091168152f35b90508801513862000596565b818a528c8a20908a5b601f198e1681106200074e57509b6001916200069a9a9b9c9d82601f1981161062000734575b5050811b019055620005aa565b8a015160001960f88460031b161c19169055388062000727565b90918e60018192858d01518155019301910162000701565b8b895260208920601f8c0160051c810160208d10620007a4575b601f830160051c820181106200079857505062000573565b8a815560010162000780565b508062000780565b634e487b7160e01b88526041600452602488fd5b6040513d87823e3d90fd5b634e487b7160e01b86526041600452602486fd5b6040513d85823e3d90fd5b634e487b7160e01b8b52604160045260248bfd5b8080808462000814620008339634101562002ce5565b6008546001600160a01b03165af16200082c62002d32565b5062002d67565b6007548481341115620003d9578080806200085362000867953462002db4565b335af16200086062002d32565b5062002dc2565b3884620003d9565b8280fd5b600080fd5b8380fd5b5080fd5b80fd5b5034620008805760203660031901126200088057620008a162002546565b620008ab62002b47565b6001600160a01b03908116908115620008fc57600054826001600160601b0360a01b821617600055167f8be0079c531659141344cd1fd0a4f28419497f9722a3daafe3b4186f6b6457e0600080a380f35b60405162461bcd60e51b815260206004820152602660248201527f4f776e61626c653a206e6577206f776e657220697320746865207a65726f206160448201526564647265737360d01b6064820152608490fd5b503462000880578060031936011262000880576020600754604051908152f35b5034620008805780600319360112620008805760206040517ffc425f2263d0df187444b70e47283d622c70181c5baebb1306a01edba1ce184c8152f35b5034620008805760203660031901126200088057620009cb62002546565b620009d562002b47565b62000a08604051620009e78162002488565b600d81526c199959481c9958da5c1a595b9d609a1b60208201528262002fcc565b60018060a01b03166001600160601b0360a01b600854161760085580f35b50346200088057606036600319011262000880576001600160401b036004358181116200086f5762000a5d903690600401620024e2565b602490813583811162000f205762000a7a90369060040162002789565b9360443590811162000f1c5762000a9690369060040162002789565b90600080516020620074e083398151915287526001926020938085526040892033600052855260ff60406000205416801562000f08575b801562000ef3575b1562000ec05762000ae9620002a562002bec565b871562000eae5783880362000e91576064881162000e725760405195805162000b168189898501620026f3565b870160048152878760018060a01b03998a9303019020541662000b3b81151562002ea6565b876002541662000b678c898c60405180948192630452aad760e21b835284600484015282018962002718565b0381865afa801562000e65578a928d929162000e43575b501592831562000db9575b50505062000b9e909a98939a99919962002f62565b8a988b915b89831062000c5d5750505062000bb99062002e52565b9760405196806060890160608a52526080880193928b905b8883831062000c3757505050508683038688015250508281526001600160fb1b03831162000c33577f8b6c345a54939d0bce4651434d9538c4f41e467b4ce46130f5cbfb6986fdf4ea95859360051b809386840137604084015201030190a280f35b8780fd5b8086978362000c4c889998959697986200255d565b168152019601949392019062000bd1565b90919962000c8862000c7e62000c788d8d9f989d8a62002fa6565b62002fb7565b6200038d62002efd565b8c8c62000c978d8b8b62002fa6565b351562000d725762000c788d62000caf928a62002fa6565b62000cbc8d8b8b62002fa6565b3590853b156200086f576040516340c10f1960e01b81526001600160a01b039190911660048201526024810191909152818160448183895af1801562000d675762000d4b575b505062000d1e9062000d168c8a8a62002fa6565b359062002ba0565b995b600019811462000d3857840191909a98939a62000ba3565b50634e487b7160e01b8c5260116004528bfd5b62000d56906200245e565b62000d63578c3862000d02565b8c80fd5b6040513d84823e3d90fd5b8b915062000c788d62000d8992949e948a62002fa6565b167f14810a1e39861d34a9bc1fbd0adb27c86362dad514acaf96c7e88ad8b5c6ed498a604051848152a262000d20565b62000de0935060405180809581946302037d0b60e51b835286600484015282018962002718565b03915afa801562000e385762000b9e918d9162000e04575b509050878a3862000b89565b62000e299150893d8b1162000e30575b62000e208183620024a4565b81019062002f48565b3862000df8565b503d62000e14565b6040513d8e823e3d90fd5b62000e5e9150833d851162000e305762000e208183620024a4565b3862000b7e565b50604051903d90823e3d90fd5b6040516342b154e560e01b815260048101899052606481890152604490fd5b604488858960405192631f4bb7c160e31b84526004840152820152fd5b604051633c4d929d60e21b8152600490fd5b60405162461bcd60e51b815260048101869052600c818901526b155b985d5d1a1bdc9a5e995960a21b6044820152606490fd5b506003546001600160a01b0316331462000ad5565b5088546001600160a01b0316331462000acd565b8580fd5b8480fd5b503462000880576040366003190112620008805762000f6a60043562000f496200252f565b90808452600160205262000f646001604086200154620027bc565b62002ad0565b80f35b503462000880578060031936011262000880576020604051600080516020620074e08339815191528152f35b50346200088057602036600319011262000880577f40bd824d588484917db8fa4fc894c1e0feae5a75885290ba7b97521cebf82a80602060043562000fdd62002b47565b80600755604051908152a180f35b5034620008805760203660031901126200088057600435906001600160401b03821162000880576020620010233660048501620024e2565b81620010396040519283815193849201620026f3565b600690820190815281900382019020546040516001600160a01b039091168152f35b5034620008805760203660031901126200088057600435906001600160401b03821162000880576020620010933660048501620024e2565b81620010a96040519283815193849201620026f3565b600490820190815281900382019020546040516001600160a01b039091168152f35b5034620008805760203660031901126200088057620010e962002546565b620010f362002b47565b62001127604051620011058162002488565b600e81526d3232b63a30903b32b934b334b2b960911b60208201528262002fcc565b600380546001600160a01b0319166001600160a01b039290921691821790557fc16b33cf025afe079b971721d4d1bf2602b7fa7724cbb84cb6736bee8414f5518280a280f35b50346200088057806003193601126200088057602090604051908152f35b5034620008805760209081600319360112620008805760406200123891620011b262002546565b620011e38351620011c38162002488565b600d81526c746f6b656e206164647265737360981b878201528262002fcc565b6001600160a01b0316808252600585528282206200122b90620012069062002641565b845190620012148262002488565b60058252643a37b5b2b760d91b8883015262003035565b8152600584522062002641565b906200124f60405192828493845283019062002718565b0390f35b5034620008805760203660031901126200088057600435906001600160401b038211620008805760206200128b3660048501620024e2565b81620012a16040519283815193849201620026f3565b600690820190815281900382019020546040516001600160a01b0390911615158152f35b50346200088057604036600319011262000880576040620012e56200252f565b9160043581526001602052209060018060a01b0316600052602052602060ff604060002054166040519015158152f35b5034620008805760203660031901126200088057600435906001600160401b038211620008805760206200134d3660048501620024e2565b81620013636040519283815193849201620026f3565b600490820190815281900382019020546040516001600160a01b0390911615158152f35b50346200088057806003193601126200088057546040516001600160a01b039091168152602090f35b503462000880576020806003193601126200087c576004356001600160401b0381116200086f57620013e7903690600401620024e2565b90620013f262002b47565b620014076200140062002bec565b8362003035565b6040519082516200141c8184848701620026f3565b820160048152828260018060a01b03948593030190205416906200144282151562002ea6565b813b1562000f2057604051632f493f2f60e21b81528590818160048183885af1801562000d675762001582575b505060405163ec8e202760e01b8152918183600481845afa9283156200153657869362001541575b5092816004946040519586809263626e3ca160e01b82525afa93841562001536578694620014fc575b50620014ef7fe88cb4acfd8b91f0a17e08a8005c2ae9e9dc521aca276b9efdac910cff2d88ef93949562002e52565b936040519586521693a380f35b9293508183813d83116200152e575b620015178183620024a4565b8101031262000f1c5791519291620014ef620014c0565b503d6200150b565b6040513d88823e3d90fd5b9092508181813d83116200157a575b6200155c8183620024a4565b8101031262000f1c575192808416840362000f1c5792918162001497565b503d62001550565b6200158d906200245e565b62000f205784386200146f565b503462000880576020806003193601126200087c57620015b962002546565b620015c362002b47565b620015f3604051620015d58162002488565b600b81526a414d4d206164647265737360a81b848201528262002fcc565b600080516020620074e083398151915291828452600181526200161d6001604086200154620027bc565b8284526001815260408085206001600160a01b03909316600081815293835292205460ff16156200164c578380f35b82845260018152604084209082600052526040600020600160ff1982541617905533917f2f8788117e7eff1d82e926ec794901d17c78024a50270940304540a733656f0d8480a43880808380f35b503462000880578060031936011262000880576002546040516001600160a01b039091168152602090f35b50346200088057806003193601126200088057620016e262002b47565b600080546001600160a01b0319811682556001600160a01b03167f8be0079c531659141344cd1fd0a4f28419497f9722a3daafe3b4186f6b6457e08280a380f35b5034620008805762001735366200273f565b91600080516020620074e083398151915284526020600181526040852033600052815260ff604060002054168015620018e4575b8015620018cf575b156200188c57620017856200140062002bec565b620017b1604051620017978162002488565b60078152661858d8dbdd5b9d60ca1b838201528462002fcc565b620017c6620017bf62002f24565b8562003005565b604051858351620017db8184868801620026f3565b820160048152828460018060a01b039485930301902054166200180081151562002ea6565b803b156200087c5760405163079cc67960e41b81526001600160a01b0387166004820152602481018890529082908290604490829084905af1801562000d675762001874575b5050620014ef7fb4ed7d22338308478e19143a97829ebd4d2121943ec22fe5bc9142d3fe3811f89362002e52565b6200187f906200245e565b62000f1c57853862001846565b6064906040519062461bcd60e51b825280600483015260248201527f43616c6c6572206973206e6f7420617574686f72697a656420746f206275726e6044820152fd5b506003546001600160a01b0316331462001771565b5084546001600160a01b0316331462001769565b503462000880576020806003193601126200087c576200191762002546565b6200192162002b47565b600080516020620074e083398151915291828452600181526200194b6001604086200154620027bc565b60008381526001825260408082206001600160a01b0390941680835293835290205460ff1662001979578380f35b82600052600181526040600020908260005252604060002060ff19815416905533917ff6391f5c32d9c69d2a47ea670b442974b53935d1edc7fd64eb21e047a839171b600080a43880808380f35b50346200088057620019d9366200273f565b91600080516020620074e083398151915284526020906001825260408520338652825260ff604086205416801562001c96575b801562001c81575b1562001c3e5762001a286200027b62002bec565b62001a3d62001a3662002efd565b8462002fcc565b62001a4b620017bf62002f24565b60405190805162001a608184868501620026f3565b820160048152828460018060a01b0394859303019020541662001a8581151562002ea6565b8260025416604051630452aad760e21b815285600482015285818062001aaf602482018862002718565b0381855afa90811562001c3357899162001c11575b5015801562001b9d575b62001ada915062002f62565b803b1562001b99576040516340c10f1960e01b81526001600160a01b0386166004820152602481018790529087908290604490829084905af1801562001b8e5762001b4f575b5090620014ef7f4506728dbc4ce36dc8444a8417251cc076c49a64b563cfb19aa2d01831e95c96939262002e52565b7f4506728dbc4ce36dc8444a8417251cc076c49a64b563cfb19aa2d01831e95c969392919662001b83620014ef926200245e565b969192935062001b20565b6040513d89823e3d90fd5b8680fd5b508460405180926302037d0b60e51b8252826004830152818062001bc5602482018962002718565b03915afa801562001c065762001ada91899162001be4575b5062001ace565b62001bff9150863d881162000e305762000e208183620024a4565b3862001bdd565b6040513d8a823e3d90fd5b62001c2c9150863d881162000e305762000e208183620024a4565b3862001ac4565b6040513d8b823e3d90fd5b6064826040519062461bcd60e51b825280600483015260248201527f43616c6c6572206973206e6f7420617574686f72697a656420746f206d696e746044820152fd5b506003546001600160a01b0316331462001a14565b5084546001600160a01b0316331462001a0c565b50346200088057602036600319011262000880576200124f9062001cec906040906001600160a01b0362001cdd62002546565b16815260056020522062002641565b60405191829160208352602083019062002718565b503462000880578060031936011262000880576008546040516001600160a01b039091168152602090f35b503462000880576040366003190112620008805762001d4a6200252f565b336001600160a01b0382160362001d695762000f6a9060043562002ad0565b60405162461bcd60e51b815260206004820152602f60248201527f416363657373436f6e74726f6c3a2063616e206f6e6c792072656e6f756e636560448201526e103937b632b9903337b91039b2b63360891b6064820152608490fd5b503462000880576040366003190112620008805760043562001de76200252f565b818352600160205262001e016001604085200154620027bc565b8183526001602052604083209060018060a01b03169081845260205260ff6040842054161562001e2f578280f35b81835260016020526040832081845260205260408320600160ff1982541617905533917f2f8788117e7eff1d82e926ec794901d17c78024a50270940304540a733656f0d8480a438808280f35b5034620008805760203660031901126200088057600160406020926004358152828452200154604051908152f35b503462000880578060031936011262000880576003546040516001600160a01b039091168152602090f35b503462000880576020366003190112620008805760043563ffffffff60e01b81168091036200087c57602090637965db0b60e01b811490811562001f1f575b506040519015158152f35b6301ffc9a760e01b1490508262001f14565b5060a036600319011262000880576004356001600160401b0381116200087c5762001f61903690600401620024e2565b6024356001600160401b0381116200086f5762001f83903690600401620024e2565b6044356001600160401b038111620008785762001fa5903690600401620024e2565b6084356001600160401b03811162000f205762001fc790369060040162002572565b9262001fd66200027b62002bec565b62001feb62001fe462002c12565b8462003035565b62001ff96200140062002c3a565b6200202d6040516200200b8162002488565b600c81526b746f74616c20737570706c7960a01b602082015260643562003005565b60a0840180516200204b906001600160a01b03166200038d62002c64565b620020646040518351620003ad818360208801620026f3565b600754868162002420575b505084519061ffff60208701511690604087015160608801519060808901519260018060a01b03905116936040519561292a808801908882106001600160401b038311176200240c57918897959391620020d1979593620030678a3962002e0f565b039086f08015620007c05760405180611b4f8101106001600160401b03611b4f83011117620023f857611b4f620059918239806200213a6200212361010080611b4f850152611b4f8401018862002718565b611b4f830181036020611b4f850101528662002718565b30611b4f830160408101919091526001600160a01b0385166060820152606435608082015260a081018a905260c081018a905260e001899052039087f094851562001536576040516020818551620021968183858a01620026f3565b60049082019081520301902080546001600160a01b0319166001600160a01b038816908117909155875260056020526040872083516001600160401b038111620023e457620021e6825462002604565b601f81116200239a575b5060209889906001601f8411146200232b57620022ca969594939291826200231f575b508160011b916000199060031b1c19161790555b604051888185516200223d8183858a01620026f3565b8101600681520301902060018060a01b0383166001600160601b0360a01b8254161790558051907f0150fcc2158075ef739792ce765733bb2ca58b484a5d92b287fb911c6fe0fb18604061ffff8b840151169201516200229d8662002e52565b6040805195865261ffff90941660208601529284015233936001600160a01b031692806060810162000691565b7f8bc86e2085f2cb40fd388378b4717f9fe8a5ad8d2b05643adeda5662f1eb59a3604051806200230a339660018060a01b03891696606435918462002e74565b0390a46040516001600160a01b039091168152f35b90508501513862002213565b908382528a8220915b601f198416811062002382575091600191620022ca979695949382601f1981161062002368575b5050811b01905562002227565b87015160001960f88460031b161c1916905538806200235b565b90918b60018192858b01518155019301910162002334565b828a5260208a20601f830160051c81019160208410620023d9575b601f0160051c01905b818110620023cd5750620021f0565b8a8155600101620023be565b9091508190620023b5565b634e487b7160e01b89526041600452602489fd5b634e487b7160e01b87526041600452602487fd5b634e487b7160e01b8e52604160045260248efd5b8080808462000814620024369634101562002ce5565b60075486813411156200206f578080806200085362002456953462002db4565b38866200206f565b6001600160401b0381116200247257604052565b634e487b7160e01b600052604160045260246000fd5b604081019081106001600160401b038211176200247257604052565b90601f801991011681019081106001600160401b038211176200247257604052565b6001600160401b0381116200247257601f01601f191660200190565b81601f820112156200087357803590620024fc82620024c6565b926200250c6040519485620024a4565b828452602083830101116200087357816000926020809301838601378301015290565b602435906001600160a01b03821682036200087357565b600435906001600160a01b03821682036200087357565b35906001600160a01b03821682036200087357565b91909160c0818403126200087357604051906001600160401b0360c08301818111848210176200247257604052829482358452602083013561ffff811681036200087357602085015260408301356040850152606083013560608501526080830135918211620008735782620025f360a09492620025ff94869401620024e2565b6080860152016200255d565b910152565b90600182811c9216801562002636575b60208310146200262057565b634e487b7160e01b600052602260045260246000fd5b91607f169162002614565b9060405191826000825492620026578462002604565b908184526001948581169081600014620026ce575060011462002687575b50506200268592500383620024a4565b565b9093915060005260209081600020936000915b818310620026b5575050620026859350820101388062002675565b855488840185015294850194879450918301916200269a565b9150506200268594506020925060ff191682840152151560051b820101388062002675565b60005b838110620027075750506000910152565b8181015183820152602001620026f6565b906020916200273381518092818552858086019101620026f3565b601f01601f1916010190565b60606003198201126200087357600435906001600160401b03821162000873576200276d91600401620024e2565b906024356001600160a01b038116810362000873579060443590565b9181601f8401121562000873578235916001600160401b03831162000873576020808501948460051b0101116200087357565b60008181526001602091818352604093848220338352845260ff858320541615620027e8575050505050565b3385519360608501926001600160401b039386811085821117620007cb578852602a8652868601928836853786511562002abc5760308453865183101562002abc576078602188015360295b83811162002a4d575062002a0b5790875193608085019085821090821117620007cb57885260428452868401946060368737845115620029f757603086538451821015620029f75790607860218601536041915b818311620029845750505062002942576200293e938693620029219362002911604894620028e79a519a8b957f416363657373436f6e74726f6c3a206163636f756e74200000000000000000008c8801525180926037880190620026f3565b8401917001034b99036b4b9b9b4b733903937b6329607d1b603784015251809386840190620026f3565b01036028810187520185620024a4565b5192839262461bcd60e51b84526004840152602483019062002718565b0390fd5b60648587519062461bcd60e51b825280600483015260248201527f537472696e67733a20686578206c656e67746820696e73756666696369656e746044820152fd5b909192600f81166010811015620029e3576f181899199a1a9b1b9c1cb0b131b232b360811b901a620029b7858862002bc4565b5360041c928015620029cf5760001901919062002888565b634e487b7160e01b82526011600452602482fd5b634e487b7160e01b83526032600452602483fd5b634e487b7160e01b81526032600452602490fd5b60648789519062461bcd60e51b825280600483015260248201527f537472696e67733a20686578206c656e67746820696e73756666696369656e746044820152fd5b90600f8116601081101562002aa8576f181899199a1a9b1b9c1cb0b131b232b360811b901a62002a7e838a62002bc4565b5360041c90801562002a94576000190162002834565b634e487b7160e01b87526011600452602487fd5b634e487b7160e01b88526032600452602488fd5b634e487b7160e01b86526032600452602486fd5b906000918083526001602052604083209160018060a01b03169182845260205260ff60408420541662002b0257505050565b8083526001602052604083208284526020526040832060ff1981541690557ff6391f5c32d9c69d2a47ea670b442974b53935d1edc7fd64eb21e047a839171b339380a4565b6000546001600160a01b0316330362002b5c57565b606460405162461bcd60e51b815260206004820152602060248201527f4f776e61626c653a2063616c6c6572206973206e6f7420746865206f776e65726044820152fd5b9190820180921162002bae57565b634e487b7160e01b600052601160045260246000fd5b90815181101562002bd6570160200190565b634e487b7160e01b600052603260045260246000fd5b6040519062002bfb8262002488565b60088252671b5bd9195b08125160c21b6020830152565b6040519062002c218262002488565b600a825269746f6b656e206e616d6560b01b6020830152565b6040519062002c498262002488565b600c82526b1d1bdad95b881cde5b589bdb60a21b6020830152565b6040519062002c738262002488565b600882526733b7bb32b93737b960c11b6020830152565b1562002c9257565b60405162461bcd60e51b815260206004820152602560248201527f546f6b656e20616c7265616479206465706c6f79656420666f722074686973206044820152641b5bd9195b60da1b6064820152608490fd5b1562002ced57565b60405162461bcd60e51b815260206004820152601b60248201527f496e73756666696369656e74206465706c6f796d656e742066656500000000006044820152606490fd5b3d1562002d62573d9062002d4682620024c6565b9162002d566040519384620024a4565b82523d6000602084013e565b606090565b1562002d6f57565b60405162461bcd60e51b815260206004820152601d60248201527f4661696c656420746f2073656e64206465706c6f796d656e74206665650000006044820152606490fd5b9190820391821162002bae57565b1562002dca57565b60405162461bcd60e51b815260206004820152601f60248201527f4661696c656420746f20726566756e6420657863657373207061796d656e74006044820152606490fd5b94919261ffff62002e459460a0969399989988521660208701526040860152606085015260c0608085015260c084019062002718565b93600180831b0316910152565b62002e6c90602060405192828480945193849201620026f3565b810103902090565b93929162002ea19062002e9260409360608852606088019062002718565b90868203602088015262002718565b930152565b1562002eae57565b60405162461bcd60e51b815260206004820152602160248201527f546f6b656e206e6f74206465706c6f79656420666f722074686973206d6f64656044820152601b60fa1b6064820152608490fd5b6040519062002f0c8262002488565b60098252681c9958da5c1a595b9d60ba1b6020830152565b6040519062002f338262002488565b6006825265185b5bdd5b9d60d21b6020830152565b908160209103126200087357518015158103620008735790565b1562002f6a57565b60405162461bcd60e51b8152602060048201526014602482015273135bd9195b081a5cc819195858dd1a5d985d195960621b6044820152606490fd5b919081101562002bd65760051b0190565b356001600160a01b0381168103620008735790565b6001600160a01b03161562002fde5750565b60405163eac0d38960e01b8152602060048201529081906200293e90602483019062002718565b156200300e5750565b60405163589956a560e11b8152602060048201529081906200293e90602483019062002718565b51156200303f5750565b6040516318a996bb60e21b8152602060048201529081906200293e9060248301906200271856fe604060808152346200050d576200292a90813803806200001f8162000512565b938439820160c0838203126200050d578251602091828501519061ffff82168083036200050d5786860151606088015160808901516001600160401b039392908481116200050d578a0192601f938685820112156200050d5780519b868d11620003ed578c91601f19986200009a8d8b8a8701160162000512565b9e8f528c84830101116200050d5760a092620000bd918f8e809101910162000538565b01516001600160a01b03811698908990036200050d578815620004cb57620000e5906200055d565b9068056bc75e2d6310000082101580620004b5575b8b5190608082019082821089831117620003ed578d918252604c83527f6e2031303020616e642031303030303030302077686f6c6520746f6b656e73208d8401927f746f6b656e7350657244656c74614f6e65206d7573742062652062657477656584528401526b287765692d7363616c65642960a01b6060840152156200047b5750506103e881101590816200046d575b501562000403576001968791825562ffff006002549160081b169062ffffff191617176002556003556004558751918211620003ed5760059283548581811c91168015620003e2575b88821014620003cc5782811162000383575b50869183116001146200031c57508192939495969760009262000310575b5050600019600383901b1c191690831b1790555b62278d0060065560008052600083528360002033600052835260ff84600020541615620002d3575b7f0603f2636f0ca34ae3ea5a23bb826e2bd2ffd59fb1c01edc1ba10fba2899d1ba9283600052600081528460002083600052815260ff8560002054161562000293575b84516123699081620005a18239f35b836000526000815284600020908360005252836000209060ff1982541617905533916000805160206200290a833981519152600080a43880808062000284565b600080526000835283600020336000528352836000208160ff19825416179055333360006000805160206200290a8339815191528180a462000241565b01519050388062000205565b82169083600052866000209160005b8181106200036d57509883869798999a9695961062000353575b505050811b01905562000219565b015160001960f88460031b161c1916905538808062000345565b8a8301518455928601929188019188016200032b565b846000528760002083808601871c8201928a8710620003c2575b01861c019086905b828110620003b5575050620001e7565b60008155018690620003a5565b925081926200039d565b634e487b7160e01b600052602260045260246000fd5b90607f1690620001d5565b634e487b7160e01b600052604160045260246000fd5b895162461bcd60e51b8152600481018a9052603760248201527f696e6672617374727563747572654163637275616c427073206d75737420626560448201527f206265747765656e203130303020616e642031303030300000000000000000006064820152608490fd5b61271091501115386200018c565b8b89888f93620004ac6044955196879562461bcd60e51b875260048701525180928160248801528787019062000538565b01168101030190fd5b506a084595161401484a000000821115620000fa565b60648a868d519162461bcd60e51b8352600483015260248201527f476f7665726e6f722063616e6e6f74206265207a65726f2061646472657373006044820152fd5b600080fd5b6040519190601f01601f191682016001600160401b03811183821017620003ed57604052565b60005b8381106200054c5750506000910152565b81810151838201526020016200053b565b629896808111156200056c5790565b670de0b6b3a7640000908181029181830414901517156200058a5790565b634e487b7160e01b600052601160045260246000fdfe608060408181526004918236101561001657600080fd5b600090813560e01c90816301ffc9a7146114f15750806306a4b7e1146114b2578063248a9ca3146114885780632f2ff15d146113ea57806336568abe146113635780633cbed89d14610ff057806348dce4f714610f915780634be9bc3914610f745780634c8bc3e514610f555780635d634dd914610f3657806361cd3a4b14610ef0578063698d39fd14610d615780637849ac5414610cd25780638bf8dc7614610c0857806391d1485414610bce5780639209335c14610baf5780639b013c4614610b895780639fca32ed14610b40578063a217fddf14610b25578063aaf05b1a14610a00578063b45015a914610600578063b536818a146105c5578063c29e0029146103d2578063c872e58c14610377578063d16f40851461035a578063d20a6f3d14610329578063d547741f146102f5578063d9a8a7a9146102d7578063dae24cea146102b3578063db775f3e14610289578063e4bfafd014610239578063e92de18414610200578063f824c5bf146101de5763fb4103601461019a57600080fd5b346101db5760203660031901126101db578235906001600160401b0382116101db57506101cf6020936101d4923691016115dd565b612283565b9051908152f35b80fd5b5091346101fc57826003193601126101fc5760209250549051908152f35b8280fd5b508290346101db57806003193601126101db575054610235610220611b79565b83519384938452806020850152830190611656565b0390f35b50346101db5760203660031901126101db578235906001600160401b0382116101db575061026f606093610274923691016115dd565b61216b565b90839293519384526020840152151590820152f35b5090346102af57816003193601126102af5760209061ffff60025460081c169051908152f35b5080fd5b5090346102af57816003193601126102af576020905168056bc75e2d631000008152f35b5090346102af57816003193601126102af576020905162278d008152f35b5090346102af5760016103269161032161030e36611545565b9390928387528660205286200154611869565b611973565b80f35b5090346102af57816003193601126102af5761023590610347611b79565b9051918291602083526020830190611656565b5090346102af57816003193601126102af57602090516127108152f35b50346101db5760203660031901126101db578235906001600160401b0382116101db575060206103ae81946103c0933691016115dd565b81845193828580945193849201611633565b81016007815203019020549051908152f35b5090346102af57806003193601126102af578235602435936001600160401b03948581116105c15761040790369083016115dd565b9261041061167b565b81549183815584519687116105ae5750600561042c8154611b3f565b601f811161054e575b50602096601f81116001146104ac578087987f4965129a3a1d0003e426ba8f1520a242ee83438f4d9556b5641c7848cfff690e95969798916104a1575b508160011b916000199060031b1c19161790555b51602081528061049b33966020830190611656565b0390a480f35b905087015138610472565b8187527f036b6384b5eca791c62761152d0c79bb0604c104a5fb6f4eb0703f3154bb3db0601f198216885b8181106105365750907f4965129a3a1d0003e426ba8f1520a242ee83438f4d9556b5641c7848cfff690e959697989983600194931061051d575b5050811b019055610486565b89015160001960f88460031b161c191690553880610511565b888b0151835560209a8b019a600190930192016104d7565b8187527f036b6384b5eca791c62761152d0c79bb0604c104a5fb6f4eb0703f3154bb3db0601f8901831c81019160208a106105a4575b601f01831c01905b8181106105995750610435565b87815560010161058c565b9091508190610584565b634e487b7160e01b865260419052602485fd5b8480fd5b5090346102af57816003193601126102af57602090517f0603f2636f0ca34ae3ea5a23bb826e2bd2ffd59fb1c01edc1ba10fba2899d1ba8152f35b509190346101fc5760803660031901126101fc576001600160401b039082358281116105c15761063390369085016115dd565b9260249182358481116109fc5761064d90369084016115dd565b936064359081116109fc5761066590369084016115dd565b91868052602093878552828820338952855260ff83892054161561083a5761068f87511515611dad565b83511561080157505061076a927f0b2d2869a7b90ab40f40d8a959605f5e71eeb7b305e8338ca76bb54345653118949261077a926106cc88611e3f565b6107566106db60443587611f6e565b988651858801206106ea611f0d565b80519087012081036107bd57508983518681845161070b8183858901611633565b81016009815203019020555b8a83518660ff60026107468651948481818a019761073681838b611633565b810160088152030190208d611df9565b015416610780575b505050611e1f565b978151968796606088526060880190611656565b9386015284830390850152611656565b0390a280f35b61079a6107aa916002938851809381928951928391611633565b810160088152030190208a611df9565b82815582600182015501558a388661074e565b6107c5611f3a565b86815191012003610717578251858183516107e38183858801611633565b8101600a81520301902061ffff8b1661ffff19825416179055610717565b60169085606494519362461bcd60e51b855284015282015275526561736f6e2063616e6e6f7420626520656d70747960501b6044820152fd5b84928861084633611a31565b9080835190610854826115a1565b604282528782019260603685378251156109ea57603084538251906001918210156109d85790607860218501536041915b81831161096f5750505061092f57604861092b9593859361091393610904975197889376020b1b1b2b9b9a1b7b73a3937b61d1030b1b1b7bab73a1604d1b8d8601526108db8d8251928391603789019101611633565b8401917001034b99036b4b9b9b4b733903937b6329607d1b603784015251809386840190611633565b010360288101865201846115bc565b5194859462461bcd60e51b8652850152830190611656565b0390fd5b60648688878188519362461bcd60e51b85528401528201527f537472696e67733a20686578206c656e67746820696e73756666696369656e746044820152fd5b909192600f811660108110156109c6576f181899199a1a9b1b9c1cb0b131b232b360811b901a61099f8587611a0a565b53891c9280156109b457600019019190610885565b634e487b7160e01b825260118a528882fd5b634e487b7160e01b835260328b528983fd5b634e487b7160e01b8152603289528790fd5b634e487b7160e01b8152603288528690fd5b8680fd5b5082346102af57826003193601126102af576001600160401b03908035828111610b2157610a3190369083016115dd565b91602435908111610b2157610a4990369083016115dd565b91610a5261167b565b610a5e81511515611dad565b84519160ff6002610a8d84519560208181880198610a7d81838c611633565b8101600881520301902087611df9565b01541615610ad2575091610ab46020610ac493600295879851938492839251928391611633565b8101600881520301902090611df9565b828155826001820155015580f35b608490602087519162461bcd60e51b83528201526024808201527f4e6f2070656e64696e672075706461746520666f72207468697320706172616d60448201526332ba32b960e11b6064820152fd5b8380fd5b5090346102af57816003193601126102af5751908152602090f35b5090346102af57816003193601126102af5761ffff908160025460081c166127100392828411610b765750602093505191168152f35b634e487b7160e01b815260118552602490fd5b5090346102af57816003193601126102af57602090516a084595161401484a0000008152f35b5090346102af57816003193601126102af576020906003549051908152f35b5090346102af5760ff81602093610be436611545565b9082528186528282206001600160a01b039091168252855220549151911615158152f35b5090346102af5760203660031901126102af5782359060ff82168092036101fc57610c3161167b565b60018211610c9a57506002549060ff8216916002831015610c87576002821015610c875760ff1916811760025533917f6a27c7ec4afb29f39e98794e0c910c9ff8e5d3ded25819460a9c24297fc027d78480a480f35b634e487b7160e01b845260218552602484fd5b5162461bcd60e51b81526020818501526013602482015272496e76616c6964206d6574726963207479706560681b6044820152606490fd5b5082346102af5760203660031901126102af573561ffff80821690818303610b2157610cfc61167b565b6103e882101580610d55575b610d1190611c37565b62ffff006002549360081b1662ffff0019841617600255339260081c167f29c3b9a213d2b2eba35f0f06606d5e232371c418e7f0d6c03ebe19e1805fc96c8480a480f35b50612710821115610d08565b5091346101fc5760603660031901126101fc576001600160401b039080358281116105c157610d9390369083016115dd565b91602435818111610eec57610dab90369084016115dd565b92610db461167b565b610dc081511515611dad565b610dc981611e3f565b610dd560443585611f6e565b90610de0858261201a565b938651610e0f83519160208181870194610dfb818388611633565b8101600781520301902054600654906119e7565b94885192606084019184831090831117610ed9575092886002610ec5989694610eb1947fa631e7f3c798ef4859b829a8c3b24d1086d17af0301fa2077fb5b3109cc20c079b99978452868252610e91610e81602080850193428552878601976001895251809381928b51928391611633565b810160088152030190208b611df9565b91518255516001820155019051151560ff80198354169116179055611e1f565b968051958695608087526080870190611656565b93602086015284015260608301520390a280f35b634e487b7160e01b8b526041905260248afd5b8580fd5b50346101db5760203660031901126101db578235906001600160401b0382116101db5750610f2e610f2960209461ffff933691016115dd565b6122cf565b915191168152f35b5090346102af57816003193601126102af576020906006549051908152f35b5090346102af57816003193601126102af576020906001549051908152f35b5090346102af57816003193601126102af57602090516103e88152f35b5082346102af5760203660031901126102af57610fb690610fb061167b565b35611ca9565b610fbf81611cd4565b600154908060015533917f2d62ce5bafdae7958f478e258e6d1075ae2ede22e2fd709fef2d02a733cf352e8480a480f35b5091346101fc5760209182600319360112610b215781356001600160401b0381116105c15761102290369084016115dd565b9061102f82511515611dad565b80519260ff83519486818187019761104881838b611633565b8101600b81520301902054161561132a5761106d825186818651610dfb81838b611633565b42106112e957508061110e9184611082611f0d565b8288878251938c60ff60026110b2855161109d818b8d611633565b890198878160089b8c81520301902085611df9565b01541661120f575b929193505060ff60026110f36110e484896110d3611f3a565b988c51938492839251928391611633565b81018a81520301902086611df9565b015416611120575b5050505050505192839251928391611633565b81019160078352814293030190205580f35b6111de6111cf6002927f382c5f7cc6b49943456f370044103e601fa42f18f1439b8a6f0c985b8525916c9789978d895190846111968251611162818689611633565b8401600a8152848361ffff9687930301902054169c518281855161118781838c611633565b8101888152030190208c611df9565b549d518092516111a7818389611633565b8101600a815203019020908c1661ffff198254161790558d8c51948593849251928391611633565b82019081520301902084611df9565b82815582600182015501556112016111f588611e1f565b94865193849384612149565b0390a28084388089896110fb565b60026112b96112aa7f382c5f7cc6b49943456f370044103e601fa42f18f1439b8a6f0c985b8525916c968a895182818a5161124b818387611633565b81016009815203019020549761127c8c848d518092855161126d81848a611633565b82019081520301902089611df9565b54809b518481845161128f818389611633565b81016009815203019020558d51938492839251928391611633565b81018b81520301902084611df9565b82815582600182015501556112dc6112d08b611e1f565b94885193849384612149565b0390a2828887388c6110ba565b84606492519162461bcd60e51b8352820152601760248201527f45706f636820686173206e6f7420656e646564207965740000000000000000006044820152fd5b84606492519162461bcd60e51b83528201526015602482015274135bd9195b081b9bdd081a5b9a5d1a585b1a5e9959605a1b6044820152fd5b5082346102af5761137336611545565b91336001600160a01b0384160361138f57509061032691611973565b608490602086519162461bcd60e51b8352820152602f60248201527f416363657373436f6e74726f6c3a2063616e206f6e6c792072656e6f756e636560448201526e103937b632b9903337b91039b2b63360891b6064820152fd5b5090346102af576113fa36611545565b90918284528360205261141260018286200154611869565b82845260208481528185206001600160a01b039093168086529290528084205460ff161561143e578380f35b828452836020528084208285526020528320600160ff1982541617905533917f2f8788117e7eff1d82e926ec794901d17c78024a50270940304540a733656f0d8480a48180808380f35b5091346101fc5760203660031901126101fc57816020936001923581528085522001549051908152f35b5090346102af57816003193601126102af5760ff600254169160028310156114de576020838351908152f35b634e487b7160e01b815260218452602490fd5b905083346101fc5760203660031901126101fc573563ffffffff60e01b81168091036101fc5760209250637965db0b60e01b8114908115611534575b5015158152f35b6301ffc9a760e01b1490508361152d565b604090600319011261156b57600435906024356001600160a01b038116810361156b5790565b600080fd5b604081019081106001600160401b0382111761158b57604052565b634e487b7160e01b600052604160045260246000fd5b608081019081106001600160401b0382111761158b57604052565b90601f801991011681019081106001600160401b0382111761158b57604052565b81601f8201121561156b578035906001600160401b03821161158b5760405192611611601f8401601f1916602001856115bc565b8284526020838301011161156b57816000926020809301838601378301015290565b60005b8381106116465750506000910152565b8181015183820152602001611636565b9060209161166f81518092818552858086019101611633565b601f01601f1916010190565b3360009081527ff42cf6f079dae9a1c4905bf4a189ed49c3efccf20a4af60f202bafa7d7d85a03602090815260408083205490927f0603f2636f0ca34ae3ea5a23bb826e2bd2ffd59fb1c01edc1ba10fba2899d1ba9160ff16156116df5750505050565b6116e833611a31565b918451906116f5826115a1565b6042825284820192606036853782511561185557603084538251906001918210156118555790607860218501536041915b8183116117e7575050506117a557604861092b9386936117899361177a985198899376020b1b1b2b9b9a1b7b73a3937b61d1030b1b1b7bab73a1604d1b8a8601526108db815180928c603789019101611633565b010360288101875201856115bc565b5192839262461bcd60e51b845260048401526024830190611656565b60648486519062461bcd60e51b825280600483015260248201527f537472696e67733a20686578206c656e67746820696e73756666696369656e746044820152fd5b909192600f81166010811015611841576f181899199a1a9b1b9c1cb0b131b232b360811b901a6118178587611a0a565b5360041c92801561182d57600019019190611726565b634e487b7160e01b82526011600452602482fd5b634e487b7160e01b83526032600452602483fd5b634e487b7160e01b81526032600452602490fd5b600090808252602090828252604092838120338252835260ff8482205416156118925750505050565b61189b33611a31565b918451906118a8826115a1565b6042825284820192606036853782511561185557603084538251906001918210156118555790607860218501536041915b81831161192d575050506117a557604861092b9386936117899361177a985198899376020b1b1b2b9b9a1b7b73a3937b61d1030b1b1b7bab73a1604d1b8a8601526108db815180928c603789019101611633565b909192600f81166010811015611841576f181899199a1a9b1b9c1cb0b131b232b360811b901a61195d8587611a0a565b5360041c92801561182d576000190191906118d9565b9060009180835282602052604083209160018060a01b03169182845260205260ff6040842054166119a357505050565b80835282602052604083208284526020526040832060ff1981541690557ff6391f5c32d9c69d2a47ea670b442974b53935d1edc7fd64eb21e047a839171b339380a4565b919082018092116119f457565b634e487b7160e01b600052601160045260246000fd5b908151811015611a1b570160200190565b634e487b7160e01b600052603260045260246000fd5b60405190606082018281106001600160401b0382111761158b57604052602a8252602082016040368237825115611a1b57603090538151600190811015611a1b57607860218401536029905b808211611ad1575050611a8d5790565b606460405162461bcd60e51b815260206004820152602060248201527f537472696e67733a20686578206c656e67746820696e73756666696369656e746044820152fd5b9091600f81166010811015611b2a576f181899199a1a9b1b9c1cb0b131b232b360811b901a611b008486611a0a565b5360041c918015611b15576000190190611a7d565b60246000634e487b7160e01b81526011600452fd5b60246000634e487b7160e01b81526032600452fd5b90600182811c92168015611b6f575b6020831014611b5957565b634e487b7160e01b600052602260045260246000fd5b91607f1691611b4e565b6040519060008260055491611b8d83611b3f565b80835292600190818116908115611c155750600114611bb6575b50611bb4925003836115bc565b565b6005600090815291507f036b6384b5eca791c62761152d0c79bb0604c104a5fb6f4eb0703f3154bb3db05b848310611bfa5750611bb4935050810160200138611ba7565b81935090816020925483858a01015201910190918592611be1565b905060209250611bb494915060ff191682840152151560051b82010138611ba7565b15611c3e57565b60405162461bcd60e51b815260206004820152603760248201527f696e6672617374727563747572654163637275616c427073206d75737420626560448201527f206265747765656e203130303020616e642031303030300000000000000000006064820152608490fd5b62989680811115611cb75790565b670de0b6b3a7640000908181029181830414901517156119f45790565b68056bc75e2d631000008110159081611d97575b5060405190608082018281106001600160401b0382111761158b57604052604c82527f746f6b656e7350657244656c74614f6e65206d7573742062652062657477656560208301527f6e2031303020616e642031303030303030302077686f6c6520746f6b656e732060408301526b287765692d7363616c65642960a01b606083015215611d735750565b60405162461bcd60e51b81526020600482015290819061092b906024830190611656565b6a084595161401484a0000009150111538611ce8565b15611db457565b60405162461bcd60e51b815260206004820152601860248201527f4d6f64656c2049442063616e6e6f7420626520656d70747900000000000000006044820152606490fd5b602090611e13928260405194838680955193849201611633565b82019081520301902090565b611e3790602060405192828480945193849201611633565b810103902090565b604051815160ff602092838181870194611e5a818388611633565b8101600b815203019020541615611e7057505050565b611ef69260015460405184818451611e89818389611633565b810160098152030190205561ffff60025460081c1660405184818451611eb0818389611633565b8101600a8152030190209061ffff198254161790556040518151611ed5818386611633565b81019060078252848142930301902055604051938492839251928391611633565b8101600b815203019020600160ff19825416179055565b60405190611f1a82611570565b6011825270746f6b656e7350657244656c74614f6e6560781b6020830152565b60405190611f4782611570565b6018825277696e6672617374727563747572654163637275616c42707360401b6020830152565b60208151910120611f7d611f0d565b602081519101208114600014611fa15750611f9790611ca9565b90611bb482611cd4565b611fa9611f3a565b6020815191012014600014611fdc576103e881101580611fd0575b611fcd90611c37565b90565b50612710811115611fc4565b60405162461bcd60e51b8152602060048201526016602482015275496e76616c696420706172616d65746572206e616d6560501b6044820152606490fd5b815160208093012061202a611f0d565b805190840120810361208f57509060405160ff835191838181870194612051818388611633565b8101600b815203019020541660001461208657604051925183916120789082908490611633565b810160098152030190205490565b50505060015490565b612097611f3a565b838151910120146120e05760405162461bcd60e51b8152602060048201526016602482015275496e76616c696420706172616d65746572206e616d6560501b6044820152606490fd5b6040519060ff8151928481818501956120fa818389611633565b8101600b81520301902054166000146121385761ffff92839261212892604051938492839251928391611633565b8101600a81520301902054161690565b505060025460081c61ffff16919050565b61216160409295949395606083526060830190611656565b9460208201520152565b60409182519260ff8351946020818187019761218881838b611633565b8101600b81520301902054161561227757805160208185516121ab81838a611633565b8101600781520301902054906121c3600654836119e7565b9460ff6002603184516020818a516121dc81838a611633565b8101600881520301902085519070746f6b656e7350657244656c74614f6e6560781b8252601182015220015416948515612219575b505050929190565b60ff9395509161223a60206038936002958451938492839251928391611633565b8101600881520301902090519077696e6672617374727563747572654163637275616c42707360401b825260188201522001541691388080612211565b50600092508291508190565b6040519060ff8151926020818185019561229e818389611633565b8101600b8152030190205416156122c75761207891602091604051938492839251928391611633565b505060015490565b60405160ff825191602081818601946122e9818388611633565b8101600b8152030190205416156123245760206123159161ffff93604051938492839251928391611633565b8101600a815203019020541690565b505061ffff60025460081c169056fea264697066735822122095a08900913dfdfaf30be87955c409274db98b88b25c205de9ece2617a3b1b3964736f6c634300081400332f8788117e7eff1d82e926ec794901d17c78024a50270940304540a733656f0d6040610100815234620007c25762001b4f90813803806200002081620007c7565b938439820161010083820312620007c25782516001600160401b0390818111620007c2578262000052918601620007ed565b6020928386015190838211620007c2576200006f918701620007ed565b916200007d8587016200085f565b956200008c606082016200085f565b9660808201519460a083015191620000ac60e060c086015195016200085f565b918651868111620006bc576003968754916001928381811c91168015620007b7575b8d821014620007a15780601f8e921162000751575b5050808c601f8211600114620006de57600091620006d2575b50600019828b1b1c191690831b1788555b8251908111620006bc5760049788548381811c91168015620006b1575b8d8210146200069c5780601f8e92116200064c575b50508b601f8311600114620005dc5782938391600094620005d0575b501b92600019911b1c19161786555b60058054336001600160a01b0319821681179092558b516001600160a01b0399909290918a167f8be0079c531659141344cd1fd0a4f28419497f9722a3daafe3b4186f6b6457e0600080a351156200058f575051156200054c578516988915620004ff578516918215620004bc578015938415918562000462578082116200040a5787841615620003af575b6006549460805282600014620003a5575b60a052600082156200039d57505b60c052600090156200039557505b60e0526001600160a81b031916871760a082901b60ff60a01b1617600655620002e9575b5060008051602062001b2f8339815191529160609160a05160c0519160e0511695875193845283015285820152a251907f1304018cfe79741dcf02ba6b61d39cc4757d59395d03224d9925c7aa83002146600080a26112ba908162000875823960805181610365015260a05181818161032d015281816109bf0152611236015260c0518181816103cc0152610919015260e051818181610279015261042a0152f35b600254908382018092116200038057509160609160008051602062001b2f833981519152936002558660005260008552856000208281540190558660007fddf252ad1be2c89b69c2b068fc378daa952ba7f163c4a11628f55a4df523b3ef878951868152a3867f30385c845b448a36257a6a1716e6ad2e1bc2cbe333cde1e69fe849ad6511adfe868851858152a291509162000247565b601190634e487b7160e01b6000525260246000fd5b905062000223565b905062000215565b5060001962000207565b8a5162461bcd60e51b81528088018b9052602f60248201527f4d6f64656c20737570706c69657220726563697069656e742063616e6e6f742060448201526e6265207a65726f206164647265737360881b6064820152608490fd5b8a5162461bcd60e51b81528088018b9052602c60248201527f4d6f64656c20737570706c69657220616c6c6f636174696f6e2065786365656460448201526b73206d617820737570706c7960a01b6064820152608490fd5b88620001f6578a5162461bcd60e51b81528088018b9052602860248201527f496e697469616c20737570706c79206d7573742062652067726561746572207460448201526768616e207a65726f60c01b6064820152608490fd5b885162461bcd60e51b8152808601899052601d60248201527f506172616d732063616e6e6f74206265207a65726f20616464726573730000006044820152606490fd5b885162461bcd60e51b8152808601899052602160248201527f436f6e74726f6c6c65722063616e6e6f74206265207a65726f206164647265736044820152607360f81b6064820152608490fd5b885162461bcd60e51b8152808601899052601c60248201527f546f6b656e2073796d626f6c2063616e6e6f7420626520656d707479000000006044820152606490fd5b62461bcd60e51b81528681018a9052601a60248201527f546f6b656e206e616d652063616e6e6f7420626520656d7074790000000000006044820152606490fd5b8601519350386200015b565b908c9183601f1981168c60005284600020946000905b888383106200062e575050501062000613575b505050811b0186556200016a565b8501519060f884600019921b161c1916905538808062000605565b9092935084968392958b015181550195019201908f918692620005f2565b8a6000528160002090601f850160051c820192851062000691575b601f0160051c019084905b8281106200068457508d91506200013f565b6000815501849062000672565b909150819062000667565b60228a634e487b7160e01b6000525260246000fd5b90607f16906200012a565b634e487b7160e01b600052604160045260246000fd5b90508a015138620000fc565b8492508d90601f1983168c6000528d83600020936000915b8383106200072f57505050831162000716575b5050811b0188556200010d565b8c0151600019838d1b60f8161c19169055388062000709565b94848294959798929396015181550194019201908f9187959493928f620006f6565b8a6000528160002090601f840160051c820192841062000796575b601f0160051c019084905b8281106200078957508d9150620000e3565b6000815501849062000777565b90915081906200076c565b634e487b7160e01b600052602260045260246000fd5b90607f1690620000ce565b600080fd5b6040519190601f01601f191682016001600160401b03811183821017620006bc57604052565b919080601f84011215620007c25782516001600160401b038111620006bc5760209062000823601f8201601f19168301620007c7565b92818452828287010111620007c25760005b8181106200084b57508260009394955001015290565b858101830151848201840152820162000835565b51906001600160a01b0382168203620007c25756fe608060408181526004918236101561001657600080fd5b600092833560e01c91826306fdde0314610bf257508163095ea7b314610bc857816318160ddd14610ba957816323b872dd14610adf578163313ce56714610ac35781633950935114610a7357816340c10f191461098857816342966c681461093c578163626e3ca11461090157816370a08231146108ca578163715018a61461086d57816379cc6790146107fe5781638da5cb5b146107d557816392eefe9b1461071a57816395d89b41146105fb578163a457c2d714610553578163a9059cbb14610522578163bd24fcbc14610394578163cff0ab9614610350578163d5abeb0114610315578163dd62ed3e146102cc578163e4b7fb73146102a8578163ec8e202714610264578163f2fde38b1461019457508063f6986be41461016e5763f77c47911461014357600080fd5b3461016a578160031936011261016a5760065490516001600160a01b039091168152602090f35b5080fd5b503461016a578160031936011261016a5760209060ff60065460a01c1690519015158152f35b905034610260576020366003190112610260576101af610d13565b906101b8610d44565b6001600160a01b0391821692831561020e575050600554826bffffffffffffffffffffffff60a01b821617600555167f8be0079c531659141344cd1fd0a4f28419497f9722a3daafe3b4186f6b6457e08380a380f35b906020608492519162461bcd60e51b8352820152602660248201527f4f776e61626c653a206e6577206f776e657220697320746865207a65726f206160448201526564647265737360d01b6064820152fd5b8280fd5b50503461016a578160031936011261016a57517f00000000000000000000000000000000000000000000000000000000000000006001600160a01b03168152602090f35b50503461016a578160031936011261016a576020906102c5611234565b9051908152f35b50503461016a578060031936011261016a57806020926102ea610d13565b6102f2610d2e565b6001600160a01b0391821683526001865283832091168252845220549051908152f35b50503461016a578160031936011261016a57602090517f00000000000000000000000000000000000000000000000000000000000000008152f35b50503461016a578160031936011261016a57517f00000000000000000000000000000000000000000000000000000000000000006001600160a01b03168152602090f35b9050346102605782600319360112610260576006546001600160a01b03906103bf338383161461102f565b60ff8160a01c166104c9577f0000000000000000000000000000000000000000000000000000000000000000928315610486575060ff60a01b1916600160a01b176006557f30385c845b448a36257a6a1716e6ad2e1bc2cbe333cde1e69fe849ad6511adfe916020917f0000000000000000000000000000000000000000000000000000000000000000610453838261108a565b1693847fb71d11f022b6c23474b4536111551f053baee44ea3d7749c03e6eb80a1d8035b848351858152a251908152a280f35b606490602086519162461bcd60e51b8352820152602060248201527f4e6f206d6f64656c20737570706c69657220616c6c6f636174696f6e207365746044820152fd5b835162461bcd60e51b8152602081850152602d60248201527f4d6f64656c20737570706c69657220616c6c6f636174696f6e20616c7265616460448201526c1e48191a5cdd1c9a589d5d1959609a1b6064820152608490fd5b50503461016a578060031936011261016a5760209061054c610542610d13565b6024359033610dbf565b5160018152f35b905082346105f857826003193601126105f85761056e610d13565b918360243592338152600160205281812060018060a01b03861682526020522054908282106105a75760208561054c8585038733610f2d565b608490602086519162461bcd60e51b8352820152602560248201527f45524332303a2064656372656173656420616c6c6f77616e63652062656c6f77604482015264207a65726f60d81b6064820152fd5b80fd5b83833461016a578160031936011261016a57805190828454600181811c90808316928315610710575b60209384841081146106fd578388529081156106e1575060011461068c575b505050829003601f01601f191682019267ffffffffffffffff8411838510176106795750829182610675925282610cca565b0390f35b634e487b7160e01b815260418552602490fd5b8787529192508591837f8a35acfbc15ff81a39ae7d344fd709f28e8600b4aa8c65c6b64bfe7fe36bd19b5b8385106106cd5750505050830101858080610643565b8054888601830152930192849082016106b7565b60ff1916878501525050151560051b8401019050858080610643565b634e487b7160e01b895260228a52602489fd5b91607f1691610624565b90503461026057602036600319011261026057610735610d13565b61073d610d44565b6001600160a01b0316918215610788575050600680546001600160a01b031916821790557f1304018cfe79741dcf02ba6b61d39cc4757d59395d03224d9925c7aa830021468280a280f35b906020608492519162461bcd60e51b8352820152602160248201527f436f6e74726f6c6c65722063616e6e6f74206265207a65726f206164647265736044820152607360f81b6064820152fd5b50503461016a578160031936011261016a5760055490516001600160a01b039091168152602090f35b50503461016a578060031936011261016a577f696de425f79f4a40bc6d2122ca50507f0efbeabbff86a84871b7196ab8ea8df7602061083b610d13565b600654602435946001600160a01b039291610859908416331461102f565b610863868361112d565b519485521692a280f35b83346105f857806003193601126105f857610886610d44565b600580546001600160a01b0319811690915581906001600160a01b03167f8be0079c531659141344cd1fd0a4f28419497f9722a3daafe3b4186f6b6457e08280a380f35b50503461016a57602036600319011261016a5760209181906001600160a01b036108f2610d13565b16815280845220549051908152f35b50503461016a578160031936011261016a57602090517f00000000000000000000000000000000000000000000000000000000000000008152f35b90503461026057602036600319011261026057359061095b823361112d565b519081527f696de425f79f4a40bc6d2122ca50507f0efbeabbff86a84871b7196ab8ea8df760203392a280f35b9050346102605781600319360112610260576109a2610d13565b6024359260018060a01b03926109bd8460065416331461102f565b7f00000000000000000000000000000000000000000000000000000000000000006000198110610a1a575b505091817f30385c845b448a36257a6a1716e6ad2e1bc2cbe333cde1e69fe849ad6511adfe936108638660209561108a565b610a2686600254610d9c565b11610a3157806109e8565b6020606492519162461bcd60e51b8352820152601f60248201527f4d696e74696e6720776f756c6420657863656564206d617820737570706c79006044820152fd5b50503461016a578060031936011261016a5761054c602092610abc610a96610d13565b338352600186528483206001600160a01b03821684528652918490205460243590610d9c565b9033610f2d565b50503461016a578160031936011261016a576020905160128152f35b8391503461016a57606036600319011261016a57610afb610d13565b610b03610d2e565b91846044359460018060a01b038416815260016020528181203382526020522054906000198203610b3d575b60208661054c878787610dbf565b848210610b665750918391610b5b6020969561054c95033383610f2d565b919394819350610b2f565b606490602087519162461bcd60e51b8352820152601d60248201527f45524332303a20696e73756666696369656e7420616c6c6f77616e63650000006044820152fd5b50503461016a578160031936011261016a576020906002549051908152f35b50503461016a578060031936011261016a5760209061054c610be8610d13565b6024359033610f2d565b8490843461026057826003193601126102605782600354600181811c90808316928315610cc0575b60209384841081146106fd578388529081156106e15750600114610c6a57505050829003601f01601f191682019267ffffffffffffffff8411838510176106795750829182610675925282610cca565b600387529192508591837fc2575a0e9e593c00f959f8c92f12db2869c3395a3b0502d05e2516446f71f85b5b838510610cac5750505050830101858080610643565b805488860183015293019284908201610c96565b91607f1691610c1a565b6020808252825181830181905290939260005b828110610cff57505060409293506000838284010152601f8019910116010190565b818101860151848201604001528501610cdd565b600435906001600160a01b0382168203610d2957565b600080fd5b602435906001600160a01b0382168203610d2957565b6005546001600160a01b03163303610d5857565b606460405162461bcd60e51b815260206004820152602060248201527f4f776e61626c653a2063616c6c6572206973206e6f7420746865206f776e65726044820152fd5b91908201809211610da957565b634e487b7160e01b600052601160045260246000fd5b6001600160a01b03908116918215610eda5716918215610e8957600082815280602052604081205491808310610e3557604082827fddf252ad1be2c89b69c2b068fc378daa952ba7f163c4a11628f55a4df523b3ef958760209652828652038282205586815220818154019055604051908152a3565b60405162461bcd60e51b815260206004820152602660248201527f45524332303a207472616e7366657220616d6f756e7420657863656564732062604482015265616c616e636560d01b6064820152608490fd5b60405162461bcd60e51b815260206004820152602360248201527f45524332303a207472616e7366657220746f20746865207a65726f206164647260448201526265737360e81b6064820152608490fd5b60405162461bcd60e51b815260206004820152602560248201527f45524332303a207472616e736665722066726f6d20746865207a65726f206164604482015264647265737360d81b6064820152608490fd5b6001600160a01b03908116918215610fde5716918215610f8e5760207f8c5be1e5ebec7d5bd14f71427d1e84f3dd0314c0f7b2291e5b200ac8c7c3b925918360005260018252604060002085600052825280604060002055604051908152a3565b60405162461bcd60e51b815260206004820152602260248201527f45524332303a20617070726f766520746f20746865207a65726f206164647265604482015261737360f01b6064820152608490fd5b60405162461bcd60e51b8152602060048201526024808201527f45524332303a20617070726f76652066726f6d20746865207a65726f206164646044820152637265737360e01b6064820152608490fd5b1561103657565b60405162461bcd60e51b815260206004820152602660248201527f4f6e6c7920636f6e74726f6c6c65722063616e2063616c6c20746869732066756044820152653731ba34b7b760d11b6064820152608490fd5b6001600160a01b03169081156110e8577fddf252ad1be2c89b69c2b068fc378daa952ba7f163c4a11628f55a4df523b3ef6020826110cc600094600254610d9c565b60025584845283825260408420818154019055604051908152a3565b60405162461bcd60e51b815260206004820152601f60248201527f45524332303a206d696e7420746f20746865207a65726f2061646472657373006044820152606490fd5b6001600160a01b031680156111e55760009181835282602052604083205481811061119557817fddf252ad1be2c89b69c2b068fc378daa952ba7f163c4a11628f55a4df523b3ef926020928587528684520360408620558060025403600255604051908152a3565b60405162461bcd60e51b815260206004820152602260248201527f45524332303a206275726e20616d6f756e7420657863656564732062616c616e604482015261636560f01b6064820152608490fd5b60405162461bcd60e51b815260206004820152602160248201527f45524332303a206275726e2066726f6d20746865207a65726f206164647265736044820152607360f81b6064820152608490fd5b7f00000000000000000000000000000000000000000000000000000000000000006000198082101561127f575060025481811015611278578103908111610da95790565b5050600090565b90509056fea2646970667358221220e87ade862d4b0d81fcf1eb0e4e518d57c60563eba83ab186176a10a19ac7a50964736f6c63430008140033ad17ccf4efd4cb33dbadc5560f91b6dddf3afe8206aa95f972abaef1ab01c4d09f2df0fed2c77648de5860a4cc508cd0818c85b8b8a1ab4ceeef8d981c8956a6a26469706673582212206d2476d9d65d3ed55fe5d1881d9a2b84b2b4552fc8ba2f9dd62418df5cbad2dd64736f6c634300081400332f8788117e7eff1d82e926ec794901d17c78024a50270940304540a733656f0d",
  "linkReferences": {},
  "deployedLinkReferences": {}
}