{
  "_format": "hh-sol-artifact-1",
  "contractName": "DeltaVerifier",
  "sourceName": "contracts/DeltaVerifier.sol",
  "abi": [
    {
      "inputs": [
        {
          "internalType": "address",
          "name": "_modelRegistry",
          "type": "address"
        },
        {
          "internalType": "address payable",
          "name": "_tokenManager",
          "type": "address"
        },
        {
          "internalType": "address",
          "name": "_contributionRegistry",
          "type": "address"
        },
        {
          "internalType": "uint256",
          "name": "_baseRewardRate",
          "type": "uint256"
        },
        {
          "internalType": "uint256",
          "name": "_minImprovementBps",
          "type": "uint256"
        },
        {
          "internalType": "uint256",
          "name": "_maxReward",
          "type": "uint256"
        }
      ],
      "stateMutability": "nonpayable",
      "type": "constructor"
    },
    {
      "inputs": [],
      "name": "ArrayEmpty",
      "type": "error"
    },
    {
      "inputs": [
        {
          "internalType": "uint256",
          "name": "length",
          "type": "uint256"
        },
        {
          "internalType": "uint256",
          "name": "maxLength",
          "type": "uint256"
        }
      ],
      "name": "ArrayTooLarge",
      "type": "error"
    },
    {
      "inputs": [],
      "name": "AttestationThresholdNotConfigured",
      "type": "error"
    },
    {
      "inputs": [
        {
          "internalType": "address",
          "name": "attester",
          "type": "address"
        }
      ],
      "name": "AttesterAlreadyRegistered",
      "type": "error"
    },
    {
      "inputs": [
        {
          "internalType": "address",
          "name": "attester",
          "type": "address"
        }
      ],
      "name": "AttesterNotRegistered",
      "type": "error"
    },
    {
      "inputs": [
        {
          "internalType": "uint256",
          "name": "newAttesterCount",
          "type": "uint256"
        },
        {
          "internalType": "uint256",
          "name": "threshold",
          "type": "uint256"
        }
      ],
      "name": "AttesterThresholdWouldBeUnmet",
      "type": "error"
    },
    {
      "inputs": [
        {
          "internalType": "uint256",
          "name": "provided",
          "type": "uint256"
        },
        {
          "internalType": "uint256",
          "name": "required",
          "type": "uint256"
        }
      ],
      "name": "InsufficientAttesterSignatures",
      "type": "error"
    },
    {
      "inputs": [
        {
          "internalType": "string",
          "name": "context",
          "type": "string"
        }
      ],
      "name": "InvalidAmount",
      "type": "error"
    },
    {
      "inputs": [
        {
          "internalType": "uint256",
          "name": "threshold",
          "type": "uint256"
        },
        {
          "internalType": "uint256",
          "name": "attesterCount",
          "type": "uint256"
        }
      ],
      "name": "InvalidAttesterThreshold",
      "type": "error"
    },
    {
      "inputs": [],
      "name": "InvalidShortString",
      "type": "error"
    },
    {
      "inputs": [],
      "name": "LegacyMintEntrypointDisabled",
      "type": "error"
    },
    {
      "inputs": [
        {
          "internalType": "uint256",
          "name": "modelId",
          "type": "uint256"
        },
        {
          "internalType": "uint256",
          "name": "required",
          "type": "uint256"
        },
        {
          "internalType": "uint256",
          "name": "remaining",
          "type": "uint256"
        }
      ],
      "name": "MintBudgetExceeded",
      "type": "error"
    },
    {
      "inputs": [
        {
          "internalType": "uint256",
          "name": "modelId",
          "type": "uint256"
        },
        {
          "internalType": "address",
          "name": "registryToken",
          "type": "address"
        },
        {
          "internalType": "address",
          "name": "tokenManagerToken",
          "type": "address"
        }
      ],
      "name": "ModelTokenMismatch",
      "type": "error"
    },
    {
      "inputs": [
        {
          "internalType": "address",
          "name": "signer",
          "type": "address"
        }
      ],
      "name": "SignerNotAttester",
      "type": "error"
    },
    {
      "inputs": [
        {
          "internalType": "string",
          "name": "str",
          "type": "string"
        }
      ],
      "name": "StringTooLong",
      "type": "error"
    },
    {
      "inputs": [
        {
          "internalType": "address",
          "name": "signer",
          "type": "address"
        }
      ],
      "name": "UnorderedOrDuplicateAttesters",
      "type": "error"
    },
    {
      "inputs": [
        {
          "internalType": "string",
          "name": "context",
          "type": "string"
        }
      ],
      "name": "ZeroAddress",
      "type": "error"
    },
    {
      "inputs": [],
      "name": "ZeroAttester",
      "type": "error"
    },
    {
      "anonymous": false,
      "inputs": [
        {
          "indexed": true,
          "internalType": "address",
          "name": "attester",
          "type": "address"
        },
        {
          "indexed": false,
          "internalType": "uint256",
          "name": "attesterCount",
          "type": "uint256"
        }
      ],
      "name": "AttesterAdded",
      "type": "event"
    },
    {
      "anonymous": false,
      "inputs": [
        {
          "indexed": true,
          "internalType": "address",
          "name": "attester",
          "type": "address"
        },
        {
          "indexed": false,
          "internalType": "uint256",
          "name": "attesterCount",
          "type": "uint256"
        }
      ],
      "name": "AttesterRemoved",
      "type": "event"
    },
    {
      "anonymous": false,
      "inputs": [
        {
          "indexed": false,
          "internalType": "uint256",
          "name": "threshold",
          "type": "uint256"
        }
      ],
      "name": "AttesterThresholdUpdated",
      "type": "event"
    },
    {
      "anonymous": false,
      "inputs": [
        {
          "indexed": true,
          "internalType": "uint256",
          "name": "modelId",
          "type": "uint256"
        },
        {
          "indexed": false,
          "internalType": "address[]",
          "name": "contributors",
          "type": "address[]"
        },
        {
          "indexed": false,
          "internalType": "uint256[]",
          "name": "amounts",
          "type": "uint256[]"
        },
        {
          "indexed": false,
          "internalType": "uint256",
          "name": "totalAmount",
          "type": "uint256"
        }
      ],
      "name": "BatchRewardsDistributed",
      "type": "event"
    },
    {
      "anonymous": false,
      "inputs": [
        {
          "indexed": true,
          "internalType": "string",
          "name": "pipelineRunId",
          "type": "string"
        },
        {
          "indexed": true,
          "internalType": "uint256",
          "name": "modelId",
          "type": "uint256"
        },
        {
          "indexed": false,
          "internalType": "uint256",
          "name": "maxCostUsd",
          "type": "uint256"
        },
        {
          "indexed": false,
          "internalType": "uint256",
          "name": "actualCostUsd",
          "type": "uint256"
        }
      ],
      "name": "BudgetConstraintViolated",
      "type": "event"
    },
    {
      "anonymous": false,
      "inputs": [
        {
          "indexed": true,
          "internalType": "uint256",
          "name": "modelId",
          "type": "uint256"
        },
        {
          "indexed": true,
          "internalType": "bytes32",
          "name": "idempotencyKey",
          "type": "bytes32"
        },
        {
          "indexed": true,
          "internalType": "bytes32",
          "name": "benchmarkSpecHash",
          "type": "bytes32"
        },
        {
          "indexed": false,
          "internalType": "bytes32",
          "name": "attestationHash",
          "type": "bytes32"
        },
        {
          "indexed": false,
          "internalType": "bytes32",
          "name": "datasetHash",
          "type": "bytes32"
        },
        {
          "indexed": false,
          "internalType": "string",
          "name": "metricName",
          "type": "string"
        },
        {
          "indexed": false,
          "internalType": "string",
          "name": "metricFamily",
          "type": "string"
        },
        {
          "indexed": false,
          "internalType": "uint256",
          "name": "baselineScoreBps",
          "type": "uint256"
        },
        {
          "indexed": false,
          "internalType": "uint256",
          "name": "candidateScoreBps",
          "type": "uint256"
        },
        {
          "indexed": false,
          "internalType": "uint256",
          "name": "rewardAmount",
          "type": "uint256"
        },
        {
          "indexed": false,
          "internalType": "string",
          "name": "pipelineRunId",
          "type": "string"
        }
      ],
      "name": "DeltaOneAccepted",
      "type": "event"
    },
    {
      "anonymous": false,
      "inputs": [],
      "name": "EIP712DomainChanged",
      "type": "event"
    },
    {
      "anonymous": false,
      "inputs": [
        {
          "indexed": true,
          "internalType": "string",
          "name": "pipelineRunId",
          "type": "string"
        },
        {
          "indexed": true,
          "internalType": "uint256",
          "name": "modelId",
          "type": "uint256"
        }
      ],
      "name": "EvaluationSubmitted",
      "type": "event"
    },
    {
      "anonymous": false,
      "inputs": [
        {
          "indexed": true,
          "internalType": "address",
          "name": "by",
          "type": "address"
        }
      ],
      "name": "LegacyMintsDisabled",
      "type": "event"
    },
    {
      "anonymous": false,
      "inputs": [
        {
          "indexed": true,
          "internalType": "uint256",
          "name": "modelId",
          "type": "uint256"
        },
        {
          "indexed": false,
          "internalType": "uint256",
          "name": "amount",
          "type": "uint256"
        },
        {
          "indexed": false,
          "internalType": "uint256",
          "name": "remaining",
          "type": "uint256"
        }
      ],
      "name": "MintBudgetConsumed",
      "type": "event"
    },
    {
      "anonymous": false,
      "inputs": [
        {
          "indexed": true,
          "internalType": "uint256",
          "name": "modelId",
          "type": "uint256"
        },
        {
          "indexed": false,
          "internalType": "uint256",
          "name": "previousRemaining",
          "type": "uint256"
        },
        {
          "indexed": false,
          "internalType": "uint256",
          "name": "newRemaining",
          "type": "uint256"
        }
      ],
      "name": "MintBudgetSet",
      "type": "event"
    },
    {
      "anonymous": false,
      "inputs": [
        {
          "indexed": true,
          "internalType": "uint256",
          "name": "modelId",
          "type": "uint256"
        },
        {
          "indexed": false,
          "internalType": "uint256",
          "name": "addedAmount",
          "type": "uint256"
        },
        {
          "indexed": false,
          "internalType": "uint256",
          "name": "newRemaining",
          "type": "uint256"
        }
      ],
      "name": "MintBudgetToppedUp",
      "type": "event"
    },
    {
      "anonymous": false,
      "inputs": [
        {
          "indexed": false,
          "internalType": "address",
          "name": "account",
          "type": "address"
        }
      ],
      "name": "Paused",
      "type": "event"
    },
    {
      "anonymous": false,
      "inputs": [
        {
          "indexed": true,
          "internalType": "address",
          "name": "contributor",
          "type": "address"
        },
        {
          "indexed": false,
          "internalType": "uint256",
          "name": "deltaInBps",
          "type": "uint256"
        },
        {
          "indexed": false,
          "internalType": "uint256",
          "name": "rewardAmount",
          "type": "uint256"
        }
      ],
      "name": "RewardCalculated",
      "type": "event"
    },
    {
      "anonymous": false,
      "inputs": [
        {
          "indexed": false,
          "internalType": "uint256",
          "name": "baseRewardRate",
          "type": "uint256"
        },
        {
          "indexed": false,
          "internalType": "uint256",
          "name": "minImprovementBps",
          "type": "uint256"
        },
        {
          "indexed": false,
          "internalType": "uint256",
          "name": "maxReward",
          "type": "uint256"
        }
      ],
      "name": "RewardParametersUpdated",
      "type": "event"
    },
    {
      "anonymous": false,
      "inputs": [
        {
          "indexed": true,
          "internalType": "bytes32",
          "name": "role",
          "type": "bytes32"
        },
        {
          "indexed": true,
          "internalType": "bytes32",
          "name": "previousAdminRole",
          "type": "bytes32"
        },
        {
          "indexed": true,
          "internalType": "bytes32",
          "name": "newAdminRole",
          "type": "bytes32"
        }
      ],
      "name": "RoleAdminChanged",
      "type": "event"
    },
    {
      "anonymous": false,
      "inputs": [
        {
          "indexed": true,
          "internalType": "bytes32",
          "name": "role",
          "type": "bytes32"
        },
        {
          "indexed": true,
          "internalType": "address",
          "name": "account",
          "type": "address"
        },
        {
          "indexed": true,
          "internalType": "address",
          "name": "sender",
          "type": "address"
        }
      ],
      "name": "RoleGranted",
      "type": "event"
    },
    {
      "anonymous": false,
      "inputs": [
        {
          "indexed": true,
          "internalType": "bytes32",
          "name": "role",
          "type": "bytes32"
        },
        {
          "indexed": true,
          "internalType": "address",
          "name": "account",
          "type": "address"
        },
        {
          "indexed": true,
          "internalType": "address",
          "name": "sender",
          "type": "address"
        }
      ],
      "name": "RoleRevoked",
      "type": "event"
    },
    {
      "anonymous": false,
      "inputs": [
        {
          "indexed": false,
          "internalType": "address",
          "name": "account",
          "type": "address"
        }
      ],
      "name": "Unpaused",
      "type": "event"
    },
    {
      "inputs": [],
      "name": "DEFAULT_ADMIN_ROLE",
      "outputs": [
        {
          "internalType": "bytes32",
          "name": "",
          "type": "bytes32"
        }
      ],
      "stateMutability": "view",
      "type": "function"
    },
    {
      "inputs": [],
      "name": "PAUSER_ROLE",
      "outputs": [
        {
          "internalType": "bytes32",
          "name": "",
          "type": "bytes32"
        }
      ],
      "stateMutability": "view",
      "type": "function"
    },
    {
      "inputs": [],
      "name": "SUBMITTER_ROLE",
      "outputs": [
        {
          "internalType": "bytes32",
          "name": "",
          "type": "bytes32"
        }
      ],
      "stateMutability": "view",
      "type": "function"
    },
    {
      "inputs": [
        {
          "internalType": "address",
          "name": "attester",
          "type": "address"
        }
      ],
      "name": "addAttester",
      "outputs": [],
      "stateMutability": "nonpayable",
      "type": "function"
    },
    {
      "inputs": [],
      "name": "attesterCount",
      "outputs": [
        {
          "internalType": "uint256",
          "name": "",
          "type": "uint256"
        }
      ],
      "stateMutability": "view",
      "type": "function"
    },
    {
      "inputs": [],
      "name": "attesterThreshold",
      "outputs": [
        {
          "internalType": "uint256",
          "name": "",
          "type": "uint256"
        }
      ],
      "stateMutability": "view",
      "type": "function"
    },
    {
      "inputs": [],
      "name": "baseRewardRate",
      "outputs": [
        {
          "internalType": "uint256",
          "name": "",
          "type": "uint256"
        }
      ],
      "stateMutability": "view",
      "type": "function"
    },
    {
      "inputs": [
        {
          "internalType": "uint256",
          "name": "",
          "type": "uint256"
        },
        {
          "components": [
            {
              "internalType": "uint256",
              "name": "accuracy",
              "type": "uint256"
            },
            {
              "internalType": "uint256",
              "name": "precision",
              "type": "uint256"
            },
            {
              "internalType": "uint256",
              "name": "recall",
              "type": "uint256"
            },
            {
              "internalType": "uint256",
              "name": "f1",
              "type": "uint256"
            },
            {
              "internalType": "uint256",
              "name": "auroc",
              "type": "uint256"
            }
          ],
          "internalType": "struct DeltaVerifier.Metrics",
          "name": "baseline",
          "type": "tuple"
        },
        {
          "components": [
            {
              "internalType": "uint256",
              "name": "accuracy",
              "type": "uint256"
            },
            {
              "internalType": "uint256",
              "name": "precision",
              "type": "uint256"
            },
            {
              "internalType": "uint256",
              "name": "recall",
              "type": "uint256"
            },
            {
              "internalType": "uint256",
              "name": "f1",
              "type": "uint256"
            },
            {
              "internalType": "uint256",
              "name": "auroc",
              "type": "uint256"
            }
          ],
          "internalType": "struct DeltaVerifier.Metrics",
          "name": "newMetrics",
          "type": "tuple"
        }
      ],
      "name": "calculateDeltaOneForModel",
      "outputs": [
        {
          "internalType": "uint256",
          "name": "",
          "type": "uint256"
        }
      ],
      "stateMutability": "pure",
      "type": "function"
    },
    {
      "inputs": [
        {
          "internalType": "uint256",
          "name": "deltaInBps",
          "type": "uint256"
        },
        {
          "internalType": "uint256",
          "name": "contributorWeight",
          "type": "uint256"
        },
        {
          "internalType": "uint256",
          "name": "",
          "type": "uint256"
        }
      ],
      "name": "calculateReward",
      "outputs": [
        {
          "internalType": "uint256",
          "name": "",
          "type": "uint256"
        }
      ],
      "stateMutability": "view",
      "type": "function"
    },
    {
      "inputs": [
        {
          "internalType": "string",
          "name": "modelId",
          "type": "string"
        },
        {
          "internalType": "uint256",
          "name": "deltaInBps",
          "type": "uint256"
        },
        {
          "internalType": "uint256",
          "name": "contributorWeight",
          "type": "uint256"
        },
        {
          "internalType": "uint256",
          "name": "",
          "type": "uint256"
        }
      ],
      "name": "calculateRewardDynamic",
      "outputs": [
        {
          "internalType": "uint256",
          "name": "",
          "type": "uint256"
        }
      ],
      "stateMutability": "view",
      "type": "function"
    },
    {
      "inputs": [],
      "name": "contributionRegistry",
      "outputs": [
        {
          "internalType": "contract IDataContributionRegistry",
          "name": "",
          "type": "address"
        }
      ],
      "stateMutability": "view",
      "type": "function"
    },
    {
      "inputs": [],
      "name": "disableLegacyMints",
      "outputs": [],
      "stateMutability": "nonpayable",
      "type": "function"
    },
    {
      "inputs": [],
      "name": "eip712Domain",
      "outputs": [
        {
          "internalType": "bytes1",
          "name": "fields",
          "type": "bytes1"
        },
        {
          "internalType": "string",
          "name": "name",
          "type": "string"
        },
        {
          "internalType": "string",
          "name": "version",
          "type": "string"
        },
        {
          "internalType": "uint256",
          "name": "chainId",
          "type": "uint256"
        },
        {
          "internalType": "address",
          "name": "verifyingContract",
          "type": "address"
        },
        {
          "internalType": "bytes32",
          "name": "salt",
          "type": "bytes32"
        },
        {
          "internalType": "uint256[]",
          "name": "extensions",
          "type": "uint256[]"
        }
      ],
      "stateMutability": "view",
      "type": "function"
    },
    {
      "inputs": [
        {
          "internalType": "bytes32",
          "name": "role",
          "type": "bytes32"
        }
      ],
      "name": "getRoleAdmin",
      "outputs": [
        {
          "internalType": "bytes32",
          "name": "",
          "type": "bytes32"
        }
      ],
      "stateMutability": "view",
      "type": "function"
    },
    {
      "inputs": [
        {
          "internalType": "bytes32",
          "name": "role",
          "type": "bytes32"
        },
        {
          "internalType": "address",
          "name": "account",
          "type": "address"
        }
      ],
      "name": "grantRole",
      "outputs": [],
      "stateMutability": "nonpayable",
      "type": "function"
    },
    {
      "inputs": [
        {
          "internalType": "bytes32",
          "name": "role",
          "type": "bytes32"
        },
        {
          "internalType": "address",
          "name": "account",
          "type": "address"
        }
      ],
      "name": "hasRole",
      "outputs": [
        {
          "internalType": "bool",
          "name": "",
          "type": "bool"
        }
      ],
      "stateMutability": "view",
      "type": "function"
    },
    {
      "inputs": [
        {
          "internalType": "uint256",
          "name": "modelId",
          "type": "uint256"
        },
        {
          "components": [
            {
              "internalType": "string",
              "name": "pipelineRunId",
              "type": "string"
            },
            {
              "internalType": "uint256",
              "name": "baselineScoreBps",
              "type": "uint256"
            },
            {
              "internalType": "uint256",
              "name": "candidateScoreBps",
              "type": "uint256"
            },
            {
              "internalType": "uint256",
              "name": "maxCostUsdMicro",
              "type": "uint256"
            },
            {
              "internalType": "uint256",
              "name": "actualCostUsdMicro",
              "type": "uint256"
            },
            {
              "internalType": "uint256",
              "name": "totalSamples",
              "type": "uint256"
            },
            {
              "components": [
                {
                  "internalType": "bytes32",
                  "name": "benchmarkSpecHash",
                  "type": "bytes32"
                },
                {
                  "internalType": "bytes32",
                  "name": "datasetHash",
                  "type": "bytes32"
                },
                {
                  "internalType": "bytes32",
                  "name": "attestationHash",
                  "type": "bytes32"
                },
                {
                  "internalType": "bytes32",
                  "name": "idempotencyKey",
                  "type": "bytes32"
                },
                {
                  "internalType": "string",
                  "name": "metricName",
                  "type": "string"
                },
                {
                  "internalType": "string",
                  "name": "metricFamily",
                  "type": "string"
                }
              ],
              "internalType": "struct DeltaVerifier.BenchmarkAnchors",
              "name": "anchors",
              "type": "tuple"
            }
          ],
          "internalType": "struct DeltaVerifier.MintRequestPayload",
          "name": "payload",
          "type": "tuple"
        },
        {
          "components": [
            {
              "internalType": "address",
              "name": "walletAddress",
              "type": "address"
            },
            {
              "internalType": "uint256",
              "name": "weight",
              "type": "uint256"
            }
          ],
          "internalType": "struct DeltaVerifier.Contributor[]",
          "name": "contributors",
          "type": "tuple[]"
        }
      ],
      "name": "hashMintRequest",
      "outputs": [
        {
          "internalType": "bytes32",
          "name": "",
          "type": "bytes32"
        }
      ],
      "stateMutability": "view",
      "type": "function"
    },
    {
      "inputs": [
        {
          "internalType": "address",
          "name": "",
          "type": "address"
        }
      ],
      "name": "isAttester",
      "outputs": [
        {
          "internalType": "bool",
          "name": "",
          "type": "bool"
        }
      ],
      "stateMutability": "view",
      "type": "function"
    },
    {
      "inputs": [],
      "name": "legacyMintsDisabled",
      "outputs": [
        {
          "internalType": "bool",
          "name": "",
          "type": "bool"
        }
      ],
      "stateMutability": "view",
      "type": "function"
    },
    {
      "inputs": [],
      "name": "maxReward",
      "outputs": [
        {
          "internalType": "uint256",
          "name": "",
          "type": "uint256"
        }
      ],
      "stateMutability": "view",
      "type": "function"
    },
    {
      "inputs": [],
      "name": "minImprovementBps",
      "outputs": [
        {
          "internalType": "uint256",
          "name": "",
          "type": "uint256"
        }
      ],
      "stateMutability": "view",
      "type": "function"
    },
    {
      "inputs": [
        {
          "internalType": "uint256",
          "name": "",
          "type": "uint256"
        }
      ],
      "name": "mintBudgetRemaining",
      "outputs": [
        {
          "internalType": "uint256",
          "name": "",
          "type": "uint256"
        }
      ],
      "stateMutability": "view",
      "type": "function"
    },
    {
      "inputs": [],
      "name": "modelRegistry",
      "outputs": [
        {
          "internalType": "contract ModelRegistry",
          "name": "",
          "type": "address"
        }
      ],
      "stateMutability": "view",
      "type": "function"
    },
    {
      "inputs": [],
      "name": "pause",
      "outputs": [],
      "stateMutability": "nonpayable",
      "type": "function"
    },
    {
      "inputs": [],
      "name": "paused",
      "outputs": [
        {
          "internalType": "bool",
          "name": "",
          "type": "bool"
        }
      ],
      "stateMutability": "view",
      "type": "function"
    },
    {
      "inputs": [
        {
          "internalType": "bytes32",
          "name": "",
          "type": "bytes32"
        }
      ],
      "name": "processedIdempotencyKeys",
      "outputs": [
        {
          "internalType": "bool",
          "name": "",
          "type": "bool"
        }
      ],
      "stateMutability": "view",
      "type": "function"
    },
    {
      "inputs": [
        {
          "internalType": "address",
          "name": "attester",
          "type": "address"
        }
      ],
      "name": "removeAttester",
      "outputs": [],
      "stateMutability": "nonpayable",
      "type": "function"
    },
    {
      "inputs": [
        {
          "internalType": "bytes32",
          "name": "role",
          "type": "bytes32"
        },
        {
          "internalType": "address",
          "name": "account",
          "type": "address"
        }
      ],
      "name": "renounceRole",
      "outputs": [],
      "stateMutability": "nonpayable",
      "type": "function"
    },
    {
      "inputs": [
        {
          "internalType": "bytes32",
          "name": "role",
          "type": "bytes32"
        },
        {
          "internalType": "address",
          "name": "account",
          "type": "address"
        }
      ],
      "name": "revokeRole",
      "outputs": [],
      "stateMutability": "nonpayable",
      "type": "function"
    },
    {
      "inputs": [
        {
          "internalType": "uint256",
          "name": "threshold",
          "type": "uint256"
        }
      ],
      "name": "setAttesterThreshold",
      "outputs": [],
      "stateMutability": "nonpayable",
      "type": "function"
    },
    {
      "inputs": [
        {
          "internalType": "uint256",
          "name": "_baseRewardRate",
          "type": "uint256"
        }
      ],
      "name": "setBaseRewardRate",
      "outputs": [],
      "stateMutability": "nonpayable",
      "type": "function"
    },
    {
      "inputs": [
        {
          "internalType": "uint256",
          "name": "_maxReward",
          "type": "uint256"
        }
      ],
      "name": "setMaxReward",
      "outputs": [],
      "stateMutability": "nonpayable",
      "type": "function"
    },
    {
      "inputs": [
        {
          "internalType": "uint256",
          "name": "_minImprovementBps",
          "type": "uint256"
        }
      ],
      "name": "setMinImprovementBps",
      "outputs": [],
      "stateMutability": "nonpayable",
      "type": "function"
    },
    {
      "inputs": [
        {
          "internalType": "uint256",
          "name": "modelId",
          "type": "uint256"
        },
        {
          "internalType": "uint256",
          "name": "amount",
          "type": "uint256"
        }
      ],
      "name": "setMintBudget",
      "outputs": [],
      "stateMutability": "nonpayable",
      "type": "function"
    },
    {
      "inputs": [
        {
          "internalType": "uint256",
          "name": "modelId",
          "type": "uint256"
        },
        {
          "components": [
            {
              "internalType": "string",
              "name": "pipelineRunId",
              "type": "string"
            },
            {
              "components": [
                {
                  "internalType": "uint256",
                  "name": "accuracy",
                  "type": "uint256"
                },
                {
                  "internalType": "uint256",
                  "name": "precision",
                  "type": "uint256"
                },
                {
                  "internalType": "uint256",
                  "name": "recall",
                  "type": "uint256"
                },
                {
                  "internalType": "uint256",
                  "name": "f1",
                  "type": "uint256"
                },
                {
                  "internalType": "uint256",
                  "name": "auroc",
                  "type": "uint256"
                }
              ],
              "internalType": "struct DeltaVerifier.Metrics",
              "name": "baselineMetrics",
              "type": "tuple"
            },
            {
              "components": [
                {
                  "internalType": "uint256",
                  "name": "accuracy",
                  "type": "uint256"
                },
                {
                  "internalType": "uint256",
                  "name": "precision",
                  "type": "uint256"
                },
                {
                  "internalType": "uint256",
                  "name": "recall",
                  "type": "uint256"
                },
                {
                  "internalType": "uint256",
                  "name": "f1",
                  "type": "uint256"
                },
                {
                  "internalType": "uint256",
                  "name": "auroc",
                  "type": "uint256"
                }
              ],
              "internalType": "struct DeltaVerifier.Metrics",
              "name": "newMetrics",
              "type": "tuple"
            },
            {
              "internalType": "address",
              "name": "contributor",
              "type": "address"
            },
            {
              "internalType": "uint256",
              "name": "contributorWeight",
              "type": "uint256"
            },
            {
              "internalType": "uint256",
              "name": "contributedSamples",
              "type": "uint256"
            },
            {
              "internalType": "uint256",
              "name": "totalSamples",
              "type": "uint256"
            },
            {
              "internalType": "uint256",
              "name": "maxCostUsd",
              "type": "uint256"
            },
            {
              "internalType": "uint256",
              "name": "actualCostUsd",
              "type": "uint256"
            }
          ],
          "internalType": "struct DeltaVerifier.EvaluationData",
          "name": "data",
          "type": "tuple"
        }
      ],
      "name": "submitEvaluation",
      "outputs": [
        {
          "internalType": "uint256",
          "name": "",
          "type": "uint256"
        }
      ],
      "stateMutability": "nonpayable",
      "type": "function"
    },
    {
      "inputs": [
        {
          "internalType": "uint256",
          "name": "modelId",
          "type": "uint256"
        },
        {
          "components": [
            {
              "internalType": "string",
              "name": "pipelineRunId",
              "type": "string"
            },
            {
              "components": [
                {
                  "internalType": "uint256",
                  "name": "accuracy",
                  "type": "uint256"
                },
                {
                  "internalType": "uint256",
                  "name": "precision",
                  "type": "uint256"
                },
                {
                  "internalType": "uint256",
                  "name": "recall",
                  "type": "uint256"
                },
                {
                  "internalType": "uint256",
                  "name": "f1",
                  "type": "uint256"
                },
                {
                  "internalType": "uint256",
                  "name": "auroc",
                  "type": "uint256"
                }
              ],
              "internalType": "struct DeltaVerifier.Metrics",
              "name": "baselineMetrics",
              "type": "tuple"
            },
            {
              "components": [
                {
                  "internalType": "uint256",
                  "name": "accuracy",
                  "type": "uint256"
                },
                {
                  "internalType": "uint256",
                  "name": "precision",
                  "type": "uint256"
                },
                {
                  "internalType": "uint256",
                  "name": "recall",
                  "type": "uint256"
                },
                {
                  "internalType": "uint256",
                  "name": "f1",
                  "type": "uint256"
                },
                {
                  "internalType": "uint256",
                  "name": "auroc",
                  "type": "uint256"
                }
              ],
              "internalType": "struct DeltaVerifier.Metrics",
              "name": "newMetrics",
              "type": "tuple"
            },
            {
              "components": [
                {
                  "internalType": "address",
                  "name": "walletAddress",
                  "type": "address"
                },
                {
                  "internalType": "uint256",
                  "name": "contributorWeight",
                  "type": "uint256"
                },
                {
                  "internalType": "uint256",
                  "name": "contributedSamples",
                  "type": "uint256"
                },
                {
                  "internalType": "uint256",
                  "name": "totalSamples",
                  "type": "uint256"
                }
              ],
              "internalType": "struct DeltaVerifier.ContributorInfo",
              "name": "contributorInfo",
              "type": "tuple"
            },
            {
              "internalType": "uint256",
              "name": "maxCostUsd",
              "type": "uint256"
            },
            {
              "internalType": "uint256",
              "name": "actualCostUsd",
              "type": "uint256"
            }
          ],
          "internalType": "struct DeltaVerifier.EvaluationDataWithInfo",
          "name": "data",
          "type": "tuple"
        }
      ],
      "name": "submitEvaluationWithContributorInfo",
      "outputs": [
        {
          "internalType": "uint256",
          "name": "",
          "type": "uint256"
        }
      ],
      "stateMutability": "nonpayable",
      "type": "function"
    },
    {
      "inputs": [
        {
          "internalType": "uint256",
          "name": "modelId",
          "type": "uint256"
        },
        {
          "components": [
            {
              "internalType": "string",
              "name": "pipelineRunId",
              "type": "string"
            },
            {
              "components": [
                {
                  "internalType": "uint256",
                  "name": "accuracy",
                  "type": "uint256"
                },
                {
                  "internalType": "uint256",
                  "name": "precision",
                  "type": "uint256"
                },
                {
                  "internalType": "uint256",
                  "name": "recall",
                  "type": "uint256"
                },
                {
                  "internalType": "uint256",
                  "name": "f1",
                  "type": "uint256"
                },
                {
                  "internalType": "uint256",
                  "name": "auroc",
                  "type": "uint256"
                }
              ],
              "internalType": "struct DeltaVerifier.Metrics",
              "name": "baselineMetrics",
              "type": "tuple"
            },
            {
              "components": [
                {
                  "internalType": "uint256",
                  "name": "accuracy",
                  "type": "uint256"
                },
                {
                  "internalType": "uint256",
                  "name": "precision",
                  "type": "uint256"
                },
                {
                  "internalType": "uint256",
                  "name": "recall",
                  "type": "uint256"
                },
                {
                  "internalType": "uint256",
                  "name": "f1",
                  "type": "uint256"
                },
                {
                  "internalType": "uint256",
                  "name": "auroc",
                  "type": "uint256"
                }
              ],
              "internalType": "struct DeltaVerifier.Metrics",
              "name": "newMetrics",
              "type": "tuple"
            },
            {
              "internalType": "uint256",
              "name": "maxCostUsd",
              "type": "uint256"
            },
            {
              "internalType": "uint256",
              "name": "actualCostUsd",
              "type": "uint256"
            },
            {
              "internalType": "uint256",
              "name": "totalSamples",
              "type": "uint256"
            }
          ],
          "internalType": "struct DeltaVerifier.EvaluationDataBase",
          "name": "data",
          "type": "tuple"
        },
        {
          "components": [
            {
              "internalType": "address",
              "name": "walletAddress",
              "type": "address"
            },
            {
              "internalType": "uint256",
              "name": "weight",
              "type": "uint256"
            }
          ],
          "internalType": "struct DeltaVerifier.Contributor[]",
          "name": "contributors",
          "type": "tuple[]"
        }
      ],
      "name": "submitEvaluationWithMultipleContributors",
      "outputs": [
        {
          "internalType": "uint256",
          "name": "",
          "type": "uint256"
        }
      ],
      "stateMutability": "nonpayable",
      "type": "function"
    },
    {
      "inputs": [
        {
          "internalType": "uint256",
          "name": "modelId",
          "type": "uint256"
        },
        {
          "components": [
            {
              "internalType": "string",
              "name": "pipelineRunId",
              "type": "string"
            },
            {
              "internalType": "uint256",
              "name": "baselineScoreBps",
              "type": "uint256"
            },
            {
              "internalType": "uint256",
              "name": "candidateScoreBps",
              "type": "uint256"
            },
            {
              "internalType": "uint256",
              "name": "maxCostUsdMicro",
              "type": "uint256"
            },
            {
              "internalType": "uint256",
              "name": "actualCostUsdMicro",
              "type": "uint256"
            },
            {
              "internalType": "uint256",
              "name": "totalSamples",
              "type": "uint256"
            },
            {
              "components": [
                {
                  "internalType": "bytes32",
                  "name": "benchmarkSpecHash",
                  "type": "bytes32"
                },
                {
                  "internalType": "bytes32",
                  "name": "datasetHash",
                  "type": "bytes32"
                },
                {
                  "internalType": "bytes32",
                  "name": "attestationHash",
                  "type": "bytes32"
                },
                {
                  "internalType": "bytes32",
                  "name": "idempotencyKey",
                  "type": "bytes32"
                },
                {
                  "internalType": "string",
                  "name": "metricName",
                  "type": "string"
                },
                {
                  "internalType": "string",
                  "name": "metricFamily",
                  "type": "string"
                }
              ],
              "internalType": "struct DeltaVerifier.BenchmarkAnchors",
              "name": "anchors",
              "type": "tuple"
            }
          ],
          "internalType": "struct DeltaVerifier.MintRequestPayload",
          "name": "payload",
          "type": "tuple"
        },
        {
          "components": [
            {
              "internalType": "address",
              "name": "walletAddress",
              "type": "address"
            },
            {
              "internalType": "uint256",
              "name": "weight",
              "type": "uint256"
            }
          ],
          "internalType": "struct DeltaVerifier.Contributor[]",
          "name": "contributors",
          "type": "tuple[]"
        },
        {
          "internalType": "bytes[]",
          "name": "attesterSignatures",
          "type": "bytes[]"
        }
      ],
      "name": "submitMintRequest",
      "outputs": [
        {
          "internalType": "uint256",
          "name": "",
          "type": "uint256"
        }
      ],
      "stateMutability": "nonpayable",
      "type": "function"
    },
    {
      "inputs": [
        {
          "internalType": "bytes4",
          "name": "interfaceId",
          "type": "bytes4"
        }
      ],
      "name": "supportsInterface",
      "outputs": [
        {
          "internalType": "bool",
          "name": "",
          "type": "bool"
        }
      ],
      "stateMutability": "view",
      "type": "function"
    },
    {
      "inputs": [],
      "name": "tokenManager",
      "outputs": [
        {
          "internalType": "contract TokenManager",
          "name": "",
          "type": "address"
        }
      ],
      "stateMutability": "view",
      "type": "function"
    },
    {
      "inputs": [
        {
          "internalType": "uint256",
          "name": "modelId",
          "type": "uint256"
        },
        {
          "internalType": "uint256",
          "name": "amount",
          "type": "uint256"
        }
      ],
      "name": "topUpMintBudget",
      "outputs": [],
      "stateMutability": "nonpayable",
      "type": "function"
    },
    {
      "inputs": [],
      "name": "unpause",
      "outputs": [],
      "stateMutability": "nonpayable",
      "type": "function"
    }
  ],
  "bytecode": "0x6101c0346200053b57601f6200538538819003918201601f19168301916001600160401b03831184841017620005255780849260c0946040528339810103126200053b576200004e816200055c565b602082015190916001600160a01b03821682036200053b5762000074604082016200055c565b9060608101519060a0608082015191015191604051620000948162000540565b6014815260208101907f486f6b7573616944656c74615665726966696572000000000000000000000000825260405191620000cf8362000540565b600183526020830191603160f81b83526001805560ff1960025416600255620000f88162000571565b6101205262000107846200070b565b61014052519020918260e05251902080610100524660a0526040519060208201927f8b73c3c69bb8fe3d512ecc4cf759cc79239f7b179b0ffacaa9a75d522b39400f8452604083015260608201524660808201523060a082015260a0815260c081019080821060018060401b03831117620005255760e06d6d6f64656c20726567697374727960901b91620001bd9484604052815190206080523060c052620001b08462000540565b600e8452015287620008c0565b620001f9604051620001cf8162000540565b600d81526c3a37b5b2b71036b0b730b3b2b960991b60208201526001600160a01b038716620008c0565b6200023c6040516200020b8162000540565b601581527f636f6e747269627574696f6e2072656769737472790000000000000000000000602082015285620008c0565b6200026d6040516200024e8162000540565b600b81526a726577617264207261746560a81b602082015282620008f1565b620002a26040516200027f8162000540565b600f81526e1b5a5b881a5b5c1c9bdd995b595b9d608a1b602082015283620008f1565b6001600160a01b03958616610160908152948616610180908152939095166101a09081526006959095556007556008553360009081527fad3228b676f7d3cd4284a5443f17f1962b36e491b30a40b2405849e597ba5fb560205260408120549293919260ff1615620004e9575b7f65d7a28e3265b37a6474929f336521b332c1681b933f6cb9f3376673440d862a808252816020526040822033835260205260ff60408320541615620004ab575b507fe1a65d1a914580ff6931bc952f0fb26573e9282358a4458bceb9ccc6d923d04190818152806020526040812033825260205260ff604082205416156200046d575b505060405191614a4b93846200091a853960805184613185015260a05184613250015260c0518461314f015260e051846131d4015261010051846131fa015261012051846109d0015261014051846109fa0152518381816102ba015281816111c001528181611337015281816123e301528181612862015281816137e501528181613b3901526142ff0152518281816112040152818161252401528181612ba501528181612bf7015281816134410152818161383e01528181613b92015261436501525181818161072f015281816135e7015261427f0152f35b818152806020526040812033825260205260408120600160ff19825416179055339160008051602062005365833981519152339280a4388062000393565b808252816020526040822033835260205260408220600160ff1982541617905533903390600080516020620053658339815191528480a43862000350565b808052806020526040812033825260205260408120600160ff19825416179055333382600080516020620053658339815191528180a46200030f565b634e487b7160e01b600052604160045260246000fd5b600080fd5b604081019081106001600160401b038211176200052557604052565b51906001600160a01b03821682036200053b57565b80516020919082811015620005d0575090601f825111620005af5780825192015190808310620005a057501790565b82600019910360031b1b161790565b60405163305a27a960e01b815280620005cc846004830162000875565b0390fd5b6001600160401b03811162000525576003928354926001938481811c9116801562000700575b83821014620006ea57601f8111620006b1575b5081601f84116001146200064857509282939183926000946200063c575b50501b9160001990841b1c191617905560ff90565b01519250388062000627565b919083601f1981168760005284600020946000905b888383106200069657505050106200067d575b505050811b01905560ff90565b015160001983861b60f8161c1916905538808062000670565b8587015188559096019594850194879350908101906200065d565b8560005284601f84600020920160051c820191601f860160051c015b828110620006dd57505062000609565b60008155018590620006cd565b634e487b7160e01b600052602260045260246000fd5b90607f1690620005f6565b805160209190828110156200073a575090601f825111620005af5780825192015190808310620005a057501790565b6001600160401b03811162000525576004928354926001938481811c911680156200086a575b838210146200085557601f81116200081c575b5081601f8411600114620007b35750928293918392600094620007a7575b50501b916000199060031b1c191617905560ff90565b01519250388062000791565b919083601f1981168760005284600020946000905b88838310620008015750505010620007e757505050811b01905560ff90565b015160001960f88460031b161c1916905538808062000670565b858701518855909601959485019487935090810190620007c8565b8560005284601f84600020920160051c820191601f860160051c015b8281106200084857505062000773565b6000815501859062000838565b602286634e487b7160e01b6000525260246000fd5b90607f169062000760565b6020808252825181830181905290939260005b828110620008ab57505060409293506000838284010152601f8019910116010190565b81810186015184820160400152850162000888565b6001600160a01b031615620008d25750565b60405163eac0d38960e01b8152908190620005cc906004830162000875565b15620008fa5750565b60405163589956a560e11b8152908190620005cc90600483016200087556fe608060408181526004918236101561001657600080fd5b600060e0918135831c90816301e08bfe146115a85750806301ffc9a71461155157806302bef8471461149157806313e502d1146112e35780631481103f146112c4578063248a9ca31461129957806325c33e13146112335780632a709b14146111ef5780632ba36f78146111ab5780632f2ff15d1461110157806336568abe1461106f5780633f4ba83a14610fd857806348ab148e14610faf5780634970679a14610f545780635085795014610f0f5780635547c73a14610ee157806358da0d0914610ebd5780635c975abb14610e995780635d3e811b14610de857806365defa0f14610d9a57806366a78e6c14610d7b578063803b64f414610d025780638456cb5914610aa857806384b0196e146109ba5780638725ac511461092357806391712a0b146108e857806391d14854146108a15780639cb20b7314610882578063a217fddf14610867578063a8e62b9714610842578063ae18ba2f146107bb578063afbf34401461079c578063b6ebe5391461075e578063b7c303761461071a578063cc78fef114610635578063d547741f146105f7578063e63ab1e9146105bc578063ebdf46bc14610522578063f0a9abe71461048e578063f2f667cb1461046f578063f6c5506b146102645763fa07b323146101f357600080fd5b3461025d576003199060603683011261025d57602435926001600160401b039283851161026057843603011261025d5760443591821161025d575060209361025692610245610251933690840161182c565b9290918101903561460e565b613126565b9051908152f35b80fd5b8280fd5b50903461046b5761027436611770565b91909261027f6121fb565b6102876121b7565b61028f611aa5565b60ff6005541661045b578451630af34d3160e31b81528681018590526020966001600160a01b0392917f0000000000000000000000000000000000000000000000000000000000000000841691908981602481865afa908115610451578a926103038a936024938891610434575b50612131565b8a5194859384926302855ced60e01b84528301525afa918215610429579261033f61037c96936103f198969361020096916103fc575b50612174565b610348856142d9565b610160830161036761035982612251565b610361612265565b9061494a565b610390610374858061228f565b989092612251565b918a51986103898a611642565b36916117d7565b875261039e368b86016116f9565b8a8801526103af3660c086016116f9565b8988015216606086015261018082013560808601526101a082013560a08601526101c082013560c08601526101e0820135908501520135610100830152613296565b906001805551908152f35b61041c91508b3d8d11610422575b61041481836116d8565b810190612119565b38610339565b503d61040a565b8751903d90823e3d90fd5b61044b9150863d88116104225761041481836116d8565b386102fd565b89513d86823e3d90fd5b845163dc6c57a360e01b81528690fd5b5080fd5b50823461046b578160031936011261046b576020906007549051908152f35b50838334610260576020366003190112610260577f9ddb79ef2dfcf719d2378c10c25ab769e26c3a6874121d6d65aac014cdf365e991356104cd6118d8565b6104f982516104db816116a2565b600b81526a726577617264207261746560a81b602082015282614980565b600681905560075460085492519182526020820152604081019190915280606081015b0390a180f35b50823461046b577fe30efa43d7e03ac5f559a4ea4a89321b093ae583eb14f47ec7cf5504fb510886610553366117a6565b61055e9391936118d8565b61058c825161056c816116a2565b600d81526c1d1bdc0b5d5c08185b5bdd5b9d609a1b602082015282614980565b838552600e6020526105a18183872054611d91565b848652600e602052808387205582519182526020820152a280f35b50823461046b578160031936011261046b57602090517f65d7a28e3265b37a6474929f336521b332c1681b933f6cb9f3376673440d862a8152f35b50838334610260578060031936011261026057610632913561062d600161061c61175a565b938387528660205286200154611bea565b611cf4565b80f35b5082843461026057602036600319011261026057610651611744565b6106596118d8565b6001600160a01b0316808452600b6020528284205490929060ff161561070557600c546000198101929083116106f257600d548084106106d85750507f861c92b0d2314ad8be38c33e03205af164d31657e73664b30b77d1913145585191602091848652600b835280862060ff19815416905581600c5551908152a280f35b836044935192637107399b60e01b84528301526024820152fd5b634e487b7160e01b855260119052602484fd5b91602492519163e5e305fd60e01b8352820152fd5b50823461046b578160031936011261046b57517f00000000000000000000000000000000000000000000000000000000000000006001600160a01b03168152602090f35b50823461046b57602036600319011261046b5760209160ff9082906001600160a01b03610789611744565b168152600b855220541690519015158152f35b50823461046b578160031936011261046b576020906006549051908152f35b50838334610260576020366003190112610260578135916107da6118d8565b82158015610837575b6108195750816020917f190a4e27d9700d777e8a34d3884f8c72449f2c3e7c5cb7590b854acec294cf0193600d5551908152a180f35b90604492600c54915192634bdf3e8d60e01b84528301526024820152fd5b50600c5483116107e3565b5090503461025d57606036600319011261025d5750610256602092602435903561374a565b50823461046b578160031936011261046b5751908152602090f35b50823461046b578160031936011261046b57602090600d549051908152f35b508284346102605781600319360112610260578160209360ff926108c361175a565b903582528186528282206001600160a01b039091168252855220549151911615158152f35b50823461046b578160031936011261046b57602090517fe1a65d1a914580ff6931bc952f0fb26573e9282358a4458bceb9ccc6d923d0418152f35b50838334610260576020366003190112610260577f9ddb79ef2dfcf719d2378c10c25ab769e26c3a6874121d6d65aac014cdf365e99135906109636118d8565b6109938151610971816116a2565b600f81526e1b5a5b881a5b5c1c9bdd995b595b9d608a1b602082015283614980565b6007829055600654600854915190815260208101929092526040820152806060810161051c565b503461025d578060031936011261025d576109f47f0000000000000000000000000000000000000000000000000000000000000000611f1c565b92610a1e7f0000000000000000000000000000000000000000000000000000000000000000612043565b90805191602083018381106001600160401b03821117610a955791610a7291610a919594938252848452610a658251988998600f60f81b8a528060208b015289019061187f565b918783039088015261187f565b9146606086015230608086015260a085015283820360c08501526118a4565b0390f35b634e487b7160e01b855260418852602485fd5b508383346102605782600319360112610260577f65d7a28e3265b37a6474929f336521b332c1681b933f6cb9f3376673440d862a91828452602092848452828520338652845260ff838620541615610b3b57847f62e78cea01bee320cd4e420270b5ea74000d11b0c9f74754ebdbfc544b05a2588585610b266121b7565b600160ff19600254161760025551338152a180f35b909293610b4733611dc5565b91835190610b54826116bd565b60428252868201926060368537825115610cef5760308453825190600191821015610cdc5790607860218501536041915b818311610c7157505050610c30576048610c03938593610c1293610c2c975196879376020b1b1b2b9b9a1b7b73a3937b61d1030b1b1b7bab73a1604d1b8c860152610bda8c825192839160378901910161185c565b8401917001034b99036b4b9b9b4b733903937b6329607d1b60378401525180938684019061185c565b010360288101855201836116d8565b5193849362461bcd60e51b8552840152602483019061187f565b0390fd5b606485878087519262461bcd60e51b845283015260248201527f537472696e67733a20686578206c656e67746820696e73756666696369656e746044820152fd5b909192600f81166010811015610cc9576f181899199a1a9b1b9c1cb0b131b232b360811b901a610ca18587611d9e565b53881c928015610cb657600019019190610b85565b634e487b7160e01b825260118952602482fd5b634e487b7160e01b835260328a52602483fd5b634e487b7160e01b815260328852602490fd5b634e487b7160e01b815260328752602490fd5b5090503461025d5760031960603682011261046b57602435916001600160401b039182841161046b576101c090843603011261025d5760443591821161025d5750926103f191610d576020953690840161182c565b929091610d626121fb565b610d6a6121b7565b610d72611aa5565b810190356123b0565b50823461046b578160031936011261046b576020906008549051908152f35b503461025d578060031936011261025d57610db36118d8565b600160ff196005541617600555337f8888a19634b1c56339214cfebfcd22878844ac6b1df0c9c57df0493545afcbdd8280a280f35b509234610e95576003199360803686011261025d57602435926001600160401b039586851161026057843603011261025d5760443585811161046b57610e31903690840161182c565b9290916064359087821161025d573660238301121561025d578183013597881161025d573660248960051b8401011161025d575091602096939160246103f19694610e7a6121fb565b610e826121b7565b610e8a611aa5565b019381019035612840565b8380fd5b50823461046b578160031936011261046b5760209060ff6002541690519015158152f35b50823461046b578160031936011261046b5760209060ff6005541690519015158152f35b50828434610260576020366003190112610260578160209360ff92358152600a855220541690519015158152f35b5090503461025d57608036600319011261025d578235906001600160401b03821161025d5750610f476020936102569236910161180e565b6044359060243590613afb565b50823461046b577f051081fd0f86b4c2dc76e3b03f3289483836d49a8ccc8609c8d21d8f4400eca3610f85366117a6565b610f909391936118d8565b838552600e60205281852090808254925582519182526020820152a280f35b50828434610260576020366003190112610260576020928291358152600e845220549051908152f35b50828434610260578260031936011261026057610ff36118d8565b6002549060ff821615611035575060ff1916600255513381527f5db9ee0a495bf2e6ff9c91a7834c1ba4fdd244a5e8aa4e537bd38aeae4b073aa90602090a180f35b606490602084519162461bcd60e51b8352820152601460248201527314185d5cd8589b194e881b9bdd081c185d5cd95960621b6044820152fd5b8382863461046b578260031936011261046b5761108a61175a565b90336001600160a01b038316036110a657906106329135611cf4565b608490602085519162461bcd60e51b8352820152602f60248201527f416363657373436f6e74726f6c3a2063616e206f6e6c792072656e6f756e636560448201526e103937b632b9903337b91039b2b63360891b6064820152fd5b50828434610260578160031936011261026057359061111e61175a565b908284528360205261113560018286200154611bea565b82845260208481528185206001600160a01b039093168086529290528084205460ff1615611161578380f35b828452836020528084208285526020528320600160ff1982541617905533917f2f8788117e7eff1d82e926ec794901d17c78024a50270940304540a733656f0d8480a48180808380f35b50823461046b578160031936011261046b57517f00000000000000000000000000000000000000000000000000000000000000006001600160a01b03168152602090f35b50823461046b578160031936011261046b57517f00000000000000000000000000000000000000000000000000000000000000006001600160a01b03168152602090f35b50838334610260576020366003190112610260577f9ddb79ef2dfcf719d2378c10c25ab769e26c3a6874121d6d65aac014cdf365e991356112726118d8565b6008819055600654600754925190815260208101929092526040820152806060810161051c565b5082843461026057602036600319011261026057816020936001923581528085522001549051908152f35b50823461046b578160031936011261046b57602090600c549051908152f35b50903461046b576112f336611770565b90916112fd6121fb565b6113056121b7565b61130d611aa5565b60ff6005541661045b578451630af34d3160e31b81528681018490526020966001600160a01b03917f0000000000000000000000000000000000000000000000000000000000000000831691908981602481865afa908115611487578a9261137f89936024938c916104345750612131565b8a5194859384926302855ced60e01b84528301525afa90811561147d57906113ad9187916114665750612174565b6113b6846142d9565b61022083360312611462578551946113cd86611642565b83356001600160401b03811161046b576113ea903690860161180e565b86526113f8368986016116f9565b888701526114093660c086016116f9565b87870152610160840135918216820361025d5750606085015261018082013560808501526101a082013560a08501526101c082013560c08501526101e08201359084015261020001356101008301526103f19190613296565b8480fd5b61041c9150893d8b116104225761041481836116d8565b87513d88823e3d90fd5b89513d8a823e3d90fd5b50828434610260576020366003190112610260576114ad611744565b6114b56118d8565b6001600160a01b031691821561154457828452600b60205260ff818520541661152f57828452600b602052808420600160ff19825416179055600c5491600183018093116106f25750816020917f1a5deac0287808691c5f3245f6a3bf0d11038f0abb7315d8926fcf0a7965a0ee93600c5551908152a280f35b9160249251916362b406ff60e01b8352820152fd5b51631e59c78160e01b8152fd5b5082843461026057602036600319011261026057359063ffffffff60e01b82168092036102605760209250637965db0b60e01b8214918215611597575b50519015158152f35b6301ffc9a760e01b1491508361158e565b84833461025d5761016036600319011261025d5760a036602319011261025d576115d183611674565b6024358352604435602084015260643582840152608435606084015260a435608084015260a03660c319011261025d575061025660209282519061161482611674565b60c4359182815260e43586820152610104358582015261012435606082015260806101443591015251613da4565b61012081019081106001600160401b0382111761165e57604052565b634e487b7160e01b600052604160045260246000fd5b60a081019081106001600160401b0382111761165e57604052565b6001600160401b03811161165e57604052565b604081019081106001600160401b0382111761165e57604052565b608081019081106001600160401b0382111761165e57604052565b90601f801991011681019081106001600160401b0382111761165e57604052565b91908260a091031261173f5760405161171181611674565b6080808294803584526020810135602085015260408101356040850152606081013560608501520135910152565b600080fd5b600435906001600160a01b038216820361173f57565b602435906001600160a01b038216820361173f57565b9060031960408184011261173f5760043592602435916001600160401b03831161173f57826102209203011261173f5760040190565b604090600319011261173f576004359060243590565b6001600160401b03811161165e57601f01601f191660200190565b9291926117e3826117bc565b916117f160405193846116d8565b82948184528183011161173f578281602093846000960137010152565b9080601f8301121561173f57816020611829933591016117d7565b90565b9181601f8401121561173f578235916001600160401b03831161173f576020808501948460061b01011161173f57565b60005b83811061186f5750506000910152565b818101518382015260200161185f565b906020916118988151809281855285808601910161185c565b601f01601f1916010190565b90815180825260208080930193019160005b8281106118c4575050505090565b8351855293810193928101926001016118b6565b3360009081527fad3228b676f7d3cd4284a5443f17f1962b36e491b30a40b2405849e597ba5fb5602090815260408083205490929060ff161561191a57505050565b61192333611dc5565b9080845190611931826116bd565b60428252848201926060368537825115611a915760308453825190600191821015611a915790607860218501536041915b818311611a23575050506119e1576048610c2c9386936119c5936119b6985198899376020b1b1b2b9b9a1b7b73a3937b61d1030b1b1b7bab73a1604d1b8a860152610bda815180928c60378901910161185c565b010360288101875201856116d8565b5192839262461bcd60e51b84526004840152602483019061187f565b60648486519062461bcd60e51b825280600483015260248201527f537472696e67733a20686578206c656e67746820696e73756666696369656e746044820152fd5b909192600f81166010811015611a7d576f181899199a1a9b1b9c1cb0b131b232b360811b901a611a538587611d9e565b5360041c928015611a6957600019019190611962565b634e487b7160e01b82526011600452602482fd5b634e487b7160e01b83526032600452602483fd5b634e487b7160e01b81526032600452602490fd5b3360009081527f19c4d971a3d76901c4568731997aa60cfcecea3f445b26b7ae19155c24110b7e602090815260408083205490927fe1a65d1a914580ff6931bc952f0fb26573e9282358a4458bceb9ccc6d923d0419160ff1615611b095750505050565b611b1233611dc5565b91845190611b1f826116bd565b60428252848201926060368537825115611a915760308453825190600191821015611a915790607860218501536041915b818311611ba4575050506119e1576048610c2c9386936119c5936119b6985198899376020b1b1b2b9b9a1b7b73a3937b61d1030b1b1b7bab73a1604d1b8a860152610bda815180928c60378901910161185c565b909192600f81166010811015611a7d576f181899199a1a9b1b9c1cb0b131b232b360811b901a611bd48587611d9e565b5360041c928015611a6957600019019190611b50565b600090808252602090828252604092838120338252835260ff848220541615611c135750505050565b611c1c33611dc5565b91845190611c29826116bd565b60428252848201926060368537825115611a915760308453825190600191821015611a915790607860218501536041915b818311611cae575050506119e1576048610c2c9386936119c5936119b6985198899376020b1b1b2b9b9a1b7b73a3937b61d1030b1b1b7bab73a1604d1b8a860152610bda815180928c60378901910161185c565b909192600f81166010811015611a7d576f181899199a1a9b1b9c1cb0b131b232b360811b901a611cde8587611d9e565b5360041c928015611a6957600019019190611c5a565b9060009180835282602052604083209160018060a01b03169182845260205260ff604084205416611d2457505050565b80835282602052604083208284526020526040832060ff1981541690557ff6391f5c32d9c69d2a47ea670b442974b53935d1edc7fd64eb21e047a839171b339380a4565b81810292918115918404141715611d7b57565b634e487b7160e01b600052601160045260246000fd5b91908201809211611d7b57565b908151811015611daf570160200190565b634e487b7160e01b600052603260045260246000fd5b60405190606082018281106001600160401b0382111761165e57604052602a8252602082016040368237825115611daf57603090538151600190811015611daf57607860218401536029905b808211611e65575050611e215790565b606460405162461bcd60e51b815260206004820152602060248201527f537472696e67733a20686578206c656e67746820696e73756666696369656e746044820152fd5b9091600f81166010811015611ebe576f181899199a1a9b1b9c1cb0b131b232b360811b901a611e948486611d9e565b5360041c918015611ea9576000190190611e11565b60246000634e487b7160e01b81526011600452fd5b60246000634e487b7160e01b81526032600452fd5b6001600160401b03811161165e5760051b60200190565b90611ef482611ed3565b611f0160405191826116d8565b8281528092611f12601f1991611ed3565b0190602036910137565b60ff8114611f5a5760ff811690601f8211611f485760405191611f3e836116a2565b8252602082015290565b604051632cd44ac360e21b8152600490fd5b50604051600060035490600182811c90808416938415612039575b602094858410811461202557838752869493929181156120055750600114611fa6575b5050611829925003826116d8565b9093915060036000527fc2575a0e9e593c00f959f8c92f12db2869c3395a3b0502d05e2516446f71f85b936000915b818310611fed57505061182993508201013880611f98565b85548784018501529485019486945091830191611fd5565b91505061182994925060ff191682840152151560051b8201013880611f98565b634e487b7160e01b85526022600452602485fd5b91607f1691611f75565b60ff81146120655760ff811690601f8211611f485760405191611f3e836116a2565b50604051600060045490600182811c9080841693841561210f575b6020948584108114612025578387528694939291811561200557506001146120b0575050611829925003826116d8565b9093915060046000527f8a35acfbc15ff81a39ae7d344fd709f28e8600b4aa8c65c6b64bfe7fe36bd19b936000915b8183106120f757505061182993508201013880611f98565b855487840185015294850194869450918301916120df565b91607f1691612080565b9081602091031261173f5751801515810361173f5790565b1561213857565b60405162461bcd60e51b8152602060048201526014602482015273135bd9195b081b9bdd081c9959da5cdd195c995960621b6044820152606490fd5b1561217b57565b60405162461bcd60e51b8152602060048201526014602482015273135bd9195b081a5cc819195858dd1a5d985d195960621b6044820152606490fd5b60ff600254166121c357565b60405162461bcd60e51b815260206004820152601060248201526f14185d5cd8589b194e881c185d5cd95960821b6044820152606490fd5b60026001541461220c576002600155565b60405162461bcd60e51b815260206004820152601f60248201527f5265656e7472616e637947756172643a207265656e7472616e742063616c6c006044820152606490fd5b356001600160a01b038116810361173f5790565b60405190612272826116a2565b600e82526d77616c6c6574206164647265737360901b6020830152565b903590601e198136030182121561173f57018035906001600160401b03821161173f5760200191813603831361173f57565b6000198114611d7b5760010190565b9190811015611daf5760061b0190565b805115611daf5760200190565b8051821015611daf5760209160051b010190565b91908203918211611d7b57565b90815180825260208080930193019160005b82811061232e575050505090565b83516001600160a01b031685529381019392810192600101612320565b9161237490612366611829959360608652606086019061187f565b90848203602086015261230e565b9160408184039101526118a4565b9392916123ab9061239d60409360608852606088019061230e565b9086820360208801526118a4565b930152565b9160009060ff600554166127f85760408051630af34d3160e31b81526004810186905260209491926001600160a01b03917f00000000000000000000000000000000000000000000000000000000000000008316908781602481855afa9081156127ee579161242989926024948a916127d75750612131565b8651928380926302855ced60e01b82528c60048301525afa9081156127cd57906124599187916127b65750612174565b612462876142d9565b61246c8882613e89565b9190986101a0850135918215612772576101608601356101808701356124928183613e6f565b61271e5750506124a960c08701358a880135613da4565b9a6124b38b61488a565b956124be8d886137a7565b9c8d612500575b50505050505050506000805160206149f6833981519152929350806124e99161228f565b80925192839283378101600081520390209180a390565b8d9b8b9c8d918d5b88811061268e57505061251b9250612301565b80612660575b507f000000000000000000000000000000000000000000000000000000000000000016803b1561265c578851631e3b78fb60e31b8152908a90829081838161256e8c898f6004850161234b565b03925af1801561265257908c916125f5575b50916125e79593916124e9989795937f379eb16b5a0469dd3188be06c54cea67019459aea34bb7222bac67a2ddf15e296125d16000805160206149f68339815191529d9e8d519182918a8784612382565b0390a26125e1610389898061228f565b95614150565b9084933880808080806124c5565b916124e998979593917f379eb16b5a0469dd3188be06c54cea67019459aea34bb7222bac67a2ddf15e296125d16000805160206149f68339815191529d6126406125e79b999761168f565b9d505050919395979850919395612580565b89513d8c823e3d90fd5b8980fd5b612687919b612678826126728a6122e0565b51611d91565b612681896122e0565b52611d91565b9938612521565b919080935061269e838a8a6122d0565b01356126a991611d68565b61271090049d8e806126bb848d6122ed565b526126c591611d91565b9d846126d2838a8a6122d0565b6126db90612251565b16908d805191868352858301527f23cb7dc0579e23905f2f88d85bd8fbee2e15f35d236f8b32a54a4ae6e829497391a2612714906122c1565b8f90918e92612508565b955095925050507f2ee10088f961cefc50ce125f535f54891ad9bafe2a77646d2d1e5f2057aeddef95985061275491508061228f565b9081855192839283378101898152039020948351928352820152a390565b865162461bcd60e51b8152600481018a9052601e60248201527f546f74616c2073616d706c6573206d75737420626520706f73697469766500006044820152606490fd5b61041c9150883d8a116104225761041481836116d8565b85513d88823e3d90fd5b61044b9150843d86116104225761041481836116d8565b86513d89823e3d90fd5b60405163dc6c57a360e01b8152600490fd5b90359060be198136030182121561173f570190565b908060209392818452848401376000828201840152601f01601f1916010190565b604051630af34d3160e31b8152600481018290529396959294909360009391907f00000000000000000000000000000000000000000000000000000000000000006001600160a01b031690602081602481855afa90811561311b57916128b160209260249489916127d75750612131565b604051928380926302855ced60e01b82528a60048301525afa90811561311057906128e29186916130f75750612174565b6128eb856142d9565b60606128fa60c085018561280a565b0135156130b257606061291060c085018561280a565b01358452600a60205260ff6040852054166130635761292f838061228f565b90501561301e5761295061294660c085018561280a565b608081019061228f565b905015612fd957612710602084013511612f9557612710604084013511612f4657600d548015612f3457808310612f1657506129916102518988868961460e565b8491825b848410612e695750505050506129ab8685613e89565b6129bd60408401356020850135613da4565b976129c78661488a565b906129d28a836137a7565b976129e560808701356060880135613e6f565b801580612e54575b612e1f576060612a0060c089018961280a565b01358852600a60205260408820805460ff19166001179055612dbe5788612b5e575b50505050506000805160206149f6833981519152919293949550806060612a4f60c0612b4594018361280a565b0135612a5e60c083018361280a565b3590867f302937cfcf4b3e834bb9d5ebae7f74a8640d4e0c646f62af65aaf0ac9136b3246040612a9160c087018761280a565b01356020612aa260c088018861280a565b013590612b3c8c612ab961294660c08b018b61280a565b612b158b612ae6612b07612add612ad360c085018561280a565b60a081019061228f565b9290938061228f565b9690956040519b8c9b8c5260208c01526101008060408d01528b019161281f565b9188830360608a015261281f565b9260208c0135608087015260408c013560a087015260c086015284830360e086015261281f565b0390a48061228f565b908160405192839283378101600081520390209180a390565b878752600e602052612b74896040892054612301565b9a888852600e6020528b604089205587908a895b858110612d355750612b9c91508290612301565b80612d15575b507f00000000000000000000000000000000000000000000000000000000000000006001600160a01b03163b15612d1157604051631e3b78fb60e31b8152888180612bf2898b8a6004850161234b565b0381837f00000000000000000000000000000000000000000000000000000000000000006001600160a01b03165af18015612d0657918b9c9d918b9c9b93612ce0575b50917f838cb5d05a360de3db26795f889719161893db22dc951313639afb3882b8fc6b60406000805160206149f68339815191529b9c8a989694847f379eb16b5a0469dd3188be06c54cea67019459aea34bb7222bac67a2ddf15e298c612b459f9e612cab612cd29f9d9b885193849384612382565b0390a282519182526020820152a2612cc6610389888061228f565b9460a088013593614150565b908695949392388080612a22565b9783999891819795939b612cf68a98969461168f565b9b939597999a5091939550612c35565b6040513d8b823e3d90fd5b8780fd5b612d2f91612d2682612672896122e0565b612681886122e0565b38612ba2565b612d65612710612d57612db7946020612d4f868c8c6122d0565b013590611d68565b04809581612681858d6122ed565b937f23cb7dc0579e23905f2f88d85bd8fbee2e15f35d236f8b32a54a4ae6e829497360406001600160a01b03612da4612d9f868c8c6122d0565b612251565b16928151908782526020820152a26122c1565b8b90612b88565b50505050509192509293507f2ee10088f961cefc50ce125f535f54891ad9bafe2a77646d2d1e5f2057aeddef6040612df6838061228f565b90818351928392833781018781520390209260808251916060810135835201356020820152a390565b888852600e6020526040808920549051630aaa239760e21b8152600481018b9052602481018c90526044810191909152606490fd5b50888852600e60205260408820548a116129ed565b612e9090612e88612e826103898760051b86018661228f565b85614547565b92909261442d565b6001600160a01b039081169082161115612ef4576001600160a01b0381168752600b602052604087205460ff1615612ed257612ecc90936122c1565b92612995565b604051637adcfd2960e01b81526001600160a01b039091166004820152602490fd5b60405163af5c5c7960e01b81526001600160a01b039091166004820152602490fd5b826044916040519163245dfda360e11b835260048301526024820152fd5b604051633fca299160e01b8152600490fd5b60405162461bcd60e51b815260206004820152602160248201527f43616e6469646174652073636f726520657863656564732031303030302062706044820152607360f81b6064820152608490fd5b606460405162461bcd60e51b815260206004820152602060248201527f426173656c696e652073636f72652065786365656473203130303030206270736044820152fd5b60405162461bcd60e51b815260206004820152601b60248201527f4d6574726963206e616d652063616e6e6f7420626520656d70747900000000006044820152606490fd5b60405162461bcd60e51b815260206004820152601f60248201527f506970656c696e652072756e2049442063616e6e6f7420626520656d707479006044820152606490fd5b60405162461bcd60e51b815260206004820152602160248201527f4964656d706f74656e6379206b657920616c72656164792070726f63657373656044820152601960fa1b6064820152608490fd5b60405162461bcd60e51b815260206004820152601f60248201527f4964656d706f74656e6379206b65792063616e6e6f7420626520656d707479006044820152606490fd5b61041c915060203d6020116104225761041481836116d8565b6040513d87823e3d90fd5b6040513d88823e3d90fd5b60429061313161314c565b906040519161190160f01b8352600283015260228201522090565b307f00000000000000000000000000000000000000000000000000000000000000006001600160a01b0316148061324d575b156131a7577f000000000000000000000000000000000000000000000000000000000000000090565b60405160208101907f8b73c3c69bb8fe3d512ecc4cf759cc79239f7b179b0ffacaa9a75d522b39400f82527f000000000000000000000000000000000000000000000000000000000000000060408201527f000000000000000000000000000000000000000000000000000000000000000060608201524660808201523060a082015260a0815260c081018181106001600160401b0382111761165e5760405251902090565b507f0000000000000000000000000000000000000000000000000000000000000000461461317e565b61328e9060206040519282848094519384920161185c565b810103902090565b90606081018051906000916040908151906132b0826116a2565b601382526132e460209272636f6e7472696275746f72206164647265737360681b8482015260018060a01b0380931661494a565b608086016132f281516149ad565b828701946133008651613db5565b8488019361330e8551613db5565b60a08901946133488651885190613324826116a2565b6013825272636f6e74726962757465642073616d706c657360681b85830152614980565b60c08a0197885187511161370e578a60e0810161336e6101008251930192835190613df5565b878651168c5260098552898c2054610e1081018091116136fa5742106136c05751905161339b8183613e6f565b61367a575050858451168a526009835242888b205551519051516133be91613da4565b916133c88b61488a565b9284516133d6908286613afb565b9b8b516133e290613276565b908951916000805160206149f68339815191528d80a386835116918152888d858301527f23cb7dc0579e23905f2f88d85bd8fbee2e15f35d236f8b32a54a4ae6e829497391a28a61343b575b5050505050505050505090565b805185167f00000000000000000000000000000000000000000000000000000000000000008616803b15613676578a9182918e8b519485809481936311d68e9f60e11b835260606004840152613494606484018d61187f565b916024840152604483015203925af1801561366c5761364f575b50918899918997989993519451965199519251908951936134ce856116a2565b600185528136818701378787166134e4866122e0565b528a51966134f1886116a2565b600188528236818a01378b51855184820192829161351281868b8a0161185c565b8201906bffffffffffffffffffffffff199060601b16868201528651906034810182888a01916135419261185c565b010360148101825260340161355690826116d8565b519020613562886122e0565b528a519861356f8a6116a2565b60018a528236818c01376135828a6122e0565b528a519b61358f8d6116a2565b60018d528236818f01376135a28d6122e0565b528a51916135af836116a2565b6001835236818401378d6135c2836122e0565b528a516329a0dd4960e01b81529b8c998a9889976135e39760048a0161409e565b03927f0000000000000000000000000000000000000000000000000000000000000000165af19081156136465750613623575b808080808080808061342e565b61363e913d8091833e61363681836116d8565b810190614025565b503880613616565b513d84823e3d90fd5b613660909a9297989991939a61168f565b979695909891386134ae565b88513d8c823e3d90fd5b8a80fd5b96509650505096989790507f2ee10088f961cefc50ce125f535f54891ad9bafe2a77646d2d1e5f2057aeddef95506136b3915051613276565b948351928352820152a390565b895162461bcd60e51b815260048101869052601360248201527214985d19481b1a5b5a5d08195e18d959591959606a1b6044820152606490fd5b634e487b7160e01b8d52601160045260248dfd5b875162461bcd60e51b8152600481018490526015602482015274496e76616c696420746f74616c2073616d706c657360581b6044820152606490fd5b600754811061378157620f42409161376861376d9260065490611d68565b611d68565b0460085480821161377c575090565b905090565b5050600090565b9081602091031261173f57516001600160a01b038116810361173f5790565b604091825191636617003b60e11b83526020936004948086860152602494806137d28782018661187f565b6001600160a01b039591849184919003817f000000000000000000000000000000000000000000000000000000000000000089165afa918215613af057600092613ad1575b508351636204891b60e11b81528881018490528381806138398b82018661187f565b0381897f0000000000000000000000000000000000000000000000000000000000000000165afa908115613ac657600091613a99575b508581168015159081613a8c575b506139a8575050818491888551809481936367f855cb60e11b8352165afa90811561399d57908291600091613964575b5087845180968193634c8bc3e560e01b8352165afa91821561395a575060009161392e575b5090506007548210613925576138e791611d68565b9161271092838102938185041490151715613912575050620f4240900460085480821161377c575090565b601190634e487b7160e01b600052526000fd5b50505050600090565b82813d8311613953575b61394281836116d8565b8101031261025d57505180386138d2565b503d613938565b513d6000823e3d90fd5b909181813d8311613996575b61397a81836116d8565b8101031261046b575190848216820361025d57508190386138ad565b503d613970565b83513d6000823e3d90fd5b8785928a926000956139bc83511515612131565b865b8351881015613a59576139d18885611d9e565b5160f81c603081101580613a4e575b6139e990612131565b600a91828102928184041490151715613a3a5760ff90602f1901818111613a265791613a1a91613a20931690611d91565b976122c1565b966139be565b86601189634e487b7160e01b600052526000fd5b85601188634e487b7160e01b600052526000fd5b5060398111156139e0565b86516305f70aad60e21b81528087019182526001600160a01b038084166020840152841660408301529081906060010390fd5b905086841614153861387d565b613ab99150843d8611613abf575b613ab181836116d8565b810190613788565b3861386f565b503d613aa7565b85513d6000823e3d90fd5b613ae9919250833d8511613abf57613ab181836116d8565b9038613817565b84513d6000823e3d90fd5b90916040918251636617003b60e11b81526020906004908282820152602481613b268282018761187f565b6001600160a01b039691869185919003817f00000000000000000000000000000000000000000000000000000000000000008a165afa928315613d9957600093613d7a575b508751636204891b60e11b8152848101869052858180613b8d8682018661187f565b03818a7f0000000000000000000000000000000000000000000000000000000000000000165afa908115613d6f57600091613d52575b508681168015159081613d45575b50613cc25750505090828492828851809581936367f855cb60e11b8352165afa918215613cb75790839291600092613c7e575b508651634c8bc3e560e01b81529485928391165afa93841561395a5750600093613c4d575b50506007548310613c455761376861376d92620f424094611d68565b505050600090565b8181949293943d8311613c77575b613c6581836116d8565b8101031261025d575051903880613c29565b503d613c5b565b909281813d8311613cb0575b613c9481836116d8565b8101031261046b575190848216820361025d5750829138613c04565b503d613c8a565b86513d6000823e3d90fd5b8894939550600095613cd683511515612131565b865b8351881015613a5957613ceb8885611d9e565b5160f81c603081101580613d3a575b613d0390612131565b600a91828102928184041490151715613a3a5760ff90602f1901818111613a265791613a1a91613d34931690611d91565b96613cd8565b506039811115613cfa565b9050878516141538613bd1565b613d699150863d8811613abf57613ab181836116d8565b38613bc3565b89513d6000823e3d90fd5b613d92919350853d8711613abf57613ab181836116d8565b9138613b6b565b88513d6000823e3d90fd5b808211156137815761182991612301565b6080613df391613dc581516149ad565b613dd260208201516149ad565b613ddf60408201516149ad565b613dec60608201516149ad565b01516149ad565b565b9081158015613e67575b613e6357613e35613df39260405190613e17826116a2565b600c82526b1b585e0818dbdcdd081d5cd960a21b6020830152614980565b60405190613e42826116a2565b600f82526e1858dd1d585b0818dbdcdd081d5cd9608a1b6020830152614980565b5050565b508015613dff565b9081158015613e81575b613781571190565b508015613e79565b918115614013576064808311613ff55760009392613ea681611eea565b94613eb082611eea565b9481925b808410613f0c575050612710915003613eca5750565b60405162461bcd60e51b815260206004820152601860248201527f57656967687473206d7573742073756d20746f203130302500000000000000006044820152fd5b9091613f1f610359612d9f8685876122d0565b60005b848110613f795750613f6b613f7191613f3f612d9f8786886122d0565b613f49878c6122ed565b6001600160a01b0390911690526020613f638786886122d0565b013590611d91565b936122c1565b929190613eb4565b613f87612d9f8685876122d0565b6001600160a01b0380613f9a848d6122ed565b5116911614613fb157613fac906122c1565b613f22565b60405162461bcd60e51b815260206004820152601d60248201527f4475706c696361746520636f6e7472696275746f72206164647265737300000060448201528690fd5b82604491604051916342b154e560e01b835260048301526024820152fd5b604051633c4d929d60e21b8152600490fd5b602090818184031261173f578051906001600160401b03821161173f57019180601f8401121561173f57825161405a81611ed3565b9361406860405195866116d8565b818552838086019260051b82010192831161173f578301905b82821061408f575050505090565b81518152908301908301614081565b969391906140bd6140cc919a999796949a610100808b528a019061187f565b602092898203848b015261230e565b878103604089015281808b5192838152019a019160005b82811061413c575050505061412e93929161410d8961411b93896118299b9c0360608b01526118a4565b9087820360808901526118a4565b9160a086015284820360c08601526118a4565b9160e081840391015261187f565b83518c529a81019a928101926001016140e3565b9690949593966141608651611eea565b9061416b8751611eea565b966141768151611eea565b9360005b825181101561424c57806127106142368e8c612d4f858e8e8e8e6142178f9c8f9d6141a96142479f83906122ed565b5161420e6054604051928360209e8f92836141cd818501998a81519384920161185c565b8301906bffffffffffffffffffffffff199060601b16848201526141fb82518093603496878501910161185c565b01878382015203908101845201826116d8565b519020926122ed565b5261423084876142288287876122d0565b0135926122ed565b526122d0565b04614241828d6122ed565b526122c1565b61417a565b5099919550959261427a945096600097989298604051998a9889986329a0dd4960e01b8a5260048a0161409e565b0381837f00000000000000000000000000000000000000000000000000000000000000006001600160a01b03165af180156142cd576142b65750565b6142ca903d806000833e61363681836116d8565b50565b6040513d6000823e3d90fd5b604051630cf99be760e31b8152600481018290529060206001600160a01b0381846024817f000000000000000000000000000000000000000000000000000000000000000085165afa9384156142cd5760009461440e575b506143608261433f8561488a565b60405180938192636204891b60e11b8352846004840152602483019061187f565b0381857f0000000000000000000000000000000000000000000000000000000000000000165afa9283156142cd576000936143ef575b505080821680151591826143e2575b50506143b057505050565b6040516305f70aad60e21b815260048101929092526001600160a01b0392831660248301529091166044820152606490fd5b85161415905038806143a5565b614406929350803d10613abf57613ab181836116d8565b903880614396565b614426919450823d8411613abf57613ab181836116d8565b9238614331565b6005811015614531578061443e5750565b6001810361448b5760405162461bcd60e51b815260206004820152601860248201527f45434453413a20696e76616c6964207369676e617475726500000000000000006044820152606490fd5b600281036144d85760405162461bcd60e51b815260206004820152601f60248201527f45434453413a20696e76616c6964207369676e6174757265206c656e677468006044820152606490fd5b6003146144e157565b60405162461bcd60e51b815260206004820152602260248201527f45434453413a20696e76616c6964207369676e6174757265202773272076616c604482015261756560f01b6064820152608490fd5b634e487b7160e01b600052602160045260246000fd5b90604181511460001461457557614571916020820151906060604084015193015160001a9061457f565b9091565b5050600090600290565b9291907f7fffffffffffffffffffffffffffffff5d576e7357a4501ddfe92f46681b20a083116146025791608094939160ff602094604051948552168484015260408301526060820152600093849182805260015afa156145f55781516001600160a01b038116156145ef579190565b50600190565b50604051903d90823e3d90fd5b50505050600090600390565b9290919261461f610389848061228f565b9283516020809501209061463660c082018261280a565b95608094614649610389878a018a61228f565b8781519101209361466061038960a08b018b61228f565b888151910120936040998a958651978b808a01937fa818ce6f329a6af9beb66ef1c364c448339fc3a19db33e1b65bedceba7338b54855280358a8c01526060998a92820135838d01528101358d8c0152013560a08a015260c089015260e088015260e0875261010090818801926001600160401b03988085108a86111761165e5760a0610200928f8f9588825284519020956101208501997f75237e1c58e5f0c6e32401e4a925a38ee808e0837174cf180c9f7fd5a05c17938b526101408601528201356101608501528101356101808401528a8101356101a08401528d8101356101c084015201356101e08201520152815261475c81611642565b5190209361476982611eea565b9260005b838110614807575050505086518681018181938981519391019260005b8b8282106147f0575050506147a8925003601f1981018352826116d8565b519020928651958601967ff8e4a942deecaf16155dc43b1819edc43fd01c20d5649b3ac480fcd9562e9d1c88528601528401528183015281526147ea81611674565b51902090565b85518452948501948694509092019160010161478a565b614815612d9f8286856122d0565b908a6148228287866122d0565b0135918c51928d8d8501927fe0247088fc96442dd11534497ef414a2cf540444b61acf7195ac994bacab0f6d845260018060a01b031690850152888401528783528a8301928084108685111761165e57614885938e5251902061424182886122ed565b61476d565b801561492c5780816000925b61491657506148a4826117bc565b916148b260405193846116d8565b80835281601f196148c2836117bc565b013660208601375b6148d357505090565b6000198101908111611d7b578091600a9160308383068101809111611d7b5760f81b6001600160f81b03191660001a9061490d9086611d9e565b530490816148ca565b9091614923600a916122c1565b92910480614896565b50604051614939816116a2565b60018152600360fc1b602082015290565b6001600160a01b03161561495b5750565b60405163eac0d38960e01b815260206004820152908190610c2c90602483019061187f565b156149885750565b60405163589956a560e11b815260206004820152908190610c2c90602483019061187f565b612710106149b757565b60405163589956a560e11b815260206004820152601560248201527476616c75652065786365656473206d6178696d756d60581b6044820152606490fdfe0c40893bf3c4e890eb5c92353d4cea2a7f4e1e60667d2e04ce77813b07f64ee4a26469706673582212208b2a3cdb522e42c50eea8949226252b3a8f6c9310ef69f4c177ece7ac785803464736f6c634300081400332f8788117e7eff1d82e926ec794901d17c78024a50270940304540a733656f0d",
  "linkReferences": {},
  "deployedLinkReferences": {}
}