{
  "_format": "hh-sol-artifact-1",
  "contractName": "DeltaVerifier",
  "sourceName": "contracts/DeltaVerifier.sol",
  "abi": [
    {
      "inputs": [
        {
          "internalType": "address",
          "name": "_modelRegistry",
          "type": "address"
        },
        {
          "internalType": "address",
          "name": "_tokenManager",
          "type": "address"
        },
        {
          "internalType": "address",
          "name": "_contributionRegistry",
          "type": "address"
        },
        {
          "internalType": "uint256",
          "name": "_baseRewardRate",
          "type": "uint256"
        },
        {
          "internalType": "uint256",
          "name": "_minImprovementBps",
          "type": "uint256"
        },
        {
          "internalType": "uint256",
          "name": "_maxReward",
          "type": "uint256"
        }
      ],
      "stateMutability": "nonpayable",
      "type": "constructor"
    },
    {
      "inputs": [],
      "name": "ArrayEmpty",
      "type": "error"
    },
    {
      "inputs": [
        {
          "internalType": "uint256",
          "name": "length",
          "type": "uint256"
        },
        {
          "internalType": "uint256",
          "name": "maxLength",
          "type": "uint256"
        }
      ],
      "name": "ArrayTooLarge",
      "type": "error"
    },
    {
      "inputs": [
        {
          "internalType": "string",
          "name": "context",
          "type": "string"
        }
      ],
      "name": "InvalidAmount",
      "type": "error"
    },
    {
      "inputs": [
        {
          "internalType": "string",
          "name": "context",
          "type": "string"
        }
      ],
      "name": "ZeroAddress",
      "type": "error"
    },
    {
      "anonymous": false,
      "inputs": [
        {
          "indexed": true,
          "internalType": "uint256",
          "name": "modelId",
          "type": "uint256"
        },
        {
          "indexed": false,
          "internalType": "address[]",
          "name": "contributors",
          "type": "address[]"
        },
        {
          "indexed": false,
          "internalType": "uint256[]",
          "name": "amounts",
          "type": "uint256[]"
        },
        {
          "indexed": false,
          "internalType": "uint256",
          "name": "totalAmount",
          "type": "uint256"
        }
      ],
      "name": "BatchRewardsDistributed",
      "type": "event"
    },
    {
      "anonymous": false,
      "inputs": [
        {
          "indexed": true,
          "internalType": "string",
          "name": "pipelineRunId",
          "type": "string"
        },
        {
          "indexed": true,
          "internalType": "uint256",
          "name": "modelId",
          "type": "uint256"
        },
        {
          "indexed": false,
          "internalType": "uint256",
          "name": "maxCostUsd",
          "type": "uint256"
        },
        {
          "indexed": false,
          "internalType": "uint256",
          "name": "actualCostUsd",
          "type": "uint256"
        }
      ],
      "name": "BudgetConstraintViolated",
      "type": "event"
    },
    {
      "anonymous": false,
      "inputs": [
        {
          "indexed": true,
          "internalType": "uint256",
          "name": "modelId",
          "type": "uint256"
        },
        {
          "indexed": true,
          "internalType": "bytes32",
          "name": "idempotencyKey",
          "type": "bytes32"
        },
        {
          "indexed": true,
          "internalType": "bytes32",
          "name": "benchmarkSpecHash",
          "type": "bytes32"
        },
        {
          "indexed": false,
          "internalType": "bytes32",
          "name": "attestationHash",
          "type": "bytes32"
        },
        {
          "indexed": false,
          "internalType": "bytes32",
          "name": "datasetHash",
          "type": "bytes32"
        },
        {
          "indexed": false,
          "internalType": "string",
          "name": "metricName",
          "type": "string"
        },
        {
          "indexed": false,
          "internalType": "string",
          "name": "metricFamily",
          "type": "string"
        },
        {
          "indexed": false,
          "internalType": "uint256",
          "name": "baselineScoreBps",
          "type": "uint256"
        },
        {
          "indexed": false,
          "internalType": "uint256",
          "name": "candidateScoreBps",
          "type": "uint256"
        },
        {
          "indexed": false,
          "internalType": "uint256",
          "name": "rewardAmount",
          "type": "uint256"
        },
        {
          "indexed": false,
          "internalType": "string",
          "name": "pipelineRunId",
          "type": "string"
        }
      ],
      "name": "DeltaOneAccepted",
      "type": "event"
    },
    {
      "anonymous": false,
      "inputs": [
        {
          "indexed": true,
          "internalType": "string",
          "name": "pipelineRunId",
          "type": "string"
        },
        {
          "indexed": true,
          "internalType": "uint256",
          "name": "modelId",
          "type": "uint256"
        }
      ],
      "name": "EvaluationSubmitted",
      "type": "event"
    },
    {
      "anonymous": false,
      "inputs": [
        {
          "indexed": false,
          "internalType": "address",
          "name": "account",
          "type": "address"
        }
      ],
      "name": "Paused",
      "type": "event"
    },
    {
      "anonymous": false,
      "inputs": [
        {
          "indexed": true,
          "internalType": "address",
          "name": "contributor",
          "type": "address"
        },
        {
          "indexed": false,
          "internalType": "uint256",
          "name": "deltaInBps",
          "type": "uint256"
        },
        {
          "indexed": false,
          "internalType": "uint256",
          "name": "rewardAmount",
          "type": "uint256"
        }
      ],
      "name": "RewardCalculated",
      "type": "event"
    },
    {
      "anonymous": false,
      "inputs": [
        {
          "indexed": false,
          "internalType": "uint256",
          "name": "baseRewardRate",
          "type": "uint256"
        },
        {
          "indexed": false,
          "internalType": "uint256",
          "name": "minImprovementBps",
          "type": "uint256"
        },
        {
          "indexed": false,
          "internalType": "uint256",
          "name": "maxReward",
          "type": "uint256"
        }
      ],
      "name": "RewardParametersUpdated",
      "type": "event"
    },
    {
      "anonymous": false,
      "inputs": [
        {
          "indexed": true,
          "internalType": "bytes32",
          "name": "role",
          "type": "bytes32"
        },
        {
          "indexed": true,
          "internalType": "bytes32",
          "name": "previousAdminRole",
          "type": "bytes32"
        },
        {
          "indexed": true,
          "internalType": "bytes32",
          "name": "newAdminRole",
          "type": "bytes32"
        }
      ],
      "name": "RoleAdminChanged",
      "type": "event"
    },
    {
      "anonymous": false,
      "inputs": [
        {
          "indexed": true,
          "internalType": "bytes32",
          "name": "role",
          "type": "bytes32"
        },
        {
          "indexed": true,
          "internalType": "address",
          "name": "account",
          "type": "address"
        },
        {
          "indexed": true,
          "internalType": "address",
          "name": "sender",
          "type": "address"
        }
      ],
      "name": "RoleGranted",
      "type": "event"
    },
    {
      "anonymous": false,
      "inputs": [
        {
          "indexed": true,
          "internalType": "bytes32",
          "name": "role",
          "type": "bytes32"
        },
        {
          "indexed": true,
          "internalType": "address",
          "name": "account",
          "type": "address"
        },
        {
          "indexed": true,
          "internalType": "address",
          "name": "sender",
          "type": "address"
        }
      ],
      "name": "RoleRevoked",
      "type": "event"
    },
    {
      "anonymous": false,
      "inputs": [
        {
          "indexed": false,
          "internalType": "address",
          "name": "account",
          "type": "address"
        }
      ],
      "name": "Unpaused",
      "type": "event"
    },
    {
      "inputs": [],
      "name": "DEFAULT_ADMIN_ROLE",
      "outputs": [
        {
          "internalType": "bytes32",
          "name": "",
          "type": "bytes32"
        }
      ],
      "stateMutability": "view",
      "type": "function"
    },
    {
      "inputs": [],
      "name": "SUBMITTER_ROLE",
      "outputs": [
        {
          "internalType": "bytes32",
          "name": "",
          "type": "bytes32"
        }
      ],
      "stateMutability": "view",
      "type": "function"
    },
    {
      "inputs": [],
      "name": "baseRewardRate",
      "outputs": [
        {
          "internalType": "uint256",
          "name": "",
          "type": "uint256"
        }
      ],
      "stateMutability": "view",
      "type": "function"
    },
    {
      "inputs": [
        {
          "internalType": "uint256",
          "name": "",
          "type": "uint256"
        },
        {
          "components": [
            {
              "internalType": "uint256",
              "name": "accuracy",
              "type": "uint256"
            },
            {
              "internalType": "uint256",
              "name": "precision",
              "type": "uint256"
            },
            {
              "internalType": "uint256",
              "name": "recall",
              "type": "uint256"
            },
            {
              "internalType": "uint256",
              "name": "f1",
              "type": "uint256"
            },
            {
              "internalType": "uint256",
              "name": "auroc",
              "type": "uint256"
            }
          ],
          "internalType": "struct DeltaVerifier.Metrics",
          "name": "baseline",
          "type": "tuple"
        },
        {
          "components": [
            {
              "internalType": "uint256",
              "name": "accuracy",
              "type": "uint256"
            },
            {
              "internalType": "uint256",
              "name": "precision",
              "type": "uint256"
            },
            {
              "internalType": "uint256",
              "name": "recall",
              "type": "uint256"
            },
            {
              "internalType": "uint256",
              "name": "f1",
              "type": "uint256"
            },
            {
              "internalType": "uint256",
              "name": "auroc",
              "type": "uint256"
            }
          ],
          "internalType": "struct DeltaVerifier.Metrics",
          "name": "newMetrics",
          "type": "tuple"
        }
      ],
      "name": "calculateDeltaOneForModel",
      "outputs": [
        {
          "internalType": "uint256",
          "name": "",
          "type": "uint256"
        }
      ],
      "stateMutability": "pure",
      "type": "function"
    },
    {
      "inputs": [
        {
          "internalType": "uint256",
          "name": "deltaInBps",
          "type": "uint256"
        },
        {
          "internalType": "uint256",
          "name": "contributorWeight",
          "type": "uint256"
        },
        {
          "internalType": "uint256",
          "name": "",
          "type": "uint256"
        }
      ],
      "name": "calculateReward",
      "outputs": [
        {
          "internalType": "uint256",
          "name": "",
          "type": "uint256"
        }
      ],
      "stateMutability": "view",
      "type": "function"
    },
    {
      "inputs": [
        {
          "internalType": "string",
          "name": "modelId",
          "type": "string"
        },
        {
          "internalType": "uint256",
          "name": "deltaInBps",
          "type": "uint256"
        },
        {
          "internalType": "uint256",
          "name": "contributorWeight",
          "type": "uint256"
        },
        {
          "internalType": "uint256",
          "name": "",
          "type": "uint256"
        }
      ],
      "name": "calculateRewardDynamic",
      "outputs": [
        {
          "internalType": "uint256",
          "name": "",
          "type": "uint256"
        }
      ],
      "stateMutability": "view",
      "type": "function"
    },
    {
      "inputs": [],
      "name": "contributionRegistry",
      "outputs": [
        {
          "internalType": "contract IDataContributionRegistry",
          "name": "",
          "type": "address"
        }
      ],
      "stateMutability": "view",
      "type": "function"
    },
    {
      "inputs": [
        {
          "internalType": "bytes32",
          "name": "role",
          "type": "bytes32"
        }
      ],
      "name": "getRoleAdmin",
      "outputs": [
        {
          "internalType": "bytes32",
          "name": "",
          "type": "bytes32"
        }
      ],
      "stateMutability": "view",
      "type": "function"
    },
    {
      "inputs": [
        {
          "internalType": "bytes32",
          "name": "role",
          "type": "bytes32"
        },
        {
          "internalType": "address",
          "name": "account",
          "type": "address"
        }
      ],
      "name": "grantRole",
      "outputs": [],
      "stateMutability": "nonpayable",
      "type": "function"
    },
    {
      "inputs": [
        {
          "internalType": "bytes32",
          "name": "role",
          "type": "bytes32"
        },
        {
          "internalType": "address",
          "name": "account",
          "type": "address"
        }
      ],
      "name": "hasRole",
      "outputs": [
        {
          "internalType": "bool",
          "name": "",
          "type": "bool"
        }
      ],
      "stateMutability": "view",
      "type": "function"
    },
    {
      "inputs": [],
      "name": "maxReward",
      "outputs": [
        {
          "internalType": "uint256",
          "name": "",
          "type": "uint256"
        }
      ],
      "stateMutability": "view",
      "type": "function"
    },
    {
      "inputs": [],
      "name": "minImprovementBps",
      "outputs": [
        {
          "internalType": "uint256",
          "name": "",
          "type": "uint256"
        }
      ],
      "stateMutability": "view",
      "type": "function"
    },
    {
      "inputs": [],
      "name": "modelRegistry",
      "outputs": [
        {
          "internalType": "contract ModelRegistry",
          "name": "",
          "type": "address"
        }
      ],
      "stateMutability": "view",
      "type": "function"
    },
    {
      "inputs": [],
      "name": "pause",
      "outputs": [],
      "stateMutability": "nonpayable",
      "type": "function"
    },
    {
      "inputs": [],
      "name": "paused",
      "outputs": [
        {
          "internalType": "bool",
          "name": "",
          "type": "bool"
        }
      ],
      "stateMutability": "view",
      "type": "function"
    },
    {
      "inputs": [
        {
          "internalType": "bytes32",
          "name": "",
          "type": "bytes32"
        }
      ],
      "name": "processedIdempotencyKeys",
      "outputs": [
        {
          "internalType": "bool",
          "name": "",
          "type": "bool"
        }
      ],
      "stateMutability": "view",
      "type": "function"
    },
    {
      "inputs": [
        {
          "internalType": "bytes32",
          "name": "role",
          "type": "bytes32"
        },
        {
          "internalType": "address",
          "name": "account",
          "type": "address"
        }
      ],
      "name": "renounceRole",
      "outputs": [],
      "stateMutability": "nonpayable",
      "type": "function"
    },
    {
      "inputs": [
        {
          "internalType": "bytes32",
          "name": "role",
          "type": "bytes32"
        },
        {
          "internalType": "address",
          "name": "account",
          "type": "address"
        }
      ],
      "name": "revokeRole",
      "outputs": [],
      "stateMutability": "nonpayable",
      "type": "function"
    },
    {
      "inputs": [
        {
          "internalType": "uint256",
          "name": "_baseRewardRate",
          "type": "uint256"
        }
      ],
      "name": "setBaseRewardRate",
      "outputs": [],
      "stateMutability": "nonpayable",
      "type": "function"
    },
    {
      "inputs": [
        {
          "internalType": "uint256",
          "name": "_maxReward",
          "type": "uint256"
        }
      ],
      "name": "setMaxReward",
      "outputs": [],
      "stateMutability": "nonpayable",
      "type": "function"
    },
    {
      "inputs": [
        {
          "internalType": "uint256",
          "name": "_minImprovementBps",
          "type": "uint256"
        }
      ],
      "name": "setMinImprovementBps",
      "outputs": [],
      "stateMutability": "nonpayable",
      "type": "function"
    },
    {
      "inputs": [
        {
          "internalType": "uint256",
          "name": "modelId",
          "type": "uint256"
        },
        {
          "components": [
            {
              "internalType": "string",
              "name": "pipelineRunId",
              "type": "string"
            },
            {
              "components": [
                {
                  "internalType": "uint256",
                  "name": "accuracy",
                  "type": "uint256"
                },
                {
                  "internalType": "uint256",
                  "name": "precision",
                  "type": "uint256"
                },
                {
                  "internalType": "uint256",
                  "name": "recall",
                  "type": "uint256"
                },
                {
                  "internalType": "uint256",
                  "name": "f1",
                  "type": "uint256"
                },
                {
                  "internalType": "uint256",
                  "name": "auroc",
                  "type": "uint256"
                }
              ],
              "internalType": "struct DeltaVerifier.Metrics",
              "name": "baselineMetrics",
              "type": "tuple"
            },
            {
              "components": [
                {
                  "internalType": "uint256",
                  "name": "accuracy",
                  "type": "uint256"
                },
                {
                  "internalType": "uint256",
                  "name": "precision",
                  "type": "uint256"
                },
                {
                  "internalType": "uint256",
                  "name": "recall",
                  "type": "uint256"
                },
                {
                  "internalType": "uint256",
                  "name": "f1",
                  "type": "uint256"
                },
                {
                  "internalType": "uint256",
                  "name": "auroc",
                  "type": "uint256"
                }
              ],
              "internalType": "struct DeltaVerifier.Metrics",
              "name": "newMetrics",
              "type": "tuple"
            },
            {
              "internalType": "address",
              "name": "contributor",
              "type": "address"
            },
            {
              "internalType": "uint256",
              "name": "contributorWeight",
              "type": "uint256"
            },
            {
              "internalType": "uint256",
              "name": "contributedSamples",
              "type": "uint256"
            },
            {
              "internalType": "uint256",
              "name": "totalSamples",
              "type": "uint256"
            },
            {
              "internalType": "uint256",
              "name": "maxCostUsd",
              "type": "uint256"
            },
            {
              "internalType": "uint256",
              "name": "actualCostUsd",
              "type": "uint256"
            }
          ],
          "internalType": "struct DeltaVerifier.EvaluationData",
          "name": "data",
          "type": "tuple"
        }
      ],
      "name": "submitEvaluation",
      "outputs": [
        {
          "internalType": "uint256",
          "name": "",
          "type": "uint256"
        }
      ],
      "stateMutability": "nonpayable",
      "type": "function"
    },
    {
      "inputs": [
        {
          "internalType": "uint256",
          "name": "modelId",
          "type": "uint256"
        },
        {
          "components": [
            {
              "internalType": "string",
              "name": "pipelineRunId",
              "type": "string"
            },
            {
              "components": [
                {
                  "internalType": "uint256",
                  "name": "accuracy",
                  "type": "uint256"
                },
                {
                  "internalType": "uint256",
                  "name": "precision",
                  "type": "uint256"
                },
                {
                  "internalType": "uint256",
                  "name": "recall",
                  "type": "uint256"
                },
                {
                  "internalType": "uint256",
                  "name": "f1",
                  "type": "uint256"
                },
                {
                  "internalType": "uint256",
                  "name": "auroc",
                  "type": "uint256"
                }
              ],
              "internalType": "struct DeltaVerifier.Metrics",
              "name": "baselineMetrics",
              "type": "tuple"
            },
            {
              "components": [
                {
                  "internalType": "uint256",
                  "name": "accuracy",
                  "type": "uint256"
                },
                {
                  "internalType": "uint256",
                  "name": "precision",
                  "type": "uint256"
                },
                {
                  "internalType": "uint256",
                  "name": "recall",
                  "type": "uint256"
                },
                {
                  "internalType": "uint256",
                  "name": "f1",
                  "type": "uint256"
                },
                {
                  "internalType": "uint256",
                  "name": "auroc",
                  "type": "uint256"
                }
              ],
              "internalType": "struct DeltaVerifier.Metrics",
              "name": "newMetrics",
              "type": "tuple"
            },
            {
              "components": [
                {
                  "internalType": "address",
                  "name": "walletAddress",
                  "type": "address"
                },
                {
                  "internalType": "uint256",
                  "name": "contributorWeight",
                  "type": "uint256"
                },
                {
                  "internalType": "uint256",
                  "name": "contributedSamples",
                  "type": "uint256"
                },
                {
                  "internalType": "uint256",
                  "name": "totalSamples",
                  "type": "uint256"
                }
              ],
              "internalType": "struct DeltaVerifier.ContributorInfo",
              "name": "contributorInfo",
              "type": "tuple"
            },
            {
              "internalType": "uint256",
              "name": "maxCostUsd",
              "type": "uint256"
            },
            {
              "internalType": "uint256",
              "name": "actualCostUsd",
              "type": "uint256"
            }
          ],
          "internalType": "struct DeltaVerifier.EvaluationDataWithInfo",
          "name": "data",
          "type": "tuple"
        }
      ],
      "name": "submitEvaluationWithContributorInfo",
      "outputs": [
        {
          "internalType": "uint256",
          "name": "",
          "type": "uint256"
        }
      ],
      "stateMutability": "nonpayable",
      "type": "function"
    },
    {
      "inputs": [
        {
          "internalType": "uint256",
          "name": "modelId",
          "type": "uint256"
        },
        {
          "components": [
            {
              "internalType": "string",
              "name": "pipelineRunId",
              "type": "string"
            },
            {
              "components": [
                {
                  "internalType": "uint256",
                  "name": "accuracy",
                  "type": "uint256"
                },
                {
                  "internalType": "uint256",
                  "name": "precision",
                  "type": "uint256"
                },
                {
                  "internalType": "uint256",
                  "name": "recall",
                  "type": "uint256"
                },
                {
                  "internalType": "uint256",
                  "name": "f1",
                  "type": "uint256"
                },
                {
                  "internalType": "uint256",
                  "name": "auroc",
                  "type": "uint256"
                }
              ],
              "internalType": "struct DeltaVerifier.Metrics",
              "name": "baselineMetrics",
              "type": "tuple"
            },
            {
              "components": [
                {
                  "internalType": "uint256",
                  "name": "accuracy",
                  "type": "uint256"
                },
                {
                  "internalType": "uint256",
                  "name": "precision",
                  "type": "uint256"
                },
                {
                  "internalType": "uint256",
                  "name": "recall",
                  "type": "uint256"
                },
                {
                  "internalType": "uint256",
                  "name": "f1",
                  "type": "uint256"
                },
                {
                  "internalType": "uint256",
                  "name": "auroc",
                  "type": "uint256"
                }
              ],
              "internalType": "struct DeltaVerifier.Metrics",
              "name": "newMetrics",
              "type": "tuple"
            },
            {
              "internalType": "uint256",
              "name": "maxCostUsd",
              "type": "uint256"
            },
            {
              "internalType": "uint256",
              "name": "actualCostUsd",
              "type": "uint256"
            }
          ],
          "internalType": "struct DeltaVerifier.EvaluationDataBase",
          "name": "data",
          "type": "tuple"
        },
        {
          "components": [
            {
              "internalType": "address",
              "name": "walletAddress",
              "type": "address"
            },
            {
              "internalType": "uint256",
              "name": "weight",
              "type": "uint256"
            }
          ],
          "internalType": "struct DeltaVerifier.Contributor[]",
          "name": "contributors",
          "type": "tuple[]"
        }
      ],
      "name": "submitEvaluationWithMultipleContributors",
      "outputs": [
        {
          "internalType": "uint256",
          "name": "",
          "type": "uint256"
        }
      ],
      "stateMutability": "nonpayable",
      "type": "function"
    },
    {
      "inputs": [
        {
          "internalType": "uint256",
          "name": "modelId",
          "type": "uint256"
        },
        {
          "components": [
            {
              "internalType": "string",
              "name": "pipelineRunId",
              "type": "string"
            },
            {
              "internalType": "uint256",
              "name": "baselineScoreBps",
              "type": "uint256"
            },
            {
              "internalType": "uint256",
              "name": "candidateScoreBps",
              "type": "uint256"
            },
            {
              "internalType": "uint256",
              "name": "maxCostUsdMicro",
              "type": "uint256"
            },
            {
              "internalType": "uint256",
              "name": "actualCostUsdMicro",
              "type": "uint256"
            },
            {
              "components": [
                {
                  "internalType": "bytes32",
                  "name": "benchmarkSpecHash",
                  "type": "bytes32"
                },
                {
                  "internalType": "bytes32",
                  "name": "datasetHash",
                  "type": "bytes32"
                },
                {
                  "internalType": "bytes32",
                  "name": "attestationHash",
                  "type": "bytes32"
                },
                {
                  "internalType": "bytes32",
                  "name": "idempotencyKey",
                  "type": "bytes32"
                },
                {
                  "internalType": "string",
                  "name": "metricName",
                  "type": "string"
                },
                {
                  "internalType": "string",
                  "name": "metricFamily",
                  "type": "string"
                }
              ],
              "internalType": "struct DeltaVerifier.BenchmarkAnchors",
              "name": "anchors",
              "type": "tuple"
            }
          ],
          "internalType": "struct DeltaVerifier.MintRequestPayload",
          "name": "payload",
          "type": "tuple"
        },
        {
          "components": [
            {
              "internalType": "address",
              "name": "walletAddress",
              "type": "address"
            },
            {
              "internalType": "uint256",
              "name": "weight",
              "type": "uint256"
            }
          ],
          "internalType": "struct DeltaVerifier.Contributor[]",
          "name": "contributors",
          "type": "tuple[]"
        }
      ],
      "name": "submitMintRequest",
      "outputs": [
        {
          "internalType": "uint256",
          "name": "",
          "type": "uint256"
        }
      ],
      "stateMutability": "nonpayable",
      "type": "function"
    },
    {
      "inputs": [
        {
          "internalType": "bytes4",
          "name": "interfaceId",
          "type": "bytes4"
        }
      ],
      "name": "supportsInterface",
      "outputs": [
        {
          "internalType": "bool",
          "name": "",
          "type": "bool"
        }
      ],
      "stateMutability": "view",
      "type": "function"
    },
    {
      "inputs": [],
      "name": "tokenManager",
      "outputs": [
        {
          "internalType": "contract TokenManager",
          "name": "",
          "type": "address"
        }
      ],
      "stateMutability": "view",
      "type": "function"
    },
    {
      "inputs": [],
      "name": "unpause",
      "outputs": [],
      "stateMutability": "nonpayable",
      "type": "function"
    }
  ],
  "bytecode": "0x60e034620002ef57601f620037b638819003918201601f191683019291906001600160401b03841183851017620002f4578160c09284926040968752833981010312620002ef5762000051816200032a565b602091620000618382016200032a565b906200006f8582016200032a565b9160608201519060a06080840151930151936001805560ff19958660025416600255620000c06200009f6200030a565b600e81526d6d6f64656c20726567697374727960901b8a820152826200038a565b620000ee620000ce6200030a565b600d81526c3a37b5b2b71036b0b730b3b2b960991b8a820152846200038a565b6200012c620000fc6200030a565b601581527f636f6e747269627574696f6e20726567697374727900000000000000000000008a820152836200038a565b620001586200013a6200030a565b600b81526a726577617264207261746560a81b8a82015285620003bf565b62000188620001666200030a565b600f81526e1b5a5b881a5b5c1c9bdd995b595b9d608a1b8a82015286620003bf565b6001600160a01b0390811660805291821660a0521660c052600355600455600555600080805280835283812033825283528381205490919060ff1615620002b9575b7fe1a65d1a914580ff6931bc952f0fb26573e9282358a4458bceb9ccc6d923d04192838352828152848320338452815260ff8584205416156200027f575b84516133ae9081620003e882396080518181816101a1015281816109d801528181610b24015281816118bc0152611c87015260a051818181610a1c015281816119e701528181611f60015281816124fe015281816128800152612a94015260c05181818161044c015281816126a401526131730152f35b8383528281528483209033845252600184832091825416179055339160008051602062003796833981519152339280a43880808062000208565b8180528183528382203383528352838220600182825416179055333383600080516020620037968339815191528180a4620001ca565b600080fd5b634e487b7160e01b600052604160045260246000fd5b60408051919082016001600160401b03811183821017620002f457604052565b51906001600160a01b0382168203620002ef57565b6020808252825181830181905290939260005b8281106200037557505060409293506000838284010152601f8019910116010190565b81810186015184820160400152850162000352565b6001600160a01b0316156200039c5750565b60405163eac0d38960e01b8152908190620003bb90600483016200033f565b0390fd5b15620003c85750565b60405163589956a560e11b8152908190620003bb90600483016200033f56fe608060408181526004918236101561001657600080fd5b600090813560e01c90816301e08bfe14610ccc5750806301ffc9a714610c7657806313e502d114610add578063248a9ca314610ab357806325c33e1314610a4b5780632a709b1414610a075780632ba36f78146109c35780632f2ff15d1461091a57806336568abe146108895780633f4ba83a146107f357806350857950146107b05780635547c73a146107835780635c975abb1461075f57806366a78e6c146107405780638456cb59146106e55780638725ac511461065157806391712a0b1461061657806391d14854146105d05780639a0dc54914610559578063a217fddf1461053e578063a8e62b9714610514578063afbf3440146104f5578063b63705071461047f578063b7c3037614610437578063d547741f146103f9578063f0a9abe71461035e578063f2f667cb1461033c5763f6c5506b1461015857600080fd5b346103395761016636610e68565b90916101706116a6565b610178611662565b610180610f54565b8351630af34d3160e31b81528581018490526020956001600160a01b0392917f0000000000000000000000000000000000000000000000000000000000000000841691908881602481865afa90811561032f5789926101ea89936024938891610312575b506115dc565b895194859384926302855ced60e01b84528301525afa91821561030757926102256102009361025996936102cf9896916102da575b5061161f565b6101608201610244610236826116fc565b61023e611710565b9061328d565b61026d610251848061173a565b9790926116fc565b9189519761026689610d66565b3691610ecf565b865261027b368a8501610e1d565b8987015261028c3660c08501610e1d565b8887015216606085015261018081013560808501526101a081013560a08501526101c081013560c08501526101e081013560e08501520135610100830152612353565b906001805551908152f35b6102fa91508a3d8c11610300575b6102f28183610dfc565b8101906115c4565b3861021f565b503d6102e8565b8651903d90823e3d90fd5b6103299150863d8811610300576102f28183610dfc565b386101e4565b88513d86823e3d90fd5b80fd5b50913461035a578260031936011261035a5760209250549051908152f35b8280fd5b5091903461035a57602036600319011261035a57816103f37f9ddb79ef2dfcf719d2378c10c25ab769e26c3a6874121d6d65aac014cdf365e99335916103a261116f565b6103ce84516103b081610dc6565b600b81526a726577617264207261746560a81b6020820152846132c3565b8260035554926005549051938493846040919493926060820195825260208201520152565b0390a180f35b5091903461035a578060031936011261035a57610434913561042f600161041e610e9e565b938387528660205286200154611293565b6113e5565b80f35b50903461047b578160031936011261047b57517f00000000000000000000000000000000000000000000000000000000000000006001600160a01b03168152602090f35b5080fd5b50346103395760031960603682011261047b57602435916001600160401b039182841161047b5760c0908436030112610339576044359182116103395750926102cf916104d160209536908401610f24565b9290916104dc6116a6565b6104e4611662565b6104ec610f54565b81019035611c65565b50903461047b578160031936011261047b576020906003549051908152f35b503461033957606036600319011261033957506105376020926024359035612807565b9051908152f35b50903461047b578160031936011261047b5751908152602090f35b50346103395760031960603682011261047b57602435916001600160401b039182841161047b576101a0908436030112610339576044359182116103395750926102cf916105ac60209536908401610f24565b9290916105b76116a6565b6105bf611662565b6105c7610f54565b8101903561188f565b50913461035a578160031936011261035a578160209360ff926105f1610e9e565b903582528186528282206001600160a01b039091168252855220549151911615158152f35b50903461047b578160031936011261047b57602090517fe1a65d1a914580ff6931bc952f0fb26573e9282358a4458bceb9ccc6d923d0418152f35b50913461035a57602036600319011261035a577f9ddb79ef2dfcf719d2378c10c25ab769e26c3a6874121d6d65aac014cdf365e9918135809261069261116f565b6106c283516106a081610dc6565b600f81526e1b5a5b881a5b5c1c9bdd995b595b9d608a1b6020820152836132c3565b5560035460055491519081526020810192909252604082015280606081016103f3565b50903461047b578160031936011261047b5760207f62e78cea01bee320cd4e420270b5ea74000d11b0c9f74754ebdbfc544b05a2589161072361116f565b61072b611662565b600160ff19600254161760025551338152a180f35b50903461047b578160031936011261047b576020906005549051908152f35b50903461047b578160031936011261047b5760209060ff6002541690519015158152f35b50913461035a57602036600319011261035a578160209360ff923581526007855220541690519015158152f35b5034610339576080366003190112610339578235906001600160401b03821161033957506107e660209361053792369101610f06565b6044359060243590612a58565b50913461035a578260031936011261035a5761080d61116f565b6002549060ff82161561084f575060ff1916600255513381527f5db9ee0a495bf2e6ff9c91a7834c1ba4fdd244a5e8aa4e537bd38aeae4b073aa90602090a180f35b606490602084519162461bcd60e51b8352820152601460248201527314185d5cd8589b194e881b9bdd081c185d5cd95960621b6044820152fd5b50823461047b578260031936011261047b576108a3610e9e565b90336001600160a01b038316036108bf579061043491356113e5565b608490602085519162461bcd60e51b8352820152602f60248201527f416363657373436f6e74726f6c3a2063616e206f6e6c792072656e6f756e636560448201526e103937b632b9903337b91039b2b63360891b6064820152fd5b50913461035a578160031936011261035a573590610936610e9e565b908284528360205261094d60018286200154611293565b82845260208481528185206001600160a01b039093168086529290528084205460ff1615610979578380f35b828452836020528084208285526020528320600160ff1982541617905533917f2f8788117e7eff1d82e926ec794901d17c78024a50270940304540a733656f0d8480a43880808380f35b50903461047b578160031936011261047b57517f00000000000000000000000000000000000000000000000000000000000000006001600160a01b03168152602090f35b50903461047b578160031936011261047b57517f00000000000000000000000000000000000000000000000000000000000000006001600160a01b03168152602090f35b5091903461035a57602036600319011261035a57816103f37f9ddb79ef2dfcf719d2378c10c25ab769e26c3a6874121d6d65aac014cdf365e99335610a8e61116f565b8060055560035492549351938493846040919493926060820195825260208201520152565b50913461035a57602036600319011261035a57816020936001923581528085522001549051908152f35b503461033957610aec36610e68565b610af46116a6565b610afc611662565b610b04610f54565b8351630af34d3160e31b81528581018390526020956001600160a01b03917f0000000000000000000000000000000000000000000000000000000000000000831691908881602481865afa908115610c6c578992610b6c88936024938b9161031257506115dc565b895194859384926302855ced60e01b84528301525afa908115610c625790610b9a918691610c4b575061161f565b61022082360312610c4757845193610bb185610d66565b82356001600160401b03811161047b57610bce9036908501610f06565b8552610bdc36888501610e1d565b87860152610bed3660c08501610e1d565b8686015261016083013591821682036103395750606084015261018081013560808401526101a081013560a08401526101c081013560c08401526101e081013560e084015261020001356101008301526102cf9190612353565b8380fd5b6102fa9150883d8a11610300576102f28183610dfc565b86513d87823e3d90fd5b88513d89823e3d90fd5b50913461035a57602036600319011261035a57359063ffffffff60e01b821680920361035a5760209250637965db0b60e01b8214918215610cbb575b50519015158152f35b6301ffc9a760e01b14915038610cb2565b838334610339576101603660031901126103395760a036602319011261033957610cf583610d98565b6024358352604435602084015260643582840152608435606084015260a435608084015260a03660c31901126103395750610537602092825190610d3882610d98565b60c4359182815260e43586820152610104358582015261012435606082015260806101443591015251612c2b565b61012081019081106001600160401b03821117610d8257604052565b634e487b7160e01b600052604160045260246000fd5b60a081019081106001600160401b03821117610d8257604052565b6001600160401b038111610d8257604052565b604081019081106001600160401b03821117610d8257604052565b608081019081106001600160401b03821117610d8257604052565b90601f801991011681019081106001600160401b03821117610d8257604052565b91908260a0910312610e6357604051610e3581610d98565b6080808294803584526020810135602085015260408101356040850152606081013560608501520135910152565b600080fd5b90600319604081840112610e635760043592602435916001600160401b038311610e63578261022092030112610e635760040190565b602435906001600160a01b0382168203610e6357565b6001600160401b038111610d8257601f01601f191660200190565b929192610edb82610eb4565b91610ee96040519384610dfc565b829481845281830111610e63578281602093846000960137010152565b9080601f83011215610e6357816020610f2193359101610ecf565b90565b9181601f84011215610e63578235916001600160401b038311610e63576020808501948460061b010111610e6357565b3360009081527f19c4d971a3d76901c4568731997aa60cfcecea3f445b26b7ae19155c24110b7e602090815260408083205490927fe1a65d1a914580ff6931bc952f0fb26573e9282358a4458bceb9ccc6d923d0419160ff1615610fb85750505050565b610fc1336114b6565b91845190610fce82610de1565b6042825284820192606036853782511561115b576030845382519060019182101561115b5790607860218501536041915b8183116110ed575050506110ab5760486110a793869361108b9361107c985198899376020b1b1b2b9b9a1b7b73a3937b61d1030b1b1b7bab73a1604d1b8a860152611053815180928c60378901910161139d565b8401917001034b99036b4b9b9b4b733903937b6329607d1b60378401525180938684019061139d565b01036028810187520185610dfc565b5192839262461bcd60e51b8452600484015260248301906113c0565b0390fd5b60648486519062461bcd60e51b825280600483015260248201527f537472696e67733a20686578206c656e67746820696e73756666696369656e746044820152fd5b909192600f81166010811015611147576f181899199a1a9b1b9c1cb0b131b232b360811b901a61111d858761148f565b5360041c92801561113357600019019190610fff565b634e487b7160e01b82526011600452602482fd5b634e487b7160e01b83526032600452602483fd5b634e487b7160e01b81526032600452602490fd5b3360009081527fad3228b676f7d3cd4284a5443f17f1962b36e491b30a40b2405849e597ba5fb5602090815260408083205490929060ff16156111b157505050565b6111ba336114b6565b90808451906111c882610de1565b6042825284820192606036853782511561115b576030845382519060019182101561115b5790607860218501536041915b81831161124d575050506110ab5760486110a793869361108b9361107c985198899376020b1b1b2b9b9a1b7b73a3937b61d1030b1b1b7bab73a1604d1b8a860152611053815180928c60378901910161139d565b909192600f81166010811015611147576f181899199a1a9b1b9c1cb0b131b232b360811b901a61127d858761148f565b5360041c928015611133576000190191906111f9565b600090808252602090828252604092838120338252835260ff8482205416156112bc5750505050565b6112c5336114b6565b918451906112d282610de1565b6042825284820192606036853782511561115b576030845382519060019182101561115b5790607860218501536041915b818311611357575050506110ab5760486110a793869361108b9361107c985198899376020b1b1b2b9b9a1b7b73a3937b61d1030b1b1b7bab73a1604d1b8a860152611053815180928c60378901910161139d565b909192600f81166010811015611147576f181899199a1a9b1b9c1cb0b131b232b360811b901a611387858761148f565b5360041c92801561113357600019019190611303565b60005b8381106113b05750506000910152565b81810151838201526020016113a0565b906020916113d98151809281855285808601910161139d565b601f01601f1916010190565b9060009180835282602052604083209160018060a01b03169182845260205260ff60408420541661141557505050565b80835282602052604083208284526020526040832060ff1981541690557ff6391f5c32d9c69d2a47ea670b442974b53935d1edc7fd64eb21e047a839171b339380a4565b8181029291811591840414171561146c57565b634e487b7160e01b600052601160045260246000fd5b9190820180921161146c57565b9081518110156114a0570160200190565b634e487b7160e01b600052603260045260246000fd5b60405190606082018281106001600160401b03821117610d8257604052602a82526020820160403682378251156114a0576030905381516001908110156114a057607860218401536029905b8082116115565750506115125790565b606460405162461bcd60e51b815260206004820152602060248201527f537472696e67733a20686578206c656e67746820696e73756666696369656e746044820152fd5b9091600f811660108110156115af576f181899199a1a9b1b9c1cb0b131b232b360811b901a611585848661148f565b5360041c91801561159a576000190190611502565b60246000634e487b7160e01b81526011600452fd5b60246000634e487b7160e01b81526032600452fd5b90816020910312610e6357518015158103610e635790565b156115e357565b60405162461bcd60e51b8152602060048201526014602482015273135bd9195b081b9bdd081c9959da5cdd195c995960621b6044820152606490fd5b1561162657565b60405162461bcd60e51b8152602060048201526014602482015273135bd9195b081a5cc819195858dd1a5d985d195960621b6044820152606490fd5b60ff6002541661166e57565b60405162461bcd60e51b815260206004820152601060248201526f14185d5cd8589b194e881c185d5cd95960821b6044820152606490fd5b6002600154146116b7576002600155565b60405162461bcd60e51b815260206004820152601f60248201527f5265656e7472616e637947756172643a207265656e7472616e742063616c6c006044820152606490fd5b356001600160a01b0381168103610e635790565b6040519061171d82610dc6565b600e82526d77616c6c6574206164647265737360901b6020830152565b903590601e1981360301821215610e6357018035906001600160401b038211610e6357602001918136038313610e6357565b600019811461146c5760010190565b91908110156114a05760061b0190565b8051156114a05760200190565b80518210156114a05760209160051b010190565b9190820391821161146c57565b90815180825260208080930193019160005b8281106117d9575050505090565b83516001600160a01b0316855293810193928101926001016117cb565b90815180825260208080930193019160005b828110611816575050505090565b835185529381019392810192600101611808565b9161185390611845610f2195936060865260608601906113c0565b9084820360208601526117b9565b9160408184039101526117f6565b93929161188a9061187c6040936060885260608801906117b9565b9086820360208801526117f6565b930152565b60408051630af34d3160e31b8152600481018390529394919360209360009390916001600160a01b0391907f00000000000000000000000000000000000000000000000000000000000000008316908781602481855afa908115611c25579161190289926024948a91611c0e57506115dc565b8651928380926302855ced60e01b82528c60048301525afa908115611c045790611932918791610c4b575061161f565b61193c8189612d59565b9190986101608501356101808601356119558183612cf6565b611bb157505061196c60c086013589870135612c2b565b996119768a6131cd565b946119818c87612845565b9b8c6119c2575b50505050505050600080516020613339833981519152929350806119ab9161173a565b80925192839283378101600081520390209180a390565b899a8d8b905b878210611b295790506119de92508c91506117ac565b80611afb575b507f000000000000000000000000000000000000000000000000000000000000000016803b15611af7578751631e3b78fb60e31b81529089908290818381611a318b898e6004850161182a565b03925af18015611aed57908b91611aa4575b50916119ab96959391611a979593600080516020613359833981519152611a816000805160206133398339815191529c9d8c51918291898784611861565b0390a2611a91610266888061173a565b94613020565b9084933880808080611988565b91611a97959391600080516020613359833981519152611a816000805160206133398339815191529c611adc6119ab9c9b9997610db3565b9c5050509193955091939596611a43565b88513d8b823e3d90fd5b8880fd5b611b22919a611b1382611b0d8961178b565b51611482565b611b1c8861178b565b52611482565b98386119e4565b82611b35838a8a61177b565b0135611b4091611459565b61271090049c8d80611b52848c611798565b52611b5c91611482565b9c84611b69838a8a61177b565b611b72906116fc565b16908c805191868352858301527f23cb7dc0579e23905f2f88d85bd8fbee2e15f35d236f8b32a54a4ae6e829497391a2611bab9061176c565b8e6119c8565b9450949150507f2ee10088f961cefc50ce125f535f54891ad9bafe2a77646d2d1e5f2057aeddef959850611be691508061173a565b9081855192839283378101898152039020948351928352820152a390565b85513d88823e3d90fd5b6103299150843d8611610300576102f28183610dfc565b86513d89823e3d90fd5b90359060be1981360301821215610e63570190565b908060209392818452848401376000828201840152601f01601f1916010190565b604051630af34d3160e31b8152600481018290529293909260009291906024907f00000000000000000000000000000000000000000000000000000000000000006001600160a01b0316906020818481855afa9081156123285791611cd460209285948991611c0e57506115dc565b604051928380926302855ced60e01b82528a60048301525afa90811561231d5790611d05918691612304575061161f565b6060611d1460a0850185611c2f565b0135156122c0576060611d2a60a0850185611c2f565b01358452600760205260ff60408520541661227257611d49838061173a565b90501561222e57611d6a611d6060a0850185611c2f565b608081019061173a565b9050156121ea576127106020840135116121a7576127106040840135116121595750611d968186612d59565b90916060611da760a0860186611c2f565b01358552600760205260408520805460ff1916600117905560808401356060850135611dd38282612cf6565b612104575050611deb60408501356020860135612c2b565b96611df5876131cd565b93611e008986612845565b9889611f3e575b505050505050611f25816060611e2f60a0600080516020613339833981519152950183611c2f565b0135611e3e60a0830183611c2f565b3590867f302937cfcf4b3e834bb9d5ebae7f74a8640d4e0c646f62af65aaf0ac9136b3246040611e7160a0870187611c2f565b01356020611e8260a0880188611c2f565b013590611f1c8c611e99611d6060a08b018b611c2f565b611ef58b611ec6611ee7611ebd611eb360a0850185611c2f565b60a081019061173a565b9290938061173a565b9690956040519b8c9b8c5260208c01526101008060408d01528b0191611c44565b9188830360608a0152611c44565b9260208c0135608087015260408c013560a087015260c086015284830360e0860152611c44565b0390a48061173a565b908160405192839283378101600081520390209180a390565b87908a895b86811061207b5750611f57915082906117ac565b80612064575b507f00000000000000000000000000000000000000000000000000000000000000006001600160a01b0316803b15611af757604051631e3b78fb60e31b81529089908290818381611fb38c8a8f6004850161182a565b03925af1801561205957908a929161200e575b50926000805160206133398339815191529795926120049592600080516020613359833981519152611a81611f259a97604051918291898784611861565b9138808080611e07565b926120049592600080516020613359833981519152611a81611f259a97949c6120476000805160206133398339815191529d9b98610db3565b9c94979a505050929550929597611fc6565b6040513d8b823e3d90fd5b61207591611b1382611b0d8961178b565b38611f5d565b6120ab61271061209d6120fd946020612095868d8d61177b565b013590611459565b04809581611b1c858d611798565b937f23cb7dc0579e23905f2f88d85bd8fbee2e15f35d236f8b32a54a4ae6e829497360406001600160a01b036120ea6120e5868d8d61177b565b6116fc565b16928151908782526020820152a261176c565b8b90611f43565b92509496505060409150612139837f2ee10088f961cefc50ce125f535f54891ad9bafe2a77646d2d1e5f2057aeddef9461173a565b90818451928392833781018881520390209382519182526020820152a390565b60849060216040519162461bcd60e51b8352602060048401528201527f43616e6469646174652073636f726520657863656564732031303030302062706044820152607360f81b6064820152fd5b60649060206040519162461bcd60e51b83528160048401528201527f426173656c696e652073636f72652065786365656473203130303030206270736044820152fd5b606490601b6040519162461bcd60e51b8352602060048401528201527f4d6574726963206e616d652063616e6e6f7420626520656d70747900000000006044820152fd5b606490601f6040519162461bcd60e51b8352602060048401528201527f506970656c696e652072756e2049442063616e6e6f7420626520656d707479006044820152fd5b60849060216040519162461bcd60e51b8352602060048401528201527f4964656d706f74656e6379206b657920616c72656164792070726f63657373656044820152601960fa1b6064820152fd5b606490601f6040519162461bcd60e51b8352602060048401528201527f4964656d706f74656e6379206b65792063616e6e6f7420626520656d707479006044820152fd5b6102fa915060203d602011610300576102f28183610dfc565b6040513d87823e3d90fd5b6040513d88823e3d90fd5b61234b9060206040519282848094519384920161139d565b810103902090565b906060810180519060009160409081519061236d82610dc6565b601382526123a160209272636f6e7472696275746f72206164647265737360681b8482015260018060a01b0380931661328d565b608086016123af81516132f0565b828701946123bd8651612c3c565b848801936123cb8551612c3c565b60a089019461240586518851906123e182610dc6565b6013825272636f6e74726962757465642073616d706c657360681b858301526132c3565b60c08a019788518751116127cb578a60e0810161242b6101008251930192835190612c7c565b878651168c5260068552898c2054610e1081018091116127b757421061277d575190516124588183612cf6565b612737575050858451168a526006835242888b2055515190515161247b91612c2b565b916124858b6131cd565b928451612493908286612a58565b9b8b5161249f90612333565b908951916000805160206133398339815191528d80a386835116918152888d858301527f23cb7dc0579e23905f2f88d85bd8fbee2e15f35d236f8b32a54a4ae6e829497391a28a6124f8575b5050505050505050505090565b805185167f00000000000000000000000000000000000000000000000000000000000000008616803b15612733578a9182918e8b519485809481936311d68e9f60e11b835260606004840152612551606484018d6113c0565b916024840152604483015203925af180156127295761270c575b509188999189979899935194519651995192519089519361258b85610dc6565b600185528136818701378787166125a18661178b565b528a51966125ae88610dc6565b600188528236818a01378b5185518482019282916125cf81868b8a0161139d565b8201906bffffffffffffffffffffffff199060601b16868201528651906034810182888a01916125fe9261139d565b01036014810182526034016126139082610dfc565b51902061261f8861178b565b528a519861262c8a610dc6565b60018a528236818c013761263f8a61178b565b528a519b61264c8d610dc6565b60018d528236818f013761265f8d61178b565b528a519161266c83610dc6565b6001835236818401378d61267f8361178b565b528a516329a0dd4960e01b81529b8c998a9889976126a09760048a01612f6e565b03927f0000000000000000000000000000000000000000000000000000000000000000165af190811561270357506126e0575b80808080808080806124eb565b6126fb913d8091833e6126f38183610dfc565b810190612ef5565b5038806126d3565b513d84823e3d90fd5b61271d909a9297989991939a610db3565b9796959098913861256b565b88513d8c823e3d90fd5b8a80fd5b96509650505096989790507f2ee10088f961cefc50ce125f535f54891ad9bafe2a77646d2d1e5f2057aeddef9550612770915051612333565b948351928352820152a390565b895162461bcd60e51b815260048101869052601360248201527214985d19481b1a5b5a5d08195e18d959591959606a1b6044820152606490fd5b634e487b7160e01b8d52601160045260248dfd5b875162461bcd60e51b8152600481018490526015602482015274496e76616c696420746f74616c2073616d706c657360581b6044820152606490fd5b600454811061283e57620f42409161282561282a9260035490611459565b611459565b04600554808211612839575090565b905090565b5050600090565b906040805190636204891b60e11b825260208261286d600496838884015260248301906113c0565b6001600160a01b039491839183919003817f000000000000000000000000000000000000000000000000000000000000000088165afa9081156129d357908491600091612a1d575b501680156129de578186918451928380926367f855cb60e11b82525afa9081156129d35790829160009161299a575b5086845180968193634c8bc3e560e01b8352165afa9182156129905750600091612964575b5090508254821061295c5761291d91611459565b90612710918281029281840414901517156129475750620f42409004600554808211612839575090565b601190634e487b7160e01b6000525260246000fd5b505050600090565b82813d8311612989575b6129788183610dfc565b810103126103395750518038612909565b503d61296e565b513d6000823e3d90fd5b909181813d83116129cc575b6129b08183610dfc565b8101031261047b575190848216820361033957508190386128e4565b503d6129a6565b83513d6000823e3d90fd5b825162461bcd60e51b81528087018390526019602482015278151bdad95b881b9bdd08199bdd5b9908199bdc881b5bd9195b603a1b6044820152606490fd5b9091508281813d8311612a51575b612a358183610dfc565b8101031261047b575190848216820361033957508390386128b5565b503d612a2b565b9091604091825190636204891b60e11b825281612a8160209283600484015260248301906113c0565b6001600160a01b039391839183919003817f000000000000000000000000000000000000000000000000000000000000000087165afa908115612ba557908391600091612bf0575b50168015612bb057816004918651928380926367f855cb60e11b82525afa908115612ba557908291600091612b6c575b506004865180958193634c8bc3e560e01b8352165afa9384156129905750600093612b3b575b5050600454831061295c5761282561282a92620f424094611459565b8181949293943d8311612b65575b612b538183610dfc565b81010312610339575051903880612b1f565b503d612b49565b909181813d8311612b9e575b612b828183610dfc565b8101031261047b57519083821682036103395750819038612af9565b503d612b78565b85513d6000823e3d90fd5b845162461bcd60e51b8152600481018390526019602482015278151bdad95b881b9bdd08199bdd5b9908199bdc881b5bd9195b603a1b6044820152606490fd5b9091508281813d8311612c24575b612c088183610dfc565b8101031261047b57519083821682036103395750829038612ac9565b503d612bfe565b8082111561283e57610f21916117ac565b6080612c7a91612c4c81516132f0565b612c5960208201516132f0565b612c6660408201516132f0565b612c7360608201516132f0565b01516132f0565b565b9081158015612cee575b612cea57612cbc612c7a9260405190612c9e82610dc6565b600c82526b1b585e0818dbdcdd081d5cd960a21b60208301526132c3565b60405190612cc982610dc6565b600f82526e1858dd1d585b0818dbdcdd081d5cd9608a1b60208301526132c3565b5050565b508015612c86565b9081158015612d08575b61283e571190565b508015612d00565b6001600160401b038111610d825760051b60200190565b90612d3182612d10565b612d3e6040519182610dfc565b8281528092612d4f601f1991612d10565b0190602036910137565b918115612ee3576064808311612ec55760009392612d7681612d27565b94612d8082612d27565b9481925b808410612ddc575050612710915003612d9a5750565b60405162461bcd60e51b815260206004820152601860248201527f57656967687473206d7573742073756d20746f203130302500000000000000006044820152fd5b9091612def6102366120e586858761177b565b60005b848110612e495750612e3b612e4191612e0f6120e587868861177b565b612e19878c611798565b6001600160a01b0390911690526020612e3387868861177b565b013590611482565b9361176c565b929190612d84565b612e576120e586858761177b565b6001600160a01b0380612e6a848d611798565b5116911614612e8157612e7c9061176c565b612df2565b60405162461bcd60e51b815260206004820152601d60248201527f4475706c696361746520636f6e7472696275746f72206164647265737300000060448201528690fd5b82604491604051916342b154e560e01b835260048301526024820152fd5b604051633c4d929d60e21b8152600490fd5b6020908181840312610e63578051906001600160401b038211610e6357019180601f84011215610e63578251612f2a81612d10565b93612f386040519586610dfc565b818552838086019260051b820101928311610e63578301905b828210612f5f575050505090565b81518152908301908301612f51565b96939190612f8d612f9c919a999796949a610100808b528a01906113c0565b602092898203848b01526117b9565b878103604089015281808b5192838152019a019160005b82811061300c5750505050612ffe939291612fdd89612feb9389610f219b9c0360608b01526117f6565b9087820360808901526117f6565b9160a086015284820360c08601526117f6565b9160e08184039101526113c0565b83518c529a81019a92810192600101612fb3565b9593949291906130308151612d27565b61303a8251612d27565b976130458351612d27565b92600097885b82518a10156131405761305e8a84611798565b51848b6130c560548d604051809460209788613083818501998a81519384920161139d565b8301906bffffffffffffffffffffffff199060601b16898201528351906130b2826034968c888501910161139d565b0190838201520390810184520182610dfc565b5190206130d28c88611798565b52806130df8c8b8b61177b565b01356130eb8c89611798565b526130f78b8a8a61177b565b01356103e89081810291818304149015171561146c5761313a9161312d8c8f606461313495046131278383611798565b52611798565b5190611482565b9961176c565b9861304b565b929650999096936000985061316e9550989298604051998a9889986329a0dd4960e01b8a5260048a01612f6e565b0381837f00000000000000000000000000000000000000000000000000000000000000006001600160a01b03165af180156131c1576131aa5750565b6131be903d806000833e6126f38183610dfc565b50565b6040513d6000823e3d90fd5b801561326f5780816000925b61325957506131e782610eb4565b916131f56040519384610dfc565b80835281601f1961320583610eb4565b013660208601375b61321657505090565b600019810190811161146c578091600a916030838306810180911161146c5760f81b6001600160f81b03191660001a90613250908661148f565b5304908161320d565b9091613266600a9161176c565b929104806131d9565b5060405161327c81610dc6565b60018152600360fc1b602082015290565b6001600160a01b03161561329e5750565b60405163eac0d38960e01b8152602060048201529081906110a79060248301906113c0565b156132cb5750565b60405163589956a560e11b8152602060048201529081906110a79060248301906113c0565b612710106132fa57565b60405163589956a560e11b815260206004820152601560248201527476616c75652065786365656473206d6178696d756d60581b6044820152606490fdfe0c40893bf3c4e890eb5c92353d4cea2a7f4e1e60667d2e04ce77813b07f64ee4379eb16b5a0469dd3188be06c54cea67019459aea34bb7222bac67a2ddf15e29a26469706673582212200a9035caa057080e194ed9b03c525baebc8b78b9ffbdd7bd7cef94ad94473c1064736f6c634300081400332f8788117e7eff1d82e926ec794901d17c78024a50270940304540a733656f0d",
  "linkReferences": {},
  "deployedLinkReferences": {}
}