{
  "_format": "hh-sol-artifact-1",
  "contractName": "DeltaVerifier",
  "sourceName": "contracts/DeltaVerifier.sol",
  "abi": [
    {
      "inputs": [
        {
          "internalType": "address",
          "name": "_modelRegistry",
          "type": "address"
        },
        {
          "internalType": "address payable",
          "name": "_tokenManager",
          "type": "address"
        },
        {
          "internalType": "address",
          "name": "_contributionRegistry",
          "type": "address"
        },
        {
          "internalType": "uint256",
          "name": "_baseRewardRate",
          "type": "uint256"
        },
        {
          "internalType": "uint256",
          "name": "_minImprovementBps",
          "type": "uint256"
        },
        {
          "internalType": "uint256",
          "name": "_maxReward",
          "type": "uint256"
        }
      ],
      "stateMutability": "nonpayable",
      "type": "constructor"
    },
    {
      "inputs": [],
      "name": "ArrayEmpty",
      "type": "error"
    },
    {
      "inputs": [
        {
          "internalType": "uint256",
          "name": "length",
          "type": "uint256"
        },
        {
          "internalType": "uint256",
          "name": "maxLength",
          "type": "uint256"
        }
      ],
      "name": "ArrayTooLarge",
      "type": "error"
    },
    {
      "inputs": [],
      "name": "AttestationThresholdNotConfigured",
      "type": "error"
    },
    {
      "inputs": [
        {
          "internalType": "address",
          "name": "attester",
          "type": "address"
        }
      ],
      "name": "AttesterAlreadyRegistered",
      "type": "error"
    },
    {
      "inputs": [
        {
          "internalType": "address",
          "name": "attester",
          "type": "address"
        }
      ],
      "name": "AttesterNotRegistered",
      "type": "error"
    },
    {
      "inputs": [
        {
          "internalType": "uint256",
          "name": "newAttesterCount",
          "type": "uint256"
        },
        {
          "internalType": "uint256",
          "name": "threshold",
          "type": "uint256"
        }
      ],
      "name": "AttesterThresholdWouldBeUnmet",
      "type": "error"
    },
    {
      "inputs": [
        {
          "internalType": "uint256",
          "name": "provided",
          "type": "uint256"
        },
        {
          "internalType": "uint256",
          "name": "required",
          "type": "uint256"
        }
      ],
      "name": "InsufficientAttesterSignatures",
      "type": "error"
    },
    {
      "inputs": [
        {
          "internalType": "string",
          "name": "context",
          "type": "string"
        }
      ],
      "name": "InvalidAmount",
      "type": "error"
    },
    {
      "inputs": [
        {
          "internalType": "uint256",
          "name": "threshold",
          "type": "uint256"
        },
        {
          "internalType": "uint256",
          "name": "attesterCount",
          "type": "uint256"
        }
      ],
      "name": "InvalidAttesterThreshold",
      "type": "error"
    },
    {
      "inputs": [],
      "name": "InvalidCandidateCommitment",
      "type": "error"
    },
    {
      "inputs": [],
      "name": "InvalidHeadReset",
      "type": "error"
    },
    {
      "inputs": [],
      "name": "InvalidShortString",
      "type": "error"
    },
    {
      "inputs": [],
      "name": "LegacyMintEntrypointDisabled",
      "type": "error"
    },
    {
      "inputs": [
        {
          "internalType": "uint256",
          "name": "modelId",
          "type": "uint256"
        }
      ],
      "name": "LineageNotSeeded",
      "type": "error"
    },
    {
      "inputs": [
        {
          "internalType": "uint256",
          "name": "modelId",
          "type": "uint256"
        },
        {
          "internalType": "bytes32",
          "name": "expectedHead",
          "type": "bytes32"
        },
        {
          "internalType": "bytes32",
          "name": "providedBaseline",
          "type": "bytes32"
        }
      ],
      "name": "LineageParentMismatch",
      "type": "error"
    },
    {
      "inputs": [
        {
          "internalType": "uint256",
          "name": "modelId",
          "type": "uint256"
        },
        {
          "internalType": "uint256",
          "name": "required",
          "type": "uint256"
        },
        {
          "internalType": "uint256",
          "name": "remaining",
          "type": "uint256"
        }
      ],
      "name": "MintBudgetExceeded",
      "type": "error"
    },
    {
      "inputs": [
        {
          "internalType": "uint256",
          "name": "modelId",
          "type": "uint256"
        },
        {
          "internalType": "address",
          "name": "registryToken",
          "type": "address"
        },
        {
          "internalType": "address",
          "name": "tokenManagerToken",
          "type": "address"
        }
      ],
      "name": "ModelTokenMismatch",
      "type": "error"
    },
    {
      "inputs": [
        {
          "internalType": "uint256",
          "name": "deadline",
          "type": "uint256"
        },
        {
          "internalType": "uint256",
          "name": "currentTimestamp",
          "type": "uint256"
        }
      ],
      "name": "SignatureExpired",
      "type": "error"
    },
    {
      "inputs": [
        {
          "internalType": "address",
          "name": "signer",
          "type": "address"
        }
      ],
      "name": "SignerNotAttester",
      "type": "error"
    },
    {
      "inputs": [
        {
          "internalType": "string",
          "name": "str",
          "type": "string"
        }
      ],
      "name": "StringTooLong",
      "type": "error"
    },
    {
      "inputs": [
        {
          "internalType": "address",
          "name": "signer",
          "type": "address"
        }
      ],
      "name": "UnorderedOrDuplicateAttesters",
      "type": "error"
    },
    {
      "inputs": [
        {
          "internalType": "string",
          "name": "context",
          "type": "string"
        }
      ],
      "name": "ZeroAddress",
      "type": "error"
    },
    {
      "inputs": [],
      "name": "ZeroAttester",
      "type": "error"
    },
    {
      "anonymous": false,
      "inputs": [
        {
          "indexed": true,
          "internalType": "address",
          "name": "attester",
          "type": "address"
        },
        {
          "indexed": false,
          "internalType": "uint256",
          "name": "attesterCount",
          "type": "uint256"
        }
      ],
      "name": "AttesterAdded",
      "type": "event"
    },
    {
      "anonymous": false,
      "inputs": [
        {
          "indexed": true,
          "internalType": "address",
          "name": "attester",
          "type": "address"
        },
        {
          "indexed": false,
          "internalType": "uint256",
          "name": "attesterCount",
          "type": "uint256"
        }
      ],
      "name": "AttesterRemoved",
      "type": "event"
    },
    {
      "anonymous": false,
      "inputs": [
        {
          "indexed": false,
          "internalType": "uint256",
          "name": "threshold",
          "type": "uint256"
        }
      ],
      "name": "AttesterThresholdUpdated",
      "type": "event"
    },
    {
      "anonymous": false,
      "inputs": [
        {
          "indexed": true,
          "internalType": "uint256",
          "name": "modelId",
          "type": "uint256"
        },
        {
          "indexed": false,
          "internalType": "address[]",
          "name": "contributors",
          "type": "address[]"
        },
        {
          "indexed": false,
          "internalType": "uint256[]",
          "name": "amounts",
          "type": "uint256[]"
        },
        {
          "indexed": false,
          "internalType": "uint256",
          "name": "totalAmount",
          "type": "uint256"
        }
      ],
      "name": "BatchRewardsDistributed",
      "type": "event"
    },
    {
      "anonymous": false,
      "inputs": [
        {
          "indexed": true,
          "internalType": "string",
          "name": "pipelineRunId",
          "type": "string"
        },
        {
          "indexed": true,
          "internalType": "uint256",
          "name": "modelId",
          "type": "uint256"
        },
        {
          "indexed": false,
          "internalType": "uint256",
          "name": "maxCostUsd",
          "type": "uint256"
        },
        {
          "indexed": false,
          "internalType": "uint256",
          "name": "actualCostUsd",
          "type": "uint256"
        }
      ],
      "name": "BudgetConstraintViolated",
      "type": "event"
    },
    {
      "anonymous": false,
      "inputs": [
        {
          "indexed": true,
          "internalType": "uint256",
          "name": "modelId",
          "type": "uint256"
        },
        {
          "indexed": true,
          "internalType": "bytes32",
          "name": "idempotencyKey",
          "type": "bytes32"
        },
        {
          "indexed": true,
          "internalType": "bytes32",
          "name": "benchmarkSpecHash",
          "type": "bytes32"
        },
        {
          "indexed": false,
          "internalType": "bytes32",
          "name": "attestationHash",
          "type": "bytes32"
        },
        {
          "indexed": false,
          "internalType": "bytes32",
          "name": "datasetHash",
          "type": "bytes32"
        },
        {
          "indexed": false,
          "internalType": "string",
          "name": "metricName",
          "type": "string"
        },
        {
          "indexed": false,
          "internalType": "string",
          "name": "metricFamily",
          "type": "string"
        },
        {
          "indexed": false,
          "internalType": "uint256",
          "name": "baselineScoreBps",
          "type": "uint256"
        },
        {
          "indexed": false,
          "internalType": "uint256",
          "name": "candidateScoreBps",
          "type": "uint256"
        },
        {
          "indexed": false,
          "internalType": "uint256",
          "name": "rewardAmount",
          "type": "uint256"
        },
        {
          "indexed": false,
          "internalType": "string",
          "name": "pipelineRunId",
          "type": "string"
        }
      ],
      "name": "DeltaOneAccepted",
      "type": "event"
    },
    {
      "anonymous": false,
      "inputs": [],
      "name": "EIP712DomainChanged",
      "type": "event"
    },
    {
      "anonymous": false,
      "inputs": [
        {
          "indexed": true,
          "internalType": "string",
          "name": "pipelineRunId",
          "type": "string"
        },
        {
          "indexed": true,
          "internalType": "uint256",
          "name": "modelId",
          "type": "uint256"
        }
      ],
      "name": "EvaluationSubmitted",
      "type": "event"
    },
    {
      "anonymous": false,
      "inputs": [
        {
          "indexed": true,
          "internalType": "address",
          "name": "by",
          "type": "address"
        }
      ],
      "name": "LegacyMintsDisabled",
      "type": "event"
    },
    {
      "anonymous": false,
      "inputs": [
        {
          "indexed": true,
          "internalType": "uint256",
          "name": "modelId",
          "type": "uint256"
        },
        {
          "indexed": false,
          "internalType": "uint256",
          "name": "amount",
          "type": "uint256"
        },
        {
          "indexed": false,
          "internalType": "uint256",
          "name": "remaining",
          "type": "uint256"
        }
      ],
      "name": "MintBudgetConsumed",
      "type": "event"
    },
    {
      "anonymous": false,
      "inputs": [
        {
          "indexed": true,
          "internalType": "uint256",
          "name": "modelId",
          "type": "uint256"
        },
        {
          "indexed": false,
          "internalType": "uint256",
          "name": "previousRemaining",
          "type": "uint256"
        },
        {
          "indexed": false,
          "internalType": "uint256",
          "name": "newRemaining",
          "type": "uint256"
        }
      ],
      "name": "MintBudgetSet",
      "type": "event"
    },
    {
      "anonymous": false,
      "inputs": [
        {
          "indexed": true,
          "internalType": "uint256",
          "name": "modelId",
          "type": "uint256"
        },
        {
          "indexed": false,
          "internalType": "uint256",
          "name": "addedAmount",
          "type": "uint256"
        },
        {
          "indexed": false,
          "internalType": "uint256",
          "name": "newRemaining",
          "type": "uint256"
        }
      ],
      "name": "MintBudgetToppedUp",
      "type": "event"
    },
    {
      "anonymous": false,
      "inputs": [
        {
          "indexed": true,
          "internalType": "uint256",
          "name": "modelId",
          "type": "uint256"
        },
        {
          "indexed": false,
          "internalType": "bytes32",
          "name": "parent",
          "type": "bytes32"
        },
        {
          "indexed": false,
          "internalType": "bytes32",
          "name": "child",
          "type": "bytes32"
        }
      ],
      "name": "ModelLineageAdvanced",
      "type": "event"
    },
    {
      "anonymous": false,
      "inputs": [
        {
          "indexed": true,
          "internalType": "uint256",
          "name": "modelId",
          "type": "uint256"
        },
        {
          "indexed": false,
          "internalType": "bytes32",
          "name": "oldHead",
          "type": "bytes32"
        },
        {
          "indexed": false,
          "internalType": "bytes32",
          "name": "newHead",
          "type": "bytes32"
        }
      ],
      "name": "ModelLineageHeadReset",
      "type": "event"
    },
    {
      "anonymous": false,
      "inputs": [
        {
          "indexed": false,
          "internalType": "address",
          "name": "account",
          "type": "address"
        }
      ],
      "name": "Paused",
      "type": "event"
    },
    {
      "anonymous": false,
      "inputs": [
        {
          "indexed": true,
          "internalType": "address",
          "name": "contributor",
          "type": "address"
        },
        {
          "indexed": false,
          "internalType": "uint256",
          "name": "deltaInBps",
          "type": "uint256"
        },
        {
          "indexed": false,
          "internalType": "uint256",
          "name": "rewardAmount",
          "type": "uint256"
        }
      ],
      "name": "RewardCalculated",
      "type": "event"
    },
    {
      "anonymous": false,
      "inputs": [
        {
          "indexed": false,
          "internalType": "uint256",
          "name": "baseRewardRate",
          "type": "uint256"
        },
        {
          "indexed": false,
          "internalType": "uint256",
          "name": "minImprovementBps",
          "type": "uint256"
        },
        {
          "indexed": false,
          "internalType": "uint256",
          "name": "maxReward",
          "type": "uint256"
        }
      ],
      "name": "RewardParametersUpdated",
      "type": "event"
    },
    {
      "anonymous": false,
      "inputs": [
        {
          "indexed": true,
          "internalType": "bytes32",
          "name": "role",
          "type": "bytes32"
        },
        {
          "indexed": true,
          "internalType": "bytes32",
          "name": "previousAdminRole",
          "type": "bytes32"
        },
        {
          "indexed": true,
          "internalType": "bytes32",
          "name": "newAdminRole",
          "type": "bytes32"
        }
      ],
      "name": "RoleAdminChanged",
      "type": "event"
    },
    {
      "anonymous": false,
      "inputs": [
        {
          "indexed": true,
          "internalType": "bytes32",
          "name": "role",
          "type": "bytes32"
        },
        {
          "indexed": true,
          "internalType": "address",
          "name": "account",
          "type": "address"
        },
        {
          "indexed": true,
          "internalType": "address",
          "name": "sender",
          "type": "address"
        }
      ],
      "name": "RoleGranted",
      "type": "event"
    },
    {
      "anonymous": false,
      "inputs": [
        {
          "indexed": true,
          "internalType": "bytes32",
          "name": "role",
          "type": "bytes32"
        },
        {
          "indexed": true,
          "internalType": "address",
          "name": "account",
          "type": "address"
        },
        {
          "indexed": true,
          "internalType": "address",
          "name": "sender",
          "type": "address"
        }
      ],
      "name": "RoleRevoked",
      "type": "event"
    },
    {
      "anonymous": false,
      "inputs": [
        {
          "indexed": false,
          "internalType": "address",
          "name": "account",
          "type": "address"
        }
      ],
      "name": "Unpaused",
      "type": "event"
    },
    {
      "inputs": [],
      "name": "DEFAULT_ADMIN_ROLE",
      "outputs": [
        {
          "internalType": "bytes32",
          "name": "",
          "type": "bytes32"
        }
      ],
      "stateMutability": "view",
      "type": "function"
    },
    {
      "inputs": [],
      "name": "PAUSER_ROLE",
      "outputs": [
        {
          "internalType": "bytes32",
          "name": "",
          "type": "bytes32"
        }
      ],
      "stateMutability": "view",
      "type": "function"
    },
    {
      "inputs": [],
      "name": "SUBMITTER_ROLE",
      "outputs": [
        {
          "internalType": "bytes32",
          "name": "",
          "type": "bytes32"
        }
      ],
      "stateMutability": "view",
      "type": "function"
    },
    {
      "inputs": [
        {
          "internalType": "address",
          "name": "attester",
          "type": "address"
        }
      ],
      "name": "addAttester",
      "outputs": [],
      "stateMutability": "nonpayable",
      "type": "function"
    },
    {
      "inputs": [],
      "name": "attesterCount",
      "outputs": [
        {
          "internalType": "uint256",
          "name": "",
          "type": "uint256"
        }
      ],
      "stateMutability": "view",
      "type": "function"
    },
    {
      "inputs": [],
      "name": "attesterThreshold",
      "outputs": [
        {
          "internalType": "uint256",
          "name": "",
          "type": "uint256"
        }
      ],
      "stateMutability": "view",
      "type": "function"
    },
    {
      "inputs": [],
      "name": "baseRewardRate",
      "outputs": [
        {
          "internalType": "uint256",
          "name": "",
          "type": "uint256"
        }
      ],
      "stateMutability": "view",
      "type": "function"
    },
    {
      "inputs": [
        {
          "internalType": "uint256",
          "name": "",
          "type": "uint256"
        },
        {
          "components": [
            {
              "internalType": "uint256",
              "name": "accuracy",
              "type": "uint256"
            },
            {
              "internalType": "uint256",
              "name": "precision",
              "type": "uint256"
            },
            {
              "internalType": "uint256",
              "name": "recall",
              "type": "uint256"
            },
            {
              "internalType": "uint256",
              "name": "f1",
              "type": "uint256"
            },
            {
              "internalType": "uint256",
              "name": "auroc",
              "type": "uint256"
            }
          ],
          "internalType": "struct DeltaVerifier.Metrics",
          "name": "baseline",
          "type": "tuple"
        },
        {
          "components": [
            {
              "internalType": "uint256",
              "name": "accuracy",
              "type": "uint256"
            },
            {
              "internalType": "uint256",
              "name": "precision",
              "type": "uint256"
            },
            {
              "internalType": "uint256",
              "name": "recall",
              "type": "uint256"
            },
            {
              "internalType": "uint256",
              "name": "f1",
              "type": "uint256"
            },
            {
              "internalType": "uint256",
              "name": "auroc",
              "type": "uint256"
            }
          ],
          "internalType": "struct DeltaVerifier.Metrics",
          "name": "newMetrics",
          "type": "tuple"
        }
      ],
      "name": "calculateDeltaOneForModel",
      "outputs": [
        {
          "internalType": "uint256",
          "name": "",
          "type": "uint256"
        }
      ],
      "stateMutability": "pure",
      "type": "function"
    },
    {
      "inputs": [
        {
          "internalType": "uint256",
          "name": "deltaInBps",
          "type": "uint256"
        },
        {
          "internalType": "uint256",
          "name": "contributorWeight",
          "type": "uint256"
        },
        {
          "internalType": "uint256",
          "name": "",
          "type": "uint256"
        }
      ],
      "name": "calculateReward",
      "outputs": [
        {
          "internalType": "uint256",
          "name": "",
          "type": "uint256"
        }
      ],
      "stateMutability": "view",
      "type": "function"
    },
    {
      "inputs": [
        {
          "internalType": "string",
          "name": "modelId",
          "type": "string"
        },
        {
          "internalType": "uint256",
          "name": "deltaInBps",
          "type": "uint256"
        },
        {
          "internalType": "uint256",
          "name": "contributorWeight",
          "type": "uint256"
        },
        {
          "internalType": "uint256",
          "name": "",
          "type": "uint256"
        }
      ],
      "name": "calculateRewardDynamic",
      "outputs": [
        {
          "internalType": "uint256",
          "name": "",
          "type": "uint256"
        }
      ],
      "stateMutability": "view",
      "type": "function"
    },
    {
      "inputs": [],
      "name": "contributionRegistry",
      "outputs": [
        {
          "internalType": "contract IDataContributionRegistry",
          "name": "",
          "type": "address"
        }
      ],
      "stateMutability": "view",
      "type": "function"
    },
    {
      "inputs": [
        {
          "internalType": "uint256",
          "name": "modelId",
          "type": "uint256"
        }
      ],
      "name": "currentModelHead",
      "outputs": [
        {
          "internalType": "bytes32",
          "name": "",
          "type": "bytes32"
        }
      ],
      "stateMutability": "view",
      "type": "function"
    },
    {
      "inputs": [],
      "name": "disableLegacyMints",
      "outputs": [],
      "stateMutability": "nonpayable",
      "type": "function"
    },
    {
      "inputs": [],
      "name": "eip712Domain",
      "outputs": [
        {
          "internalType": "bytes1",
          "name": "fields",
          "type": "bytes1"
        },
        {
          "internalType": "string",
          "name": "name",
          "type": "string"
        },
        {
          "internalType": "string",
          "name": "version",
          "type": "string"
        },
        {
          "internalType": "uint256",
          "name": "chainId",
          "type": "uint256"
        },
        {
          "internalType": "address",
          "name": "verifyingContract",
          "type": "address"
        },
        {
          "internalType": "bytes32",
          "name": "salt",
          "type": "bytes32"
        },
        {
          "internalType": "uint256[]",
          "name": "extensions",
          "type": "uint256[]"
        }
      ],
      "stateMutability": "view",
      "type": "function"
    },
    {
      "inputs": [
        {
          "internalType": "bytes32",
          "name": "role",
          "type": "bytes32"
        }
      ],
      "name": "getRoleAdmin",
      "outputs": [
        {
          "internalType": "bytes32",
          "name": "",
          "type": "bytes32"
        }
      ],
      "stateMutability": "view",
      "type": "function"
    },
    {
      "inputs": [
        {
          "internalType": "bytes32",
          "name": "role",
          "type": "bytes32"
        },
        {
          "internalType": "address",
          "name": "account",
          "type": "address"
        }
      ],
      "name": "grantRole",
      "outputs": [],
      "stateMutability": "nonpayable",
      "type": "function"
    },
    {
      "inputs": [
        {
          "internalType": "bytes32",
          "name": "role",
          "type": "bytes32"
        },
        {
          "internalType": "address",
          "name": "account",
          "type": "address"
        }
      ],
      "name": "hasRole",
      "outputs": [
        {
          "internalType": "bool",
          "name": "",
          "type": "bool"
        }
      ],
      "stateMutability": "view",
      "type": "function"
    },
    {
      "inputs": [
        {
          "internalType": "uint256",
          "name": "modelId",
          "type": "uint256"
        },
        {
          "components": [
            {
              "internalType": "string",
              "name": "pipelineRunId",
              "type": "string"
            },
            {
              "internalType": "uint256",
              "name": "baselineScoreBps",
              "type": "uint256"
            },
            {
              "internalType": "uint256",
              "name": "candidateScoreBps",
              "type": "uint256"
            },
            {
              "internalType": "uint256",
              "name": "maxCostUsdMicro",
              "type": "uint256"
            },
            {
              "internalType": "uint256",
              "name": "actualCostUsdMicro",
              "type": "uint256"
            },
            {
              "internalType": "uint256",
              "name": "totalSamples",
              "type": "uint256"
            },
            {
              "components": [
                {
                  "internalType": "bytes32",
                  "name": "benchmarkSpecHash",
                  "type": "bytes32"
                },
                {
                  "internalType": "bytes32",
                  "name": "datasetHash",
                  "type": "bytes32"
                },
                {
                  "internalType": "bytes32",
                  "name": "attestationHash",
                  "type": "bytes32"
                },
                {
                  "internalType": "bytes32",
                  "name": "idempotencyKey",
                  "type": "bytes32"
                },
                {
                  "internalType": "string",
                  "name": "metricName",
                  "type": "string"
                },
                {
                  "internalType": "string",
                  "name": "metricFamily",
                  "type": "string"
                }
              ],
              "internalType": "struct DeltaVerifier.BenchmarkAnchors",
              "name": "anchors",
              "type": "tuple"
            },
            {
              "internalType": "bytes32",
              "name": "baselineCommitment",
              "type": "bytes32"
            },
            {
              "internalType": "bytes32",
              "name": "candidateCommitment",
              "type": "bytes32"
            },
            {
              "internalType": "uint256",
              "name": "deadline",
              "type": "uint256"
            }
          ],
          "internalType": "struct DeltaVerifier.MintRequestPayload",
          "name": "payload",
          "type": "tuple"
        },
        {
          "components": [
            {
              "internalType": "address",
              "name": "walletAddress",
              "type": "address"
            },
            {
              "internalType": "uint256",
              "name": "weight",
              "type": "uint256"
            }
          ],
          "internalType": "struct DeltaVerifier.Contributor[]",
          "name": "contributors",
          "type": "tuple[]"
        }
      ],
      "name": "hashMintRequest",
      "outputs": [
        {
          "internalType": "bytes32",
          "name": "",
          "type": "bytes32"
        }
      ],
      "stateMutability": "view",
      "type": "function"
    },
    {
      "inputs": [
        {
          "internalType": "address",
          "name": "",
          "type": "address"
        }
      ],
      "name": "isAttester",
      "outputs": [
        {
          "internalType": "bool",
          "name": "",
          "type": "bool"
        }
      ],
      "stateMutability": "view",
      "type": "function"
    },
    {
      "inputs": [],
      "name": "legacyMintsDisabled",
      "outputs": [
        {
          "internalType": "bool",
          "name": "",
          "type": "bool"
        }
      ],
      "stateMutability": "view",
      "type": "function"
    },
    {
      "inputs": [],
      "name": "maxReward",
      "outputs": [
        {
          "internalType": "uint256",
          "name": "",
          "type": "uint256"
        }
      ],
      "stateMutability": "view",
      "type": "function"
    },
    {
      "inputs": [],
      "name": "minImprovementBps",
      "outputs": [
        {
          "internalType": "uint256",
          "name": "",
          "type": "uint256"
        }
      ],
      "stateMutability": "view",
      "type": "function"
    },
    {
      "inputs": [
        {
          "internalType": "uint256",
          "name": "",
          "type": "uint256"
        }
      ],
      "name": "mintBudgetRemaining",
      "outputs": [
        {
          "internalType": "uint256",
          "name": "",
          "type": "uint256"
        }
      ],
      "stateMutability": "view",
      "type": "function"
    },
    {
      "inputs": [],
      "name": "modelRegistry",
      "outputs": [
        {
          "internalType": "contract ModelRegistry",
          "name": "",
          "type": "address"
        }
      ],
      "stateMutability": "view",
      "type": "function"
    },
    {
      "inputs": [
        {
          "internalType": "uint256",
          "name": "",
          "type": "uint256"
        }
      ],
      "name": "modelWeightHead",
      "outputs": [
        {
          "internalType": "bytes32",
          "name": "",
          "type": "bytes32"
        }
      ],
      "stateMutability": "view",
      "type": "function"
    },
    {
      "inputs": [],
      "name": "pause",
      "outputs": [],
      "stateMutability": "nonpayable",
      "type": "function"
    },
    {
      "inputs": [],
      "name": "paused",
      "outputs": [
        {
          "internalType": "bool",
          "name": "",
          "type": "bool"
        }
      ],
      "stateMutability": "view",
      "type": "function"
    },
    {
      "inputs": [
        {
          "internalType": "bytes32",
          "name": "",
          "type": "bytes32"
        }
      ],
      "name": "processedIdempotencyKeys",
      "outputs": [
        {
          "internalType": "bool",
          "name": "",
          "type": "bool"
        }
      ],
      "stateMutability": "view",
      "type": "function"
    },
    {
      "inputs": [
        {
          "internalType": "address",
          "name": "attester",
          "type": "address"
        }
      ],
      "name": "removeAttester",
      "outputs": [],
      "stateMutability": "nonpayable",
      "type": "function"
    },
    {
      "inputs": [
        {
          "internalType": "bytes32",
          "name": "role",
          "type": "bytes32"
        },
        {
          "internalType": "address",
          "name": "account",
          "type": "address"
        }
      ],
      "name": "renounceRole",
      "outputs": [],
      "stateMutability": "nonpayable",
      "type": "function"
    },
    {
      "inputs": [
        {
          "internalType": "uint256",
          "name": "modelId",
          "type": "uint256"
        },
        {
          "internalType": "bytes32",
          "name": "newHead",
          "type": "bytes32"
        }
      ],
      "name": "resetModelHead",
      "outputs": [],
      "stateMutability": "nonpayable",
      "type": "function"
    },
    {
      "inputs": [
        {
          "internalType": "bytes32",
          "name": "role",
          "type": "bytes32"
        },
        {
          "internalType": "address",
          "name": "account",
          "type": "address"
        }
      ],
      "name": "revokeRole",
      "outputs": [],
      "stateMutability": "nonpayable",
      "type": "function"
    },
    {
      "inputs": [
        {
          "internalType": "uint256",
          "name": "threshold",
          "type": "uint256"
        }
      ],
      "name": "setAttesterThreshold",
      "outputs": [],
      "stateMutability": "nonpayable",
      "type": "function"
    },
    {
      "inputs": [
        {
          "internalType": "uint256",
          "name": "_baseRewardRate",
          "type": "uint256"
        }
      ],
      "name": "setBaseRewardRate",
      "outputs": [],
      "stateMutability": "nonpayable",
      "type": "function"
    },
    {
      "inputs": [
        {
          "internalType": "uint256",
          "name": "_maxReward",
          "type": "uint256"
        }
      ],
      "name": "setMaxReward",
      "outputs": [],
      "stateMutability": "nonpayable",
      "type": "function"
    },
    {
      "inputs": [
        {
          "internalType": "uint256",
          "name": "_minImprovementBps",
          "type": "uint256"
        }
      ],
      "name": "setMinImprovementBps",
      "outputs": [],
      "stateMutability": "nonpayable",
      "type": "function"
    },
    {
      "inputs": [
        {
          "internalType": "uint256",
          "name": "modelId",
          "type": "uint256"
        },
        {
          "internalType": "uint256",
          "name": "amount",
          "type": "uint256"
        }
      ],
      "name": "setMintBudget",
      "outputs": [],
      "stateMutability": "nonpayable",
      "type": "function"
    },
    {
      "inputs": [
        {
          "internalType": "uint256",
          "name": "modelId",
          "type": "uint256"
        },
        {
          "components": [
            {
              "internalType": "string",
              "name": "pipelineRunId",
              "type": "string"
            },
            {
              "components": [
                {
                  "internalType": "uint256",
                  "name": "accuracy",
                  "type": "uint256"
                },
                {
                  "internalType": "uint256",
                  "name": "precision",
                  "type": "uint256"
                },
                {
                  "internalType": "uint256",
                  "name": "recall",
                  "type": "uint256"
                },
                {
                  "internalType": "uint256",
                  "name": "f1",
                  "type": "uint256"
                },
                {
                  "internalType": "uint256",
                  "name": "auroc",
                  "type": "uint256"
                }
              ],
              "internalType": "struct DeltaVerifier.Metrics",
              "name": "baselineMetrics",
              "type": "tuple"
            },
            {
              "components": [
                {
                  "internalType": "uint256",
                  "name": "accuracy",
                  "type": "uint256"
                },
                {
                  "internalType": "uint256",
                  "name": "precision",
                  "type": "uint256"
                },
                {
                  "internalType": "uint256",
                  "name": "recall",
                  "type": "uint256"
                },
                {
                  "internalType": "uint256",
                  "name": "f1",
                  "type": "uint256"
                },
                {
                  "internalType": "uint256",
                  "name": "auroc",
                  "type": "uint256"
                }
              ],
              "internalType": "struct DeltaVerifier.Metrics",
              "name": "newMetrics",
              "type": "tuple"
            },
            {
              "internalType": "address",
              "name": "contributor",
              "type": "address"
            },
            {
              "internalType": "uint256",
              "name": "contributorWeight",
              "type": "uint256"
            },
            {
              "internalType": "uint256",
              "name": "contributedSamples",
              "type": "uint256"
            },
            {
              "internalType": "uint256",
              "name": "totalSamples",
              "type": "uint256"
            },
            {
              "internalType": "uint256",
              "name": "maxCostUsd",
              "type": "uint256"
            },
            {
              "internalType": "uint256",
              "name": "actualCostUsd",
              "type": "uint256"
            }
          ],
          "internalType": "struct DeltaVerifier.EvaluationData",
          "name": "data",
          "type": "tuple"
        }
      ],
      "name": "submitEvaluation",
      "outputs": [
        {
          "internalType": "uint256",
          "name": "",
          "type": "uint256"
        }
      ],
      "stateMutability": "nonpayable",
      "type": "function"
    },
    {
      "inputs": [
        {
          "internalType": "uint256",
          "name": "modelId",
          "type": "uint256"
        },
        {
          "components": [
            {
              "internalType": "string",
              "name": "pipelineRunId",
              "type": "string"
            },
            {
              "components": [
                {
                  "internalType": "uint256",
                  "name": "accuracy",
                  "type": "uint256"
                },
                {
                  "internalType": "uint256",
                  "name": "precision",
                  "type": "uint256"
                },
                {
                  "internalType": "uint256",
                  "name": "recall",
                  "type": "uint256"
                },
                {
                  "internalType": "uint256",
                  "name": "f1",
                  "type": "uint256"
                },
                {
                  "internalType": "uint256",
                  "name": "auroc",
                  "type": "uint256"
                }
              ],
              "internalType": "struct DeltaVerifier.Metrics",
              "name": "baselineMetrics",
              "type": "tuple"
            },
            {
              "components": [
                {
                  "internalType": "uint256",
                  "name": "accuracy",
                  "type": "uint256"
                },
                {
                  "internalType": "uint256",
                  "name": "precision",
                  "type": "uint256"
                },
                {
                  "internalType": "uint256",
                  "name": "recall",
                  "type": "uint256"
                },
                {
                  "internalType": "uint256",
                  "name": "f1",
                  "type": "uint256"
                },
                {
                  "internalType": "uint256",
                  "name": "auroc",
                  "type": "uint256"
                }
              ],
              "internalType": "struct DeltaVerifier.Metrics",
              "name": "newMetrics",
              "type": "tuple"
            },
            {
              "components": [
                {
                  "internalType": "address",
                  "name": "walletAddress",
                  "type": "address"
                },
                {
                  "internalType": "uint256",
                  "name": "contributorWeight",
                  "type": "uint256"
                },
                {
                  "internalType": "uint256",
                  "name": "contributedSamples",
                  "type": "uint256"
                },
                {
                  "internalType": "uint256",
                  "name": "totalSamples",
                  "type": "uint256"
                }
              ],
              "internalType": "struct DeltaVerifier.ContributorInfo",
              "name": "contributorInfo",
              "type": "tuple"
            },
            {
              "internalType": "uint256",
              "name": "maxCostUsd",
              "type": "uint256"
            },
            {
              "internalType": "uint256",
              "name": "actualCostUsd",
              "type": "uint256"
            }
          ],
          "internalType": "struct DeltaVerifier.EvaluationDataWithInfo",
          "name": "data",
          "type": "tuple"
        }
      ],
      "name": "submitEvaluationWithContributorInfo",
      "outputs": [
        {
          "internalType": "uint256",
          "name": "",
          "type": "uint256"
        }
      ],
      "stateMutability": "nonpayable",
      "type": "function"
    },
    {
      "inputs": [
        {
          "internalType": "uint256",
          "name": "modelId",
          "type": "uint256"
        },
        {
          "components": [
            {
              "internalType": "string",
              "name": "pipelineRunId",
              "type": "string"
            },
            {
              "components": [
                {
                  "internalType": "uint256",
                  "name": "accuracy",
                  "type": "uint256"
                },
                {
                  "internalType": "uint256",
                  "name": "precision",
                  "type": "uint256"
                },
                {
                  "internalType": "uint256",
                  "name": "recall",
                  "type": "uint256"
                },
                {
                  "internalType": "uint256",
                  "name": "f1",
                  "type": "uint256"
                },
                {
                  "internalType": "uint256",
                  "name": "auroc",
                  "type": "uint256"
                }
              ],
              "internalType": "struct DeltaVerifier.Metrics",
              "name": "baselineMetrics",
              "type": "tuple"
            },
            {
              "components": [
                {
                  "internalType": "uint256",
                  "name": "accuracy",
                  "type": "uint256"
                },
                {
                  "internalType": "uint256",
                  "name": "precision",
                  "type": "uint256"
                },
                {
                  "internalType": "uint256",
                  "name": "recall",
                  "type": "uint256"
                },
                {
                  "internalType": "uint256",
                  "name": "f1",
                  "type": "uint256"
                },
                {
                  "internalType": "uint256",
                  "name": "auroc",
                  "type": "uint256"
                }
              ],
              "internalType": "struct DeltaVerifier.Metrics",
              "name": "newMetrics",
              "type": "tuple"
            },
            {
              "internalType": "uint256",
              "name": "maxCostUsd",
              "type": "uint256"
            },
            {
              "internalType": "uint256",
              "name": "actualCostUsd",
              "type": "uint256"
            },
            {
              "internalType": "uint256",
              "name": "totalSamples",
              "type": "uint256"
            }
          ],
          "internalType": "struct DeltaVerifier.EvaluationDataBase",
          "name": "data",
          "type": "tuple"
        },
        {
          "components": [
            {
              "internalType": "address",
              "name": "walletAddress",
              "type": "address"
            },
            {
              "internalType": "uint256",
              "name": "weight",
              "type": "uint256"
            }
          ],
          "internalType": "struct DeltaVerifier.Contributor[]",
          "name": "contributors",
          "type": "tuple[]"
        }
      ],
      "name": "submitEvaluationWithMultipleContributors",
      "outputs": [
        {
          "internalType": "uint256",
          "name": "",
          "type": "uint256"
        }
      ],
      "stateMutability": "nonpayable",
      "type": "function"
    },
    {
      "inputs": [
        {
          "internalType": "uint256",
          "name": "modelId",
          "type": "uint256"
        },
        {
          "components": [
            {
              "internalType": "string",
              "name": "pipelineRunId",
              "type": "string"
            },
            {
              "internalType": "uint256",
              "name": "baselineScoreBps",
              "type": "uint256"
            },
            {
              "internalType": "uint256",
              "name": "candidateScoreBps",
              "type": "uint256"
            },
            {
              "internalType": "uint256",
              "name": "maxCostUsdMicro",
              "type": "uint256"
            },
            {
              "internalType": "uint256",
              "name": "actualCostUsdMicro",
              "type": "uint256"
            },
            {
              "internalType": "uint256",
              "name": "totalSamples",
              "type": "uint256"
            },
            {
              "components": [
                {
                  "internalType": "bytes32",
                  "name": "benchmarkSpecHash",
                  "type": "bytes32"
                },
                {
                  "internalType": "bytes32",
                  "name": "datasetHash",
                  "type": "bytes32"
                },
                {
                  "internalType": "bytes32",
                  "name": "attestationHash",
                  "type": "bytes32"
                },
                {
                  "internalType": "bytes32",
                  "name": "idempotencyKey",
                  "type": "bytes32"
                },
                {
                  "internalType": "string",
                  "name": "metricName",
                  "type": "string"
                },
                {
                  "internalType": "string",
                  "name": "metricFamily",
                  "type": "string"
                }
              ],
              "internalType": "struct DeltaVerifier.BenchmarkAnchors",
              "name": "anchors",
              "type": "tuple"
            },
            {
              "internalType": "bytes32",
              "name": "baselineCommitment",
              "type": "bytes32"
            },
            {
              "internalType": "bytes32",
              "name": "candidateCommitment",
              "type": "bytes32"
            },
            {
              "internalType": "uint256",
              "name": "deadline",
              "type": "uint256"
            }
          ],
          "internalType": "struct DeltaVerifier.MintRequestPayload",
          "name": "payload",
          "type": "tuple"
        },
        {
          "components": [
            {
              "internalType": "address",
              "name": "walletAddress",
              "type": "address"
            },
            {
              "internalType": "uint256",
              "name": "weight",
              "type": "uint256"
            }
          ],
          "internalType": "struct DeltaVerifier.Contributor[]",
          "name": "contributors",
          "type": "tuple[]"
        },
        {
          "internalType": "bytes[]",
          "name": "attesterSignatures",
          "type": "bytes[]"
        }
      ],
      "name": "submitMintRequest",
      "outputs": [
        {
          "internalType": "uint256",
          "name": "",
          "type": "uint256"
        }
      ],
      "stateMutability": "nonpayable",
      "type": "function"
    },
    {
      "inputs": [
        {
          "internalType": "bytes4",
          "name": "interfaceId",
          "type": "bytes4"
        }
      ],
      "name": "supportsInterface",
      "outputs": [
        {
          "internalType": "bool",
          "name": "",
          "type": "bool"
        }
      ],
      "stateMutability": "view",
      "type": "function"
    },
    {
      "inputs": [],
      "name": "tokenManager",
      "outputs": [
        {
          "internalType": "contract TokenManager",
          "name": "",
          "type": "address"
        }
      ],
      "stateMutability": "view",
      "type": "function"
    },
    {
      "inputs": [
        {
          "internalType": "uint256",
          "name": "modelId",
          "type": "uint256"
        },
        {
          "internalType": "uint256",
          "name": "amount",
          "type": "uint256"
        }
      ],
      "name": "topUpMintBudget",
      "outputs": [],
      "stateMutability": "nonpayable",
      "type": "function"
    },
    {
      "inputs": [],
      "name": "unpause",
      "outputs": [],
      "stateMutability": "nonpayable",
      "type": "function"
    }
  ],
  "bytecode": "0x6101c0346200055757601f620057a238819003918201601f19168301916001600160401b03831184841017620005415780849260c09460405283398101031262000557576200004e8162000578565b602082015190916001600160a01b03821682036200055757620000746040820162000578565b9060608101519060a060808201519101519160405162000094816200055c565b6014815260208101907f486f6b7573616944656c74615665726966696572000000000000000000000000825260405191620000cf836200055c565b600183526020830191603160f81b83526001805560ff1960025416600255620000f8816200058d565b61012052620001078462000727565b61014052519020918260e05251902080610100524660a0526040519060208201927f8b73c3c69bb8fe3d512ecc4cf759cc79239f7b179b0ffacaa9a75d522b39400f8452604083015260608201524660808201523060a082015260a0815260c081019080821060018060401b03831117620005415760e06d6d6f64656c20726567697374727960901b91620001bd9484604052815190206080523060c052620001b0846200055c565b600e8452015287620008dc565b620001f9604051620001cf816200055c565b600d81526c3a37b5b2b71036b0b730b3b2b960991b60208201526001600160a01b038716620008dc565b6200023c6040516200020b816200055c565b601581527f636f6e747269627574696f6e2072656769737472790000000000000000000000602082015285620008dc565b6200026d6040516200024e816200055c565b600b81526a726577617264207261746560a81b6020820152826200090d565b620002a26040516200027f816200055c565b600f81526e1b5a5b881a5b5c1c9bdd995b595b9d608a1b6020820152836200090d565b6001600160a01b03958616610160908152948616610180908152939095166101a09081526006959095556007556008553360009081527fad3228b676f7d3cd4284a5443f17f1962b36e491b30a40b2405849e597ba5fb560205260408120549293919260ff161562000505575b7f65d7a28e3265b37a6474929f336521b332c1681b933f6cb9f3376673440d862a808252816020526040822033835260205260ff60408320541615620004c7575b507fe1a65d1a914580ff6931bc952f0fb26573e9282358a4458bceb9ccc6d923d04190818152806020526040812033825260205260ff6040822054161562000489575b505060405191614e4c938462000936853960805184613568015260a05184613633015260c05184613532015260e051846135b7015261010051846135dd01526101205184610afb01526101405184610b2501525183818161026601528181610a5e015281816112350152818161140f015281816116240152818161263d01528181612aab01528181612b09015281816131c201528181613bc801528181613f1c01526146e20152518281816112790152818161277e01528181612e8e01528181612ee00152818161382401528181613c2101528181613f750152614748015251818181610791015281816139ca01526146620152f35b818152806020526040812033825260205260408120600160ff19825416179055339160008051602062005782833981519152339280a4388062000393565b808252816020526040822033835260205260408220600160ff1982541617905533903390600080516020620057828339815191528480a43862000350565b808052806020526040812033825260205260408120600160ff19825416179055333382600080516020620057828339815191528180a46200030f565b634e487b7160e01b600052604160045260246000fd5b600080fd5b604081019081106001600160401b038211176200054157604052565b51906001600160a01b03821682036200055757565b80516020919082811015620005ec575090601f825111620005cb5780825192015190808310620005bc57501790565b82600019910360031b1b161790565b60405163305a27a960e01b815280620005e8846004830162000891565b0390fd5b6001600160401b03811162000541576003928354926001938481811c911680156200071c575b838210146200070657601f8111620006cd575b5081601f841160011462000664575092829391839260009462000658575b50501b9160001990841b1c191617905560ff90565b01519250388062000643565b919083601f1981168760005284600020946000905b88838310620006b2575050501062000699575b505050811b01905560ff90565b015160001983861b60f8161c191690553880806200068c565b85870151885590960195948501948793509081019062000679565b8560005284601f84600020920160051c820191601f860160051c015b828110620006f957505062000625565b60008155018590620006e9565b634e487b7160e01b600052602260045260246000fd5b90607f169062000612565b8051602091908281101562000756575090601f825111620005cb5780825192015190808310620005bc57501790565b6001600160401b03811162000541576004928354926001938481811c9116801562000886575b838210146200087157601f811162000838575b5081601f8411600114620007cf5750928293918392600094620007c3575b50501b916000199060031b1c191617905560ff90565b015192503880620007ad565b919083601f1981168760005284600020946000905b888383106200081d57505050106200080357505050811b01905560ff90565b015160001960f88460031b161c191690553880806200068c565b858701518855909601959485019487935090810190620007e4565b8560005284601f84600020920160051c820191601f860160051c015b828110620008645750506200078f565b6000815501859062000854565b602286634e487b7160e01b6000525260246000fd5b90607f16906200077c565b6020808252825181830181905290939260005b828110620008c757505060409293506000838284010152601f8019910116010190565b818101860151848201604001528501620008a4565b6001600160a01b031615620008ee5750565b60405163eac0d38960e01b8152908190620005e8906004830162000891565b15620009165750565b60405163589956a560e11b8152908190620005e890600483016200089156fe608060408181526004918236101561001657600080fd5b600090813560e01c90816301e08bfe146118025750806301ffc9a7146117ac57806302bef847146116ed5780630ed022be14611592578063129550111461156a57806313e502d1146113be5780631481103f1461139f5780631eaf93c214611338578063248a9ca31461130e57806325c33e13146112a85780632a709b14146112645780632ba36f78146112205780632f2ff15d1461117757806336568abe146110e65780633f4ba83a1461105057806348ab148e146110285780634970679a14610fcd5780635085795014610f8a5780635547c73a14610f5d57806358da0d0914610f395780635c975abb14610f1557806365defa0f14610ec757806366a78e6c14610ea8578063803b64f414610e315780638456cb5914610bd757806384b0196e14610ae55780638662f8b714610a205780638725ac511461098957806391712a0b1461094e57806391d14854146109085780639cb20b73146108e9578063a217fddf146108ce578063a8e62b97146108a4578063ae18ba2f1461081d578063afbf3440146107fe578063b6ebe539146107c0578063b7c303761461077c578063c9b4e69b146106cc578063cc78fef1146105e8578063d547741f146105aa578063e63ab1e91461056f578063ebdf46bc146104d5578063f0a9abe71461043d578063f2f667cb1461041a5763f6c5506b1461021357600080fd5b3461041757610221366119ca565b909161022b612455565b610233612411565b61023b611cff565b60ff60055416610407578351630af34d3160e31b81528581018490526020956001600160a01b0392917f0000000000000000000000000000000000000000000000000000000000000000841691908881602481865afa9081156103fd5789926102af899360249388916103e0575b5061238b565b895194859384926302855ced60e01b84528301525afa9182156103d557926102ea61020093610327969361039d9896916103a8575b506123ce565b6102f3846146bc565b6101608201610312610304826124ab565b61030c6124bf565b90614d4b565b61033b61031f84806124e9565b9790926124ab565b918951976103348961189c565b3691611a61565b8652610349368a8501611953565b8987015261035a3660c08501611953565b8887015216606085015261018081013560808501526101a081013560a08501526101c081013560c08501526101e081013560e08501520135610100830152613679565b906001805551908152f35b6103c891508a3d8c116103ce575b6103c08183611932565b810190612373565b386102e4565b503d6103b6565b8651903d90823e3d90fd5b6103f79150863d88116103ce576103c08183611932565b386102a9565b88513d86823e3d90fd5b5050505163dc6c57a360e01b8152fd5b80fd5b5090346104395781600319360112610439576020906007549051908152f35b5080fd5b509190346104d15760203660031901126104d1577f9ddb79ef2dfcf719d2378c10c25ab769e26c3a6874121d6d65aac014cdf365e9913561047c611b32565b6104a8825161048a816118fc565b600b81526a726577617264207261746560a81b602082015282614d81565b600681905560075460085492519182526020820152604081019190915280606081015b0390a180f35b8280fd5b509034610439577fe30efa43d7e03ac5f559a4ea4a89321b093ae583eb14f47ec7cf5504fb51088661050636611a30565b610511939193611b32565b61053f825161051f816118fc565b600d81526c1d1bdc0b5d5c08185b5bdd5b9d609a1b602082015282614d81565b838552600e6020526105548183872054611feb565b848652600e602052808387205582519182526020820152a280f35b509034610439578160031936011261043957602090517f65d7a28e3265b37a6474929f336521b332c1681b933f6cb9f3376673440d862a8152f35b509190346104d157806003193601126104d1576105e591356105e060016105cf6119b4565b938387528660205286200154611e44565b611f4e565b80f35b5091346104d15760203660031901126104d15761060361199e565b61060b611b32565b6001600160a01b0316808452600b6020528284205490929060ff16156106b757600c546000198101929083116106a457600d5480841061068a5750507f861c92b0d2314ad8be38c33e03205af164d31657e73664b30b77d1913145585191602091848652600b835280862060ff19815416905581600c5551908152a280f35b836044935192637107399b60e01b84528301526024820152fd5b634e487b7160e01b855260119052602484fd5b91602492519163e5e305fd60e01b8352820152fd5b5034610417576003199260803685011261043957602435916001600160401b03948584116104395761012090843603011261041757604435858111610439576107189036908401611a00565b9290916064359087821161041757366023830112156104175781830135978811610417573660248960051b840101116104175750916020969391602461039d9694610761612455565b610769612411565b610771611cff565b019381019035612a83565b509034610439578160031936011261043957517f00000000000000000000000000000000000000000000000000000000000000006001600160a01b03168152602090f35b5090346104395760203660031901126104395760209160ff9082906001600160a01b036107eb61199e565b168152600b855220541690519015158152f35b5090346104395781600319360112610439576020906006549051908152f35b509190346104d15760203660031901126104d15781359161083c611b32565b82158015610899575b61087b5750816020917f190a4e27d9700d777e8a34d3884f8c72449f2c3e7c5cb7590b854acec294cf0193600d5551908152a180f35b90604492600c54915192634bdf3e8d60e01b84528301526024820152fd5b50600c548311610845565b503461041757606036600319011261041757506108c76020926024359035613b2d565b9051908152f35b50903461043957816003193601126104395751908152602090f35b509034610439578160031936011261043957602090600d549051908152f35b5091346104d157816003193601126104d1578160209360ff926109296119b4565b903582528186528282206001600160a01b039091168252855220549151911615158152f35b509034610439578160031936011261043957602090517fe1a65d1a914580ff6931bc952f0fb26573e9282358a4458bceb9ccc6d923d0418152f35b509190346104d15760203660031901126104d1577f9ddb79ef2dfcf719d2378c10c25ab769e26c3a6874121d6d65aac014cdf365e99135906109c9611b32565b6109f981516109d7816118fc565b600f81526e1b5a5b881a5b5c1c9bdd995b595b9d608a1b602082015283614d81565b600782905560065460085491519081526020810192909252604082015280606081016104cb565b50346104175760209283600319360112610439578035808352600f85528383205480610adb57508351631b74623f60e01b81529182015283816024817f00000000000000000000000000000000000000000000000000000000000000006001600160a01b03165afa918215610ad0578092610aa0575b5050905b51908152f35b9091508382813d8311610ac9575b610ab88183611932565b810103126104175750513880610a96565b503d610aae565b8351903d90823e3d90fd5b9250505090610a9a565b5034610417578060031936011261041757610b1f7f0000000000000000000000000000000000000000000000000000000000000000612176565b91610b497f000000000000000000000000000000000000000000000000000000000000000061229d565b90805191602083018381106001600160401b03821117610bc45782610bc09492610ba192610b94989795528484528151978897600f60f81b895260e060208a015260e0890190611ad9565b9187830390880152611ad9565b9146606086015230608086015260a085015283820360c0850152611afe565b0390f35b634e487b7160e01b855260418752602485fd5b509190346104d157826003193601126104d1577f65d7a28e3265b37a6474929f336521b332c1681b933f6cb9f3376673440d862a91828452602092848452828520338652845260ff838620541615610c6a57847f62e78cea01bee320cd4e420270b5ea74000d11b0c9f74754ebdbfc544b05a2588585610c55612411565b600160ff19600254161760025551338152a180f35b909293610c763361201f565b91835190610c8382611917565b60428252868201926060368537825115610e1e5760308453825190600191821015610e0b5790607860218501536041915b818311610da057505050610d5f576048610d32938593610d4193610d5b975196879376020b1b1b2b9b9a1b7b73a3937b61d1030b1b1b7bab73a1604d1b8c860152610d098c8251928391603789019101611ab6565b8401917001034b99036b4b9b9b4b733903937b6329607d1b603784015251809386840190611ab6565b01036028810185520183611932565b5193849362461bcd60e51b85528401526024830190611ad9565b0390fd5b606485878087519262461bcd60e51b845283015260248201527f537472696e67733a20686578206c656e67746820696e73756666696369656e746044820152fd5b909192600f81166010811015610df8576f181899199a1a9b1b9c1cb0b131b232b360811b901a610dd08587611ff8565b53881c928015610de557600019019190610cb4565b634e487b7160e01b825260118952602482fd5b634e487b7160e01b835260328a52602483fd5b634e487b7160e01b815260328852602490fd5b634e487b7160e01b815260328752602490fd5b50346104175760031960603682011261043957602435916001600160401b0391828411610439576101c09084360301126104175760443591821161041757509261039d91610e8460209536908401611a00565b929091610e8f612455565b610e97612411565b610e9f611cff565b8101903561260a565b5090346104395781600319360112610439576020906008549051908152f35b5034610417578060031936011261041757610ee0611b32565b600160ff196005541617600555337f8888a19634b1c56339214cfebfcd22878844ac6b1df0c9c57df0493545afcbdd8280a280f35b50903461043957816003193601126104395760209060ff6002541690519015158152f35b50903461043957816003193601126104395760209060ff6005541690519015158152f35b5091346104d15760203660031901126104d1578160209360ff92358152600a855220541690519015158152f35b5034610417576080366003190112610417578235906001600160401b0382116104175750610fc06020936108c792369101611a98565b6044359060243590613ede565b509034610439577f051081fd0f86b4c2dc76e3b03f3289483836d49a8ccc8609c8d21d8f4400eca3610ffe36611a30565b611009939193611b32565b838552600e60205281852090808254925582519182526020820152a280f35b5091346104d15760203660031901126104d1576020928291358152600e845220549051908152f35b5091346104d157826003193601126104d15761106a611b32565b6002549060ff8216156110ac575060ff1916600255513381527f5db9ee0a495bf2e6ff9c91a7834c1ba4fdd244a5e8aa4e537bd38aeae4b073aa90602090a180f35b606490602084519162461bcd60e51b8352820152601460248201527314185d5cd8589b194e881b9bdd081c185d5cd95960621b6044820152fd5b5082346104395782600319360112610439576111006119b4565b90336001600160a01b0383160361111c57906105e59135611f4e565b608490602085519162461bcd60e51b8352820152602f60248201527f416363657373436f6e74726f6c3a2063616e206f6e6c792072656e6f756e636560448201526e103937b632b9903337b91039b2b63360891b6064820152fd5b5091346104d157816003193601126104d15735906111936119b4565b90828452836020526111aa60018286200154611e44565b82845260208481528185206001600160a01b039093168086529290528084205460ff16156111d6578380f35b828452836020528084208285526020528320600160ff1982541617905533917f2f8788117e7eff1d82e926ec794901d17c78024a50270940304540a733656f0d8480a43880808380f35b509034610439578160031936011261043957517f00000000000000000000000000000000000000000000000000000000000000006001600160a01b03168152602090f35b509034610439578160031936011261043957517f00000000000000000000000000000000000000000000000000000000000000006001600160a01b03168152602090f35b509190346104d15760203660031901126104d1577f9ddb79ef2dfcf719d2378c10c25ab769e26c3a6874121d6d65aac014cdf365e991356112e7611b32565b600881905560065460075492519081526020810192909252604082015280606081016104cb565b5091346104d15760203660031901126104d157816020936001923581528085522001549051908152f35b50346104175760031960603682011261043957602435916001600160401b0391828411610439576101209084360301126104175760443591821161041757506020936108c79261138e61139a9336908401611a00565b929091810190356149f1565b613509565b509034610439578160031936011261043957602090600c549051908152f35b5034610417576113cd366119ca565b6113d5612455565b6113dd612411565b6113e5611cff565b60ff60055416610407578351630af34d3160e31b81528581018390526020956001600160a01b03917f0000000000000000000000000000000000000000000000000000000000000000831691908881602481865afa90811561156057899261145788936024938b916103e0575061238b565b895194859384926302855ced60e01b84528301525afa908115611556579061148591869161153f57506123ce565b61148e836146bc565b6102208236031261153b578451936114a58561189c565b82356001600160401b038111610439576114c29036908501611a98565b85526114d036888501611953565b878601526114e13660c08501611953565b8686015261016083013591821682036104175750606084015261018081013560808401526101a081013560a08401526101c081013560c08401526101e081013560e0840152610200013561010083015261039d9190613679565b8380fd5b6103c89150883d8a116103ce576103c08183611932565b86513d87823e3d90fd5b88513d89823e3d90fd5b5091346104d15760203660031901126104d1576020928291358152600f845220549051908152f35b5091346104d157816003193601126104d1578035916024356115b2611b32565b80156116df57838552602090600f825282862054918215611609575b7f3e63f97cfd8196b1e308a65c4aae8d4b42ea2865a57a2d077646a7084a2632fb9450858752600f815281848820558351928352820152a280f35b8351631b74623f60e01b8152948501869052915081846024817f00000000000000000000000000000000000000000000000000000000000000006001600160a01b03165afa80156116d5578690611684575b7f3e63f97cfd8196b1e308a65c4aae8d4b42ea2865a57a2d077646a7084a2632fb9450916115ce565b508184813d83116116ce575b61169a8183611932565b810103126116ca577f3e63f97cfd8196b1e308a65c4aae8d4b42ea2865a57a2d077646a7084a2632fb935161165b565b8580fd5b503d611690565b83513d88823e3d90fd5b5051631a502d6960e21b8152fd5b5091346104d15760203660031901126104d15761170861199e565b611710611b32565b6001600160a01b031691821561179f57828452600b60205260ff818520541661178a57828452600b602052808420600160ff19825416179055600c5491600183018093116106a45750816020917f1a5deac0287808691c5f3245f6a3bf0d11038f0abb7315d8926fcf0a7965a0ee93600c5551908152a280f35b9160249251916362b406ff60e01b8352820152fd5b51631e59c78160e01b8152fd5b5091346104d15760203660031901126104d157359063ffffffff60e01b82168092036104d15760209250637965db0b60e01b82149182156117f1575b50519015158152f35b6301ffc9a760e01b149150386117e8565b838334610417576101603660031901126104175760a03660231901126104175761182b836118ce565b6024358352604435602084015260643582840152608435606084015260a435608084015260a03660c319011261041757506108c760209282519061186e826118ce565b60c4359182815260e43586820152610104358582015261012435606082015260806101443591015251614187565b61012081019081106001600160401b038211176118b857604052565b634e487b7160e01b600052604160045260246000fd5b60a081019081106001600160401b038211176118b857604052565b6001600160401b0381116118b857604052565b604081019081106001600160401b038211176118b857604052565b608081019081106001600160401b038211176118b857604052565b90601f801991011681019081106001600160401b038211176118b857604052565b91908260a09103126119995760405161196b816118ce565b6080808294803584526020810135602085015260408101356040850152606081013560608501520135910152565b600080fd5b600435906001600160a01b038216820361199957565b602435906001600160a01b038216820361199957565b906003196040818401126119995760043592602435916001600160401b0383116119995782610220920301126119995760040190565b9181601f84011215611999578235916001600160401b038311611999576020808501948460061b01011161199957565b6040906003190112611999576004359060243590565b6001600160401b0381116118b857601f01601f191660200190565b929192611a6d82611a46565b91611a7b6040519384611932565b829481845281830111611999578281602093846000960137010152565b9080601f8301121561199957816020611ab393359101611a61565b90565b60005b838110611ac95750506000910152565b8181015183820152602001611ab9565b90602091611af281518092818552858086019101611ab6565b601f01601f1916010190565b90815180825260208080930193019160005b828110611b1e575050505090565b835185529381019392810192600101611b10565b3360009081527fad3228b676f7d3cd4284a5443f17f1962b36e491b30a40b2405849e597ba5fb5602090815260408083205490929060ff1615611b7457505050565b611b7d3361201f565b9080845190611b8b82611917565b60428252848201926060368537825115611ceb5760308453825190600191821015611ceb5790607860218501536041915b818311611c7d57505050611c3b576048610d5b938693611c1f93611c10985198899376020b1b1b2b9b9a1b7b73a3937b61d1030b1b1b7bab73a1604d1b8a860152610d09815180928c603789019101611ab6565b01036028810187520185611932565b5192839262461bcd60e51b845260048401526024830190611ad9565b60648486519062461bcd60e51b825280600483015260248201527f537472696e67733a20686578206c656e67746820696e73756666696369656e746044820152fd5b909192600f81166010811015611cd7576f181899199a1a9b1b9c1cb0b131b232b360811b901a611cad8587611ff8565b5360041c928015611cc357600019019190611bbc565b634e487b7160e01b82526011600452602482fd5b634e487b7160e01b83526032600452602483fd5b634e487b7160e01b81526032600452602490fd5b3360009081527f19c4d971a3d76901c4568731997aa60cfcecea3f445b26b7ae19155c24110b7e602090815260408083205490927fe1a65d1a914580ff6931bc952f0fb26573e9282358a4458bceb9ccc6d923d0419160ff1615611d635750505050565b611d6c3361201f565b91845190611d7982611917565b60428252848201926060368537825115611ceb5760308453825190600191821015611ceb5790607860218501536041915b818311611dfe57505050611c3b576048610d5b938693611c1f93611c10985198899376020b1b1b2b9b9a1b7b73a3937b61d1030b1b1b7bab73a1604d1b8a860152610d09815180928c603789019101611ab6565b909192600f81166010811015611cd7576f181899199a1a9b1b9c1cb0b131b232b360811b901a611e2e8587611ff8565b5360041c928015611cc357600019019190611daa565b600090808252602090828252604092838120338252835260ff848220541615611e6d5750505050565b611e763361201f565b91845190611e8382611917565b60428252848201926060368537825115611ceb5760308453825190600191821015611ceb5790607860218501536041915b818311611f0857505050611c3b576048610d5b938693611c1f93611c10985198899376020b1b1b2b9b9a1b7b73a3937b61d1030b1b1b7bab73a1604d1b8a860152610d09815180928c603789019101611ab6565b909192600f81166010811015611cd7576f181899199a1a9b1b9c1cb0b131b232b360811b901a611f388587611ff8565b5360041c928015611cc357600019019190611eb4565b9060009180835282602052604083209160018060a01b03169182845260205260ff604084205416611f7e57505050565b80835282602052604083208284526020526040832060ff1981541690557ff6391f5c32d9c69d2a47ea670b442974b53935d1edc7fd64eb21e047a839171b339380a4565b81810292918115918404141715611fd557565b634e487b7160e01b600052601160045260246000fd5b91908201809211611fd557565b908151811015612009570160200190565b634e487b7160e01b600052603260045260246000fd5b60405190606082018281106001600160401b038211176118b857604052602a82526020820160403682378251156120095760309053815160019081101561200957607860218401536029905b8082116120bf57505061207b5790565b606460405162461bcd60e51b815260206004820152602060248201527f537472696e67733a20686578206c656e67746820696e73756666696369656e746044820152fd5b9091600f81166010811015612118576f181899199a1a9b1b9c1cb0b131b232b360811b901a6120ee8486611ff8565b5360041c91801561210357600019019061206b565b60246000634e487b7160e01b81526011600452fd5b60246000634e487b7160e01b81526032600452fd5b6001600160401b0381116118b85760051b60200190565b9061214e8261212d565b61215b6040519182611932565b828152809261216c601f199161212d565b0190602036910137565b60ff81146121b45760ff811690601f82116121a25760405191612198836118fc565b8252602082015290565b604051632cd44ac360e21b8152600490fd5b50604051600060035490600182811c90808416938415612293575b602094858410811461227f578387528694939291811561225f5750600114612200575b5050611ab392500382611932565b9093915060036000527fc2575a0e9e593c00f959f8c92f12db2869c3395a3b0502d05e2516446f71f85b936000915b818310612247575050611ab3935082010138806121f2565b8554878401850152948501948694509183019161222f565b915050611ab394925060ff191682840152151560051b82010138806121f2565b634e487b7160e01b85526022600452602485fd5b91607f16916121cf565b60ff81146122bf5760ff811690601f82116121a25760405191612198836118fc565b50604051600060045490600182811c90808416938415612369575b602094858410811461227f578387528694939291811561225f575060011461230a575050611ab392500382611932565b9093915060046000527f8a35acfbc15ff81a39ae7d344fd709f28e8600b4aa8c65c6b64bfe7fe36bd19b936000915b818310612351575050611ab3935082010138806121f2565b85548784018501529485019486945091830191612339565b91607f16916122da565b90816020910312611999575180151581036119995790565b1561239257565b60405162461bcd60e51b8152602060048201526014602482015273135bd9195b081b9bdd081c9959da5cdd195c995960621b6044820152606490fd5b156123d557565b60405162461bcd60e51b8152602060048201526014602482015273135bd9195b081a5cc819195858dd1a5d985d195960621b6044820152606490fd5b60ff6002541661241d57565b60405162461bcd60e51b815260206004820152601060248201526f14185d5cd8589b194e881c185d5cd95960821b6044820152606490fd5b600260015414612466576002600155565b60405162461bcd60e51b815260206004820152601f60248201527f5265656e7472616e637947756172643a207265656e7472616e742063616c6c006044820152606490fd5b356001600160a01b03811681036119995790565b604051906124cc826118fc565b600e82526d77616c6c6574206164647265737360901b6020830152565b903590601e198136030182121561199957018035906001600160401b0382116119995760200191813603831361199957565b6000198114611fd55760010190565b91908110156120095760061b0190565b8051156120095760200190565b80518210156120095760209160051b010190565b91908203918211611fd557565b90815180825260208080930193019160005b828110612588575050505090565b83516001600160a01b03168552938101939281019260010161257a565b916125ce906125c0611ab39593606086526060860190611ad9565b908482036020860152612568565b916040818403910152611afe565b939291612605906125f7604093606088526060880190612568565b908682036020880152611afe565b930152565b9160009060ff60055416612a3b5760408051630af34d3160e31b81526004810186905260209491926001600160a01b03917f00000000000000000000000000000000000000000000000000000000000000008316908781602481855afa908115612a31579161268389926024948a91612a1a575061238b565b8651928380926302855ced60e01b82528c60048301525afa908115612a1057906126b391879161153f57506123ce565b6126bc876146bc565b6126c6888261426c565b9190986101a08501359182156129cc576101608601356101808701356126ec8183614252565b61297857505061270360c08701358a880135614187565b9a61270d8b614c8b565b956127188d88613b8a565b9c8d61275a575b5050505050505050600080516020614df783398151915292935080612743916124e9565b80925192839283378101600081520390209180a390565b8d9b8b9c8d918d5b8881106128e8575050612775925061255b565b806128ba575b507f000000000000000000000000000000000000000000000000000000000000000016803b156128b6578851631e3b78fb60e31b8152908a9082908183816127c88c898f600485016125a5565b03925af180156128ac57908c9161284f575b5091612841959391612743989795937f379eb16b5a0469dd3188be06c54cea67019459aea34bb7222bac67a2ddf15e2961282b600080516020614df78339815191529d9e8d519182918a87846125dc565b0390a261283b61033489806124e9565b95614533565b90849338808080808061271f565b9161274398979593917f379eb16b5a0469dd3188be06c54cea67019459aea34bb7222bac67a2ddf15e2961282b600080516020614df78339815191529d61289a6128419b99976118e9565b9d5050509193959798509193956127da565b89513d8c823e3d90fd5b8980fd5b6128e1919b6128d2826128cc8a61253a565b51611feb565b6128db8961253a565b52611feb565b993861277b565b91908093506128f8838a8a61252a565b013561290391611fc2565b61271090049d8e80612915848d612547565b5261291f91611feb565b9d8461292c838a8a61252a565b612935906124ab565b16908d805191868352858301527f23cb7dc0579e23905f2f88d85bd8fbee2e15f35d236f8b32a54a4ae6e829497391a261296e9061251b565b8f90918e92612762565b955095925050507f2ee10088f961cefc50ce125f535f54891ad9bafe2a77646d2d1e5f2057aeddef9598506129ae9150806124e9565b9081855192839283378101898152039020948351928352820152a390565b865162461bcd60e51b8152600481018a9052601e60248201527f546f74616c2073616d706c6573206d75737420626520706f73697469766500006044820152606490fd5b85513d88823e3d90fd5b6103f79150843d86116103ce576103c08183611932565b86513d89823e3d90fd5b60405163dc6c57a360e01b8152600490fd5b90359060be1981360301821215611999570190565b908060209392818452848401376000828201840152601f01601f1916010190565b604051630af34d3160e31b8152600481018290529396959294909360009391906020816024817f00000000000000000000000000000000000000000000000000000000000000006001600160a01b03165afa9081156134e55790612aed9186916134f0575061238b565b6040516302855ced60e01b8152600481018690526020816024817f00000000000000000000000000000000000000000000000000000000000000006001600160a01b03165afa9081156134e55790612b4b9186916134cc57506123ce565b612b54856146bc565b6060612b6360c0850185612a4d565b013515613487576060612b7960c0850185612a4d565b01358452600a60205260ff60408520541661343857612b9883806124e9565b9050156133f357612bb9612baf60c0850185612a4d565b60808101906124e9565b9050156133ae5761271060208401351161336a5761271060408401351161331b57600d548015613309578083106132eb5750612bfa61139a898886896149f1565b8491825b84841061323e575050505050828252600f60205260408220549384156131a3575b841561318a57610100820135156131785760e08201358581036131545750612c47878261426c565b9091612c5b60408501356020860135614187565b98612c6587614c8b565b91612c708b84613b8a565b98612c8360808801356060890135614252565b80158061313f575b61310a576060612c9e60c08a018a612a4d565b01358952600a60205260408920805460ff191660011790556130a85789612dff575b505050505050600080516020614df7833981519152919293949550806060612cee60c0612de6940183612a4d565b0135612cfd60c0830183612a4d565b3590867f302937cfcf4b3e834bb9d5ebae7f74a8640d4e0c646f62af65aaf0ac9136b3246040612d3060c0870187612a4d565b01356020612d4160c0880188612a4d565b013590612ddd8c612d58612baf60c08b018b612a4d565b612db68b612d85612da8612d7c612d7260c0850185612a4d565b60a08101906124e9565b929093806124e9565b9690956040519b8c9b8c5260208c015261010060408c01526101008b0191612a62565b9188830360608a0152612a62565b9260208c0135608087015260408c013560a087015260c086015284830360e0860152612a62565b0390a4806124e9565b908160405192839283378101600081520390209180a390565b7fceca051bc590248c59bc05381afce74b546ec4c62a50ee09242c3dbe336c967160408a92838b52600f6020526101008a0135828c205581519081526101008a01356020820152a2878752600e602052612e5d89604089205461255b565b9a888852600e6020528b604089205587908a895b85811061301f5750612e859150829061255b565b80612fff575b507f00000000000000000000000000000000000000000000000000000000000000006001600160a01b03163b15612ffb57604051631e3b78fb60e31b8152888180612edb898b8a600485016125a5565b0381837f00000000000000000000000000000000000000000000000000000000000000006001600160a01b03165af18015612ff057918b9c9d918b9c9b93612fca575b50917f838cb5d05a360de3db26795f889719161893db22dc951313639afb3882b8fc6b6040600080516020614df78339815191529b9c8a989694847f379eb16b5a0469dd3188be06c54cea67019459aea34bb7222bac67a2ddf15e298c612de69f9e612f94612fbb9f9d9b8851938493846125dc565b0390a282519182526020820152a2612faf61033488806124e9565b9460a088013593614533565b90869594939238808080612cc0565b9783999891819795939b612fe08a9896946118e9565b9b939597999a5091939550612f1e565b6040513d8b823e3d90fd5b8780fd5b61301991613010826128cc8961253a565b6128db8861253a565b38612e8b565b61304f6127106130416130a1946020613039868c8c61252a565b013590611fc2565b048095816128db858d612547565b937f23cb7dc0579e23905f2f88d85bd8fbee2e15f35d236f8b32a54a4ae6e829497360406001600160a01b0361308e613089868c8c61252a565b6124ab565b16928151908782526020820152a261251b565b8b90612e71565b5050505050509192509293507f2ee10088f961cefc50ce125f535f54891ad9bafe2a77646d2d1e5f2057aeddef60406130e183806124e9565b90818351928392833781018781520390209260808251916060810135835201356020820152a390565b898952600e6020526040808a20549051630aaa239760e21b8152600481018c9052602481018d90526044810191909152606490fd5b50898952600e60205260408920548b11612c8b565b846064918760405192637aaedf8560e01b8452600484015260248301526044820152fd5b604051636c5be5e760e01b8152600490fd5b604051633746cfb560e01b815260048101859052602490fd5b604051631b74623f60e01b8152600481018590529094506020816024817f00000000000000000000000000000000000000000000000000000000000000006001600160a01b03165afa908115613233578391613201575b5093612c1f565b90506020813d60201161322b575b8161321c60209383611932565b810103126104d15751386131fa565b3d915061320f565b6040513d85823e3d90fd5b6132659061325d6132576103348760051b8601866124e9565b8561492a565b929092614810565b6001600160a01b0390811690821611156132c9576001600160a01b0381168752600b602052604087205460ff16156132a7576132a1909361251b565b92612bfe565b604051637adcfd2960e01b81526001600160a01b039091166004820152602490fd5b60405163af5c5c7960e01b81526001600160a01b039091166004820152602490fd5b826044916040519163245dfda360e11b835260048301526024820152fd5b604051633fca299160e01b8152600490fd5b60405162461bcd60e51b815260206004820152602160248201527f43616e6469646174652073636f726520657863656564732031303030302062706044820152607360f81b6064820152608490fd5b606460405162461bcd60e51b815260206004820152602060248201527f426173656c696e652073636f72652065786365656473203130303030206270736044820152fd5b60405162461bcd60e51b815260206004820152601b60248201527f4d6574726963206e616d652063616e6e6f7420626520656d70747900000000006044820152606490fd5b60405162461bcd60e51b815260206004820152601f60248201527f506970656c696e652072756e2049442063616e6e6f7420626520656d707479006044820152606490fd5b60405162461bcd60e51b815260206004820152602160248201527f4964656d706f74656e6379206b657920616c72656164792070726f63657373656044820152601960fa1b6064820152608490fd5b60405162461bcd60e51b815260206004820152601f60248201527f4964656d706f74656e6379206b65792063616e6e6f7420626520656d707479006044820152606490fd5b6103c8915060203d6020116103ce576103c08183611932565b6040513d87823e3d90fd5b6103f7915060203d6020116103ce576103c08183611932565b60429061351461352f565b906040519161190160f01b8352600283015260228201522090565b307f00000000000000000000000000000000000000000000000000000000000000006001600160a01b03161480613630575b1561358a577f000000000000000000000000000000000000000000000000000000000000000090565b60405160208101907f8b73c3c69bb8fe3d512ecc4cf759cc79239f7b179b0ffacaa9a75d522b39400f82527f000000000000000000000000000000000000000000000000000000000000000060408201527f000000000000000000000000000000000000000000000000000000000000000060608201524660808201523060a082015260a0815260c081018181106001600160401b038211176118b85760405251902090565b507f00000000000000000000000000000000000000000000000000000000000000004614613561565b61367190602060405192828480945193849201611ab6565b810103902090565b9060608101805190600091604090815190613693826118fc565b601382526136c760209272636f6e7472696275746f72206164647265737360681b8482015260018060a01b03809316614d4b565b608086016136d58151614dae565b828701946136e38651614198565b848801936136f18551614198565b60a089019461372b8651885190613707826118fc565b6013825272636f6e74726962757465642073616d706c657360681b85830152614d81565b60c08a01978851875111613af1578a60e0810161375161010082519301928351906141d8565b878651168c5260098552898c2054610e108101809111613add574210613aa35751905161377e8183614252565b613a5d575050858451168a526009835242888b205551519051516137a191614187565b916137ab8b614c8b565b9284516137b9908286613ede565b9b8b516137c590613659565b90895191600080516020614df78339815191528d80a386835116918152888d858301527f23cb7dc0579e23905f2f88d85bd8fbee2e15f35d236f8b32a54a4ae6e829497391a28a61381e575b5050505050505050505090565b805185167f00000000000000000000000000000000000000000000000000000000000000008616803b15613a59578a9182918e8b519485809481936311d68e9f60e11b835260606004840152613877606484018d611ad9565b916024840152604483015203925af18015613a4f57613a32575b50918899918997989993519451965199519251908951936138b1856118fc565b600185528136818701378787166138c78661253a565b528a51966138d4886118fc565b600188528236818a01378b5185518482019282916138f581868b8a01611ab6565b8201906bffffffffffffffffffffffff199060601b16868201528651906034810182888a019161392492611ab6565b01036014810182526034016139399082611932565b5190206139458861253a565b528a51986139528a6118fc565b60018a528236818c01376139658a61253a565b528a519b6139728d6118fc565b60018d528236818f01376139858d61253a565b528a5191613992836118fc565b6001835236818401378d6139a58361253a565b528a516329a0dd4960e01b81529b8c998a9889976139c69760048a01614481565b03927f0000000000000000000000000000000000000000000000000000000000000000165af1908115613a295750613a06575b8080808080808080613811565b613a21913d8091833e613a198183611932565b810190614408565b5038806139f9565b513d84823e3d90fd5b613a43909a9297989991939a6118e9565b97969590989138613891565b88513d8c823e3d90fd5b8a80fd5b96509650505096989790507f2ee10088f961cefc50ce125f535f54891ad9bafe2a77646d2d1e5f2057aeddef9550613a96915051613659565b948351928352820152a390565b895162461bcd60e51b815260048101869052601360248201527214985d19481b1a5b5a5d08195e18d959591959606a1b6044820152606490fd5b634e487b7160e01b8d52601160045260248dfd5b875162461bcd60e51b8152600481018490526015602482015274496e76616c696420746f74616c2073616d706c657360581b6044820152606490fd5b6007548110613b6457620f424091613b4b613b509260065490611fc2565b611fc2565b04600854808211613b5f575090565b905090565b5050600090565b9081602091031261199957516001600160a01b03811681036119995790565b604091825191636617003b60e11b8352602093600494808686015260249480613bb587820186611ad9565b6001600160a01b039591849184919003817f000000000000000000000000000000000000000000000000000000000000000089165afa918215613ed357600092613eb4575b508351636204891b60e11b8152888101849052838180613c1c8b820186611ad9565b0381897f0000000000000000000000000000000000000000000000000000000000000000165afa908115613ea957600091613e7c575b508581168015159081613e6f575b50613d8b575050818491888551809481936367f855cb60e11b8352165afa908115613d8057908291600091613d47575b5087845180968193634c8bc3e560e01b8352165afa918215613d3d5750600091613d11575b5090506007548210613d0857613cca91611fc2565b9161271092838102938185041490151715613cf5575050620f42409004600854808211613b5f575090565b601190634e487b7160e01b600052526000fd5b50505050600090565b82813d8311613d36575b613d258183611932565b810103126104175750518038613cb5565b503d613d1b565b513d6000823e3d90fd5b909181813d8311613d79575b613d5d8183611932565b8101031261043957519084821682036104175750819038613c90565b503d613d53565b83513d6000823e3d90fd5b8785928a92600095613d9f8351151561238b565b865b8351881015613e3c57613db48885611ff8565b5160f81c603081101580613e31575b613dcc9061238b565b600a91828102928184041490151715613e1d5760ff90602f1901818111613e095791613dfd91613e03931690611feb565b9761251b565b96613da1565b86601189634e487b7160e01b600052526000fd5b85601188634e487b7160e01b600052526000fd5b506039811115613dc3565b86516305f70aad60e21b81528087019182526001600160a01b038084166020840152841660408301529081906060010390fd5b9050868416141538613c60565b613e9c9150843d8611613ea2575b613e948183611932565b810190613b6b565b38613c52565b503d613e8a565b85513d6000823e3d90fd5b613ecc919250833d8511613ea257613e948183611932565b9038613bfa565b84513d6000823e3d90fd5b90916040918251636617003b60e11b81526020906004908282820152602481613f0982820187611ad9565b6001600160a01b039691869185919003817f00000000000000000000000000000000000000000000000000000000000000008a165afa92831561417c5760009361415d575b508751636204891b60e11b8152848101869052858180613f7086820186611ad9565b03818a7f0000000000000000000000000000000000000000000000000000000000000000165afa90811561415257600091614135575b508681168015159081614128575b506140a55750505090828492828851809581936367f855cb60e11b8352165afa91821561409a5790839291600092614061575b508651634c8bc3e560e01b81529485928391165afa938415613d3d5750600093614030575b5050600754831061402857613b4b613b5092620f424094611fc2565b505050600090565b8181949293943d831161405a575b6140488183611932565b8101031261041757505190388061400c565b503d61403e565b909281813d8311614093575b6140778183611932565b8101031261043957519084821682036104175750829138613fe7565b503d61406d565b86513d6000823e3d90fd5b88949395506000956140b98351151561238b565b865b8351881015613e3c576140ce8885611ff8565b5160f81c60308110158061411d575b6140e69061238b565b600a91828102928184041490151715613e1d5760ff90602f1901818111613e095791613dfd91614117931690611feb565b966140bb565b5060398111156140dd565b9050878516141538613fb4565b61414c9150863d8811613ea257613e948183611932565b38613fa6565b89513d6000823e3d90fd5b614175919350853d8711613ea257613e948183611932565b9138613f4e565b88513d6000823e3d90fd5b80821115613b6457611ab39161255b565b60806141d6916141a88151614dae565b6141b56020820151614dae565b6141c26040820151614dae565b6141cf6060820151614dae565b0151614dae565b565b908115801561424a575b614246576142186141d692604051906141fa826118fc565b600c82526b1b585e0818dbdcdd081d5cd960a21b6020830152614d81565b60405190614225826118fc565b600f82526e1858dd1d585b0818dbdcdd081d5cd9608a1b6020830152614d81565b5050565b5080156141e2565b9081158015614264575b613b64571190565b50801561425c565b9181156143f65760648083116143d8576000939261428981612144565b9461429382612144565b9481925b8084106142ef5750506127109150036142ad5750565b60405162461bcd60e51b815260206004820152601860248201527f57656967687473206d7573742073756d20746f203130302500000000000000006044820152fd5b909161430261030461308986858761252a565b60005b84811061435c575061434e6143549161432261308987868861252a565b61432c878c612547565b6001600160a01b039091169052602061434687868861252a565b013590611feb565b9361251b565b929190614297565b61436a61308986858761252a565b6001600160a01b038061437d848d612547565b51169116146143945761438f9061251b565b614305565b60405162461bcd60e51b815260206004820152601d60248201527f4475706c696361746520636f6e7472696275746f72206164647265737300000060448201528690fd5b82604491604051916342b154e560e01b835260048301526024820152fd5b604051633c4d929d60e21b8152600490fd5b6020908181840312611999578051906001600160401b03821161199957019180601f8401121561199957825161443d8161212d565b9361444b6040519586611932565b818552838086019260051b820101928311611999578301905b828210614472575050505090565b81518152908301908301614464565b969391906144a06144af919a999796949a610100808b528a0190611ad9565b602092898203848b0152612568565b878103604089015281808b5192838152019a019160005b82811061451f57505050506145119392916144f0896144fe9389611ab39b9c0360608b0152611afe565b908782036080890152611afe565b9160a086015284820360c0860152611afe565b9160e0818403910152611ad9565b83518c529a81019a928101926001016144c6565b9690949593966145438651612144565b9061454e8751612144565b966145598151612144565b9360005b825181101561462f57806127106146198e8c613039858e8e8e8e6145fa8f9c8f9d61458c61462a9f8390612547565b516145f16054604051928360209e8f92836145b0818501998a815193849201611ab6565b8301906bffffffffffffffffffffffff199060601b16848201526145de825180936034968785019101611ab6565b0187838201520390810184520182611932565b51902092612547565b52614613848761460b82878761252a565b013592612547565b5261252a565b04614624828d612547565b5261251b565b61455d565b5099919550959261465d945096600097989298604051998a9889986329a0dd4960e01b8a5260048a01614481565b0381837f00000000000000000000000000000000000000000000000000000000000000006001600160a01b03165af180156146b0576146995750565b6146ad903d806000833e613a198183611932565b50565b6040513d6000823e3d90fd5b604051630cf99be760e31b8152600481018290529060206001600160a01b0381846024817f000000000000000000000000000000000000000000000000000000000000000085165afa9384156146b0576000946147f1575b506147438261472285614c8b565b60405180938192636204891b60e11b83528460048401526024830190611ad9565b0381857f0000000000000000000000000000000000000000000000000000000000000000165afa9283156146b0576000936147d2575b505080821680151591826147c5575b505061479357505050565b6040516305f70aad60e21b815260048101929092526001600160a01b0392831660248301529091166044820152606490fd5b8516141590503880614788565b6147e9929350803d10613ea257613e948183611932565b903880614779565b614809919450823d8411613ea257613e948183611932565b9238614714565b600581101561491457806148215750565b6001810361486e5760405162461bcd60e51b815260206004820152601860248201527f45434453413a20696e76616c6964207369676e617475726500000000000000006044820152606490fd5b600281036148bb5760405162461bcd60e51b815260206004820152601f60248201527f45434453413a20696e76616c6964207369676e6174757265206c656e677468006044820152606490fd5b6003146148c457565b60405162461bcd60e51b815260206004820152602260248201527f45434453413a20696e76616c6964207369676e6174757265202773272076616c604482015261756560f01b6064820152608490fd5b634e487b7160e01b600052602160045260246000fd5b90604181511460001461495857614954916020820151906060604084015193015160001a90614962565b9091565b5050600090600290565b9291907f7fffffffffffffffffffffffffffffff5d576e7357a4501ddfe92f46681b20a083116149e55791608094939160ff602094604051948552168484015260408301526060820152600093849182805260015afa156149d85781516001600160a01b038116156149d2579190565b50600190565b50604051903d90823e3d90fd5b50505050600090600390565b92909192614a0261033484806124e9565b928351602080950120614a1860c0830183612a4d565b95608094614a2b610334878a018a6124e9565b87815191012093614a4261033460a08b018b6124e9565b888151910120936040998a958651978b808a01937fa818ce6f329a6af9beb66ef1c364c448339fc3a19db33e1b65bedceba7338b54855280358a8c01526060998a92820135838d01528101358d8c0152013560a08a015260c089015260e088015260e0875261010096878101926001600160401b03988285108a8611176118b8578c958e6102609587825285519020906101208601987ff88977eecdbf775a533813b4696db3f691afc89de42b8bef0bf5e50e9e5a3e6e8a5261014095868801528301356101608701528201356101808601528a8201356101a08601528d8201356101c086015260a08201356101e086015261020085015260e08101356102208501520135610240830152835201818110878211176118b8578a5251902093614b6a82612144565b9260005b838110614c08575050505086518681018181938981519391019260005b8b828210614bf157505050614ba9925003601f198101835282611932565b519020928651958601967f0b8caa4f97000fec4b50e429e04e67be1d62357665e179409bb39116192620f78852860152840152818301528152614beb816118ce565b51902090565b855184529485019486945090920191600101614b8b565b614c1661308982868561252a565b908a614c2382878661252a565b0135918c51928d8d8501927fe0247088fc96442dd11534497ef414a2cf540444b61acf7195ac994bacab0f6d845260018060a01b031690850152888401528783528a830192808410868511176118b857614c86938e525190206146248288612547565b614b6e565b8015614d2d5780816000925b614d175750614ca582611a46565b91614cb36040519384611932565b80835281601f19614cc383611a46565b013660208601375b614cd457505090565b6000198101908111611fd5578091600a9160308383068101809111611fd55760f81b6001600160f81b03191660001a90614d0e9086611ff8565b53049081614ccb565b9091614d24600a9161251b565b92910480614c97565b50604051614d3a816118fc565b60018152600360fc1b602082015290565b6001600160a01b031615614d5c5750565b60405163eac0d38960e01b815260206004820152908190610d5b906024830190611ad9565b15614d895750565b60405163589956a560e11b815260206004820152908190610d5b906024830190611ad9565b61271010614db857565b60405163589956a560e11b815260206004820152601560248201527476616c75652065786365656473206d6178696d756d60581b6044820152606490fdfe0c40893bf3c4e890eb5c92353d4cea2a7f4e1e60667d2e04ce77813b07f64ee4a26469706673582212208e39024ce30cf5b48c3c49a97e4725f8bde74e5303ffb3170cb01b20535c265d64736f6c634300081400332f8788117e7eff1d82e926ec794901d17c78024a50270940304540a733656f0d",
  "linkReferences": {},
  "deployedLinkReferences": {}
}