{
  "_format": "hh-sol-artifact-1",
  "contractName": "HokusaiToken",
  "sourceName": "contracts/HokusaiToken.sol",
  "abi": [
    {
      "inputs": [
        {
          "internalType": "string",
          "name": "_name",
          "type": "string"
        },
        {
          "internalType": "string",
          "name": "_symbol",
          "type": "string"
        },
        {
          "internalType": "address",
          "name": "_controller",
          "type": "address"
        },
        {
          "internalType": "address",
          "name": "_params",
          "type": "address"
        },
        {
          "internalType": "uint256",
          "name": "_initialSupply",
          "type": "uint256"
        },
        {
          "internalType": "uint256",
          "name": "_maxSupply",
          "type": "uint256"
        },
        {
          "internalType": "uint256",
          "name": "_modelSupplierAllocation",
          "type": "uint256"
        },
        {
          "internalType": "address",
          "name": "_modelSupplierRecipient",
          "type": "address"
        }
      ],
      "stateMutability": "nonpayable",
      "type": "constructor"
    },
    {
      "anonymous": false,
      "inputs": [
        {
          "indexed": true,
          "internalType": "address",
          "name": "owner",
          "type": "address"
        },
        {
          "indexed": true,
          "internalType": "address",
          "name": "spender",
          "type": "address"
        },
        {
          "indexed": false,
          "internalType": "uint256",
          "name": "value",
          "type": "uint256"
        }
      ],
      "name": "Approval",
      "type": "event"
    },
    {
      "anonymous": false,
      "inputs": [
        {
          "indexed": true,
          "internalType": "address",
          "name": "from",
          "type": "address"
        },
        {
          "indexed": false,
          "internalType": "uint256",
          "name": "amount",
          "type": "uint256"
        }
      ],
      "name": "Burned",
      "type": "event"
    },
    {
      "anonymous": false,
      "inputs": [
        {
          "indexed": true,
          "internalType": "address",
          "name": "newController",
          "type": "address"
        }
      ],
      "name": "ControllerUpdated",
      "type": "event"
    },
    {
      "anonymous": false,
      "inputs": [
        {
          "indexed": true,
          "internalType": "address",
          "name": "to",
          "type": "address"
        },
        {
          "indexed": false,
          "internalType": "uint256",
          "name": "amount",
          "type": "uint256"
        }
      ],
      "name": "Minted",
      "type": "event"
    },
    {
      "anonymous": false,
      "inputs": [
        {
          "indexed": true,
          "internalType": "address",
          "name": "recipient",
          "type": "address"
        },
        {
          "indexed": false,
          "internalType": "uint256",
          "name": "amount",
          "type": "uint256"
        }
      ],
      "name": "ModelSupplierAllocationDistributed",
      "type": "event"
    },
    {
      "anonymous": false,
      "inputs": [
        {
          "indexed": true,
          "internalType": "address",
          "name": "previousOwner",
          "type": "address"
        },
        {
          "indexed": true,
          "internalType": "address",
          "name": "newOwner",
          "type": "address"
        }
      ],
      "name": "OwnershipTransferred",
      "type": "event"
    },
    {
      "anonymous": false,
      "inputs": [
        {
          "indexed": false,
          "internalType": "uint256",
          "name": "initialSupply",
          "type": "uint256"
        },
        {
          "indexed": false,
          "internalType": "uint256",
          "name": "maxSupply",
          "type": "uint256"
        },
        {
          "indexed": false,
          "internalType": "uint256",
          "name": "modelSupplierAllocation",
          "type": "uint256"
        },
        {
          "indexed": true,
          "internalType": "address",
          "name": "modelSupplierRecipient",
          "type": "address"
        }
      ],
      "name": "TokenSupplyConfigured",
      "type": "event"
    },
    {
      "anonymous": false,
      "inputs": [
        {
          "indexed": true,
          "internalType": "address",
          "name": "from",
          "type": "address"
        },
        {
          "indexed": true,
          "internalType": "address",
          "name": "to",
          "type": "address"
        },
        {
          "indexed": false,
          "internalType": "uint256",
          "name": "value",
          "type": "uint256"
        }
      ],
      "name": "Transfer",
      "type": "event"
    },
    {
      "inputs": [
        {
          "internalType": "address",
          "name": "owner",
          "type": "address"
        },
        {
          "internalType": "address",
          "name": "spender",
          "type": "address"
        }
      ],
      "name": "allowance",
      "outputs": [
        {
          "internalType": "uint256",
          "name": "",
          "type": "uint256"
        }
      ],
      "stateMutability": "view",
      "type": "function"
    },
    {
      "inputs": [
        {
          "internalType": "address",
          "name": "spender",
          "type": "address"
        },
        {
          "internalType": "uint256",
          "name": "amount",
          "type": "uint256"
        }
      ],
      "name": "approve",
      "outputs": [
        {
          "internalType": "bool",
          "name": "",
          "type": "bool"
        }
      ],
      "stateMutability": "nonpayable",
      "type": "function"
    },
    {
      "inputs": [
        {
          "internalType": "address",
          "name": "account",
          "type": "address"
        }
      ],
      "name": "balanceOf",
      "outputs": [
        {
          "internalType": "uint256",
          "name": "",
          "type": "uint256"
        }
      ],
      "stateMutability": "view",
      "type": "function"
    },
    {
      "inputs": [
        {
          "internalType": "uint256",
          "name": "amount",
          "type": "uint256"
        }
      ],
      "name": "burn",
      "outputs": [],
      "stateMutability": "nonpayable",
      "type": "function"
    },
    {
      "inputs": [
        {
          "internalType": "address",
          "name": "from",
          "type": "address"
        },
        {
          "internalType": "uint256",
          "name": "amount",
          "type": "uint256"
        }
      ],
      "name": "burnFrom",
      "outputs": [],
      "stateMutability": "nonpayable",
      "type": "function"
    },
    {
      "inputs": [],
      "name": "controller",
      "outputs": [
        {
          "internalType": "address",
          "name": "",
          "type": "address"
        }
      ],
      "stateMutability": "view",
      "type": "function"
    },
    {
      "inputs": [],
      "name": "decimals",
      "outputs": [
        {
          "internalType": "uint8",
          "name": "",
          "type": "uint8"
        }
      ],
      "stateMutability": "view",
      "type": "function"
    },
    {
      "inputs": [
        {
          "internalType": "address",
          "name": "spender",
          "type": "address"
        },
        {
          "internalType": "uint256",
          "name": "subtractedValue",
          "type": "uint256"
        }
      ],
      "name": "decreaseAllowance",
      "outputs": [
        {
          "internalType": "bool",
          "name": "",
          "type": "bool"
        }
      ],
      "stateMutability": "nonpayable",
      "type": "function"
    },
    {
      "inputs": [],
      "name": "distributeModelSupplierAllocation",
      "outputs": [],
      "stateMutability": "nonpayable",
      "type": "function"
    },
    {
      "inputs": [],
      "name": "getRemainingSupply",
      "outputs": [
        {
          "internalType": "uint256",
          "name": "",
          "type": "uint256"
        }
      ],
      "stateMutability": "view",
      "type": "function"
    },
    {
      "inputs": [
        {
          "internalType": "address",
          "name": "spender",
          "type": "address"
        },
        {
          "internalType": "uint256",
          "name": "addedValue",
          "type": "uint256"
        }
      ],
      "name": "increaseAllowance",
      "outputs": [
        {
          "internalType": "bool",
          "name": "",
          "type": "bool"
        }
      ],
      "stateMutability": "nonpayable",
      "type": "function"
    },
    {
      "inputs": [],
      "name": "maxSupply",
      "outputs": [
        {
          "internalType": "uint256",
          "name": "",
          "type": "uint256"
        }
      ],
      "stateMutability": "view",
      "type": "function"
    },
    {
      "inputs": [
        {
          "internalType": "address",
          "name": "to",
          "type": "address"
        },
        {
          "internalType": "uint256",
          "name": "amount",
          "type": "uint256"
        }
      ],
      "name": "mint",
      "outputs": [],
      "stateMutability": "nonpayable",
      "type": "function"
    },
    {
      "inputs": [],
      "name": "modelSupplierAllocation",
      "outputs": [
        {
          "internalType": "uint256",
          "name": "",
          "type": "uint256"
        }
      ],
      "stateMutability": "view",
      "type": "function"
    },
    {
      "inputs": [],
      "name": "modelSupplierDistributed",
      "outputs": [
        {
          "internalType": "bool",
          "name": "",
          "type": "bool"
        }
      ],
      "stateMutability": "view",
      "type": "function"
    },
    {
      "inputs": [],
      "name": "modelSupplierRecipient",
      "outputs": [
        {
          "internalType": "address",
          "name": "",
          "type": "address"
        }
      ],
      "stateMutability": "view",
      "type": "function"
    },
    {
      "inputs": [],
      "name": "name",
      "outputs": [
        {
          "internalType": "string",
          "name": "",
          "type": "string"
        }
      ],
      "stateMutability": "view",
      "type": "function"
    },
    {
      "inputs": [],
      "name": "owner",
      "outputs": [
        {
          "internalType": "address",
          "name": "",
          "type": "address"
        }
      ],
      "stateMutability": "view",
      "type": "function"
    },
    {
      "inputs": [],
      "name": "params",
      "outputs": [
        {
          "internalType": "contract IHokusaiParams",
          "name": "",
          "type": "address"
        }
      ],
      "stateMutability": "view",
      "type": "function"
    },
    {
      "inputs": [],
      "name": "renounceOwnership",
      "outputs": [],
      "stateMutability": "nonpayable",
      "type": "function"
    },
    {
      "inputs": [
        {
          "internalType": "address",
          "name": "_controller",
          "type": "address"
        }
      ],
      "name": "setController",
      "outputs": [],
      "stateMutability": "nonpayable",
      "type": "function"
    },
    {
      "inputs": [],
      "name": "symbol",
      "outputs": [
        {
          "internalType": "string",
          "name": "",
          "type": "string"
        }
      ],
      "stateMutability": "view",
      "type": "function"
    },
    {
      "inputs": [],
      "name": "totalSupply",
      "outputs": [
        {
          "internalType": "uint256",
          "name": "",
          "type": "uint256"
        }
      ],
      "stateMutability": "view",
      "type": "function"
    },
    {
      "inputs": [
        {
          "internalType": "address",
          "name": "to",
          "type": "address"
        },
        {
          "internalType": "uint256",
          "name": "amount",
          "type": "uint256"
        }
      ],
      "name": "transfer",
      "outputs": [
        {
          "internalType": "bool",
          "name": "",
          "type": "bool"
        }
      ],
      "stateMutability": "nonpayable",
      "type": "function"
    },
    {
      "inputs": [
        {
          "internalType": "address",
          "name": "from",
          "type": "address"
        },
        {
          "internalType": "address",
          "name": "to",
          "type": "address"
        },
        {
          "internalType": "uint256",
          "name": "amount",
          "type": "uint256"
        }
      ],
      "name": "transferFrom",
      "outputs": [
        {
          "internalType": "bool",
          "name": "",
          "type": "bool"
        }
      ],
      "stateMutability": "nonpayable",
      "type": "function"
    },
    {
      "inputs": [
        {
          "internalType": "address",
          "name": "newOwner",
          "type": "address"
        }
      ],
      "name": "transferOwnership",
      "outputs": [],
      "stateMutability": "nonpayable",
      "type": "function"
    }
  ],
  "bytecode": "0x6040610100815234620007c25762001b4f90813803806200002081620007c7565b938439820161010083820312620007c25782516001600160401b0390818111620007c2578262000052918601620007ed565b6020928386015190838211620007c2576200006f918701620007ed565b916200007d8587016200085f565b956200008c606082016200085f565b9660808201519460a083015191620000ac60e060c086015195016200085f565b918651868111620006bc576003968754916001928381811c91168015620007b7575b8d821014620007a15780601f8e921162000751575b5050808c601f8211600114620006de57600091620006d2575b50600019828b1b1c191690831b1788555b8251908111620006bc5760049788548381811c91168015620006b1575b8d8210146200069c5780601f8e92116200064c575b50508b601f8311600114620005dc5782938391600094620005d0575b501b92600019911b1c19161786555b60058054336001600160a01b0319821681179092558b516001600160a01b0399909290918a167f8be0079c531659141344cd1fd0a4f28419497f9722a3daafe3b4186f6b6457e0600080a351156200058f575051156200054c578516988915620004ff578516918215620004bc578015938415918562000462578082116200040a5787841615620003af575b6006549460805282600014620003a5575b60a052600082156200039d57505b60c052600090156200039557505b60e0526001600160a81b031916871760a082901b60ff60a01b1617600655620002e9575b5060008051602062001b2f8339815191529160609160a05160c0519160e0511695875193845283015285820152a251907f1304018cfe79741dcf02ba6b61d39cc4757d59395d03224d9925c7aa83002146600080a26112ba908162000875823960805181610365015260a05181818161032d015281816109bf0152611236015260c0518181816103cc0152610919015260e051818181610279015261042a0152f35b600254908382018092116200038057509160609160008051602062001b2f833981519152936002558660005260008552856000208281540190558660007fddf252ad1be2c89b69c2b068fc378daa952ba7f163c4a11628f55a4df523b3ef878951868152a3867f30385c845b448a36257a6a1716e6ad2e1bc2cbe333cde1e69fe849ad6511adfe868851858152a291509162000247565b601190634e487b7160e01b6000525260246000fd5b905062000223565b905062000215565b5060001962000207565b8a5162461bcd60e51b81528088018b9052602f60248201527f4d6f64656c20737570706c69657220726563697069656e742063616e6e6f742060448201526e6265207a65726f206164647265737360881b6064820152608490fd5b8a5162461bcd60e51b81528088018b9052602c60248201527f4d6f64656c20737570706c69657220616c6c6f636174696f6e2065786365656460448201526b73206d617820737570706c7960a01b6064820152608490fd5b88620001f6578a5162461bcd60e51b81528088018b9052602860248201527f496e697469616c20737570706c79206d7573742062652067726561746572207460448201526768616e207a65726f60c01b6064820152608490fd5b885162461bcd60e51b8152808601899052601d60248201527f506172616d732063616e6e6f74206265207a65726f20616464726573730000006044820152606490fd5b885162461bcd60e51b8152808601899052602160248201527f436f6e74726f6c6c65722063616e6e6f74206265207a65726f206164647265736044820152607360f81b6064820152608490fd5b885162461bcd60e51b8152808601899052601c60248201527f546f6b656e2073796d626f6c2063616e6e6f7420626520656d707479000000006044820152606490fd5b62461bcd60e51b81528681018a9052601a60248201527f546f6b656e206e616d652063616e6e6f7420626520656d7074790000000000006044820152606490fd5b8601519350386200015b565b908c9183601f1981168c60005284600020946000905b888383106200062e575050501062000613575b505050811b0186556200016a565b8501519060f884600019921b161c1916905538808062000605565b9092935084968392958b015181550195019201908f918692620005f2565b8a6000528160002090601f850160051c820192851062000691575b601f0160051c019084905b8281106200068457508d91506200013f565b6000815501849062000672565b909150819062000667565b60228a634e487b7160e01b6000525260246000fd5b90607f16906200012a565b634e487b7160e01b600052604160045260246000fd5b90508a015138620000fc565b8492508d90601f1983168c6000528d83600020936000915b8383106200072f57505050831162000716575b5050811b0188556200010d565b8c0151600019838d1b60f8161c19169055388062000709565b94848294959798929396015181550194019201908f9187959493928f620006f6565b8a6000528160002090601f840160051c820192841062000796575b601f0160051c019084905b8281106200078957508d9150620000e3565b6000815501849062000777565b90915081906200076c565b634e487b7160e01b600052602260045260246000fd5b90607f1690620000ce565b600080fd5b6040519190601f01601f191682016001600160401b03811183821017620006bc57604052565b919080601f84011215620007c25782516001600160401b038111620006bc5760209062000823601f8201601f19168301620007c7565b92818452828287010111620007c25760005b8181106200084b57508260009394955001015290565b858101830151848201840152820162000835565b51906001600160a01b0382168203620007c25756fe608060408181526004918236101561001657600080fd5b600092833560e01c91826306fdde0314610bf257508163095ea7b314610bc857816318160ddd14610ba957816323b872dd14610adf578163313ce56714610ac35781633950935114610a7357816340c10f191461098857816342966c681461093c578163626e3ca11461090157816370a08231146108ca578163715018a61461086d57816379cc6790146107fe5781638da5cb5b146107d557816392eefe9b1461071a57816395d89b41146105fb578163a457c2d714610553578163a9059cbb14610522578163bd24fcbc14610394578163cff0ab9614610350578163d5abeb0114610315578163dd62ed3e146102cc578163e4b7fb73146102a8578163ec8e202714610264578163f2fde38b1461019457508063f6986be41461016e5763f77c47911461014357600080fd5b3461016a578160031936011261016a5760065490516001600160a01b039091168152602090f35b5080fd5b503461016a578160031936011261016a5760209060ff60065460a01c1690519015158152f35b905034610260576020366003190112610260576101af610d13565b906101b8610d44565b6001600160a01b0391821692831561020e575050600554826bffffffffffffffffffffffff60a01b821617600555167f8be0079c531659141344cd1fd0a4f28419497f9722a3daafe3b4186f6b6457e08380a380f35b906020608492519162461bcd60e51b8352820152602660248201527f4f776e61626c653a206e6577206f776e657220697320746865207a65726f206160448201526564647265737360d01b6064820152fd5b8280fd5b50503461016a578160031936011261016a57517f00000000000000000000000000000000000000000000000000000000000000006001600160a01b03168152602090f35b50503461016a578160031936011261016a576020906102c5611234565b9051908152f35b50503461016a578060031936011261016a57806020926102ea610d13565b6102f2610d2e565b6001600160a01b0391821683526001865283832091168252845220549051908152f35b50503461016a578160031936011261016a57602090517f00000000000000000000000000000000000000000000000000000000000000008152f35b50503461016a578160031936011261016a57517f00000000000000000000000000000000000000000000000000000000000000006001600160a01b03168152602090f35b9050346102605782600319360112610260576006546001600160a01b03906103bf338383161461102f565b60ff8160a01c166104c9577f0000000000000000000000000000000000000000000000000000000000000000928315610486575060ff60a01b1916600160a01b176006557f30385c845b448a36257a6a1716e6ad2e1bc2cbe333cde1e69fe849ad6511adfe916020917f0000000000000000000000000000000000000000000000000000000000000000610453838261108a565b1693847fb71d11f022b6c23474b4536111551f053baee44ea3d7749c03e6eb80a1d8035b848351858152a251908152a280f35b606490602086519162461bcd60e51b8352820152602060248201527f4e6f206d6f64656c20737570706c69657220616c6c6f636174696f6e207365746044820152fd5b835162461bcd60e51b8152602081850152602d60248201527f4d6f64656c20737570706c69657220616c6c6f636174696f6e20616c7265616460448201526c1e48191a5cdd1c9a589d5d1959609a1b6064820152608490fd5b50503461016a578060031936011261016a5760209061054c610542610d13565b6024359033610dbf565b5160018152f35b905082346105f857826003193601126105f85761056e610d13565b918360243592338152600160205281812060018060a01b03861682526020522054908282106105a75760208561054c8585038733610f2d565b608490602086519162461bcd60e51b8352820152602560248201527f45524332303a2064656372656173656420616c6c6f77616e63652062656c6f77604482015264207a65726f60d81b6064820152fd5b80fd5b83833461016a578160031936011261016a57805190828454600181811c90808316928315610710575b60209384841081146106fd578388529081156106e1575060011461068c575b505050829003601f01601f191682019267ffffffffffffffff8411838510176106795750829182610675925282610cca565b0390f35b634e487b7160e01b815260418552602490fd5b8787529192508591837f8a35acfbc15ff81a39ae7d344fd709f28e8600b4aa8c65c6b64bfe7fe36bd19b5b8385106106cd5750505050830101858080610643565b8054888601830152930192849082016106b7565b60ff1916878501525050151560051b8401019050858080610643565b634e487b7160e01b895260228a52602489fd5b91607f1691610624565b90503461026057602036600319011261026057610735610d13565b61073d610d44565b6001600160a01b0316918215610788575050600680546001600160a01b031916821790557f1304018cfe79741dcf02ba6b61d39cc4757d59395d03224d9925c7aa830021468280a280f35b906020608492519162461bcd60e51b8352820152602160248201527f436f6e74726f6c6c65722063616e6e6f74206265207a65726f206164647265736044820152607360f81b6064820152fd5b50503461016a578160031936011261016a5760055490516001600160a01b039091168152602090f35b50503461016a578060031936011261016a577f696de425f79f4a40bc6d2122ca50507f0efbeabbff86a84871b7196ab8ea8df7602061083b610d13565b600654602435946001600160a01b039291610859908416331461102f565b610863868361112d565b519485521692a280f35b83346105f857806003193601126105f857610886610d44565b600580546001600160a01b0319811690915581906001600160a01b03167f8be0079c531659141344cd1fd0a4f28419497f9722a3daafe3b4186f6b6457e08280a380f35b50503461016a57602036600319011261016a5760209181906001600160a01b036108f2610d13565b16815280845220549051908152f35b50503461016a578160031936011261016a57602090517f00000000000000000000000000000000000000000000000000000000000000008152f35b90503461026057602036600319011261026057359061095b823361112d565b519081527f696de425f79f4a40bc6d2122ca50507f0efbeabbff86a84871b7196ab8ea8df760203392a280f35b9050346102605781600319360112610260576109a2610d13565b6024359260018060a01b03926109bd8460065416331461102f565b7f00000000000000000000000000000000000000000000000000000000000000006000198110610a1a575b505091817f30385c845b448a36257a6a1716e6ad2e1bc2cbe333cde1e69fe849ad6511adfe936108638660209561108a565b610a2686600254610d9c565b11610a3157806109e8565b6020606492519162461bcd60e51b8352820152601f60248201527f4d696e74696e6720776f756c6420657863656564206d617820737570706c79006044820152fd5b50503461016a578060031936011261016a5761054c602092610abc610a96610d13565b338352600186528483206001600160a01b03821684528652918490205460243590610d9c565b9033610f2d565b50503461016a578160031936011261016a576020905160128152f35b8391503461016a57606036600319011261016a57610afb610d13565b610b03610d2e565b91846044359460018060a01b038416815260016020528181203382526020522054906000198203610b3d575b60208661054c878787610dbf565b848210610b665750918391610b5b6020969561054c95033383610f2d565b919394819350610b2f565b606490602087519162461bcd60e51b8352820152601d60248201527f45524332303a20696e73756666696369656e7420616c6c6f77616e63650000006044820152fd5b50503461016a578160031936011261016a576020906002549051908152f35b50503461016a578060031936011261016a5760209061054c610be8610d13565b6024359033610f2d565b8490843461026057826003193601126102605782600354600181811c90808316928315610cc0575b60209384841081146106fd578388529081156106e15750600114610c6a57505050829003601f01601f191682019267ffffffffffffffff8411838510176106795750829182610675925282610cca565b600387529192508591837fc2575a0e9e593c00f959f8c92f12db2869c3395a3b0502d05e2516446f71f85b5b838510610cac5750505050830101858080610643565b805488860183015293019284908201610c96565b91607f1691610c1a565b6020808252825181830181905290939260005b828110610cff57505060409293506000838284010152601f8019910116010190565b818101860151848201604001528501610cdd565b600435906001600160a01b0382168203610d2957565b600080fd5b602435906001600160a01b0382168203610d2957565b6005546001600160a01b03163303610d5857565b606460405162461bcd60e51b815260206004820152602060248201527f4f776e61626c653a2063616c6c6572206973206e6f7420746865206f776e65726044820152fd5b91908201809211610da957565b634e487b7160e01b600052601160045260246000fd5b6001600160a01b03908116918215610eda5716918215610e8957600082815280602052604081205491808310610e3557604082827fddf252ad1be2c89b69c2b068fc378daa952ba7f163c4a11628f55a4df523b3ef958760209652828652038282205586815220818154019055604051908152a3565b60405162461bcd60e51b815260206004820152602660248201527f45524332303a207472616e7366657220616d6f756e7420657863656564732062604482015265616c616e636560d01b6064820152608490fd5b60405162461bcd60e51b815260206004820152602360248201527f45524332303a207472616e7366657220746f20746865207a65726f206164647260448201526265737360e81b6064820152608490fd5b60405162461bcd60e51b815260206004820152602560248201527f45524332303a207472616e736665722066726f6d20746865207a65726f206164604482015264647265737360d81b6064820152608490fd5b6001600160a01b03908116918215610fde5716918215610f8e5760207f8c5be1e5ebec7d5bd14f71427d1e84f3dd0314c0f7b2291e5b200ac8c7c3b925918360005260018252604060002085600052825280604060002055604051908152a3565b60405162461bcd60e51b815260206004820152602260248201527f45524332303a20617070726f766520746f20746865207a65726f206164647265604482015261737360f01b6064820152608490fd5b60405162461bcd60e51b8152602060048201526024808201527f45524332303a20617070726f76652066726f6d20746865207a65726f206164646044820152637265737360e01b6064820152608490fd5b1561103657565b60405162461bcd60e51b815260206004820152602660248201527f4f6e6c7920636f6e74726f6c6c65722063616e2063616c6c20746869732066756044820152653731ba34b7b760d11b6064820152608490fd5b6001600160a01b03169081156110e8577fddf252ad1be2c89b69c2b068fc378daa952ba7f163c4a11628f55a4df523b3ef6020826110cc600094600254610d9c565b60025584845283825260408420818154019055604051908152a3565b60405162461bcd60e51b815260206004820152601f60248201527f45524332303a206d696e7420746f20746865207a65726f2061646472657373006044820152606490fd5b6001600160a01b031680156111e55760009181835282602052604083205481811061119557817fddf252ad1be2c89b69c2b068fc378daa952ba7f163c4a11628f55a4df523b3ef926020928587528684520360408620558060025403600255604051908152a3565b60405162461bcd60e51b815260206004820152602260248201527f45524332303a206275726e20616d6f756e7420657863656564732062616c616e604482015261636560f01b6064820152608490fd5b60405162461bcd60e51b815260206004820152602160248201527f45524332303a206275726e2066726f6d20746865207a65726f206164647265736044820152607360f81b6064820152608490fd5b7f00000000000000000000000000000000000000000000000000000000000000006000198082101561127f575060025481811015611278578103908111610da95790565b5050600090565b90509056fea264697066735822122070ab2d8af18cd87327b8def6311dd9f1b44006ff7e9bc6c5fe4016207e6a08b264736f6c63430008140033ad17ccf4efd4cb33dbadc5560f91b6dddf3afe8206aa95f972abaef1ab01c4d0",
  "linkReferences": {},
  "deployedLinkReferences": {}
}