{
  "_format": "hh-sol-artifact-1",
  "contractName": "UsageFeeRouter",
  "sourceName": "contracts/UsageFeeRouter.sol",
  "abi": [
    {
      "inputs": [
        {
          "internalType": "address",
          "name": "_factory",
          "type": "address"
        },
        {
          "internalType": "address",
          "name": "_reserveToken",
          "type": "address"
        },
        {
          "internalType": "address",
          "name": "_infraReserve",
          "type": "address"
        },
        {
          "internalType": "address",
          "name": "_costOracle",
          "type": "address"
        }
      ],
      "stateMutability": "nonpayable",
      "type": "constructor"
    },
    {
      "inputs": [],
      "name": "ArrayEmpty",
      "type": "error"
    },
    {
      "inputs": [
        {
          "internalType": "uint256",
          "name": "expected",
          "type": "uint256"
        },
        {
          "internalType": "uint256",
          "name": "actual",
          "type": "uint256"
        }
      ],
      "name": "ArrayLengthMismatch",
      "type": "error"
    },
    {
      "inputs": [
        {
          "internalType": "string",
          "name": "context",
          "type": "string"
        }
      ],
      "name": "EmptyString",
      "type": "error"
    },
    {
      "inputs": [
        {
          "internalType": "string",
          "name": "context",
          "type": "string"
        }
      ],
      "name": "InvalidAmount",
      "type": "error"
    },
    {
      "inputs": [
        {
          "internalType": "string",
          "name": "context",
          "type": "string"
        }
      ],
      "name": "ZeroAddress",
      "type": "error"
    },
    {
      "anonymous": false,
      "inputs": [
        {
          "indexed": false,
          "internalType": "uint256",
          "name": "totalAmount",
          "type": "uint256"
        },
        {
          "indexed": false,
          "internalType": "uint256",
          "name": "totalInfrastructure",
          "type": "uint256"
        },
        {
          "indexed": false,
          "internalType": "uint256",
          "name": "totalProfit",
          "type": "uint256"
        },
        {
          "indexed": false,
          "internalType": "uint256",
          "name": "modelCount",
          "type": "uint256"
        },
        {
          "indexed": true,
          "internalType": "address",
          "name": "depositor",
          "type": "address"
        }
      ],
      "name": "BatchDeposited",
      "type": "event"
    },
    {
      "anonymous": false,
      "inputs": [
        {
          "indexed": true,
          "internalType": "string",
          "name": "modelId",
          "type": "string"
        },
        {
          "indexed": true,
          "internalType": "address",
          "name": "poolAddress",
          "type": "address"
        },
        {
          "indexed": false,
          "internalType": "uint256",
          "name": "totalAmount",
          "type": "uint256"
        },
        {
          "indexed": false,
          "internalType": "uint256",
          "name": "infrastructureAmount",
          "type": "uint256"
        },
        {
          "indexed": false,
          "internalType": "uint256",
          "name": "profitAmount",
          "type": "uint256"
        },
        {
          "indexed": true,
          "internalType": "address",
          "name": "depositor",
          "type": "address"
        }
      ],
      "name": "FeeDeposited",
      "type": "event"
    },
    {
      "anonymous": false,
      "inputs": [
        {
          "indexed": true,
          "internalType": "string",
          "name": "modelId",
          "type": "string"
        },
        {
          "indexed": false,
          "internalType": "uint256",
          "name": "totalFee",
          "type": "uint256"
        },
        {
          "indexed": false,
          "internalType": "uint256",
          "name": "infraShare",
          "type": "uint256"
        },
        {
          "indexed": false,
          "internalType": "uint256",
          "name": "profitShare",
          "type": "uint256"
        },
        {
          "indexed": false,
          "internalType": "uint256",
          "name": "callCount",
          "type": "uint256"
        },
        {
          "indexed": false,
          "internalType": "enum UsageFeeRouter.CostBasis",
          "name": "costBasis",
          "type": "uint8"
        }
      ],
      "name": "FeeSplitCalculated",
      "type": "event"
    },
    {
      "anonymous": false,
      "inputs": [
        {
          "indexed": true,
          "internalType": "bytes32",
          "name": "role",
          "type": "bytes32"
        },
        {
          "indexed": true,
          "internalType": "bytes32",
          "name": "previousAdminRole",
          "type": "bytes32"
        },
        {
          "indexed": true,
          "internalType": "bytes32",
          "name": "newAdminRole",
          "type": "bytes32"
        }
      ],
      "name": "RoleAdminChanged",
      "type": "event"
    },
    {
      "anonymous": false,
      "inputs": [
        {
          "indexed": true,
          "internalType": "bytes32",
          "name": "role",
          "type": "bytes32"
        },
        {
          "indexed": true,
          "internalType": "address",
          "name": "account",
          "type": "address"
        },
        {
          "indexed": true,
          "internalType": "address",
          "name": "sender",
          "type": "address"
        }
      ],
      "name": "RoleGranted",
      "type": "event"
    },
    {
      "anonymous": false,
      "inputs": [
        {
          "indexed": true,
          "internalType": "bytes32",
          "name": "role",
          "type": "bytes32"
        },
        {
          "indexed": true,
          "internalType": "address",
          "name": "account",
          "type": "address"
        },
        {
          "indexed": true,
          "internalType": "address",
          "name": "sender",
          "type": "address"
        }
      ],
      "name": "RoleRevoked",
      "type": "event"
    },
    {
      "inputs": [],
      "name": "DEFAULT_ADMIN_ROLE",
      "outputs": [
        {
          "internalType": "bytes32",
          "name": "",
          "type": "bytes32"
        }
      ],
      "stateMutability": "view",
      "type": "function"
    },
    {
      "inputs": [],
      "name": "FEE_DEPOSITOR_ROLE",
      "outputs": [
        {
          "internalType": "bytes32",
          "name": "",
          "type": "bytes32"
        }
      ],
      "stateMutability": "view",
      "type": "function"
    },
    {
      "inputs": [
        {
          "internalType": "string[]",
          "name": "modelIds",
          "type": "string[]"
        },
        {
          "internalType": "uint256[]",
          "name": "amounts",
          "type": "uint256[]"
        },
        {
          "internalType": "uint256[]",
          "name": "callCounts",
          "type": "uint256[]"
        }
      ],
      "name": "batchDepositFees",
      "outputs": [],
      "stateMutability": "nonpayable",
      "type": "function"
    },
    {
      "inputs": [
        {
          "internalType": "string",
          "name": "modelId",
          "type": "string"
        },
        {
          "internalType": "uint256",
          "name": "amount",
          "type": "uint256"
        },
        {
          "internalType": "uint256",
          "name": "callCount",
          "type": "uint256"
        }
      ],
      "name": "calculateFeeSplit",
      "outputs": [
        {
          "internalType": "uint256",
          "name": "infrastructureAmount",
          "type": "uint256"
        },
        {
          "internalType": "uint256",
          "name": "profitAmount",
          "type": "uint256"
        },
        {
          "internalType": "enum UsageFeeRouter.CostBasis",
          "name": "costBasis",
          "type": "uint8"
        }
      ],
      "stateMutability": "view",
      "type": "function"
    },
    {
      "inputs": [],
      "name": "costOracle",
      "outputs": [
        {
          "internalType": "contract IInfrastructureCostOracle",
          "name": "",
          "type": "address"
        }
      ],
      "stateMutability": "view",
      "type": "function"
    },
    {
      "inputs": [
        {
          "internalType": "string",
          "name": "modelId",
          "type": "string"
        },
        {
          "internalType": "uint256",
          "name": "amount",
          "type": "uint256"
        },
        {
          "internalType": "uint256",
          "name": "callCount",
          "type": "uint256"
        }
      ],
      "name": "depositFee",
      "outputs": [],
      "stateMutability": "nonpayable",
      "type": "function"
    },
    {
      "inputs": [],
      "name": "factory",
      "outputs": [
        {
          "internalType": "contract HokusaiAMMFactory",
          "name": "",
          "type": "address"
        }
      ],
      "stateMutability": "view",
      "type": "function"
    },
    {
      "inputs": [],
      "name": "getBalance",
      "outputs": [
        {
          "internalType": "uint256",
          "name": "",
          "type": "uint256"
        }
      ],
      "stateMutability": "view",
      "type": "function"
    },
    {
      "inputs": [
        {
          "internalType": "string",
          "name": "modelId",
          "type": "string"
        }
      ],
      "name": "getModelFees",
      "outputs": [
        {
          "internalType": "uint256",
          "name": "",
          "type": "uint256"
        }
      ],
      "stateMutability": "view",
      "type": "function"
    },
    {
      "inputs": [
        {
          "internalType": "string",
          "name": "modelId",
          "type": "string"
        }
      ],
      "name": "getModelStats",
      "outputs": [
        {
          "internalType": "uint256",
          "name": "totalFees",
          "type": "uint256"
        },
        {
          "internalType": "uint256",
          "name": "currentInfraBps",
          "type": "uint256"
        },
        {
          "internalType": "uint256",
          "name": "currentProfitBps",
          "type": "uint256"
        }
      ],
      "stateMutability": "view",
      "type": "function"
    },
    {
      "inputs": [
        {
          "internalType": "bytes32",
          "name": "role",
          "type": "bytes32"
        }
      ],
      "name": "getRoleAdmin",
      "outputs": [
        {
          "internalType": "bytes32",
          "name": "",
          "type": "bytes32"
        }
      ],
      "stateMutability": "view",
      "type": "function"
    },
    {
      "inputs": [
        {
          "internalType": "bytes32",
          "name": "role",
          "type": "bytes32"
        },
        {
          "internalType": "address",
          "name": "account",
          "type": "address"
        }
      ],
      "name": "grantRole",
      "outputs": [],
      "stateMutability": "nonpayable",
      "type": "function"
    },
    {
      "inputs": [
        {
          "internalType": "bytes32",
          "name": "role",
          "type": "bytes32"
        },
        {
          "internalType": "address",
          "name": "account",
          "type": "address"
        }
      ],
      "name": "hasRole",
      "outputs": [
        {
          "internalType": "bool",
          "name": "",
          "type": "bool"
        }
      ],
      "stateMutability": "view",
      "type": "function"
    },
    {
      "inputs": [],
      "name": "infraReserve",
      "outputs": [
        {
          "internalType": "contract InfrastructureReserve",
          "name": "",
          "type": "address"
        }
      ],
      "stateMutability": "view",
      "type": "function"
    },
    {
      "inputs": [
        {
          "internalType": "address",
          "name": "account",
          "type": "address"
        }
      ],
      "name": "isDepositor",
      "outputs": [
        {
          "internalType": "bool",
          "name": "",
          "type": "bool"
        }
      ],
      "stateMutability": "view",
      "type": "function"
    },
    {
      "inputs": [
        {
          "internalType": "string",
          "name": "",
          "type": "string"
        }
      ],
      "name": "modelFees",
      "outputs": [
        {
          "internalType": "uint256",
          "name": "",
          "type": "uint256"
        }
      ],
      "stateMutability": "view",
      "type": "function"
    },
    {
      "inputs": [
        {
          "internalType": "bytes32",
          "name": "role",
          "type": "bytes32"
        },
        {
          "internalType": "address",
          "name": "account",
          "type": "address"
        }
      ],
      "name": "renounceRole",
      "outputs": [],
      "stateMutability": "nonpayable",
      "type": "function"
    },
    {
      "inputs": [],
      "name": "reserveToken",
      "outputs": [
        {
          "internalType": "contract IERC20",
          "name": "",
          "type": "address"
        }
      ],
      "stateMutability": "view",
      "type": "function"
    },
    {
      "inputs": [
        {
          "internalType": "bytes32",
          "name": "role",
          "type": "bytes32"
        },
        {
          "internalType": "address",
          "name": "account",
          "type": "address"
        }
      ],
      "name": "revokeRole",
      "outputs": [],
      "stateMutability": "nonpayable",
      "type": "function"
    },
    {
      "inputs": [
        {
          "internalType": "bytes4",
          "name": "interfaceId",
          "type": "bytes4"
        }
      ],
      "name": "supportsInterface",
      "outputs": [
        {
          "internalType": "bool",
          "name": "",
          "type": "bool"
        }
      ],
      "stateMutability": "view",
      "type": "function"
    },
    {
      "inputs": [],
      "name": "totalFeesDeposited",
      "outputs": [
        {
          "internalType": "uint256",
          "name": "",
          "type": "uint256"
        }
      ],
      "stateMutability": "view",
      "type": "function"
    }
  ],
  "bytecode": "0x610100346200033957601f6200297438819003918201601f191683019291906001600160401b038411838510176200033e5781608092849260409687528339810103126200033957620000528162000374565b906020916200006383830162000374565b906200007f60606200007787860162000374565b940162000374565b903315620002e557600093848052848652868520338652865260ff878620541615620002ad575b60018055620000d2620000b862000354565b6007815266666163746f727960c81b888201528362000389565b62000100620000e062000354565b600d81526c3932b9b2b93b32903a37b5b2b760991b888201528562000389565b6200013e6200010e62000354565b601681527f696e667261737472756374757265207265736572766500000000000000000000888201528262000389565b6200016a6200014c62000354565b600b81526a636f7374206f7261636c6560a81b888201528462000389565b6001600160a01b0391821660805292811660a05291821660c0521660e0527f1bf5670104934bd8d8bc73cd160291f07ed7e53ca09b1861afec09dbc3a14e6980825281835283822033835283528382205490929060ff161562000272575b83516125569081620003fe8239608051818181610204015281816103a8015281816103ff0152818161067f01528181610c6901528181611046015281816115d501526122b8015260a05181818161011e0152818161057601528181610823015281816109eb0152818161119d01526117db015260c0518181816109ac01528181610a2301528181610ac901528181610dfb0152611368015260e051818181610db6015261221b0152f35b8282528181528382209033835252828120600160ff19825416179055339160008051602062002954833981519152339280a4388080620001c8565b8480528486528685203386528652868520600160ff19825416179055333386600080516020620029548339815191528180a4620000a6565b855162461bcd60e51b815260048101869052602760248201527f416363657373436f6e74726f6c426173653a2061646d696e2063616e6e6f74206044820152666265207a65726f60c81b6064820152608490fd5b600080fd5b634e487b7160e01b600052604160045260246000fd5b60408051919082016001600160401b038111838210176200033e57604052565b51906001600160a01b03821682036200033957565b6001600160a01b0316156200039b5750565b6040519063eac0d38960e01b82528160208060048301528251908160248401526000935b828510620003e3575050604492506000838284010152601f80199101168101030190fd5b8481018201518686016044015293810193859350620003bf56fe61010080604052600436101561001457600080fd5b600090813560e01c90816301ffc9a7146118535750806312065fe0146117af57806320f0d00f14611791578063232aaae114611549578063248a9ca31461151d5780632512a63d14610fe15780632f2ff15d14610f315780632f70d1ba14610ebd57806336568abe14610e2a57806347c7b6c014610de557806358a39f9a146101905780638b00567214610da0578063903ca4ba14610d6557806391d1485414610d1a57806396f1c34614610c2157806399f5af3b1461024f578063a217fddf14610233578063c45a0155146101ee578063cdfe6aea14610190578063d547741f146101505763f4325d671461010957600080fd5b3461014d578060031936011261014d576040517f00000000000000000000000000000000000000000000000000000000000000006001600160a01b03168152602090f35b80fd5b503461014d57604036600319011261014d5761018d6004356101706119b9565b90808452836020526101886001604086200154611ca2565b611dd1565b80f35b503461014d57602036600319011261014d576004359067ffffffffffffffff821161014d5760206101db816101c8366004870161192c565b8160405193828580945193849201611a68565b8101600381520301902054604051908152f35b503461014d578060031936011261014d576040517f00000000000000000000000000000000000000000000000000000000000000006001600160a01b03168152602090f35b503461014d578060031936011261014d57602090604051908152f35b503461014d57606036600319011261014d5760043567ffffffffffffffff808211610b185736602383011215610b185781600401359161028e836119f2565b9261029c604051948561190a565b80845260051b810160240160208401368211610c1d5760248301905b828210610bf15750505050602435818111610b71576102db903690600401611a0a565b90604435908111610b71576102f4903690600401611a0a565b916102fd61213c565b610305611a8b565b61031281518351906124f6565b61031f81518451906124f6565b805115610bdf578360c052836080528392845b825181101561053f5761035761034882866121a1565b51610351611fb1565b9061249b565b61037361036482856121a1565b5161036d611fd3565b906124c8565b6103a4602061038283866121a1565b516040518093819263b8c10b1560e01b83528460048401526024830190611dac565b03817f00000000000000000000000000000000000000000000000000000000000000006001600160a01b03165afa80156104e8576103e9918891610520575b5061200f565b6040516305746def60e31b8152906020826004817f00000000000000000000000000000000000000000000000000000000000000006001600160a01b03165afa9182156104e85761046d9260209189916104f3575b5061044983876121a1565b5190604051808096819463095bf76b60e01b83528660048401526024830190611dac565b03916001600160a01b03165afa9182156104e8576104b4926104969189916104b9575b50612070565b6104ac6104a382876121a1565b5160c051611e6e565b60c052612192565b610332565b6104db915060203d6020116104e1575b6104d3818361190a565b810190611ff7565b38610490565b503d6104c9565b6040513d89823e3d90fd5b6105139150823d8411610519575b61050b818361190a565b810190612051565b3861043e565b503d610501565b610539915060203d6020116104e1576104d3818361190a565b386103e3565b506040516323b872dd60e01b815260c051336004830152306024830152604482015290939190602081606481896001600160a01b037f0000000000000000000000000000000000000000000000000000000000000000165af18015610bd4576105b4918791610bb5575b5090869392916120b3565b8051916105c0836119f2565b926105ce604051948561190a565b8084526105dd601f19916119f2565b01845b818110610b9f57505081516106036105f7826119f2565b6040518060a05261190a565b8060a05152610614601f19916119f2565b0136602060a05101378360e0525b815160e05110156109365761063960e051836121a1565b5161064660e051876121a1565b519061065460e051896121a1565b51906040516320ebd81360e11b8152602060048201526020818061067b6024820186611dac565b03817f00000000000000000000000000000000000000000000000000000000000000006001600160a01b03165afa94851561092b57879189966108fa575b5091610713918585946106d06106ee9783866121dc565b92829982989396886106e460e051836121a1565b5260e051906121a1565b50856106fe60e05160a0516121a1565b5261070b86608051611e6e565b608052611e6e565b9b856107ed575b506107b593927f571c8eee1c728579be884b6fd3bc85d0cbe96224b1d2d882abb48172c8adf11096926107ad7f58c553564ccbcda5ea07c7f36ee8878454257864faaef505aa30591d4b1f5470936040516020818161077f8b83815193849201611a68565b81016003815203019020610794848254611e6e565b905561079f876120f1565b958960405195869586612111565b0390a26120f1565b6040805195865260208601949094529284015233936001600160a01b031692606090a46107e360e051612192565b60e0528592610622565b60405163095ea7b360e01b81526001600160a01b038b8116600483015260248201889052929450925060209183916044918391907f0000000000000000000000000000000000000000000000000000000000000000165af180156108ed576108ce575b506001600160a01b0387163b156108be57604051630ebdac0960e41b815260048101849052908d908183602481836001600160a01b038e165af19182156108c257879389936108a0575b5061071a565b9092506108af919493506118a8565b6108be57908585918e3861089a565b8c80fd5b604051903d90823e3d90fd5b6108e69060203d6020116104e1576104d3818361190a565b5038610850565b8e604051903d90823e3d90fd5b6106ee9493919650918561091f6107139460203d6020116105195761050b818361190a565b979294955050916106b9565b6040513d8a823e3d90fd5b9160805161099a575b5061094e60c051600254611e6e565b600255516040519160c05183526080516020840152604083015260608201527fd4fafe23c2b8a1747ec03a410b26ac98433ab2f18d6ec78fd82363bf4d583c7760803392a26001805580f35b60405163095ea7b360e01b81526080517f00000000000000000000000000000000000000000000000000000000000000006001600160a01b03166004830152602482015260208180604481010381887f00000000000000000000000000000000000000000000000000000000000000006001600160a01b03165af18015610b9457610b75575b507f00000000000000000000000000000000000000000000000000000000000000006001600160a01b03163b15610b715783906040519063fb29d41360e01b8252604482016040600484015281518091526064830190602060648260051b86010193019185905b828210610b405750505050600319828203016024830152602060a05151918281520190602060a0510190845b818110610b2757508492849250829003905081837f00000000000000000000000000000000000000000000000000000000000000006001600160a01b03165af18015610b1c57610b04575b5061093f565b610b0d906118a8565b610b18578284610afe565b8280fd5b6040513d84823e3d90fd5b8251845288955060209384019390920191600101610ab3565b9193600191939596506020610b6081926063198a82030186528851611dac565b960192019201889594939192610a87565b8380fd5b610b8d9060203d6020116104e1576104d3818361190a565b5084610a20565b6040513d87823e3d90fd5b60606020828701810191909152899650016105e0565b610bce915060203d6020116104e1576104d3818361190a565b386105a9565b6040513d88823e3d90fd5b604051633c4d929d60e21b8152600490fd5b8135858111610c1957602091610c0e83926024369189010161192c565b8152019101906102b8565b8780fd5b8580fd5b503461014d57610c3036611983565b92916040516320ebd81360e11b815260209384600483015281610c566024820185611dac565b6001600160a01b039391879183919003817f000000000000000000000000000000000000000000000000000000000000000087165afa9182156108c25791610cfd575b501615610cc757606093610cc592610cb0926121dc565b919360405194855284015260408301906119cf565bf35b60405162461bcd60e51b815260048101849052600e60248201526d141bdbdb081b9bdd08199bdd5b9960921b6044820152606490fd5b610d149150853d87116105195761050b818361190a565b38610c99565b503461014d57604036600319011261014d576040610d366119b9565b91600435815280602052209060018060a01b0316600052602052602060ff604060002054166040519015158152f35b503461014d578060031936011261014d5760206040517f1bf5670104934bd8d8bc73cd160291f07ed7e53ca09b1861afec09dbc3a14e698152f35b503461014d578060031936011261014d576040517f00000000000000000000000000000000000000000000000000000000000000006001600160a01b03168152602090f35b503461014d578060031936011261014d576040517f00000000000000000000000000000000000000000000000000000000000000006001600160a01b03168152602090f35b503461014d57604036600319011261014d57610e446119b9565b336001600160a01b03821603610e605761018d90600435611dd1565b60405162461bcd60e51b815260206004820152602f60248201527f416363657373436f6e74726f6c3a2063616e206f6e6c792072656e6f756e636560448201526e103937b632b9903337b91039b2b63360891b6064820152608490fd5b503461014d57602036600319011261014d576004356001600160a01b0381169190829003610f2c57807f1bf5670104934bd8d8bc73cd160291f07ed7e53ca09b1861afec09dbc3a14e6960409252806020522090600052602052602060ff604060002054166040519015158152f35b600080fd5b503461014d57604036600319011261014d57600435610f4e6119b9565b81835282602052610f656001604085200154611ca2565b81835282602052604083209060018060a01b0316908160005260205260ff6040600020541615610f93578280f35b8183528260205260408320816000526020526040600020600160ff1982541617905533917f2f8788117e7eff1d82e926ec794901d17c78024a50270940304540a733656f0d8480a438808280f35b503461014d57610ff036611983565b9091610ffa61213c565b611002611a8b565b61101361100d611fb1565b8461249b565b61102461101e611fd3565b826124c8565b60405163b8c10b1560e01b8152602060048201819052916001600160a01b03917f0000000000000000000000000000000000000000000000000000000000000000831691908481806110796024820186611dac565b0381865afa801561092b57611094918991611506575061200f565b6040516305746def60e31b81528481600481865afa90811561092b5788916114e9575b5084604051809263095bf76b60e01b82528260048301528187816110de6024820189611dac565b0392165afa801561092b576110f99189916114d25750612070565b8360405180936320ebd81360e11b8252826004830152818061111e6024820187611dac565b03915afa9182156104e85787926114b3575b506040519461113e866118d2565b600c86526b706f6f6c206164647265737360a01b8587015283831695861561148c57506111cf61116f8289856121dc565b6040516323b872dd60e01b8152336004820152306024820152604481018c90529298909791969293919290917f0000000000000000000000000000000000000000000000000000000000000000841691908d908490879081906064820190565b038184875af194851561147f576111f08e968d988491611462575b506120b3565b86611359575b505087611293575b505091816107ad7f571c8eee1c728579be884b6fd3bc85d0cbe96224b1d2d882abb48172c8adf1109861127397969561125a7f58c553564ccbcda5ea07c7f36ee8878454257864faaef505aa30591d4b1f547096600254611e6e565b60025560405190818161077f8b83815193849201611a68565b604080519687526020870194909452928501523393606090a46001805580f35b60405163095ea7b360e01b81526001600160a01b03919091166004820152602481018890529193509091508290829060449082908e905af1801561134e57611331575b50863b1561132d57604051630ebdac0960e41b815260048101859052908982602481838c5af1908a82156108c25788938b93156111fe5790925061131d91959493506118a8565b61132d5790918786918a386111fe565b8880fd5b61134790823d84116104e1576104d3818361190a565b50386112d6565b6040513d8c823e3d90fd5b60405163095ea7b360e01b81527f0000000000000000000000000000000000000000000000000000000000000000919091166001600160a01b0381166004830152602482018d905294965092945090929091858160448186895af180156114575761143a575b50803b15611436578982916040518094818094638e27d71960e01b8252604060048301526113f18d6044840190611dac565b90602483015203925af1801561142b57611412575b918893918c8c946111f6565b918893919b6114218c946118a8565b9b91935091611406565b6040513d8e823e3d90fd5b5080fd5b61145090863d88116104e1576104d3818361190a565b50386113bf565b6040513d85823e3d90fd5b6114799150873d89116104e1576104d3818361190a565b386111ea565b50604051903d90823e3d90fd5b856114af60405192839263eac0d38960e01b845260048401526024830190611dac565b0390fd5b6114cb919250843d86116105195761050b818361190a565b9038611130565b6104db9150863d88116104e1576104d3818361190a565b6115009150853d87116105195761050b818361190a565b386110b7565b6105399150863d88116104e1576104d3818361190a565b503461014d57602036600319011261014d57600160406020926004358152808452200154604051908152f35b503461014d576020806003193601126114365760043567ffffffffffffffff8111610b185761157c90369060040161192c565b90828091604051818186516115948183858b01611a68565b810160038152030190205493604051906320ebd81360e11b8252826004830152816115c26024820183611dac565b6001600160a01b039391859183919003817f000000000000000000000000000000000000000000000000000000000000000087165afa908115610b94579083918691611774575b50168061162e575b60408051888152602081018a9052908101879052606090f35b0390f35b908360049260405193848092630a9c26c560e21b82525afa918215610b945783928592611680928892611755575b50604051948580948193638097587160e01b83528760048401526024830190611dac565b0392165afa90811561172d578491611738575b5016806116a2575b8080611611565b600492955081935060405192838092636dbbaf9f60e11b82525afa90811561172d5761ffff928592611700575b50501691612710908382039182116116ec575061162a388061169b565b634e487b7160e01b81526011600452602490fd5b61171f9250803d10611726575b611717818361190a565b8101906121b5565b38806116cf565b503d61170d565b6040513d86823e3d90fd5b61174f9150833d85116105195761050b818361190a565b38611693565b61176d919250843d86116105195761050b818361190a565b903861165c565b61178b9150853d87116105195761050b818361190a565b38611609565b503461014d578060031936011261014d576020600254604051908152f35b503461014d578060031936011261014d576040516370a0823160e01b81523060048201526020816024817f00000000000000000000000000000000000000000000000000000000000000006001600160a01b03165afa908115610b1c57829161181e575b602082604051908152f35b90506020813d821161184b575b816118386020938361190a565b8101031261143657602091505138611813565b3d915061182b565b9050346114365760203660031901126114365760043563ffffffff60e01b8116809103610b185760209250637965db0b60e01b8114908115611897575b5015158152f35b6301ffc9a760e01b14905038611890565b67ffffffffffffffff81116118bc57604052565b634e487b7160e01b600052604160045260246000fd5b6040810190811067ffffffffffffffff8211176118bc57604052565b6080810190811067ffffffffffffffff8211176118bc57604052565b90601f8019910116810190811067ffffffffffffffff8211176118bc57604052565b81601f82011215610f2c5780359067ffffffffffffffff82116118bc5760405192611961601f8401601f19166020018561190a565b82845260208383010111610f2c57816000926020809301838601378301015290565b6060600319820112610f2c576004359067ffffffffffffffff8211610f2c576119ae9160040161192c565b906024359060443590565b602435906001600160a01b0382168203610f2c57565b9060028210156119dc5752565b634e487b7160e01b600052602160045260246000fd5b67ffffffffffffffff81116118bc5760051b60200190565b81601f82011215610f2c57803591611a21836119f2565b92611a2f604051948561190a565b808452602092838086019260051b820101928311610f2c578301905b828210611a59575050505090565b81358152908301908301611a4b565b60005b838110611a7b5750506000910152565b8181015183820152602001611a6b565b3360009081527fd2ab5590e13796149578d90408f07f0b5f55ee8f798c846f3ab86a945782876a602090815260408083205490927f1bf5670104934bd8d8bc73cd160291f07ed7e53ca09b1861afec09dbc3a14e699160ff1615611aef5750505050565b611af833611ea2565b91845190611b05826118ee565b60428252848201926060368537825115611c8e5760308453825190600191821015611c8e5790607860218501536041915b818311611c2057505050611bde5760486114af938693611bc293611bb3985198899376020b1b1b2b9b9a1b7b73a3937b61d1030b1b1b7bab73a1604d1b8a860152611b8a815180928c603789019101611a68565b8401917001034b99036b4b9b9b4b733903937b6329607d1b603784015251809386840190611a68565b0103602881018752018561190a565b5192839262461bcd60e51b845260048401526024830190611dac565b60648486519062461bcd60e51b825280600483015260248201527f537472696e67733a20686578206c656e67746820696e73756666696369656e746044820152fd5b909192600f81166010811015611c7a576f181899199a1a9b1b9c1cb0b131b232b360811b901a611c508587611e7b565b5360041c928015611c6657600019019190611b36565b634e487b7160e01b82526011600452602482fd5b634e487b7160e01b83526032600452602483fd5b634e487b7160e01b81526032600452602490fd5b600090808252602090828252604092838120338252835260ff848220541615611ccb5750505050565b611cd433611ea2565b91845190611ce1826118ee565b60428252848201926060368537825115611c8e5760308453825190600191821015611c8e5790607860218501536041915b818311611d6657505050611bde5760486114af938693611bc293611bb3985198899376020b1b1b2b9b9a1b7b73a3937b61d1030b1b1b7bab73a1604d1b8a860152611b8a815180928c603789019101611a68565b909192600f81166010811015611c7a576f181899199a1a9b1b9c1cb0b131b232b360811b901a611d968587611e7b565b5360041c928015611c6657600019019190611d12565b90602091611dc581518092818552858086019101611a68565b601f01601f1916010190565b9060009180835282602052604083209160018060a01b03169182845260205260ff604084205416611e0157505050565b80835282602052604083208284526020526040832060ff1981541690557ff6391f5c32d9c69d2a47ea670b442974b53935d1edc7fd64eb21e047a839171b339380a4565b81810292918115918404141715611e5857565b634e487b7160e01b600052601160045260246000fd5b91908201809211611e5857565b908151811015611e8c570160200190565b634e487b7160e01b600052603260045260246000fd5b604051906060820182811067ffffffffffffffff8211176118bc57604052602a8252602082016040368237825115611e8c57603090538151600190811015611e8c57607860218401536029905b808211611f43575050611eff5790565b606460405162461bcd60e51b815260206004820152602060248201527f537472696e67733a20686578206c656e67746820696e73756666696369656e746044820152fd5b9091600f81166010811015611f9c576f181899199a1a9b1b9c1cb0b131b232b360811b901a611f728486611e7b565b5360041c918015611f87576000190190611eef565b60246000634e487b7160e01b81526011600452fd5b60246000634e487b7160e01b81526032600452fd5b60405190611fbe826118d2565b6006825265185b5bdd5b9d60d21b6020830152565b60405190611fe0826118d2565b60088252671b5bd9195b08125160c21b6020830152565b90816020910312610f2c57518015158103610f2c5790565b1561201657565b60405162461bcd60e51b8152602060048201526013602482015272141bdbdb08191bd95cc81b9bdd08195e1a5cdd606a1b6044820152606490fd5b90816020910312610f2c57516001600160a01b0381168103610f2c5790565b1561207757565b60405162461bcd60e51b8152602060048201526014602482015273135bd9195b081a5cc819195858dd1a5d985d195960621b6044820152606490fd5b156120ba57565b60405162461bcd60e51b815260206004820152600f60248201526e151c985b9cd9995c8819985a5b1959608a1b6044820152606490fd5b61210990602060405192828480945193849201611a68565b810103902090565b909594929361213a9460809360a0840198845260208401526040830152606082015201906119cf565b565b60026001541461214d576002600155565b60405162461bcd60e51b815260206004820152601f60248201527f5265656e7472616e637947756172643a207265656e7472616e742063616c6c006044820152606490fd5b6000198114611e585760010190565b8051821015611e8c5760209160051b010190565b90816020910312610f2c575161ffff81168103610f2c5790565b91908203918211611e5857565b6040805163d87f2a3360e01b815260206004808301829052949695949193846122086024820183611dac565b6001600160a01b039291849188919003817f000000000000000000000000000000000000000000000000000000000000000086165afa95861561241a5760009661246c575b50851561228b5750505050506103e89161226691611e45565b0482811115612282575061227c825b80936121cf565b90600090565b61227c90612275565b9193955091935084516320ebd81360e11b815283858201528381806122b36024820186611dac565b0381867f0000000000000000000000000000000000000000000000000000000000000000165afa90811561244457839291859160009161244f575b5086885180958193630a9c26c560e21b8352165afa918215612444578392859261233c92600092612425575b508851948580948193638097587160e01b8352878c8401526024830190611dac565b0392165afa90811561241a576000916123fd575b501680156123c9578190845193848092636dbbaf9f60e11b82525afa9283156123bf575061ffff61239c9361271093612394936000926123a2575b50501685611e45565b0480936121cf565b90600190565b6123b89250803d1061172657611717818361190a565b388061238b565b513d6000823e3d90fd5b50606492519162461bcd60e51b8352820152601060248201526f14185c985b5cc81b9bdd08199bdd5b9960821b6044820152fd5b6124149150833d85116105195761050b818361190a565b38612350565b85513d6000823e3d90fd5b61243d919250843d86116105195761050b818361190a565b903861231a565b86513d6000823e3d90fd5b6124669150823d84116105195761050b818361190a565b386122ee565b90958382813d8311612494575b612483818361190a565b8101031261014d575051943861224d565b503d612479565b156124a35750565b60405163589956a560e11b8152602060048201529081906114af906024830190611dac565b51156124d15750565b6040516318a996bb60e21b8152602060048201529081906114af906024830190611dac565b90808203612502575050565b6044925060405191631f4bb7c160e31b835260048301526024820152fdfea2646970667358221220ae13c99e0fb54eaabec5b0e35130d089b112f0c6bce285929e6414f377ad252a64736f6c634300081400332f8788117e7eff1d82e926ec794901d17c78024a50270940304540a733656f0d",
  "linkReferences": {},
  "deployedLinkReferences": {}
}